{
  "_format": "hh-sol-artifact-1",
  "contractName": "FDCStaking",
  "sourceName": "contracts/FDC.sol",
  "abi": [
    {
      "anonymous": false,
      "inputs": [
        {
          "indexed": false,
          "internalType": "string",
          "name": "return_msg",
          "type": "string"
        },
        {
          "indexed": false,
          "internalType": "uint256",
          "name": "policyId",
          "type": "uint256"
        },
        {
          "indexed": false,
          "internalType": "string",
          "name": "userId",
          "type": "string"
        },
        {
          "indexed": false,
          "internalType": "uint256",
          "name": "premiumAmount",
          "type": "uint256"
        }
      ],
      "name": "CompensationPremiumPaid",
      "type": "event"
    },
    {
      "anonymous": false,
      "inputs": [
        {
          "indexed": false,
          "internalType": "uint8",
          "name": "version",
          "type": "uint8"
        }
      ],
      "name": "Initialized",
      "type": "event"
    },
    {
      "anonymous": false,
      "inputs": [
        {
          "indexed": true,
          "internalType": "bytes32",
          "name": "id",
          "type": "bytes32"
        }
      ],
      "name": "PluginCancelled",
      "type": "event"
    },
    {
      "anonymous": false,
      "inputs": [
        {
          "indexed": true,
          "internalType": "bytes32",
          "name": "id",
          "type": "bytes32"
        }
      ],
      "name": "PluginFulfilled",
      "type": "event"
    },
    {
      "anonymous": false,
      "inputs": [
        {
          "indexed": true,
          "internalType": "bytes32",
          "name": "id",
          "type": "bytes32"
        }
      ],
      "name": "PluginRequested",
      "type": "event"
    },
    {
      "inputs": [],
      "name": "contractOwner",
      "outputs": [
        {
          "internalType": "address",
          "name": "",
          "type": "address"
        }
      ],
      "stateMutability": "view",
      "type": "function"
    },
    {
      "inputs": [
        {
          "internalType": "string",
          "name": "_userId",
          "type": "string"
        },
        {
          "internalType": "string",
          "name": "_packageId",
          "type": "string"
        },
        {
          "internalType": "address",
          "name": "_signerAddress",
          "type": "address"
        },
        {
          "internalType": "uint256",
          "name": "_premiumAmount",
          "type": "uint256"
        }
      ],
      "name": "delayCompensation",
      "outputs": [
        {
          "internalType": "uint256",
          "name": "_policyId",
          "type": "uint256"
        },
        {
          "internalType": "bool",
          "name": "_response",
          "type": "bool"
        }
      ],
      "stateMutability": "nonpayable",
      "type": "function"
    },
    {
      "inputs": [
        {
          "internalType": "address",
          "name": "_pli",
          "type": "address"
        }
      ],
      "name": "initialize",
      "outputs": [],
      "stateMutability": "nonpayable",
      "type": "function"
    },
    {
      "inputs": [
        {
          "internalType": "uint256",
          "name": "",
          "type": "uint256"
        }
      ],
      "name": "passengerCompDetails",
      "outputs": [
        {
          "internalType": "uint256",
          "name": "policyid",
          "type": "uint256"
        },
        {
          "internalType": "uint256",
          "name": "policyAmount",
          "type": "uint256"
        },
        {
          "internalType": "address",
          "name": "signerAddress",
          "type": "address"
        },
        {
          "internalType": "string",
          "name": "userId",
          "type": "string"
        },
        {
          "internalType": "string",
          "name": "packageId",
          "type": "string"
        }
      ],
      "stateMutability": "view",
      "type": "function"
    },
    {
      "inputs": [],
      "name": "plugin",
      "outputs": [
        {
          "internalType": "address",
          "name": "",
          "type": "address"
        }
      ],
      "stateMutability": "view",
      "type": "function"
    }
  ],
  "bytecode": "0x6080604052600160045534801561001557600080fd5b506109b9806100256000396000f3fe608060405234801561001057600080fd5b50600436106100575760003560e01c80632b9d36e11461005c578063c4d66de814610089578063ce606ee01461009e578063ef01df4f146100c9578063f5e5c9ff146100dc575b600080fd5b61006f61006a366004610796565b610100565b604080519283529015156020830152015b60405180910390f35b61009c610097366004610755565b610377565b005b6009546100b1906001600160a01b031681565b6040516001600160a01b039091168152602001610080565b6008546100b1906001600160a01b031681565b6100ef6100ea36600461080f565b6104ce565b6040516100809594939291906108e7565b60008060006101176002546001600160a01b031690565b6040516370a0823160e01b815233600482015290915084906001600160a01b038316906370a082319060240160206040518083038186803b15801561015b57600080fd5b505afa15801561016f573d6000803e3d6000fd5b505050506040513d601f19601f820116820180604052508101906101939190610827565b116101f15760405162461bcd60e51b8152602060048201526024808201527f4e6f2073756666696369656e742062616c616e636520746f20506179207072656044820152636d69756d60e01b60648201526084015b60405180910390fd5b60006101fc60075490565b905061020c600780546001019055565b6040516323b872dd60e01b8152336004820152306024820152604481018690526001600160a01b038316906323b872dd90606401602060405180830381600087803b15801561025a57600080fd5b505af115801561026e573d6000803e3d6000fd5b505050506040513d601f19601f820116820180604052508101906102929190610776565b506040805160a08101825282815260208082018881526001600160a01b038a8116848601908152606085018e8152608086018e90526000888152600a8652969096208551815592516001840155516002830180546001600160a01b031916919092161790559251805192939261030e9260038501920190610619565b506080820151805161032a916004840191602090910190610619565b509050507f1dd88b35fbfecddc9bb29757a9c8c7529a1173c71094f6a58f6b0bd1e62c8afe8189876040516103619392919061088a565b60405180910390a1976001975095505050505050565b600654610100900460ff16158080156103975750600654600160ff909116105b806103b15750303b1580156103b1575060065460ff166001145b6104145760405162461bcd60e51b815260206004820152602e60248201527f496e697469616c697a61626c653a20636f6e747261637420697320616c72656160448201526d191e481a5b9a5d1a585b1a5e995960921b60648201526084016101e8565b6006805460ff191660011790558015610437576006805461ff0019166101001790555b600280546001600160a01b0319166001600160a01b03841617905560098054336001600160a01b031991821617909155600880549091166001600160a01b03841617905560078054600101905580156104ca576006805461ff0019169055604051600181527f7f26b83ff96e1f2b6a682f133852f6798a09c465da95921460cefb38474024989060200160405180910390a15b5050565b600a602052600090815260409020805460018201546002830154600384018054939492936001600160a01b03909216929161050890610932565b80601f016020809104026020016040519081016040528092919081815260200182805461053490610932565b80156105815780601f1061055657610100808354040283529160200191610581565b820191906000526020600020905b81548152906001019060200180831161056457829003601f168201915b50505050509080600401805461059690610932565b80601f01602080910402602001604051908101604052809291908181526020018280546105c290610932565b801561060f5780601f106105e45761010080835404028352916020019161060f565b820191906000526020600020905b8154815290600101906020018083116105f257829003601f168201915b5050505050905085565b82805461062590610932565b90600052602060002090601f016020900481019282610647576000855561068d565b82601f1061066057805160ff191683800117855561068d565b8280016001018555821561068d579182015b8281111561068d578251825591602001919060010190610672565b5061069992915061069d565b5090565b5b80821115610699576000815560010161069e565b80356001600160a01b03811681146106c957600080fd5b919050565b600082601f8301126106de578081fd5b813567ffffffffffffffff808211156106f9576106f961096d565b604051601f8301601f19908116603f011681019082821181831017156107215761072161096d565b81604052838152866020858801011115610739578485fd5b8360208701602083013792830160200193909352509392505050565b600060208284031215610766578081fd5b61076f826106b2565b9392505050565b600060208284031215610787578081fd5b8151801515811461076f578182fd5b600080600080608085870312156107ab578283fd5b843567ffffffffffffffff808211156107c2578485fd5b6107ce888389016106ce565b955060208701359150808211156107e3578485fd5b506107f0878288016106ce565b9350506107ff604086016106b2565b9396929550929360600135925050565b600060208284031215610820578081fd5b5035919050565b600060208284031215610838578081fd5b5051919050565b60008151808452815b8181101561086457602081850181015186830182015201610848565b818111156108755782602083870101525b50601f01601f19169290920160200192915050565b60808152601b60808201527f504c49207374616b656420666f7220436f6d70656e736174696f6e000000000060a082015283602082015260c0604082015260006108d760c083018561083f565b9050826060830152949350505050565b85815284602082015260018060a01b038416604082015260a06060820152600061091460a083018561083f565b8281036080840152610926818561083f565b98975050505050505050565b600181811c9082168061094657607f821691505b6020821081141561096757634e487b7160e01b600052602260045260246000fd5b50919050565b634e487b7160e01b600052604160045260246000fdfea264697066735822122060a385cab554e31e1006d2166812b0c2c22b16a572897cb01cd616dc55fd757d64736f6c63430008040033",
  "linkReferences": {},
  "deployedLinkReferences": {}
}