{
  "_format": "hh-sol-artifact-1",
  "contractName": "FDCReward",
  "sourceName": "contracts/FDCReward.sol",
  "abi": [
    {
      "anonymous": false,
      "inputs": [
        {
          "indexed": false,
          "internalType": "uint8",
          "name": "version",
          "type": "uint8"
        }
      ],
      "name": "Initialized",
      "type": "event"
    },
    {
      "anonymous": false,
      "inputs": [
        {
          "indexed": false,
          "internalType": "address",
          "name": "_owner",
          "type": "address"
        },
        {
          "indexed": false,
          "internalType": "address",
          "name": "_newOwner",
          "type": "address"
        }
      ],
      "name": "OwnershipTransferred",
      "type": "event"
    },
    {
      "anonymous": false,
      "inputs": [
        {
          "indexed": false,
          "internalType": "string",
          "name": "return_msg",
          "type": "string"
        },
        {
          "indexed": false,
          "internalType": "address",
          "name": "_to",
          "type": "address"
        },
        {
          "indexed": false,
          "internalType": "uint256",
          "name": "_tokens",
          "type": "uint256"
        },
        {
          "indexed": false,
          "internalType": "uint256",
          "name": "_date",
          "type": "uint256"
        }
      ],
      "name": "PaymentToUser",
      "type": "event"
    },
    {
      "anonymous": false,
      "inputs": [
        {
          "indexed": true,
          "internalType": "bytes32",
          "name": "id",
          "type": "bytes32"
        }
      ],
      "name": "PluginCancelled",
      "type": "event"
    },
    {
      "anonymous": false,
      "inputs": [
        {
          "indexed": true,
          "internalType": "bytes32",
          "name": "id",
          "type": "bytes32"
        }
      ],
      "name": "PluginFulfilled",
      "type": "event"
    },
    {
      "anonymous": false,
      "inputs": [
        {
          "indexed": true,
          "internalType": "bytes32",
          "name": "id",
          "type": "bytes32"
        }
      ],
      "name": "PluginRequested",
      "type": "event"
    },
    {
      "inputs": [
        {
          "internalType": "address[]",
          "name": "_to",
          "type": "address[]"
        },
        {
          "internalType": "uint256[]",
          "name": "_values",
          "type": "uint256[]"
        },
        {
          "internalType": "uint256[]",
          "name": "_dateno",
          "type": "uint256[]"
        }
      ],
      "name": "bulksendPLIReward",
      "outputs": [
        {
          "internalType": "bool",
          "name": "",
          "type": "bool"
        }
      ],
      "stateMutability": "nonpayable",
      "type": "function"
    },
    {
      "inputs": [],
      "name": "contractOwner",
      "outputs": [
        {
          "internalType": "address",
          "name": "",
          "type": "address"
        }
      ],
      "stateMutability": "view",
      "type": "function"
    },
    {
      "inputs": [
        {
          "internalType": "uint256",
          "name": "_amount",
          "type": "uint256"
        }
      ],
      "name": "depositPLI",
      "outputs": [],
      "stateMutability": "nonpayable",
      "type": "function"
    },
    {
      "inputs": [],
      "name": "getContractPLIBalance",
      "outputs": [
        {
          "internalType": "uint256",
          "name": "_pliInContract",
          "type": "uint256"
        }
      ],
      "stateMutability": "view",
      "type": "function"
    },
    {
      "inputs": [
        {
          "internalType": "address",
          "name": "_userAddress",
          "type": "address"
        },
        {
          "internalType": "uint256",
          "name": "_date",
          "type": "uint256"
        }
      ],
      "name": "getUserPaymentDetails",
      "outputs": [
        {
          "internalType": "uint256",
          "name": "_tokens",
          "type": "uint256"
        }
      ],
      "stateMutability": "view",
      "type": "function"
    },
    {
      "inputs": [
        {
          "internalType": "address",
          "name": "_pli",
          "type": "address"
        }
      ],
      "name": "initialize",
      "outputs": [],
      "stateMutability": "nonpayable",
      "type": "function"
    },
    {
      "inputs": [],
      "name": "name",
      "outputs": [
        {
          "internalType": "string",
          "name": "",
          "type": "string"
        }
      ],
      "stateMutability": "view",
      "type": "function"
    },
    {
      "inputs": [],
      "name": "plugin",
      "outputs": [
        {
          "internalType": "address",
          "name": "",
          "type": "address"
        }
      ],
      "stateMutability": "view",
      "type": "function"
    },
    {
      "inputs": [
        {
          "internalType": "address",
          "name": "_to",
          "type": "address"
        },
        {
          "internalType": "uint256",
          "name": "_values",
          "type": "uint256"
        },
        {
          "internalType": "uint256",
          "name": "_dateno",
          "type": "uint256"
        }
      ],
      "name": "sendPLIReward",
      "outputs": [],
      "stateMutability": "nonpayable",
      "type": "function"
    },
    {
      "inputs": [
        {
          "internalType": "address",
          "name": "_newOwneraddress",
          "type": "address"
        }
      ],
      "name": "transferContractOwnership",
      "outputs": [],
      "stateMutability": "nonpayable",
      "type": "function"
    },
    {
      "inputs": [
        {
          "internalType": "uint256",
          "name": "",
          "type": "uint256"
        }
      ],
      "name": "users",
      "outputs": [
        {
          "internalType": "string",
          "name": "",
          "type": "string"
        }
      ],
      "stateMutability": "view",
      "type": "function"
    }
  ],
  "bytecode": "0x6080604052600160045534801561001557600080fd5b50610fc6806100256000396000f3fe608060405234801561001057600080fd5b50600436106100a95760003560e01c8063ce606ee011610071578063ce606ee01461014b578063d378d5eb14610176578063e6c1b00c14610189578063ef01df4f146101ac578063ef18696f146101bf578063f1cea459146101c757600080fd5b806306fdde03146100ae57806311464e60146100cc578063365b98b214610110578063a843c51f14610123578063c4d66de814610138575b600080fd5b6100b66101da565b6040516100c39190610e70565b60405180910390f35b6101026100da366004610ce1565b6001600160a01b03919091166000908152600a60209081526040808320938352929052205490565b6040519081526020016100c3565b6100b661011e366004610e40565b610268565b610136610131366004610cc0565b610293565b005b610136610146366004610cc0565b6102fb565b60085461015e906001600160a01b031681565b6040516001600160a01b0390911681526020016100c3565b610136610184366004610e40565b610476565b61019c610197366004610d3c565b610576565b60405190151581526020016100c3565b60075461015e906001600160a01b031681565b610102610976565b6101366101d5366004610d0a565b610a0b565b600680546101e790610f18565b80601f016020809104026020016040519081016040528092919081815260200182805461021390610f18565b80156102605780601f1061023557610100808354040283529160200191610260565b820191906000526020600020905b81548152906001019060200180831161024357829003601f168201915b505050505081565b6009818154811061027857600080fd5b9060005260206000200160009150905080546101e790610f18565b60085433906001600160a01b031681146102ee5760405162461bcd60e51b815260206004820152601760248201527629b2b73232b91034b9903737ba103a34329037bbb732b960491b60448201526064015b60405180910390fd5b6102f782610b20565b5050565b600054610100900460ff161580801561031b5750600054600160ff909116105b806103355750303b158015610335575060005460ff166001145b6103985760405162461bcd60e51b815260206004820152602e60248201527f496e697469616c697a61626c653a20636f6e747261637420697320616c72656160448201526d191e481a5b9a5d1a585b1a5e995960921b60648201526084016102e5565b6000805460ff1916600117905580156103bb576000805461ff0019166101001790555b6040805180820190915260198082527f466c696768742044656c617920436f6d70656e736174696f6e0000000000000060209092019182526103ff91600691610b9c565b50600280546001600160a01b0319166001600160a01b038416179055600880546001600160a01b0319163317905580156102f7576000805461ff0019169055604051600181527f7f26b83ff96e1f2b6a682f133852f6798a09c465da95921460cefb38474024989060200160405180910390a15050565b600081116104d45760405162461bcd60e51b815260206004820152602560248201527f4465706f73697420416d6f756e74206d75737420626520677265617465722074604482015264068616e20360dc1b60648201526084016102e5565b60006104e86002546001600160a01b031690565b6040516323b872dd60e01b8152336004820152306024820152604481018490529091506001600160a01b038216906323b872dd90606401602060405180830381600087803b15801561053957600080fd5b505af115801561054d573d6000803e3d6000fd5b505050506040513d601f19601f820116820180604052508101906105719190610e20565b505050565b60085460009033906001600160a01b031681146105cf5760405162461bcd60e51b815260206004820152601760248201527629b2b73232b91034b9903737ba103a34329037bbb732b960491b60448201526064016102e5565b83518551146105dd57600080fd5b60ff855111156105ec57600080fd5b60006106006002546001600160a01b031690565b6040516370a0823160e01b81523060048201529091506000906001600160a01b038316906370a082319060240160206040518083038186803b15801561064557600080fd5b505afa158015610659573d6000803e3d6000fd5b505050506040513d601f19601f8201168201806040525081019061067d9190610e58565b905060005b8751811015610966578681815181106106ab57634e487b7160e01b600052603260045260246000fd5b6020026020010151821061094857826001600160a01b031663a9059cbb8983815181106106e857634e487b7160e01b600052603260045260246000fd5b602002602001015189848151811061071057634e487b7160e01b600052603260045260246000fd5b60200260200101516040518363ffffffff1660e01b81526004016107499291906001600160a01b03929092168252602082015260400190565b602060405180830381600087803b15801561076357600080fd5b505af1158015610777573d6000803e3d6000fd5b505050506040513d601f19601f8201168201806040525081019061079b9190610e20565b508681815181106107bc57634e487b7160e01b600052603260045260246000fd5b6020026020010151600a60008a84815181106107e857634e487b7160e01b600052603260045260246000fd5b60200260200101516001600160a01b03166001600160a01b03168152602001908152602001600020600088848151811061083257634e487b7160e01b600052603260045260246000fd5b60200260200101518152602001908152602001600020819055507fe41918a14e1de513c95958bda6068a2900486df5b66335bd80b2c06836063be288828151811061088d57634e487b7160e01b600052603260045260246000fd5b60200260200101518883815181106108b557634e487b7160e01b600052603260045260246000fd5b60200260200101518884815181106108dd57634e487b7160e01b600052603260045260246000fd5b602002602001015160405161093b939291906080808252601490820152732830bcb6b2b73a1036b0b232903a37903ab9b2b960611b60a08201526001600160a01b039390931660208401526040830191909152606082015260c00190565b60405180910390a1610954565b6000945050505061096e565b8061095e81610f53565b915050610682565b506001935050505b509392505050565b60008061098b6002546001600160a01b031690565b6040516370a0823160e01b81523060048201529091506001600160a01b038216906370a082319060240160206040518083038186803b1580156109cd57600080fd5b505afa1580156109e1573d6000803e3d6000fd5b505050506040513d601f19601f82011682018060405250810190610a059190610e58565b91505090565b60008211610a5b5760405162461bcd60e51b815260206004820152601d60248201527f526577617264206d7573742062652067726561746572207468616e203000000060448201526064016102e5565b6000610a6f6002546001600160a01b031690565b60405163a9059cbb60e01b81526001600160a01b038681166004830152602482018690529192509082169063a9059cbb90604401602060405180830381600087803b158015610abd57600080fd5b505af1158015610ad1573d6000803e3d6000fd5b505050506040513d601f19601f82011682018060405250810190610af59190610e20565b50506001600160a01b039092166000908152600a602090815260408083209483529390529190912055565b6001600160a01b038116610b3357600080fd5b600854604080516001600160a01b03928316815291831660208301527f8be0079c531659141344cd1fd0a4f28419497f9722a3daafe3b4186f6b6457e0910160405180910390a1600880546001600160a01b0319166001600160a01b0392909216919091179055565b828054610ba890610f18565b90600052602060002090601f016020900481019282610bca5760008555610c10565b82601f10610be357805160ff1916838001178555610c10565b82800160010185558215610c10579182015b82811115610c10578251825591602001919060010190610bf5565b50610c1c929150610c20565b5090565b5b80821115610c1c5760008155600101610c21565b80356001600160a01b0381168114610c4c57600080fd5b919050565b600082601f830112610c61578081fd5b81356020610c76610c7183610ef4565b610ec3565b80838252828201915082860187848660051b8901011115610c95578586fd5b855b85811015610cb357813584529284019290840190600101610c97565b5090979650505050505050565b600060208284031215610cd1578081fd5b610cda82610c35565b9392505050565b60008060408385031215610cf3578081fd5b610cfc83610c35565b946020939093013593505050565b600080600060608486031215610d1e578081fd5b610d2784610c35565b95602085013595506040909401359392505050565b600080600060608486031215610d50578283fd5b833567ffffffffffffffff80821115610d67578485fd5b818601915086601f830112610d7a578485fd5b81356020610d8a610c7183610ef4565b8083825282820191508286018b848660051b8901011115610da957898afd5b8996505b84871015610dd257610dbe81610c35565b835260019690960195918301918301610dad565b5097505087013592505080821115610de8578384fd5b610df487838801610c51565b93506040860135915080821115610e09578283fd5b50610e1686828701610c51565b9150509250925092565b600060208284031215610e31578081fd5b81518015158114610cda578182fd5b600060208284031215610e51578081fd5b5035919050565b600060208284031215610e69578081fd5b5051919050565b6000602080835283518082850152825b81811015610e9c57858101830151858201604001528201610e80565b81811115610ead5783604083870101525b50601f01601f1916929092016040019392505050565b604051601f8201601f1916810167ffffffffffffffff81118282101715610eec57610eec610f7a565b604052919050565b600067ffffffffffffffff821115610f0e57610f0e610f7a565b5060051b60200190565b600181811c90821680610f2c57607f821691505b60208210811415610f4d57634e487b7160e01b600052602260045260246000fd5b50919050565b6000600019821415610f7357634e487b7160e01b81526011600452602481fd5b5060010190565b634e487b7160e01b600052604160045260246000fdfea2646970667358221220e30fbde75ea17964a43668682158cfc972b5ae773908851dc904acefc634313c64736f6c63430008040033",
  "linkReferences": {},
  "deployedLinkReferences": {}
}