{
  "_format": "hh-sol-artifact-1",
  "contractName": "flightDelayCompensationPayment",
  "sourceName": "contracts/FlightDelayCompensationPayment.sol",
  "abi": [
    {
      "constant": true,
      "inputs": [],
      "name": "name",
      "outputs": [
        {
          "name": "",
          "type": "string"
        }
      ],
      "payable": false,
      "stateMutability": "view",
      "type": "function"
    },
    {
      "constant": true,
      "inputs": [
        {
          "name": "_userAddress",
          "type": "address"
        },
        {
          "name": "_date",
          "type": "uint256"
        }
      ],
      "name": "getUserPaymentDetails",
      "outputs": [
        {
          "name": "_tokens",
          "type": "uint256"
        }
      ],
      "payable": false,
      "stateMutability": "view",
      "type": "function"
    },
    {
      "constant": true,
      "inputs": [
        {
          "name": "",
          "type": "uint256"
        }
      ],
      "name": "users",
      "outputs": [
        {
          "name": "",
          "type": "string"
        }
      ],
      "payable": false,
      "stateMutability": "view",
      "type": "function"
    },
    {
      "constant": false,
      "inputs": [
        {
          "name": "_newOwneraddress",
          "type": "address"
        }
      ],
      "name": "transferContractOwnership",
      "outputs": [],
      "payable": false,
      "stateMutability": "nonpayable",
      "type": "function"
    },
    {
      "constant": true,
      "inputs": [],
      "name": "contractOwner",
      "outputs": [
        {
          "name": "",
          "type": "address"
        }
      ],
      "payable": false,
      "stateMutability": "view",
      "type": "function"
    },
    {
      "constant": false,
      "inputs": [
        {
          "name": "_amount",
          "type": "uint256"
        }
      ],
      "name": "depositPLI",
      "outputs": [],
      "payable": false,
      "stateMutability": "nonpayable",
      "type": "function"
    },
    {
      "constant": false,
      "inputs": [
        {
          "name": "_to",
          "type": "address[]"
        },
        {
          "name": "_values",
          "type": "uint256[]"
        },
        {
          "name": "_dateno",
          "type": "uint256[]"
        }
      ],
      "name": "bulksendPLIReward",
      "outputs": [
        {
          "name": "",
          "type": "bool"
        }
      ],
      "payable": false,
      "stateMutability": "nonpayable",
      "type": "function"
    },
    {
      "constant": true,
      "inputs": [],
      "name": "plugin",
      "outputs": [
        {
          "name": "",
          "type": "address"
        }
      ],
      "payable": false,
      "stateMutability": "view",
      "type": "function"
    },
    {
      "constant": true,
      "inputs": [],
      "name": "getContractPLIBalance",
      "outputs": [
        {
          "name": "_pliInContract",
          "type": "uint256"
        }
      ],
      "payable": false,
      "stateMutability": "view",
      "type": "function"
    },
    {
      "constant": false,
      "inputs": [
        {
          "name": "_to",
          "type": "address"
        },
        {
          "name": "_values",
          "type": "uint256"
        },
        {
          "name": "_dateno",
          "type": "uint256"
        }
      ],
      "name": "sendPLIReward",
      "outputs": [],
      "payable": false,
      "stateMutability": "nonpayable",
      "type": "function"
    },
    {
      "inputs": [
        {
          "name": "_pluginToken",
          "type": "address"
        }
      ],
      "payable": false,
      "stateMutability": "nonpayable",
      "type": "constructor"
    },
    {
      "anonymous": false,
      "inputs": [
        {
          "indexed": false,
          "name": "_owner",
          "type": "address"
        },
        {
          "indexed": false,
          "name": "_newOwner",
          "type": "address"
        }
      ],
      "name": "OwnershipTransferred",
      "type": "event"
    },
    {
      "anonymous": false,
      "inputs": [
        {
          "indexed": false,
          "name": "return_msg",
          "type": "string"
        },
        {
          "indexed": false,
          "name": "_to",
          "type": "address"
        },
        {
          "indexed": false,
          "name": "_tokens",
          "type": "uint256"
        },
        {
          "indexed": false,
          "name": "_date",
          "type": "uint256"
        }
      ],
      "name": "PaymentToUser",
      "type": "event"
    },
    {
      "anonymous": false,
      "inputs": [
        {
          "indexed": true,
          "name": "id",
          "type": "bytes32"
        }
      ],
      "name": "PluginRequested",
      "type": "event"
    },
    {
      "anonymous": false,
      "inputs": [
        {
          "indexed": true,
          "name": "id",
          "type": "bytes32"
        }
      ],
      "name": "PluginFulfilled",
      "type": "event"
    },
    {
      "anonymous": false,
      "inputs": [
        {
          "indexed": true,
          "name": "id",
          "type": "bytes32"
        }
      ],
      "name": "PluginCancelled",
      "type": "event"
    }
  ],
  "bytecode": "0x6080604052600160045534801561001557600080fd5b50604051602080610d48833981016040818152915182820190925260198082527f466c696768742044656c617920436f6d70656e736174696f6e00000000000000602090920191825261006a916006916100b7565b5061007d81640100000000610095810204565b5060088054600160a060020a03191633179055610152565b60028054600160a060020a031916600160a060020a0392909216919091179055565b828054600181600116156101000203166002900490600052602060002090601f016020900481019282601f106100f857805160ff1916838001178555610125565b82800160010185558215610125579182015b8281111561012557825182559160200191906001019061010a565b50610131929150610135565b5090565b61014f91905b80821115610131576000815560010161013b565b90565b610be7806101616000396000f30060806040526004361061008a5763ffffffff60e060020a60003504166306fdde03811461008f57806311464e6014610119578063365b98b21461014f578063a843c51f14610167578063ce606ee01461018a578063d378d5eb146101bb578063e6c1b00c146101d3578063ef01df4f146102ae578063ef18696f146102c3578063f1cea459146102d8575b600080fd5b34801561009b57600080fd5b506100a46102ff565b6040805160208082528351818301528351919283929083019185019080838360005b838110156100de5781810151838201526020016100c6565b50505050905090810190601f16801561010b5780820380516001836020036101000a031916815260200191505b509250505060405180910390f35b34801561012557600080fd5b5061013d600160a060020a036004351660243561038d565b60408051918252519081900360200190f35b34801561015b57600080fd5b506100a46004356103b5565b34801561017357600080fd5b50610188600160a060020a0360043516610429565b005b34801561019657600080fd5b5061019f61049a565b60408051600160a060020a039092168252519081900360200190f35b3480156101c757600080fd5b506101886004356104a9565b3480156101df57600080fd5b506040805160206004803580820135838102808601850190965280855261029a95369593946024949385019291829185019084908082843750506040805187358901803560208181028481018201909552818452989b9a998901989297509082019550935083925085019084908082843750506040805187358901803560208181028481018201909552818452989b9a9989019892975090820195509350839250850190849080828437509497506105d29650505050505050565b604080519115158252519081900360200190f35b3480156102ba57600080fd5b5061019f610953565b3480156102cf57600080fd5b5061013d610962565b3480156102e457600080fd5b50610188600160a060020a0360043516602435604435610a04565b6006805460408051602060026001851615610100026000190190941693909304601f810184900484028201840190925281815292918301828280156103855780601f1061035a57610100808354040283529160200191610385565b820191906000526020600020905b81548152906001019060200180831161036857829003601f168201915b505050505081565b600160a060020a03919091166000908152600a60209081526040808320938352929052205490565b60098054829081106103c357fe5b600091825260209182902001805460408051601f60026000196101006001871615020190941693909304928301859004850281018501909152818152935090918301828280156103855780601f1061035a57610100808354040283529160200191610385565b6008543390600160a060020a0316811461048d576040805160e560020a62461bcd02815260206004820152601760248201527f53656e646572206973206e6f7420746865206f776e6572000000000000000000604482015290519081900360640190fd5b61049682610b20565b5050565b600854600160a060020a031681565b6000808211610528576040805160e560020a62461bcd02815260206004820152602560248201527f4465706f73697420416d6f756e74206d7573742062652067726561746572207460448201527f68616e2030000000000000000000000000000000000000000000000000000000606482015290519081900360840190fd5b610530610bac565b604080517f23b872dd000000000000000000000000000000000000000000000000000000008152336004820152306024820152604481018590529051919250600160a060020a038316916323b872dd916064808201926020929091908290030181600087803b1580156105a257600080fd5b505af11580156105b6573d6000803e3d6000fd5b505050506040513d60208110156105cc57600080fd5b50505050565b6008546000908190819081903390600160a060020a0316811461063f576040805160e560020a62461bcd02815260206004820152601760248201527f53656e646572206973206e6f7420746865206f776e6572000000000000000000604482015290519081900360640190fd5b865188511461064d57600080fd5b875160ff101561065c57600080fd5b610664610bac565b604080517f70a082310000000000000000000000000000000000000000000000000000000081523060048201529051919550600160a060020a038616916370a08231916024808201926020929091908290030181600087803b1580156106c957600080fd5b505af11580156106dd573d6000803e3d6000fd5b505050506040513d60208110156106f357600080fd5b50519250600091505b875182101561094357868281518110151561071357fe5b60209081029091010151831061092f5783600160a060020a031663a9059cbb898481518110151561074057fe5b90602001906020020151898581518110151561075857fe5b906020019060200201516040518363ffffffff1660e060020a0281526004018083600160a060020a0316600160a060020a0316815260200182815260200192505050602060405180830381600087803b1580156107b457600080fd5b505af11580156107c8573d6000803e3d6000fd5b505050506040513d60208110156107de57600080fd5b505086518790839081106107ee57fe5b90602001906020020151600a60008a8581518110151561080a57fe5b90602001906020020151600160a060020a0316600160a060020a031681526020019081526020016000206000888581518110151561084457fe5b906020019060200201518152602001908152602001600020819055507fe41918a14e1de513c95958bda6068a2900486df5b66335bd80b2c06836063be2888381518110151561088f57fe5b9060200190602002015188848151811015156108a757fe5b9060200190602002015188858151811015156108bf57fe5b602090810290910181015160408051600160a060020a039095169285019290925283820192909252606083019190915260808083526014908301527f5061796d656e74206d61646520746f207573657200000000000000000000000060a0830152519081900360c00190a1610938565b60009450610948565b6001909101906106fc565b600194505b505050509392505050565b600754600160a060020a031681565b60008061096d610bac565b604080517f70a082310000000000000000000000000000000000000000000000000000000081523060048201529051919250600160a060020a038316916370a08231916024808201926020929091908290030181600087803b1580156109d257600080fd5b505af11580156109e6573d6000803e3d6000fd5b505050506040513d60208110156109fc57600080fd5b505191505090565b6000808311610a5d576040805160e560020a62461bcd02815260206004820152601d60248201527f526577617264206d7573742062652067726561746572207468616e2030000000604482015290519081900360640190fd5b610a65610bac565b905080600160a060020a031663a9059cbb85856040518363ffffffff1660e060020a0281526004018083600160a060020a0316600160a060020a0316815260200182815260200192505050602060405180830381600087803b158015610aca57600080fd5b505af1158015610ade573d6000803e3d6000fd5b505050506040513d6020811015610af457600080fd5b505050600160a060020a039092166000908152600a602090815260408083209483529390529190912055565b600160a060020a0381161515610b3557600080fd5b60085460408051600160a060020a039283168152918316602083015280517f8be0079c531659141344cd1fd0a4f28419497f9722a3daafe3b4186f6b6457e09281900390910190a16008805473ffffffffffffffffffffffffffffffffffffffff1916600160a060020a0392909216919091179055565b600254600160a060020a0316905600a165627a7a7230582011c366ba962a421356b176b1b8b16f15783497321a0f93e7ad74e20bcd81938c0029",
  "linkReferences": {},
  "deployedLinkReferences": {}
}