{
	"contracts/FlightDelayInsurance.sol": {
		"FlightDelayInsurance": {
			"abi": [
				{
					"inputs": [
						{
							"internalType": "address",
							"name": "_pli",
							"type": "address"
						}
					],
					"stateMutability": "nonpayable",
					"type": "constructor"
				},
				{
					"anonymous": false,
					"inputs": [
						{
							"indexed": false,
							"internalType": "uint256",
							"name": "flightId",
							"type": "uint256"
						},
						{
							"indexed": false,
							"internalType": "string",
							"name": "eventType",
							"type": "string"
						},
						{
							"indexed": false,
							"internalType": "address",
							"name": "flight",
							"type": "address"
						},
						{
							"indexed": false,
							"internalType": "address",
							"name": "performedBy",
							"type": "address"
						},
						{
							"indexed": false,
							"internalType": "uint256",
							"name": "performedOn",
							"type": "uint256"
						}
					],
					"name": "FlightEvents",
					"type": "event"
				},
				{
					"anonymous": false,
					"inputs": [
						{
							"indexed": false,
							"internalType": "uint256",
							"name": "insuranceid",
							"type": "uint256"
						},
						{
							"indexed": false,
							"internalType": "string",
							"name": "eventType",
							"type": "string"
						},
						{
							"indexed": false,
							"internalType": "address",
							"name": "passenger",
							"type": "address"
						},
						{
							"indexed": false,
							"internalType": "address",
							"name": "performedBy",
							"type": "address"
						},
						{
							"indexed": false,
							"internalType": "uint256",
							"name": "performedOn",
							"type": "uint256"
						}
					],
					"name": "InsuranceEvents",
					"type": "event"
				},
				{
					"anonymous": false,
					"inputs": [
						{
							"indexed": true,
							"internalType": "bytes32",
							"name": "id",
							"type": "bytes32"
						}
					],
					"name": "PluginCancelled",
					"type": "event"
				},
				{
					"anonymous": false,
					"inputs": [
						{
							"indexed": true,
							"internalType": "bytes32",
							"name": "id",
							"type": "bytes32"
						}
					],
					"name": "PluginFulfilled",
					"type": "event"
				},
				{
					"anonymous": false,
					"inputs": [
						{
							"indexed": true,
							"internalType": "bytes32",
							"name": "id",
							"type": "bytes32"
						}
					],
					"name": "PluginRequested",
					"type": "event"
				},
				{
					"anonymous": false,
					"inputs": [
						{
							"indexed": true,
							"internalType": "bytes32",
							"name": "requestId",
							"type": "bytes32"
						},
						{
							"indexed": true,
							"internalType": "uint256",
							"name": "otp",
							"type": "uint256"
						}
					],
					"name": "RequestPermissionFulfilled",
					"type": "event"
				},
				{
					"anonymous": false,
					"inputs": [
						{
							"indexed": true,
							"internalType": "address",
							"name": "requester",
							"type": "address"
						},
						{
							"indexed": true,
							"internalType": "bytes32",
							"name": "jobId",
							"type": "bytes32"
						},
						{
							"indexed": true,
							"internalType": "bytes32",
							"name": "requestId",
							"type": "bytes32"
						}
					],
					"name": "requestCreated",
					"type": "event"
				},
				{
					"inputs": [
						{
							"internalType": "address",
							"name": "_passengerAddress",
							"type": "address"
						},
						{
							"internalType": "bytes32",
							"name": "_carrierFlightNumber",
							"type": "bytes32"
						},
						{
							"internalType": "uint256",
							"name": "_departureOn",
							"type": "uint256"
						},
						{
							"internalType": "uint256",
							"name": "_arrivalOn",
							"type": "uint256"
						},
						{
							"internalType": "uint256",
							"name": "_travelday",
							"type": "uint256"
						}
					],
					"name": "bookInsurance",
					"outputs": [
						{
							"internalType": "uint256",
							"name": "",
							"type": "uint256"
						}
					],
					"stateMutability": "nonpayable",
					"type": "function"
				},
				{
					"inputs": [
						{
							"internalType": "uint256",
							"name": "",
							"type": "uint256"
						},
						{
							"internalType": "address",
							"name": "",
							"type": "address"
						}
					],
					"name": "claimRequest",
					"outputs": [
						{
							"internalType": "bytes32",
							"name": "",
							"type": "bytes32"
						}
					],
					"stateMutability": "view",
					"type": "function"
				},
				{
					"inputs": [
						{
							"internalType": "bytes32",
							"name": "",
							"type": "bytes32"
						}
					],
					"name": "claims",
					"outputs": [
						{
							"internalType": "uint256",
							"name": "polictyid",
							"type": "uint256"
						},
						{
							"internalType": "address",
							"name": "passenger",
							"type": "address"
						},
						{
							"internalType": "bytes32",
							"name": "carrierFlightNumber",
							"type": "bytes32"
						},
						{
							"internalType": "uint256",
							"name": "departureOn",
							"type": "uint256"
						},
						{
							"internalType": "uint256",
							"name": "arrivalOn",
							"type": "uint256"
						},
						{
							"internalType": "uint256",
							"name": "bookedOn",
							"type": "uint256"
						},
						{
							"internalType": "enum IFlightStatus.FlightStatus",
							"name": "flightStatus",
							"type": "uint8"
						},
						{
							"internalType": "uint256",
							"name": "yearmonthdate",
							"type": "uint256"
						},
						{
							"internalType": "bool",
							"name": "processed",
							"type": "bool"
						}
					],
					"stateMutability": "view",
					"type": "function"
				},
				{
					"inputs": [
						{
							"internalType": "uint256",
							"name": "",
							"type": "uint256"
						},
						{
							"internalType": "address",
							"name": "",
							"type": "address"
						}
					],
					"name": "flights",
					"outputs": [
						{
							"internalType": "uint256",
							"name": "flightId",
							"type": "uint256"
						},
						{
							"internalType": "bytes32",
							"name": "carrierFlightNumber",
							"type": "bytes32"
						},
						{
							"internalType": "string",
							"name": "serviceProviderName",
							"type": "string"
						},
						{
							"internalType": "address",
							"name": "serviceProvider",
							"type": "address"
						},
						{
							"internalType": "uint256",
							"name": "registeredOn",
							"type": "uint256"
						},
						{
							"internalType": "address",
							"name": "registeredBy",
							"type": "address"
						}
					],
					"stateMutability": "view",
					"type": "function"
				},
				{
					"inputs": [
						{
							"internalType": "bytes32",
							"name": "_requestId",
							"type": "bytes32"
						},
						{
							"internalType": "enum IFlightStatus.FlightStatus",
							"name": "_flightStatus",
							"type": "uint8"
						}
					],
					"name": "fulfillClaimInquiry",
					"outputs": [],
					"stateMutability": "nonpayable",
					"type": "function"
				},
				{
					"inputs": [
						{
							"internalType": "uint256",
							"name": "",
							"type": "uint256"
						},
						{
							"internalType": "address",
							"name": "",
							"type": "address"
						}
					],
					"name": "insurances",
					"outputs": [
						{
							"internalType": "uint256",
							"name": "polictyid",
							"type": "uint256"
						},
						{
							"internalType": "address",
							"name": "passenger",
							"type": "address"
						},
						{
							"internalType": "bytes32",
							"name": "carrierFlightNumber",
							"type": "bytes32"
						},
						{
							"internalType": "uint256",
							"name": "departureOn",
							"type": "uint256"
						},
						{
							"internalType": "uint256",
							"name": "arrivalOn",
							"type": "uint256"
						},
						{
							"internalType": "uint256",
							"name": "bookedOn",
							"type": "uint256"
						},
						{
							"internalType": "enum IFlightStatus.FlightStatus",
							"name": "flightStatus",
							"type": "uint8"
						},
						{
							"internalType": "uint256",
							"name": "yearmonthdate",
							"type": "uint256"
						},
						{
							"internalType": "bool",
							"name": "processed",
							"type": "bool"
						}
					],
					"stateMutability": "view",
					"type": "function"
				},
				{
					"inputs": [],
					"name": "owner",
					"outputs": [
						{
							"internalType": "address",
							"name": "",
							"type": "address"
						}
					],
					"stateMutability": "view",
					"type": "function"
				},
				{
					"inputs": [
						{
							"internalType": "address",
							"name": "_flightAddress",
							"type": "address"
						},
						{
							"internalType": "bytes32",
							"name": "_carrierFlightNumber",
							"type": "bytes32"
						},
						{
							"internalType": "string",
							"name": "_serviceProviderName",
							"type": "string"
						}
					],
					"name": "registerFlights",
					"outputs": [
						{
							"internalType": "uint256",
							"name": "",
							"type": "uint256"
						}
					],
					"stateMutability": "nonpayable",
					"type": "function"
				},
				{
					"inputs": [
						{
							"internalType": "uint256",
							"name": "_insuranceid",
							"type": "uint256"
						},
						{
							"internalType": "address",
							"name": "_oracleAddress",
							"type": "address"
						},
						{
							"internalType": "string",
							"name": "_jobid",
							"type": "string"
						}
					],
					"name": "submitMyClaim",
					"outputs": [],
					"stateMutability": "nonpayable",
					"type": "function"
				}
			],
			"devdoc": {
				"kind": "dev",
				"methods": {},
				"version": 1
			},
			"evm": {
				"assembly": "    /* \"contracts/FlightDelayInsurance.sol\":208:4909  contract FlightDelayInsurance is PluginClient, IFlightStatus {... */\n  mstore(0x40, 0x80)\n    /* \"@goplugin/contracts/src/v0.8/PluginClient.sol\":1194:1195  1 */\n  0x01\n    /* \"@goplugin/contracts/src/v0.8/PluginClient.sol\":1163:1195  uint256 private requestCount = 1 */\n  0x04\n  sstore\n    /* \"contracts/FlightDelayInsurance.sol\":824:982  constructor(address _pli) {... */\n  callvalue\n  dup1\n  iszero\n  tag_1\n  jumpi\n  0x00\n  dup1\n  revert\ntag_1:\n  pop\n  mload(0x40)\n  sub(codesize, bytecodeSize)\n  dup1\n  bytecodeSize\n  dup4\n  codecopy\n  dup2\n  add\n  0x40\n  dup2\n  swap1\n  mstore\n  tag_2\n  swap2\n  tag_3\n  jump\t// in\ntag_2:\n    /* \"@goplugin/contracts/src/v0.8/PluginClient.sol\":7422:7425  pli */\n  0x02\n    /* \"@goplugin/contracts/src/v0.8/PluginClient.sol\":7422:7457  pli = PliTokenInterface(pliAddress) */\n  dup1\n  sload\n  not(sub(shl(0xa0, 0x01), 0x01))\n  and\n  sub(shl(0xa0, 0x01), 0x01)\n  dup4\n  and\n  or\n  swap1\n  sstore\n    /* \"contracts/FlightDelayInsurance.sol\":890:895  owner */\n  0x08\n    /* \"contracts/FlightDelayInsurance.sol\":890:908  owner = msg.sender */\n  dup1\n  sload\n    /* \"contracts/FlightDelayInsurance.sol\":898:908  msg.sender */\n  caller\n  not(sub(shl(0xa0, 0x01), 0x01))\n    /* \"contracts/FlightDelayInsurance.sol\":890:908  owner = msg.sender */\n  swap1\n  swap2\n  and\n  or\n  swap1\n  sstore\n    /* \"contracts/FlightDelayInsurance.sol\":918:940  _flightIds.increment() */\n  tag_8\n    /* \"contracts/FlightDelayInsurance.sol\":918:928  _flightIds */\n  0x06\n    /* \"contracts/FlightDelayInsurance.sol\":918:938  _flightIds.increment */\n  tag_9\n  0x20\n  swap1\n  dup2\n  shl\n  tag_0_57\n  or\n    /* \"contracts/FlightDelayInsurance.sol\":918:940  _flightIds.increment() */\n  swap1\n  shr\n  jump\t// in\ntag_8:\n    /* \"contracts/FlightDelayInsurance.sol\":950:975  _insuranceIds.increment() */\n  tag_10\n    /* \"contracts/FlightDelayInsurance.sol\":950:963  _insuranceIds */\n  0x07\n    /* \"contracts/FlightDelayInsurance.sol\":950:973  _insuranceIds.increment */\n  or(tag_0_57, shl(0x20, tag_9))\n    /* \"contracts/FlightDelayInsurance.sol\":950:975  _insuranceIds.increment() */\n  0x20\n  shr\n  jump\t// in\ntag_10:\n    /* \"contracts/FlightDelayInsurance.sol\":824:982  constructor(address _pli) {... */\n  pop\n    /* \"contracts/FlightDelayInsurance.sol\":208:4909  contract FlightDelayInsurance is PluginClient, IFlightStatus {... */\n  jump(tag_14)\n    /* \"CustomTokens/contracts/utils/Counters.sol\":945:1068  function increment(Counter storage counter) internal {... */\ntag_9:\n    /* \"CustomTokens/contracts/utils/Counters.sol\":1032:1051  counter._value += 1 */\n  dup1\n  sload\n    /* \"CustomTokens/contracts/utils/Counters.sol\":1050:1051  1 */\n  0x01\n    /* \"CustomTokens/contracts/utils/Counters.sol\":1032:1051  counter._value += 1 */\n  add\n  swap1\n  sstore\n    /* \"CustomTokens/contracts/utils/Counters.sol\":945:1068  function increment(Counter storage counter) internal {... */\n  jump\t// out\n    /* \"#utility.yul\":14:324   */\ntag_3:\n    /* \"#utility.yul\":84:90   */\n  0x00\n    /* \"#utility.yul\":137:139   */\n  0x20\n    /* \"#utility.yul\":125:134   */\n  dup3\n    /* \"#utility.yul\":116:123   */\n  dup5\n    /* \"#utility.yul\":112:135   */\n  sub\n    /* \"#utility.yul\":108:140   */\n  slt\n    /* \"#utility.yul\":105:107   */\n  iszero\n  tag_16\n  jumpi\n    /* \"#utility.yul\":158:164   */\n  dup1\n    /* \"#utility.yul\":150:156   */\n  dup2\n    /* \"#utility.yul\":143:165   */\n  revert\n    /* \"#utility.yul\":105:107   */\ntag_16:\n    /* \"#utility.yul\":189:205   */\n  dup2\n  mload\n  sub(shl(0xa0, 0x01), 0x01)\n    /* \"#utility.yul\":234:265   */\n  dup2\n  and\n    /* \"#utility.yul\":224:266   */\n  dup2\n  eq\n    /* \"#utility.yul\":214:216   */\n  tag_17\n  jumpi\n    /* \"#utility.yul\":285:291   */\n  dup2\n    /* \"#utility.yul\":277:283   */\n  dup3\n    /* \"#utility.yul\":270:292   */\n  revert\n    /* \"#utility.yul\":214:216   */\ntag_17:\n    /* \"#utility.yul\":313:318   */\n  swap4\n    /* \"#utility.yul\":95:324   */\n  swap3\n  pop\n  pop\n  pop\n  jump\t// out\ntag_14:\n    /* \"contracts/FlightDelayInsurance.sol\":208:4909  contract FlightDelayInsurance is PluginClient, IFlightStatus {... */\n  dataSize(sub_0)\n  dup1\n  dataOffset(sub_0)\n  0x00\n  codecopy\n  0x00\n  return\nstop\n\nsub_0: assembly {\n        /* \"contracts/FlightDelayInsurance.sol\":208:4909  contract FlightDelayInsurance is PluginClient, IFlightStatus {... */\n      mstore(0x40, 0x80)\n      callvalue\n      dup1\n      iszero\n      tag_1\n      jumpi\n      0x00\n      dup1\n      revert\n    tag_1:\n      pop\n      jumpi(tag_2, lt(calldatasize, 0x04))\n      shr(0xe0, calldataload(0x00))\n      dup1\n      0x6e8cffa2\n      gt\n      tag_12\n      jumpi\n      dup1\n      0x6e8cffa2\n      eq\n      tag_7\n      jumpi\n      dup1\n      0x8d3c9445\n      eq\n      tag_8\n      jumpi\n      dup1\n      0x8da5cb5b\n      eq\n      tag_9\n      jumpi\n      dup1\n      0xc4e49cd5\n      eq\n      tag_10\n      jumpi\n      dup1\n      0xeff0f592\n      eq\n      tag_11\n      jumpi\n      0x00\n      dup1\n      revert\n    tag_12:\n      dup1\n      0x0ebc8da6\n      eq\n      tag_3\n      jumpi\n      dup1\n      0x29e999f4\n      eq\n      tag_4\n      jumpi\n      dup1\n      0x2f2e01f2\n      eq\n      tag_5\n      jumpi\n      dup1\n      0x5996e024\n      eq\n      tag_6\n      jumpi\n    tag_2:\n      0x00\n      dup1\n      revert\n        /* \"contracts/FlightDelayInsurance.sol\":4227:4517  function fulfillClaimInquiry(bytes32 _requestId, FlightStatus _flightStatus)... */\n    tag_3:\n      tag_13\n      tag_14\n      calldatasize\n      0x04\n      tag_15\n      jump\t// in\n    tag_14:\n      tag_16\n      jump\t// in\n    tag_13:\n      stop\n        /* \"contracts/FlightDelayInsurance.sol\":750:817  mapping(uint256 => mapping(address => bytes32)) public claimRequest */\n    tag_4:\n      tag_17\n      tag_18\n      calldatasize\n      0x04\n      tag_19\n      jump\t// in\n    tag_18:\n      0x0c\n      0x20\n      swap1\n      dup2\n      mstore\n      0x00\n      swap3\n      dup4\n      mstore\n      0x40\n      dup1\n      dup5\n      keccak256\n      swap1\n      swap2\n      mstore\n      swap1\n      dup3\n      mstore\n      swap1\n      keccak256\n      sload\n      dup2\n      jump\n    tag_17:\n      mload(0x40)\n        /* \"#utility.yul\":5890:5915   */\n      swap1\n      dup2\n      mstore\n        /* \"#utility.yul\":5878:5880   */\n      0x20\n        /* \"#utility.yul\":5863:5881   */\n      add\n        /* \"contracts/FlightDelayInsurance.sol\":750:817  mapping(uint256 => mapping(address => bytes32)) public claimRequest */\n    tag_21:\n      mload(0x40)\n      dup1\n      swap2\n      sub\n      swap1\n      return\n        /* \"contracts/FlightDelayInsurance.sol\":2504:3345  function bookInsurance(... */\n    tag_5:\n      tag_17\n      tag_24\n      calldatasize\n      0x04\n      tag_25\n      jump\t// in\n    tag_24:\n      tag_26\n      jump\t// in\n        /* \"contracts/FlightDelayInsurance.sol\":622:689  mapping(uint256 => mapping(address => FlightMaster)) public flights */\n    tag_6:\n      tag_29\n      tag_30\n      calldatasize\n      0x04\n      tag_19\n      jump\t// in\n    tag_30:\n      tag_31\n      jump\t// in\n    tag_29:\n      mload(0x40)\n      tag_21\n      swap7\n      swap6\n      swap5\n      swap4\n      swap3\n      swap2\n      swap1\n      tag_33\n      jump\t// in\n        /* \"contracts/FlightDelayInsurance.sol\":543:616  mapping(uint256 => mapping(address => FlightInsurance)) public insurances */\n    tag_7:\n      tag_34\n      tag_35\n      calldatasize\n      0x04\n      tag_19\n      jump\t// in\n    tag_35:\n      0x09\n      0x20\n      swap1\n      dup2\n      mstore\n      0x00\n      swap3\n      dup4\n      mstore\n      0x40\n      dup1\n      dup5\n      keccak256\n      swap1\n      swap2\n      mstore\n      swap1\n      dup3\n      mstore\n      swap1\n      keccak256\n      dup1\n      sload\n      0x01\n      dup3\n      add\n      sload\n      0x02\n      dup4\n      add\n      sload\n      0x03\n      dup5\n      add\n      sload\n      0x04\n      dup6\n      add\n      sload\n      0x05\n      dup7\n      add\n      sload\n      0x06\n      dup8\n      add\n      sload\n      0x07\n      dup9\n      add\n      sload\n      0x08\n      swap1\n      swap9\n      add\n      sload\n      swap7\n      swap8\n      sub(shl(0xa0, 0x01), 0x01)\n      swap1\n      swap7\n      and\n      swap7\n      swap5\n      swap6\n      swap4\n      swap5\n      swap3\n      swap4\n      swap2\n      swap3\n      0xff\n      swap2\n      dup3\n      and\n      swap3\n      swap2\n      and\n      dup10\n      jump\n    tag_34:\n      mload(0x40)\n      tag_21\n      swap10\n      swap9\n      swap8\n      swap7\n      swap6\n      swap5\n      swap4\n      swap3\n      swap2\n      swap1\n      tag_38\n      jump\t// in\n        /* \"contracts/FlightDelayInsurance.sol\":1765:2463  function registerFlights(... */\n    tag_8:\n      tag_17\n      tag_40\n      calldatasize\n      0x04\n      tag_41\n      jump\t// in\n    tag_40:\n      tag_42\n      jump\t// in\n        /* \"contracts/FlightDelayInsurance.sol\":517:537  address public owner */\n    tag_9:\n      sload(0x08)\n      tag_44\n      swap1\n      sub(shl(0xa0, 0x01), 0x01)\n      and\n      dup2\n      jump\n    tag_44:\n      mload(0x40)\n      sub(shl(0xa0, 0x01), 0x01)\n        /* \"#utility.yul\":4484:4516   */\n      swap1\n      swap2\n      and\n        /* \"#utility.yul\":4466:4517   */\n      dup2\n      mstore\n        /* \"#utility.yul\":4454:4456   */\n      0x20\n        /* \"#utility.yul\":4439:4457   */\n      add\n        /* \"contracts/FlightDelayInsurance.sol\":517:537  address public owner */\n      tag_21\n        /* \"#utility.yul\":4421:4523   */\n      jump\n        /* \"contracts/FlightDelayInsurance.sol\":3351:4221  function submitMyClaim(... */\n    tag_10:\n      tag_13\n      tag_49\n      calldatasize\n      0x04\n      tag_50\n      jump\t// in\n    tag_49:\n      tag_51\n      jump\t// in\n        /* \"contracts/FlightDelayInsurance.sol\":695:744  mapping(bytes32 => FlightInsurance) public claims */\n    tag_11:\n      tag_34\n      tag_53\n      calldatasize\n      0x04\n      tag_54\n      jump\t// in\n    tag_53:\n      mstore(0x20, 0x0b)\n      0x00\n      swap1\n      dup2\n      mstore\n      0x40\n      swap1\n      keccak256\n      dup1\n      sload\n      0x01\n      dup3\n      add\n      sload\n      0x02\n      dup4\n      add\n      sload\n      0x03\n      dup5\n      add\n      sload\n      0x04\n      dup6\n      add\n      sload\n      0x05\n      dup7\n      add\n      sload\n      0x06\n      dup8\n      add\n      sload\n      0x07\n      dup9\n      add\n      sload\n      0x08\n      swap1\n      swap9\n      add\n      sload\n      swap7\n      swap8\n      sub(shl(0xa0, 0x01), 0x01)\n      swap1\n      swap7\n      and\n      swap7\n      swap5\n      swap6\n      swap4\n      swap5\n      swap3\n      swap4\n      swap2\n      swap3\n      0xff\n      swap2\n      dup3\n      and\n      swap3\n      swap2\n      and\n      dup10\n      jump\n        /* \"contracts/FlightDelayInsurance.sol\":4227:4517  function fulfillClaimInquiry(bytes32 _requestId, FlightStatus _flightStatus)... */\n    tag_16:\n        /* \"@goplugin/contracts/src/v0.8/PluginClient.sol\":10427:10453  pendingRequests[requestId] */\n      0x00\n      dup3\n      dup2\n      mstore\n        /* \"@goplugin/contracts/src/v0.8/PluginClient.sol\":10427:10442  pendingRequests */\n      0x05\n        /* \"@goplugin/contracts/src/v0.8/PluginClient.sol\":10427:10453  pendingRequests[requestId] */\n      0x20\n      mstore\n      0x40\n      swap1\n      keccak256\n      sload\n      dup3\n      swap1\n      sub(shl(0xa0, 0x01), 0x01)\n      and\n        /* \"@goplugin/contracts/src/v0.8/PluginClient.sol\":10413:10423  msg.sender */\n      caller\n        /* \"@goplugin/contracts/src/v0.8/PluginClient.sol\":10413:10453  msg.sender == pendingRequests[requestId] */\n      eq\n        /* \"@goplugin/contracts/src/v0.8/PluginClient.sol\":10405:10510  require(msg.sender == pendingRequests[requestId],... */\n      tag_59\n      jumpi\n      mload(0x40)\n      shl(0xe5, 0x461bcd)\n      dup2\n      mstore\n        /* \"#utility.yul\":7237:7239   */\n      0x20\n        /* \"@goplugin/contracts/src/v0.8/PluginClient.sol\":10405:10510  require(msg.sender == pendingRequests[requestId],... */\n      0x04\n      dup3\n      add\n        /* \"#utility.yul\":7219:7240   */\n      mstore\n        /* \"#utility.yul\":7276:7278   */\n      0x28\n        /* \"#utility.yul\":7256:7274   */\n      0x24\n      dup3\n      add\n        /* \"#utility.yul\":7249:7279   */\n      mstore\n        /* \"#utility.yul\":7315:7349   */\n      0x536f75726365206d75737420626520746865206f7261636c65206f6620746865\n        /* \"#utility.yul\":7295:7313   */\n      0x44\n      dup3\n      add\n        /* \"#utility.yul\":7288:7350   */\n      mstore\n      shl(0xc2, 0x081c995c5d595cdd)\n        /* \"#utility.yul\":7366:7384   */\n      0x64\n      dup3\n      add\n        /* \"#utility.yul\":7359:7397   */\n      mstore\n        /* \"#utility.yul\":7414:7433   */\n      0x84\n      add\n        /* \"@goplugin/contracts/src/v0.8/PluginClient.sol\":10405:10510  require(msg.sender == pendingRequests[requestId],... */\n    tag_60:\n      mload(0x40)\n      dup1\n      swap2\n      sub\n      swap1\n      revert\n    tag_59:\n        /* \"@goplugin/contracts/src/v0.8/PluginClient.sol\":10523:10549  pendingRequests[requestId] */\n      0x00\n      dup2\n      dup2\n      mstore\n        /* \"@goplugin/contracts/src/v0.8/PluginClient.sol\":10523:10538  pendingRequests */\n      0x05\n        /* \"@goplugin/contracts/src/v0.8/PluginClient.sol\":10523:10549  pendingRequests[requestId] */\n      0x20\n      mstore\n      0x40\n      dup1\n      dup3\n      keccak256\n        /* \"@goplugin/contracts/src/v0.8/PluginClient.sol\":10516:10549  delete pendingRequests[requestId] */\n      dup1\n      sload\n      not(sub(shl(0xa0, 0x01), 0x01))\n      and\n      swap1\n      sstore\n        /* \"@goplugin/contracts/src/v0.8/PluginClient.sol\":10560:10586  PluginFulfilled(requestId) */\n      mload\n        /* \"@goplugin/contracts/src/v0.8/PluginClient.sol\":10539:10548  requestId */\n      dup3\n      swap2\n        /* \"@goplugin/contracts/src/v0.8/PluginClient.sol\":10560:10586  PluginFulfilled(requestId) */\n      0xa40ad10b942505047c532a7399bf5eac2768b11b7155b40ec80309aea567f998\n      swap2\n      log2\n        /* \"contracts/FlightDelayInsurance.sol\":4377:4403  FlightInsurance memory fin */\n      0x00\n        /* \"contracts/FlightDelayInsurance.sol\":4406:4424  claims[_requestId] */\n      dup4\n      dup2\n      mstore\n        /* \"contracts/FlightDelayInsurance.sol\":4406:4412  claims */\n      0x0b\n        /* \"contracts/FlightDelayInsurance.sol\":4406:4424  claims[_requestId] */\n      0x20\n      swap1\n      dup2\n      mstore\n      0x40\n      dup1\n      dup4\n      keccak256\n        /* \"contracts/FlightDelayInsurance.sol\":4377:4424  FlightInsurance memory fin = claims[_requestId] */\n      dup2\n      mload\n      0x0120\n      dup2\n      add\n      dup4\n      mstore\n      dup2\n      sload\n      dup2\n      mstore\n      0x01\n      dup3\n      add\n      sload\n      sub(shl(0xa0, 0x01), 0x01)\n      and\n      swap4\n      dup2\n      add\n      swap4\n      swap1\n      swap4\n      mstore\n      0x02\n      dup2\n      add\n      sload\n      swap2\n      dup4\n      add\n      swap2\n      swap1\n      swap2\n      mstore\n      0x03\n      dup2\n      add\n      sload\n      0x60\n      dup4\n      add\n      mstore\n      0x04\n      dup2\n      add\n      sload\n      0x80\n      dup4\n      add\n      mstore\n      0x05\n      dup1\n      dup3\n      add\n      sload\n      0xa0\n      dup5\n      add\n      mstore\n      0x06\n      dup3\n      add\n      sload\n      0xc0\n      dup5\n      add\n      swap2\n      0xff\n      swap1\n      swap2\n      and\n      swap1\n      dup2\n      gt\n      iszero\n      tag_63\n      jumpi\n      mstore(0x00, shl(0xe0, 0x4e487b71))\n      mstore(0x04, 0x21)\n      revert(0x00, 0x24)\n    tag_63:\n      0x05\n      dup2\n      gt\n      iszero\n      tag_64\n      jumpi\n      mstore(0x00, shl(0xe0, 0x4e487b71))\n      mstore(0x04, 0x21)\n      revert(0x00, 0x24)\n    tag_64:\n      dup2\n      mstore\n      0x07\n      dup3\n      add\n      sload\n      0x20\n      dup3\n      add\n      mstore\n      0x08\n      swap1\n      swap2\n      add\n      sload\n      0xff\n      and\n      iszero\n      iszero\n      0x40\n      swap1\n      swap2\n      add\n      mstore\n      0x01\n      0x0100\n        /* \"contracts/FlightDelayInsurance.sol\":4434:4447  fin.processed */\n      dup3\n      add\n        /* \"contracts/FlightDelayInsurance.sol\":4434:4454  fin.processed = true */\n      mstore\n        /* \"contracts/FlightDelayInsurance.sol\":4377:4424  FlightInsurance memory fin = claims[_requestId] */\n      swap1\n      pop\n        /* \"contracts/FlightDelayInsurance.sol\":4464:4480  fin.flightStatus */\n      0xc0\n      dup2\n      add\n        /* \"contracts/FlightDelayInsurance.sol\":4496:4509  _flightStatus */\n      dup4\n        /* \"contracts/FlightDelayInsurance.sol\":4464:4510  fin.flightStatus = FlightStatus(_flightStatus) */\n      0x05\n      dup2\n      gt\n      iszero\n      tag_65\n      jumpi\n      mstore(0x00, shl(0xe0, 0x4e487b71))\n      mstore(0x04, 0x21)\n      revert(0x00, 0x24)\n    tag_65:\n      swap1\n      dup2\n      0x05\n      dup2\n      gt\n      iszero\n      tag_66\n      jumpi\n      mstore(0x00, shl(0xe0, 0x4e487b71))\n      mstore(0x04, 0x21)\n      revert(0x00, 0x24)\n    tag_66:\n      swap1\n      mstore\n      pop\n      pop\n      pop\n      pop\n      pop\n        /* \"contracts/FlightDelayInsurance.sol\":4227:4517  function fulfillClaimInquiry(bytes32 _requestId, FlightStatus _flightStatus)... */\n      jump\t// out\n        /* \"contracts/FlightDelayInsurance.sol\":2504:3345  function bookInsurance(... */\n    tag_26:\n        /* \"contracts/FlightDelayInsurance.sol\":2708:2715  uint256 */\n      0x00\n        /* \"contracts/FlightDelayInsurance.sol\":2727:2747  uint256 _insuranceId */\n      dup1\n        /* \"contracts/FlightDelayInsurance.sol\":2750:2773  _insuranceIds.current() */\n      tag_68\n        /* \"contracts/FlightDelayInsurance.sol\":2750:2763  _insuranceIds */\n      0x07\n        /* \"CustomTokens/contracts/utils/Counters.sol\":918:932  counter._value */\n      sload\n      swap1\n        /* \"CustomTokens/contracts/utils/Counters.sol\":827:939  function current(Counter storage counter) internal view returns (uint256) {... */\n      jump\n        /* \"contracts/FlightDelayInsurance.sol\":2750:2773  _insuranceIds.current() */\n    tag_68:\n        /* \"contracts/FlightDelayInsurance.sol\":2727:2773  uint256 _insuranceId = _insuranceIds.current() */\n      swap1\n      pop\n        /* \"contracts/FlightDelayInsurance.sol\":2783:2808  _insuranceIds.increment() */\n      tag_70\n        /* \"contracts/FlightDelayInsurance.sol\":2783:2796  _insuranceIds */\n      0x07\n        /* \"CustomTokens/contracts/utils/Counters.sol\":1032:1051  counter._value += 1 */\n      dup1\n      sload\n        /* \"CustomTokens/contracts/utils/Counters.sol\":1050:1051  1 */\n      0x01\n        /* \"CustomTokens/contracts/utils/Counters.sol\":1032:1051  counter._value += 1 */\n      add\n      swap1\n      sstore\n        /* \"CustomTokens/contracts/utils/Counters.sol\":945:1068  function increment(Counter storage counter) internal {... */\n      jump\n        /* \"contracts/FlightDelayInsurance.sol\":2783:2808  _insuranceIds.increment() */\n    tag_70:\n        /* \"contracts/FlightDelayInsurance.sol\":2865:3132  FlightInsurance(... */\n      mload(0x40)\n      dup1\n      0x0120\n      add\n      0x40\n      mstore\n      dup1\n        /* \"contracts/FlightDelayInsurance.sol\":2894:2906  _insuranceId */\n      dup3\n        /* \"contracts/FlightDelayInsurance.sol\":2865:3132  FlightInsurance(... */\n      dup2\n      mstore\n      0x20\n      add\n        /* \"contracts/FlightDelayInsurance.sol\":2920:2937  _passengerAddress */\n      dup9\n      sub(shl(0xa0, 0x01), 0x01)\n        /* \"contracts/FlightDelayInsurance.sol\":2865:3132  FlightInsurance(... */\n      and\n      dup2\n      mstore\n      0x20\n      add\n        /* \"contracts/FlightDelayInsurance.sol\":2951:2971  _carrierFlightNumber */\n      dup8\n        /* \"contracts/FlightDelayInsurance.sol\":2865:3132  FlightInsurance(... */\n      dup2\n      mstore\n      0x20\n      add\n        /* \"contracts/FlightDelayInsurance.sol\":2985:2997  _departureOn */\n      dup7\n        /* \"contracts/FlightDelayInsurance.sol\":2865:3132  FlightInsurance(... */\n      dup2\n      mstore\n      0x20\n      add\n        /* \"contracts/FlightDelayInsurance.sol\":3011:3021  _arrivalOn */\n      dup6\n        /* \"contracts/FlightDelayInsurance.sol\":2865:3132  FlightInsurance(... */\n      dup2\n      mstore\n      0x20\n      add\n        /* \"contracts/FlightDelayInsurance.sol\":3035:3050  block.timestamp */\n      timestamp\n        /* \"contracts/FlightDelayInsurance.sol\":2865:3132  FlightInsurance(... */\n      dup2\n      mstore\n      0x20\n      add\n        /* \"contracts/FlightDelayInsurance.sol\":3077:3078  1 */\n      0x01\n        /* \"contracts/FlightDelayInsurance.sol\":3064:3079  FlightStatus(1) */\n      0x05\n      dup2\n      gt\n      iszero\n      tag_71\n      jumpi\n      mstore(0x00, shl(0xe0, 0x4e487b71))\n      mstore(0x04, 0x21)\n      revert(0x00, 0x24)\n    tag_71:\n        /* \"contracts/FlightDelayInsurance.sol\":2865:3132  FlightInsurance(... */\n      0x05\n      dup2\n      gt\n      iszero\n      tag_72\n      jumpi\n      mstore(0x00, shl(0xe0, 0x4e487b71))\n      mstore(0x04, 0x21)\n      revert(0x00, 0x24)\n    tag_72:\n      dup2\n      mstore\n      0x20\n      dup1\n      dup3\n      add\n      dup7\n      swap1\n      mstore\n      0x00\n      0x40\n      swap3\n      dup4\n      add\n      dup2\n      swap1\n      mstore\n        /* \"contracts/FlightDelayInsurance.sol\":2819:2843  insurances[_insuranceId] */\n      dup5\n      dup2\n      mstore\n        /* \"contracts/FlightDelayInsurance.sol\":2819:2829  insurances */\n      0x09\n        /* \"contracts/FlightDelayInsurance.sol\":2819:2843  insurances[_insuranceId] */\n      dup3\n      mstore\n      dup3\n      dup2\n      keccak256\n      sub(shl(0xa0, 0x01), 0x01)\n        /* \"contracts/FlightDelayInsurance.sol\":2819:2862  insurances[_insuranceId][_passengerAddress] */\n      dup13\n      dup2\n      and\n      dup4\n      mstore\n      swap1\n      dup4\n      mstore\n      swap1\n      dup4\n      swap1\n      keccak256\n        /* \"contracts/FlightDelayInsurance.sol\":2819:3132  insurances[_insuranceId][_passengerAddress] = FlightInsurance(... */\n      dup5\n      mload\n      dup2\n      sstore\n      swap2\n      dup5\n      add\n      mload\n        /* \"contracts/FlightDelayInsurance.sol\":2865:3132  FlightInsurance(... */\n      0x01\n        /* \"contracts/FlightDelayInsurance.sol\":2819:3132  insurances[_insuranceId][_passengerAddress] = FlightInsurance(... */\n      dup1\n      dup5\n      add\n      dup1\n      sload\n      not(sub(shl(0xa0, 0x01), 0x01))\n      and\n      swap3\n      swap1\n      swap4\n      and\n      swap2\n      swap1\n      swap2\n      or\n      swap1\n      swap2\n      sstore\n      swap2\n      dup4\n      add\n      mload\n      0x02\n      dup3\n      add\n      sstore\n      0x60\n      dup4\n      add\n      mload\n      0x03\n      dup3\n      add\n      sstore\n      0x80\n      dup4\n      add\n      mload\n      0x04\n      dup3\n      add\n      sstore\n      0xa0\n      dup4\n      add\n      mload\n      0x05\n      dup1\n      dup4\n      add\n      swap2\n      swap1\n      swap2\n      sstore\n      0xc0\n      dup5\n      add\n      mload\n      0x06\n      dup4\n      add\n      dup1\n      sload\n        /* \"contracts/FlightDelayInsurance.sol\":2819:2862  insurances[_insuranceId][_passengerAddress] */\n      swap4\n      swap5\n        /* \"contracts/FlightDelayInsurance.sol\":2819:3132  insurances[_insuranceId][_passengerAddress] = FlightInsurance(... */\n      swap2\n      swap4\n      swap1\n      swap3\n      not(0xff)\n      swap1\n      swap2\n      and\n      swap2\n        /* \"contracts/FlightDelayInsurance.sol\":2865:3132  FlightInsurance(... */\n      swap1\n        /* \"contracts/FlightDelayInsurance.sol\":2819:3132  insurances[_insuranceId][_passengerAddress] = FlightInsurance(... */\n      dup5\n      swap1\n      dup2\n      gt\n      iszero\n      tag_73\n      jumpi\n      mstore(0x00, shl(0xe0, 0x4e487b71))\n      mstore(0x04, 0x21)\n      revert(0x00, 0x24)\n    tag_73:\n      mul\n      or\n      swap1\n      sstore\n      pop\n      0xe0\n      dup3\n      dup2\n      add\n      mload\n      0x07\n      dup4\n      add\n      sstore\n      0x0100\n      swap1\n      swap3\n      add\n      mload\n      0x08\n      swap1\n      swap2\n      add\n      dup1\n      sload\n      not(0xff)\n      and\n      swap2\n      iszero\n      iszero\n      swap2\n      swap1\n      swap2\n      or\n      swap1\n      sstore\n        /* \"contracts/FlightDelayInsurance.sol\":3148:3308  InsuranceEvents(... */\n      0x40\n      dup1\n      mload\n        /* \"#utility.yul\":10212:10237   */\n      dup4\n      dup2\n      mstore\n        /* \"#utility.yul\":10273:10276   */\n      0xa0\n        /* \"#utility.yul\":10268:10270   */\n      0x20\n        /* \"#utility.yul\":10253:10271   */\n      dup3\n      add\n        /* \"#utility.yul\":10246:10277   */\n      dup2\n      swap1\n      mstore\n        /* \"#utility.yul\":10314:10316   */\n      0x10\n        /* \"#utility.yul\":10293:10312   */\n      swap1\n      dup3\n      add\n        /* \"#utility.yul\":10286:10317   */\n      mstore\n      shl(0x82, 0x125b9cdd5c985b98d948109bdbdad959)\n        /* \"#utility.yul\":10348:10351   */\n      0xc0\n        /* \"#utility.yul\":10333:10352   */\n      dup3\n      add\n        /* \"#utility.yul\":10326:10373   */\n      mstore\n        /* \"contracts/FlightDelayInsurance.sol\":3235:3245  msg.sender */\n      caller\n        /* \"#utility.yul\":10463:10481   */\n      swap2\n      dup2\n      add\n        /* \"#utility.yul\":10456:10499   */\n      dup3\n      swap1\n      mstore\n      0x60\n        /* \"#utility.yul\":10515:10533   */\n      dup2\n      add\n        /* \"#utility.yul\":10508:10551   */\n      swap2\n      swap1\n      swap2\n      mstore\n        /* \"contracts/FlightDelayInsurance.sol\":3283:3298  block.timestamp */\n      timestamp\n      0x80\n        /* \"#utility.yul\":10567:10586   */\n      dup3\n      add\n        /* \"#utility.yul\":10560:10595   */\n      mstore\n        /* \"contracts/FlightDelayInsurance.sol\":3148:3308  InsuranceEvents(... */\n      0x528441e079e31bf6f9d9a91817469f3269aadfd0e41397f5139151f22d5bb541\n      swap2\n        /* \"#utility.yul\":10390:10409   */\n      add\n        /* \"contracts/FlightDelayInsurance.sol\":3148:3308  InsuranceEvents(... */\n      mload(0x40)\n      dup1\n      swap2\n      sub\n      swap1\n      log1\n        /* \"contracts/FlightDelayInsurance.sol\":3326:3338  _insuranceId */\n      swap7\n        /* \"contracts/FlightDelayInsurance.sol\":2504:3345  function bookInsurance(... */\n      swap6\n      pop\n      pop\n      pop\n      pop\n      pop\n      pop\n      jump\t// out\n        /* \"contracts/FlightDelayInsurance.sol\":622:689  mapping(uint256 => mapping(address => FlightMaster)) public flights */\n    tag_31:\n      0x0a\n      0x20\n      swap1\n      dup2\n      mstore\n      0x00\n      swap3\n      dup4\n      mstore\n      0x40\n      dup1\n      dup5\n      keccak256\n      swap1\n      swap2\n      mstore\n      swap1\n      dup3\n      mstore\n      swap1\n      keccak256\n      dup1\n      sload\n      0x01\n      dup3\n      add\n      sload\n      0x02\n      dup4\n      add\n      dup1\n      sload\n      swap3\n      swap4\n      swap2\n      swap3\n      tag_76\n      swap1\n      tag_77\n      jump\t// in\n    tag_76:\n      dup1\n      0x1f\n      add\n      0x20\n      dup1\n      swap2\n      div\n      mul\n      0x20\n      add\n      mload(0x40)\n      swap1\n      dup2\n      add\n      0x40\n      mstore\n      dup1\n      swap3\n      swap2\n      swap1\n      dup2\n      dup2\n      mstore\n      0x20\n      add\n      dup3\n      dup1\n      sload\n      tag_78\n      swap1\n      tag_77\n      jump\t// in\n    tag_78:\n      dup1\n      iszero\n      tag_79\n      jumpi\n      dup1\n      0x1f\n      lt\n      tag_80\n      jumpi\n      0x0100\n      dup1\n      dup4\n      sload\n      div\n      mul\n      dup4\n      mstore\n      swap2\n      0x20\n      add\n      swap2\n      jump(tag_79)\n    tag_80:\n      dup3\n      add\n      swap2\n      swap1\n      0x00\n      mstore\n      keccak256(0x00, 0x20)\n      swap1\n    tag_81:\n      dup2\n      sload\n      dup2\n      mstore\n      swap1\n      0x01\n      add\n      swap1\n      0x20\n      add\n      dup1\n      dup4\n      gt\n      tag_81\n      jumpi\n      dup3\n      swap1\n      sub\n      0x1f\n      and\n      dup3\n      add\n      swap2\n    tag_79:\n      pop\n      pop\n      pop\n      pop\n      0x03\n      dup4\n      add\n      sload\n      0x04\n      dup5\n      add\n      sload\n      0x05\n      swap1\n      swap5\n      add\n      sload\n      swap3\n      swap4\n      sub(shl(0xa0, 0x01), 0x01)\n      swap2\n      dup3\n      and\n      swap4\n      swap1\n      swap3\n      pop\n      and\n      dup7\n      jump\t// out\n        /* \"contracts/FlightDelayInsurance.sol\":1765:2463  function registerFlights(... */\n    tag_42:\n        /* \"contracts/FlightDelayInsurance.sol\":1926:1933  uint256 */\n      0x00\n        /* \"contracts/FlightDelayInsurance.sol\":1945:1962  uint256 _flightId */\n      dup1\n        /* \"contracts/FlightDelayInsurance.sol\":1965:1985  _flightIds.current() */\n      tag_83\n        /* \"contracts/FlightDelayInsurance.sol\":1965:1975  _flightIds */\n      0x06\n        /* \"CustomTokens/contracts/utils/Counters.sol\":918:932  counter._value */\n      sload\n      swap1\n        /* \"CustomTokens/contracts/utils/Counters.sol\":827:939  function current(Counter storage counter) internal view returns (uint256) {... */\n      jump\n        /* \"contracts/FlightDelayInsurance.sol\":1965:1985  _flightIds.current() */\n    tag_83:\n        /* \"contracts/FlightDelayInsurance.sol\":1945:1985  uint256 _flightId = _flightIds.current() */\n      swap1\n      pop\n        /* \"contracts/FlightDelayInsurance.sol\":1995:2017  _flightIds.increment() */\n      tag_84\n        /* \"contracts/FlightDelayInsurance.sol\":1995:2005  _flightIds */\n      0x06\n        /* \"CustomTokens/contracts/utils/Counters.sol\":1032:1051  counter._value += 1 */\n      dup1\n      sload\n        /* \"CustomTokens/contracts/utils/Counters.sol\":1050:1051  1 */\n      0x01\n        /* \"CustomTokens/contracts/utils/Counters.sol\":1032:1051  counter._value += 1 */\n      add\n      swap1\n      sstore\n        /* \"CustomTokens/contracts/utils/Counters.sol\":945:1068  function increment(Counter storage counter) internal {... */\n      jump\n        /* \"contracts/FlightDelayInsurance.sol\":1995:2017  _flightIds.increment() */\n    tag_84:\n        /* \"contracts/FlightDelayInsurance.sol\":2065:2259  FlightMaster(... */\n      0x40\n      dup1\n      mload\n      0xc0\n      dup2\n      add\n      dup3\n      mstore\n      dup3\n      dup2\n      mstore\n      0x20\n      dup1\n      dup3\n      add\n      dup8\n      dup2\n      mstore\n      dup3\n      dup5\n      add\n      dup8\n      dup2\n      mstore\n      sub(shl(0xa0, 0x01), 0x01)\n      dup11\n      and\n      0x60\n      dup6\n      add\n      dup2\n      swap1\n      mstore\n        /* \"contracts/FlightDelayInsurance.sol\":2210:2225  block.timestamp */\n      timestamp\n        /* \"contracts/FlightDelayInsurance.sol\":2065:2259  FlightMaster(... */\n      0x80\n      dup7\n      add\n      mstore\n        /* \"contracts/FlightDelayInsurance.sol\":2239:2249  msg.sender */\n      caller\n        /* \"contracts/FlightDelayInsurance.sol\":2065:2259  FlightMaster(... */\n      0xa0\n      dup7\n      add\n      mstore\n      0x00\n        /* \"contracts/FlightDelayInsurance.sol\":2028:2046  flights[_flightId] */\n      dup8\n      dup2\n      mstore\n        /* \"contracts/FlightDelayInsurance.sol\":2028:2035  flights */\n      0x0a\n        /* \"contracts/FlightDelayInsurance.sol\":2028:2046  flights[_flightId] */\n      dup6\n      mstore\n      dup7\n      dup2\n      keccak256\n        /* \"contracts/FlightDelayInsurance.sol\":2028:2062  flights[_flightId][_flightAddress] */\n      swap2\n      dup2\n      mstore\n      swap1\n      dup5\n      mstore\n      swap5\n      swap1\n      swap5\n      keccak256\n        /* \"contracts/FlightDelayInsurance.sol\":2028:2259  flights[_flightId][_flightAddress] = FlightMaster(... */\n      dup4\n      mload\n      dup2\n      sstore\n      swap1\n      mload\n      0x01\n      dup3\n      add\n      sstore\n      swap3\n      mload\n      dup1\n      mload\n        /* \"contracts/FlightDelayInsurance.sol\":2065:2259  FlightMaster(... */\n      swap3\n      swap4\n        /* \"contracts/FlightDelayInsurance.sol\":2028:2062  flights[_flightId][_flightAddress] */\n      swap3\n        /* \"contracts/FlightDelayInsurance.sol\":2028:2259  flights[_flightId][_flightAddress] = FlightMaster(... */\n      tag_85\n      swap3\n      0x02\n      dup6\n      add\n      swap3\n      add\n      swap1\n      tag_86\n      jump\t// in\n    tag_85:\n      pop\n      0x60\n      dup3\n      dup2\n      add\n      mload\n      0x03\n      dup4\n      add\n      dup1\n      sload\n      not(sub(shl(0xa0, 0x01), 0x01))\n      swap1\n      dup2\n      and\n      sub(shl(0xa0, 0x01), 0x01)\n      swap4\n      dup5\n      and\n      or\n      swap1\n      swap2\n      sstore\n      0x80\n      dup1\n      dup7\n      add\n      mload\n      0x04\n      dup7\n      add\n      sstore\n      0xa0\n      swap6\n      dup7\n      add\n      mload\n      0x05\n      swap1\n      swap6\n      add\n      dup1\n      sload\n      swap1\n      swap3\n      and\n      swap5\n      swap1\n      swap3\n      and\n      swap4\n      swap1\n      swap4\n      or\n      swap1\n      swap3\n      sstore\n        /* \"contracts/FlightDelayInsurance.sol\":2274:2429  FlightEvents(... */\n      0x40\n      dup1\n      mload\n        /* \"#utility.yul\":9521:9546   */\n      dup6\n      dup2\n      mstore\n        /* \"#utility.yul\":9577:9579   */\n      0x20\n        /* \"#utility.yul\":9562:9580   */\n      dup2\n      add\n        /* \"#utility.yul\":9555:9586   */\n      dup6\n      swap1\n      mstore\n        /* \"#utility.yul\":9623:9625   */\n      0x11\n        /* \"#utility.yul\":9602:9621   */\n      swap5\n      dup2\n      add\n        /* \"#utility.yul\":9595:9626   */\n      swap5\n      swap1\n      swap5\n      mstore\n      shl(0x7a, 0x119b1a59da1d08149959da5cdd195c9959)\n        /* \"#utility.yul\":9657:9660   */\n      0xc0\n        /* \"#utility.yul\":9642:9661   */\n      dup6\n      add\n        /* \"#utility.yul\":9635:9683   */\n      mstore\n        /* \"contracts/FlightDelayInsurance.sol\":2356:2366  msg.sender */\n      caller\n        /* \"#utility.yul\":9773:9791   */\n      swap1\n      dup5\n      add\n        /* \"#utility.yul\":9766:9809   */\n      dup2\n      swap1\n      mstore\n        /* \"#utility.yul\":9825:9843   */\n      swap1\n      dup4\n      add\n        /* \"#utility.yul\":9818:9861   */\n      mstore\n        /* \"contracts/FlightDelayInsurance.sol\":2404:2419  block.timestamp */\n      timestamp\n        /* \"#utility.yul\":9877:9896   */\n      swap1\n      dup3\n      add\n        /* \"#utility.yul\":9870:9905   */\n      mstore\n        /* \"contracts/FlightDelayInsurance.sol\":2274:2429  FlightEvents(... */\n      0x31e053a200c037c2a0f3a83d8e087ea8ca9962fc3f642170571a92abc949a13c\n      swap1\n        /* \"#utility.yul\":9715:9718   */\n      0xe0\n        /* \"#utility.yul\":9700:9719   */\n      add\n        /* \"contracts/FlightDelayInsurance.sol\":2274:2429  FlightEvents(... */\n      mload(0x40)\n      dup1\n      swap2\n      sub\n      swap1\n      log1\n        /* \"contracts/FlightDelayInsurance.sol\":2447:2456  _flightId */\n      swap5\n        /* \"contracts/FlightDelayInsurance.sol\":1765:2463  function registerFlights(... */\n      swap4\n      pop\n      pop\n      pop\n      pop\n      jump\t// out\n        /* \"contracts/FlightDelayInsurance.sol\":3351:4221  function submitMyClaim(... */\n    tag_51:\n        /* \"contracts/FlightDelayInsurance.sol\":3489:3515  FlightInsurance memory fin */\n      0x00\n        /* \"contracts/FlightDelayInsurance.sol\":3518:3542  insurances[_insuranceid] */\n      dup4\n      dup2\n      mstore\n        /* \"contracts/FlightDelayInsurance.sol\":3518:3528  insurances */\n      0x09\n        /* \"contracts/FlightDelayInsurance.sol\":3518:3542  insurances[_insuranceid] */\n      0x20\n      swap1\n      dup2\n      mstore\n      0x40\n      dup1\n      dup4\n      keccak256\n        /* \"contracts/FlightDelayInsurance.sol\":3543:3553  msg.sender */\n      caller\n        /* \"contracts/FlightDelayInsurance.sol\":3518:3554  insurances[_insuranceid][msg.sender] */\n      dup5\n      mstore\n      dup3\n      mstore\n      dup1\n      dup4\n      keccak256\n        /* \"contracts/FlightDelayInsurance.sol\":3489:3554  FlightInsurance memory fin = insurances[_insuranceid][msg.sender] */\n      dup2\n      mload\n      0x0120\n      dup2\n      add\n      dup4\n      mstore\n      dup2\n      sload\n      dup2\n      mstore\n      0x01\n      dup3\n      add\n      sload\n      sub(shl(0xa0, 0x01), 0x01)\n      and\n      swap4\n      dup2\n      add\n      swap4\n      swap1\n      swap4\n      mstore\n      0x02\n      dup2\n      add\n      sload\n      swap2\n      dup4\n      add\n      swap2\n      swap1\n      swap2\n      mstore\n      0x03\n      dup2\n      add\n      sload\n      0x60\n      dup4\n      add\n      mstore\n      0x04\n      dup2\n      add\n      sload\n      0x80\n      dup4\n      add\n      mstore\n      0x05\n      dup1\n      dup3\n      add\n      sload\n      0xa0\n      dup5\n      add\n      mstore\n      0x06\n      dup3\n      add\n      sload\n      0xc0\n      dup5\n      add\n      swap2\n      0xff\n      swap1\n      swap2\n      and\n      swap1\n      dup2\n      gt\n      iszero\n      tag_90\n      jumpi\n      mstore(0x00, shl(0xe0, 0x4e487b71))\n      mstore(0x04, 0x21)\n      revert(0x00, 0x24)\n    tag_90:\n      0x05\n      dup2\n      gt\n      iszero\n      tag_91\n      jumpi\n      mstore(0x00, shl(0xe0, 0x4e487b71))\n      mstore(0x04, 0x21)\n      revert(0x00, 0x24)\n    tag_91:\n      dup2\n      mstore\n      0x07\n      dup3\n      add\n      sload\n      0x20\n      dup1\n      dup4\n      add\n      swap2\n      swap1\n      swap2\n      mstore\n      0x08\n      swap1\n      swap3\n      add\n      sload\n      0xff\n      and\n      iszero\n      iszero\n      0x40\n      swap1\n      swap2\n      add\n      mstore\n        /* \"contracts/FlightDelayInsurance.sol\":3585:3598  fin.passenger */\n      dup2\n      add\n      mload\n        /* \"contracts/FlightDelayInsurance.sol\":3489:3554  FlightInsurance memory fin = insurances[_insuranceid][msg.sender] */\n      swap1\n      swap2\n      pop\n      sub(shl(0xa0, 0x01), 0x01)\n        /* \"contracts/FlightDelayInsurance.sol\":3585:3612  fin.passenger != address(0) */\n      and\n        /* \"contracts/FlightDelayInsurance.sol\":3564:3670  require(... */\n      tag_92\n      jumpi\n      mload(0x40)\n      shl(0xe5, 0x461bcd)\n      dup2\n      mstore\n        /* \"#utility.yul\":6128:6130   */\n      0x20\n        /* \"contracts/FlightDelayInsurance.sol\":3564:3670  require(... */\n      0x04\n      dup3\n      add\n        /* \"#utility.yul\":6110:6131   */\n      dup2\n      swap1\n      mstore\n        /* \"#utility.yul\":6147:6165   */\n      0x24\n      dup3\n      add\n        /* \"#utility.yul\":6140:6170   */\n      mstore\n        /* \"#utility.yul\":6206:6240   */\n      0x506f6c69637920486f6c646572204164647265737320697320696e76616c6964\n        /* \"#utility.yul\":6186:6204   */\n      0x44\n      dup3\n      add\n        /* \"#utility.yul\":6179:6241   */\n      mstore\n        /* \"#utility.yul\":6258:6276   */\n      0x64\n      add\n        /* \"contracts/FlightDelayInsurance.sol\":3564:3670  require(... */\n      tag_60\n        /* \"#utility.yul\":6100:6282   */\n      jump\n        /* \"contracts/FlightDelayInsurance.sol\":3564:3670  require(... */\n    tag_92:\n        /* \"contracts/FlightDelayInsurance.sol\":3688:3701  fin.processed */\n      0x0100\n      dup2\n      add\n      mload\n        /* \"contracts/FlightDelayInsurance.sol\":3688:3710  fin.processed == false */\n      iszero\n        /* \"contracts/FlightDelayInsurance.sol\":3680:3730  require(fin.processed == false, \"Already claimed\") */\n      tag_95\n      jumpi\n      mload(0x40)\n      shl(0xe5, 0x461bcd)\n      dup2\n      mstore\n        /* \"#utility.yul\":6893:6895   */\n      0x20\n        /* \"contracts/FlightDelayInsurance.sol\":3680:3730  require(fin.processed == false, \"Already claimed\") */\n      0x04\n      dup3\n      add\n        /* \"#utility.yul\":6875:6896   */\n      mstore\n        /* \"#utility.yul\":6932:6934   */\n      0x0f\n        /* \"#utility.yul\":6912:6930   */\n      0x24\n      dup3\n      add\n        /* \"#utility.yul\":6905:6935   */\n      mstore\n      shl(0x8a, 0x105b1c9958591e4818db185a5b5959)\n        /* \"#utility.yul\":6951:6969   */\n      0x44\n      dup3\n      add\n        /* \"#utility.yul\":6944:6989   */\n      mstore\n        /* \"#utility.yul\":7006:7024   */\n      0x64\n      add\n        /* \"contracts/FlightDelayInsurance.sol\":3680:3730  require(fin.processed == false, \"Already claimed\") */\n      tag_60\n        /* \"#utility.yul\":6865:7030   */\n      jump\n        /* \"contracts/FlightDelayInsurance.sol\":3680:3730  require(fin.processed == false, \"Already claimed\") */\n    tag_95:\n        /* \"contracts/FlightDelayInsurance.sol\":3741:3766  Plugin.Request memory req */\n      0x00\n        /* \"contracts/FlightDelayInsurance.sol\":3769:3908  buildPluginRequest(... */\n      tag_98\n        /* \"contracts/FlightDelayInsurance.sol\":3801:3824  stringToBytes32(_jobid) */\n      tag_99\n        /* \"contracts/FlightDelayInsurance.sol\":3817:3823  _jobid */\n      dup5\n        /* \"contracts/FlightDelayInsurance.sol\":3801:3816  stringToBytes32 */\n      tag_100\n        /* \"contracts/FlightDelayInsurance.sol\":3801:3824  stringToBytes32(_jobid) */\n      jump\t// in\n    tag_99:\n        /* \"contracts/FlightDelayInsurance.sol\":3846:3850  this */\n      address\n      shl(0xe1, 0x075e46d3)\n        /* \"contracts/FlightDelayInsurance.sol\":3769:3787  buildPluginRequest */\n      tag_101\n        /* \"contracts/FlightDelayInsurance.sol\":3769:3908  buildPluginRequest(... */\n      jump\t// in\n    tag_98:\n        /* \"contracts/FlightDelayInsurance.sol\":3741:3908  Plugin.Request memory req = buildPluginRequest(... */\n      swap1\n      pop\n        /* \"contracts/FlightDelayInsurance.sol\":3918:3953  req.addUint(\"until\", fin.arrivalOn) */\n      tag_102\n      mload(0x40)\n      dup1\n      0x40\n      add\n      0x40\n      mstore\n      dup1\n      0x05\n      dup2\n      mstore\n      0x20\n      add\n      shl(0xda, 0x1d5b9d1a5b)\n      dup2\n      mstore\n      pop\n        /* \"contracts/FlightDelayInsurance.sol\":3939:3942  fin */\n      dup4\n        /* \"contracts/FlightDelayInsurance.sol\":3939:3952  fin.arrivalOn */\n      0x80\n      add\n      mload\n        /* \"contracts/FlightDelayInsurance.sol\":3918:3921  req */\n      dup4\n        /* \"contracts/FlightDelayInsurance.sol\":3918:3929  req.addUint */\n      tag_103\n      swap1\n        /* \"contracts/FlightDelayInsurance.sol\":3918:3953  req.addUint(\"until\", fin.arrivalOn) */\n      swap3\n      swap2\n      swap1\n      0xffffffff\n      and\n      jump\t// in\n    tag_102:\n        /* \"contracts/FlightDelayInsurance.sol\":3963:3976  bytes32 reqId */\n      0x00\n        /* \"contracts/FlightDelayInsurance.sol\":3979:4081  sendPluginRequestTo(... */\n      tag_104\n        /* \"contracts/FlightDelayInsurance.sol\":4012:4026  _oracleAddress */\n      dup6\n        /* \"contracts/FlightDelayInsurance.sol\":4040:4043  req */\n      dup4\n        /* \"contracts/FlightDelayInsurance.sol\":482:495  0.01 * 10**18 */\n      0x2386f26fc10000\n        /* \"contracts/FlightDelayInsurance.sol\":3979:3998  sendPluginRequestTo */\n      tag_105\n        /* \"contracts/FlightDelayInsurance.sol\":3979:4081  sendPluginRequestTo(... */\n      jump\t// in\n    tag_104:\n        /* \"contracts/FlightDelayInsurance.sol\":3963:4081  bytes32 reqId = sendPluginRequestTo(... */\n      swap1\n      pop\n        /* \"contracts/FlightDelayInsurance.sol\":4107:4110  fin */\n      dup3\n        /* \"contracts/FlightDelayInsurance.sol\":4091:4097  claims */\n      0x0b\n        /* \"contracts/FlightDelayInsurance.sol\":4091:4104  claims[reqId] */\n      0x00\n        /* \"contracts/FlightDelayInsurance.sol\":4098:4103  reqId */\n      dup4\n        /* \"contracts/FlightDelayInsurance.sol\":4091:4104  claims[reqId] */\n      dup2\n      mstore\n      0x20\n      add\n      swap1\n      dup2\n      mstore\n      0x20\n      add\n      0x00\n      keccak256\n        /* \"contracts/FlightDelayInsurance.sol\":4091:4110  claims[reqId] = fin */\n      0x00\n      dup3\n      add\n      mload\n      dup2\n      0x00\n      add\n      sstore\n      0x20\n      dup3\n      add\n      mload\n      dup2\n      0x01\n      add\n      exp(0x0100, 0x00)\n      dup2\n      sload\n      dup2\n      sub(shl(0xa0, 0x01), 0x01)\n      mul\n      not\n      and\n      swap1\n      dup4\n      sub(shl(0xa0, 0x01), 0x01)\n      and\n      mul\n      or\n      swap1\n      sstore\n      pop\n      0x40\n      dup3\n      add\n      mload\n      dup2\n      0x02\n      add\n      sstore\n      0x60\n      dup3\n      add\n      mload\n      dup2\n      0x03\n      add\n      sstore\n      0x80\n      dup3\n      add\n      mload\n      dup2\n      0x04\n      add\n      sstore\n      0xa0\n      dup3\n      add\n      mload\n      dup2\n      0x05\n      add\n      sstore\n      0xc0\n      dup3\n      add\n      mload\n      dup2\n      0x06\n      add\n      exp(0x0100, 0x00)\n      dup2\n      sload\n      dup2\n      0xff\n      mul\n      not\n      and\n      swap1\n      dup4\n      0x05\n      dup2\n      gt\n      iszero\n      tag_106\n      jumpi\n      mstore(0x00, shl(0xe0, 0x4e487b71))\n      mstore(0x04, 0x21)\n      revert(0x00, 0x24)\n    tag_106:\n      mul\n      or\n      swap1\n      sstore\n      pop\n      0xe0\n      dup3\n      add\n      mload\n      0x07\n      dup3\n      add\n      sstore\n      0x0100\n      swap1\n      swap2\n      add\n      mload\n      0x08\n      swap1\n      swap2\n      add\n      dup1\n      sload\n      not(0xff)\n      and\n      swap2\n      iszero\n      iszero\n      swap2\n      swap1\n      swap2\n      or\n      swap1\n      sstore\n      0x00\n        /* \"contracts/FlightDelayInsurance.sol\":4120:4146  claimRequest[_insuranceid] */\n      swap6\n      dup7\n      mstore\n        /* \"contracts/FlightDelayInsurance.sol\":4120:4132  claimRequest */\n      0x0c\n        /* \"contracts/FlightDelayInsurance.sol\":4120:4146  claimRequest[_insuranceid] */\n      0x20\n      swap1\n      dup2\n      mstore\n      0x40\n      dup1\n      dup9\n      keccak256\n        /* \"contracts/FlightDelayInsurance.sol\":4147:4157  msg.sender */\n      caller\n        /* \"contracts/FlightDelayInsurance.sol\":4120:4158  claimRequest[_insuranceid][msg.sender] */\n      dup10\n      mstore\n      swap1\n      swap2\n      mstore\n      swap1\n      swap6\n      keccak256\n        /* \"contracts/FlightDelayInsurance.sol\":4120:4166  claimRequest[_insuranceid][msg.sender] = reqId */\n      swap5\n      swap1\n      swap5\n      sstore\n      pop\n      pop\n      pop\n      pop\n        /* \"contracts/FlightDelayInsurance.sol\":3351:4221  function submitMyClaim(... */\n      jump\t// out\n        /* \"CustomTokens/contracts/utils/Counters.sol\":945:1068  function increment(Counter storage counter) internal {... */\n    tag_57:\n        /* \"CustomTokens/contracts/utils/Counters.sol\":1032:1051  counter._value += 1 */\n      dup1\n      sload\n        /* \"CustomTokens/contracts/utils/Counters.sol\":1050:1051  1 */\n      0x01\n        /* \"CustomTokens/contracts/utils/Counters.sol\":1032:1051  counter._value += 1 */\n      add\n      swap1\n      sstore\n        /* \"CustomTokens/contracts/utils/Counters.sol\":945:1068  function increment(Counter storage counter) internal {... */\n      jump\t// out\n        /* \"contracts/FlightDelayInsurance.sol\":4574:4907  function stringToBytes32(string memory source)... */\n    tag_100:\n        /* \"contracts/FlightDelayInsurance.sol\":4759:4785  tempEmptyStringTest.length */\n      dup1\n      mload\n        /* \"contracts/FlightDelayInsurance.sol\":4667:4681  bytes32 result */\n      0x00\n      swap1\n        /* \"contracts/FlightDelayInsurance.sol\":4738:4744  source */\n      dup3\n      swap1\n        /* \"contracts/FlightDelayInsurance.sol\":4755:4827  if (tempEmptyStringTest.length == 0) {... */\n      tag_110\n      jumpi\n      pop\n        /* \"contracts/FlightDelayInsurance.sol\":4813:4816  0x0 */\n      0x00\n      swap3\n        /* \"contracts/FlightDelayInsurance.sol\":4845:4901  {... */\n      swap2\n      pop\n      pop\n      jump\t// out\n        /* \"contracts/FlightDelayInsurance.sol\":4755:4827  if (tempEmptyStringTest.length == 0) {... */\n    tag_110:\n      pop\n      pop\n        /* \"contracts/FlightDelayInsurance.sol\":4887:4889  32 */\n      0x20\n        /* \"contracts/FlightDelayInsurance.sol\":4875:4890  add(source, 32) */\n      add\n        /* \"contracts/FlightDelayInsurance.sol\":4869:4891  mload(add(source, 32)) */\n      mload\n      swap1\n        /* \"contracts/FlightDelayInsurance.sol\":4845:4901  {... */\n      jump\t// out\n        /* \"@goplugin/contracts/src/v0.8/PluginClient.sol\":1807:2113  function buildPluginRequest(... */\n    tag_101:\n        /* \"@goplugin/contracts/src/v0.8/PluginClient.sol\":1968:1989  Plugin.Request memory */\n      tag_111\n      tag_112\n      jump\t// in\n    tag_111:\n        /* \"@goplugin/contracts/src/v0.8/PluginClient.sol\":2004:2029  Plugin.Request memory req */\n      tag_114\n      tag_112\n      jump\t// in\n    tag_114:\n        /* \"@goplugin/contracts/src/v0.8/PluginClient.sol\":2042:2108  req.initialize(specId, callbackAddress, callbackFunctionSignature) */\n      tag_115\n        /* \"@goplugin/contracts/src/v0.8/PluginClient.sol\":2042:2045  req */\n      dup2\n        /* \"@goplugin/contracts/src/v0.8/PluginClient.sol\":2057:2063  specId */\n      dup7\n        /* \"@goplugin/contracts/src/v0.8/PluginClient.sol\":2065:2080  callbackAddress */\n      dup7\n        /* \"@goplugin/contracts/src/v0.8/PluginClient.sol\":2082:2107  callbackFunctionSignature */\n      dup7\n        /* \"@goplugin/contracts/src/v0.8/PluginClient.sol\":2042:2056  req.initialize */\n      tag_116\n        /* \"@goplugin/contracts/src/v0.8/PluginClient.sol\":2042:2108  req.initialize(specId, callbackAddress, callbackFunctionSignature) */\n      jump\t// in\n    tag_115:\n        /* \"@goplugin/contracts/src/v0.8/PluginClient.sol\":2035:2108  return req.initialize(specId, callbackAddress, callbackFunctionSignature) */\n      swap6\n        /* \"@goplugin/contracts/src/v0.8/PluginClient.sol\":1807:2113  function buildPluginRequest(... */\n      swap5\n      pop\n      pop\n      pop\n      pop\n      pop\n      jump\t// out\n        /* \"@goplugin/contracts/src/v0.8/Plugin.sol\":3127:3308  function addUint(... */\n    tag_103:\n        /* \"@goplugin/contracts/src/v0.8/Plugin.sol\":3245:3253  self.buf */\n      0x80\n      dup4\n      add\n      mload\n        /* \"@goplugin/contracts/src/v0.8/Plugin.sol\":3245:3271  self.buf.encodeString(key) */\n      tag_118\n      swap1\n        /* \"@goplugin/contracts/src/v0.8/Plugin.sol\":3267:3270  key */\n      dup4\n        /* \"@goplugin/contracts/src/v0.8/Plugin.sol\":3245:3266  self.buf.encodeString */\n      tag_119\n        /* \"@goplugin/contracts/src/v0.8/Plugin.sol\":3245:3271  self.buf.encodeString(key) */\n      jump\t// in\n    tag_118:\n        /* \"@goplugin/contracts/src/v0.8/Plugin.sol\":3277:3285  self.buf */\n      0x80\n      dup4\n      add\n      mload\n        /* \"@goplugin/contracts/src/v0.8/Plugin.sol\":3277:3303  self.buf.encodeUInt(value) */\n      tag_120\n      swap1\n        /* \"@goplugin/contracts/src/v0.8/Plugin.sol\":3297:3302  value */\n      dup3\n        /* \"@goplugin/contracts/src/v0.8/Plugin.sol\":3277:3296  self.buf.encodeUInt */\n      tag_121\n        /* \"@goplugin/contracts/src/v0.8/Plugin.sol\":3277:3303  self.buf.encodeUInt(value) */\n      jump\t// in\n    tag_120:\n        /* \"@goplugin/contracts/src/v0.8/Plugin.sol\":3127:3308  function addUint(... */\n      pop\n      pop\n      pop\n      jump\t// out\n        /* \"@goplugin/contracts/src/v0.8/PluginClient.sol\":3115:3395  function sendPluginRequestTo(... */\n    tag_105:\n        /* \"@goplugin/contracts/src/v0.8/PluginClient.sol\":3260:3277  bytes32 requestId */\n      0x00\n        /* \"@goplugin/contracts/src/v0.8/PluginClient.sol\":3299:3390  rawRequest(oracleAddress, req, payment, ORACLE_ARGS_VERSION, oracle.oracleRequest.selector) */\n      tag_123\n        /* \"@goplugin/contracts/src/v0.8/PluginClient.sol\":3310:3323  oracleAddress */\n      dup5\n        /* \"@goplugin/contracts/src/v0.8/PluginClient.sol\":3325:3328  req */\n      dup5\n        /* \"@goplugin/contracts/src/v0.8/PluginClient.sol\":3330:3337  payment */\n      dup5\n        /* \"@goplugin/contracts/src/v0.8/PluginClient.sol\":754:755  1 */\n      0x01\n      shl(0xe1, 0x20214ca3)\n        /* \"@goplugin/contracts/src/v0.8/PluginClient.sol\":3299:3309  rawRequest */\n      tag_124\n        /* \"@goplugin/contracts/src/v0.8/PluginClient.sol\":3299:3390  rawRequest(oracleAddress, req, payment, ORACLE_ARGS_VERSION, oracle.oracleRequest.selector) */\n      jump\t// in\n    tag_123:\n        /* \"@goplugin/contracts/src/v0.8/PluginClient.sol\":3292:3390  return rawRequest(oracleAddress, req, payment, ORACLE_ARGS_VERSION, oracle.oracleRequest.selector) */\n      swap5\n        /* \"@goplugin/contracts/src/v0.8/PluginClient.sol\":3115:3395  function sendPluginRequestTo(... */\n      swap4\n      pop\n      pop\n      pop\n      pop\n      jump\t// out\n        /* \"@goplugin/contracts/src/v0.8/Plugin.sol\":961:1332  function initialize(... */\n    tag_116:\n        /* \"@goplugin/contracts/src/v0.8/Plugin.sol\":1122:1143  Plugin.Request memory */\n      tag_125\n      tag_112\n      jump\t// in\n    tag_125:\n        /* \"@goplugin/contracts/src/v0.8/Plugin.sol\":1158:1204  BufferPlugin.init(self.buf, defaultBufferSize) */\n      tag_127\n        /* \"@goplugin/contracts/src/v0.8/Plugin.sol\":1176:1180  self */\n      dup6\n        /* \"@goplugin/contracts/src/v0.8/Plugin.sol\":1176:1184  self.buf */\n      0x80\n      add\n      mload\n        /* \"@goplugin/contracts/src/v0.8/Plugin.sol\":347:350  256 */\n      0x0100\n        /* \"@goplugin/contracts/src/v0.8/Plugin.sol\":1158:1175  BufferPlugin.init */\n      tag_128\n        /* \"@goplugin/contracts/src/v0.8/Plugin.sol\":1158:1204  BufferPlugin.init(self.buf, defaultBufferSize) */\n      jump\t// in\n    tag_127:\n      pop\n      pop\n        /* \"@goplugin/contracts/src/v0.8/Plugin.sol\":1210:1225  self.id = jobId */\n      swap2\n      dup4\n      mstore\n      sub(shl(0xa0, 0x01), 0x01)\n        /* \"@goplugin/contracts/src/v0.8/Plugin.sol\":1231:1266  self.callbackAddress = callbackAddr */\n      and\n        /* \"@goplugin/contracts/src/v0.8/Plugin.sol\":1231:1251  self.callbackAddress */\n      0x20\n      dup4\n      add\n        /* \"@goplugin/contracts/src/v0.8/Plugin.sol\":1231:1266  self.callbackAddress = callbackAddr */\n      mstore\n      not(sub(shl(0xe0, 0x01), 0x01))\n        /* \"@goplugin/contracts/src/v0.8/Plugin.sol\":1272:1310  self.callbackFunctionId = callbackFunc */\n      and\n        /* \"@goplugin/contracts/src/v0.8/Plugin.sol\":1272:1295  self.callbackFunctionId */\n      0x40\n      dup3\n      add\n        /* \"@goplugin/contracts/src/v0.8/Plugin.sol\":1272:1310  self.callbackFunctionId = callbackFunc */\n      mstore\n        /* \"@goplugin/contracts/src/v0.8/Plugin.sol\":1210:1225  self.id = jobId */\n      swap1\n        /* \"@goplugin/contracts/src/v0.8/Plugin.sol\":961:1332  function initialize(... */\n      jump\t// out\n        /* \"@goplugin/contracts/src/v0.8/vendor/CBORPlugin.sol\":2757:2964  function encodeString(... */\n    tag_119:\n        /* \"@goplugin/contracts/src/v0.8/vendor/CBORPlugin.sol\":2874:2929  encodeType(buf, MAJOR_TYPE_STRING, bytes(value).length) */\n      tag_130\n        /* \"@goplugin/contracts/src/v0.8/vendor/CBORPlugin.sol\":2885:2888  buf */\n      dup3\n        /* \"@goplugin/contracts/src/v0.8/vendor/CBORPlugin.sol\":371:372  3 */\n      0x03\n        /* \"@goplugin/contracts/src/v0.8/vendor/CBORPlugin.sol\":2915:2920  value */\n      dup4\n        /* \"@goplugin/contracts/src/v0.8/vendor/CBORPlugin.sol\":2909:2928  bytes(value).length */\n      mload\n        /* \"@goplugin/contracts/src/v0.8/vendor/CBORPlugin.sol\":2874:2884  encodeType */\n      tag_131\n        /* \"@goplugin/contracts/src/v0.8/vendor/CBORPlugin.sol\":2874:2929  encodeType(buf, MAJOR_TYPE_STRING, bytes(value).length) */\n      jump\t// in\n    tag_130:\n        /* \"@goplugin/contracts/src/v0.8/vendor/CBORPlugin.sol\":2935:2959  buf.append(bytes(value)) */\n      tag_120\n        /* \"@goplugin/contracts/src/v0.8/vendor/CBORPlugin.sol\":2935:2938  buf */\n      dup3\n        /* \"@goplugin/contracts/src/v0.8/vendor/CBORPlugin.sol\":2952:2957  value */\n      dup3\n        /* \"@goplugin/contracts/src/v0.8/vendor/CBORPlugin.sol\":2935:2945  buf.append */\n      tag_133\n        /* \"@goplugin/contracts/src/v0.8/vendor/CBORPlugin.sol\":2935:2959  buf.append(bytes(value)) */\n      jump\t// in\n        /* \"@goplugin/contracts/src/v0.8/vendor/CBORPlugin.sol\":1513:1662  function encodeUInt(... */\n    tag_121:\n        /* \"@goplugin/contracts/src/v0.8/vendor/CBORPlugin.sol\":1619:1657  encodeType(buf, MAJOR_TYPE_INT, value) */\n      tag_135\n        /* \"@goplugin/contracts/src/v0.8/vendor/CBORPlugin.sol\":1630:1633  buf */\n      dup3\n        /* \"@goplugin/contracts/src/v0.8/vendor/CBORPlugin.sol\":222:223  0 */\n      0x00\n        /* \"@goplugin/contracts/src/v0.8/vendor/CBORPlugin.sol\":1651:1656  value */\n      dup4\n        /* \"@goplugin/contracts/src/v0.8/vendor/CBORPlugin.sol\":1619:1629  encodeType */\n      tag_131\n        /* \"@goplugin/contracts/src/v0.8/vendor/CBORPlugin.sol\":1619:1657  encodeType(buf, MAJOR_TYPE_INT, value) */\n      jump\t// in\n    tag_135:\n        /* \"@goplugin/contracts/src/v0.8/vendor/CBORPlugin.sol\":1513:1662  function encodeUInt(... */\n      pop\n      pop\n      jump\t// out\n        /* \"@goplugin/contracts/src/v0.8/PluginClient.sol\":5149:6092  function rawRequest(... */\n    tag_124:\n        /* \"@goplugin/contracts/src/v0.8/PluginClient.sol\":5411:5423  requestCount */\n      sload(0x04)\n        /* \"@goplugin/contracts/src/v0.8/PluginClient.sol\":5388:5424  abi.encodePacked(this, requestCount) */\n      mload(0x40)\n      not(0xffffffffffffffffffffffff)\n        /* \"@goplugin/contracts/src/v0.8/PluginClient.sol\":5405:5409  this */\n      address\n        /* \"#utility.yul\":4198:4200   */\n      0x60\n        /* \"#utility.yul\":4194:4209   */\n      shl\n        /* \"#utility.yul\":4190:4243   */\n      and\n        /* \"@goplugin/contracts/src/v0.8/PluginClient.sol\":5388:5424  abi.encodePacked(this, requestCount) */\n      0x20\n      dup3\n      add\n        /* \"#utility.yul\":4178:4244   */\n      mstore\n        /* \"#utility.yul\":4260:4272   */\n      0x34\n      dup2\n      add\n        /* \"#utility.yul\":4253:4281   */\n      swap2\n      swap1\n      swap2\n      mstore\n        /* \"@goplugin/contracts/src/v0.8/PluginClient.sol\":5334:5351  bytes32 requestId */\n      0x00\n      swap1\n        /* \"#utility.yul\":4297:4309   */\n      0x54\n      add\n        /* \"@goplugin/contracts/src/v0.8/PluginClient.sol\":5388:5424  abi.encodePacked(this, requestCount) */\n      0x40\n      dup1\n      mload\n      dup1\n      dup4\n      sub\n      not(0x1f)\n      add\n      dup2\n      mstore\n      swap2\n      dup2\n      mstore\n        /* \"@goplugin/contracts/src/v0.8/PluginClient.sol\":5378:5425  keccak256(abi.encodePacked(this, requestCount)) */\n      dup2\n      mload\n        /* \"@goplugin/contracts/src/v0.8/PluginClient.sol\":5388:5424  abi.encodePacked(this, requestCount) */\n      0x20\n        /* \"@goplugin/contracts/src/v0.8/PluginClient.sol\":5378:5425  keccak256(abi.encodePacked(this, requestCount)) */\n      swap3\n      dup4\n      add\n      keccak256\n        /* \"@goplugin/contracts/src/v0.8/PluginClient.sol\":5443:5455  requestCount */\n      sload(0x04)\n        /* \"@goplugin/contracts/src/v0.8/PluginClient.sol\":5431:5440  req.nonce */\n      0x60\n      dup10\n      add\n        /* \"@goplugin/contracts/src/v0.8/PluginClient.sol\":5431:5455  req.nonce = requestCount */\n      mstore\n        /* \"@goplugin/contracts/src/v0.8/PluginClient.sol\":5461:5487  pendingRequests[requestId] */\n      0x00\n      dup2\n      dup2\n      mstore\n        /* \"@goplugin/contracts/src/v0.8/PluginClient.sol\":5461:5476  pendingRequests */\n      0x05\n        /* \"@goplugin/contracts/src/v0.8/PluginClient.sol\":5461:5487  pendingRequests[requestId] */\n      swap1\n      swap4\n      mstore\n      dup2\n      dup4\n      keccak256\n        /* \"@goplugin/contracts/src/v0.8/PluginClient.sol\":5461:5503  pendingRequests[requestId] = oracleAddress */\n      dup1\n      sload\n      not(sub(shl(0xa0, 0x01), 0x01))\n      and\n      sub(shl(0xa0, 0x01), 0x01)\n      dup12\n      and\n      or\n      swap1\n      sstore\n        /* \"@goplugin/contracts/src/v0.8/PluginClient.sol\":5514:5540  PluginRequested(requestId) */\n      swap1\n      mload\n        /* \"@goplugin/contracts/src/v0.8/PluginClient.sol\":5378:5425  keccak256(abi.encodePacked(this, requestCount)) */\n      swap1\n      swap3\n      pop\n      dup3\n      swap2\n        /* \"@goplugin/contracts/src/v0.8/PluginClient.sol\":5514:5540  PluginRequested(requestId) */\n      0xa6745906207afb96a5801b8e5711fd7b74c5780ce893a973806e179d675bbe24\n      swap2\n      log2\n        /* \"@goplugin/contracts/src/v0.8/PluginClient.sol\":5546:5570  bytes memory encodedData */\n      0x00\n        /* \"@goplugin/contracts/src/v0.8/PluginClient.sol\":5603:5615  funcSelector */\n      dup3\n        /* \"@goplugin/contracts/src/v0.8/PluginClient.sol\":701:702  0 */\n      0x00\n        /* \"@goplugin/contracts/src/v0.8/PluginClient.sol\":645:646  0 */\n      dup1\n        /* \"@goplugin/contracts/src/v0.8/PluginClient.sol\":5835:5838  req */\n      dup9\n        /* \"@goplugin/contracts/src/v0.8/PluginClient.sol\":5835:5841  req.id */\n      0x00\n      add\n      mload\n        /* \"@goplugin/contracts/src/v0.8/PluginClient.sol\":5849:5852  req */\n      dup10\n        /* \"@goplugin/contracts/src/v0.8/PluginClient.sol\":5849:5868  req.callbackAddress */\n      0x20\n      add\n      mload\n        /* \"@goplugin/contracts/src/v0.8/PluginClient.sol\":5876:5879  req */\n      dup11\n        /* \"@goplugin/contracts/src/v0.8/PluginClient.sol\":5876:5898  req.callbackFunctionId */\n      0x40\n      add\n      mload\n        /* \"@goplugin/contracts/src/v0.8/PluginClient.sol\":5906:5909  req */\n      dup12\n        /* \"@goplugin/contracts/src/v0.8/PluginClient.sol\":5906:5915  req.nonce */\n      0x60\n      add\n      mload\n        /* \"@goplugin/contracts/src/v0.8/PluginClient.sol\":5923:5934  argsVersion */\n      dup11\n        /* \"@goplugin/contracts/src/v0.8/PluginClient.sol\":5942:5945  req */\n      dup14\n        /* \"@goplugin/contracts/src/v0.8/PluginClient.sol\":5942:5949  req.buf */\n      0x80\n      add\n      mload\n        /* \"@goplugin/contracts/src/v0.8/PluginClient.sol\":5942:5953  req.buf.buf */\n      0x00\n      add\n      mload\n        /* \"@goplugin/contracts/src/v0.8/PluginClient.sol\":5573:5954  abi.encodeWithSelector(... */\n      add(0x24, mload(0x40))\n      tag_139\n      swap9\n      swap8\n      swap7\n      swap6\n      swap5\n      swap4\n      swap3\n      swap2\n      swap1\n      tag_140\n      jump\t// in\n    tag_139:\n      0x40\n      dup1\n      mload\n      not(0x1f)\n      dup2\n      dup5\n      sub\n      add\n      dup2\n      mstore\n      swap2\n      dup2\n      mstore\n      0x20\n      dup3\n      add\n      dup1\n      mload\n      sub(shl(0xe0, 0x01), 0x01)\n      and\n      not(sub(shl(0xe0, 0x01), 0x01))\n      swap1\n      swap5\n      and\n      swap4\n      swap1\n      swap4\n      or\n      swap1\n      swap3\n      mstore\n        /* \"@goplugin/contracts/src/v0.8/PluginClient.sol\":5968:5971  pli */\n      sload(0x02)\n        /* \"@goplugin/contracts/src/v0.8/PluginClient.sol\":5968:6024  pli.transferAndCall(oracleAddress, payment, encodedData) */\n      swap2\n      mload\n      shl(0xe5, 0x02000575)\n      dup2\n      mstore\n        /* \"@goplugin/contracts/src/v0.8/PluginClient.sol\":5573:5954  abi.encodeWithSelector(... */\n      swap1\n      swap3\n      pop\n      sub(shl(0xa0, 0x01), 0x01)\n        /* \"@goplugin/contracts/src/v0.8/PluginClient.sol\":5968:5971  pli */\n      swap1\n      swap2\n      and\n      swap1\n        /* \"@goplugin/contracts/src/v0.8/PluginClient.sol\":5968:5987  pli.transferAndCall */\n      0x4000aea0\n      swap1\n        /* \"@goplugin/contracts/src/v0.8/PluginClient.sol\":5968:6024  pli.transferAndCall(oracleAddress, payment, encodedData) */\n      tag_141\n      swap1\n        /* \"@goplugin/contracts/src/v0.8/PluginClient.sol\":5988:6001  oracleAddress */\n      dup11\n      swap1\n        /* \"@goplugin/contracts/src/v0.8/PluginClient.sol\":6003:6010  payment */\n      dup10\n      swap1\n        /* \"@goplugin/contracts/src/v0.8/PluginClient.sol\":5573:5954  abi.encodeWithSelector(... */\n      dup7\n      swap1\n        /* \"@goplugin/contracts/src/v0.8/PluginClient.sol\":5968:6024  pli.transferAndCall(oracleAddress, payment, encodedData) */\n      0x04\n      add\n      tag_142\n      jump\t// in\n    tag_141:\n      0x20\n      mload(0x40)\n      dup1\n      dup4\n      sub\n      dup2\n      0x00\n      dup8\n      dup1\n      extcodesize\n      iszero\n      dup1\n      iszero\n      tag_143\n      jumpi\n      0x00\n      dup1\n      revert\n    tag_143:\n      pop\n      gas\n      call\n      iszero\n      dup1\n      iszero\n      tag_145\n      jumpi\n      returndatasize\n      0x00\n      dup1\n      returndatacopy\n      revert(0x00, returndatasize)\n    tag_145:\n      pop\n      pop\n      pop\n      pop\n      mload(0x40)\n      returndatasize\n      not(0x1f)\n      0x1f\n      dup3\n      add\n      and\n      dup3\n      add\n      dup1\n      0x40\n      mstore\n      pop\n      dup2\n      add\n      swap1\n      tag_146\n      swap2\n      swap1\n      tag_147\n      jump\t// in\n    tag_146:\n        /* \"@goplugin/contracts/src/v0.8/PluginClient.sol\":5960:6064  require(pli.transferAndCall(oracleAddress, payment, encodedData), \"unable to transferAndCall to oracle\") */\n      tag_148\n      jumpi\n      mload(0x40)\n      shl(0xe5, 0x461bcd)\n      dup2\n      mstore\n        /* \"#utility.yul\":6489:6491   */\n      0x20\n        /* \"@goplugin/contracts/src/v0.8/PluginClient.sol\":5960:6064  require(pli.transferAndCall(oracleAddress, payment, encodedData), \"unable to transferAndCall to oracle\") */\n      0x04\n      dup3\n      add\n        /* \"#utility.yul\":6471:6492   */\n      mstore\n        /* \"#utility.yul\":6528:6530   */\n      0x23\n        /* \"#utility.yul\":6508:6526   */\n      0x24\n      dup3\n      add\n        /* \"#utility.yul\":6501:6531   */\n      mstore\n        /* \"#utility.yul\":6567:6601   */\n      0x756e61626c6520746f207472616e73666572416e6443616c6c20746f206f7261\n        /* \"#utility.yul\":6547:6565   */\n      0x44\n      dup3\n      add\n        /* \"#utility.yul\":6540:6602   */\n      mstore\n      shl(0xe8, 0x636c65)\n        /* \"#utility.yul\":6618:6636   */\n      0x64\n      dup3\n      add\n        /* \"#utility.yul\":6611:6644   */\n      mstore\n        /* \"#utility.yul\":6661:6680   */\n      0x84\n      add\n        /* \"@goplugin/contracts/src/v0.8/PluginClient.sol\":5960:6064  require(pli.transferAndCall(oracleAddress, payment, encodedData), \"unable to transferAndCall to oracle\") */\n      tag_60\n        /* \"#utility.yul\":6461:6686   */\n      jump\n        /* \"@goplugin/contracts/src/v0.8/PluginClient.sol\":5960:6064  require(pli.transferAndCall(oracleAddress, payment, encodedData), \"unable to transferAndCall to oracle\") */\n    tag_148:\n        /* \"@goplugin/contracts/src/v0.8/PluginClient.sol\":6086:6087  1 */\n      0x01\n        /* \"@goplugin/contracts/src/v0.8/PluginClient.sol\":6070:6082  requestCount */\n      0x04\n      0x00\n        /* \"@goplugin/contracts/src/v0.8/PluginClient.sol\":6070:6087  requestCount += 1 */\n      dup3\n      dup3\n      sload\n      tag_151\n      swap2\n      swap1\n      tag_152\n      jump\t// in\n    tag_151:\n      swap1\n      swap2\n      sstore\n      pop\n        /* \"@goplugin/contracts/src/v0.8/PluginClient.sol\":5149:6092  function rawRequest(... */\n      swap2\n      swap8\n      swap7\n      pop\n      pop\n      pop\n      pop\n      pop\n      pop\n      pop\n      jump\t// out\n        /* \"@goplugin/contracts/src/v0.8/vendor/BufferPlugin.sol\":979:1412  function init(... */\n    tag_128:\n      0x40\n      dup1\n      mload\n      dup1\n      dup3\n      add\n      swap1\n      swap2\n      mstore\n      0x60\n      dup2\n      mstore\n      0x00\n      0x20\n      dup3\n      add\n      mstore\n        /* \"@goplugin/contracts/src/v0.8/vendor/BufferPlugin.sol\":1112:1125  capacity % 32 */\n      tag_156\n        /* \"@goplugin/contracts/src/v0.8/vendor/BufferPlugin.sol\":1123:1125  32 */\n      0x20\n        /* \"@goplugin/contracts/src/v0.8/vendor/BufferPlugin.sol\":1112:1120  capacity */\n      dup4\n        /* \"@goplugin/contracts/src/v0.8/vendor/BufferPlugin.sol\":1112:1125  capacity % 32 */\n      tag_157\n      jump\t// in\n    tag_156:\n        /* \"@goplugin/contracts/src/v0.8/vendor/BufferPlugin.sol\":1112:1130  capacity % 32 != 0 */\n      iszero\n        /* \"@goplugin/contracts/src/v0.8/vendor/BufferPlugin.sol\":1108:1179  if (capacity % 32 != 0) {... */\n      tag_158\n      jumpi\n        /* \"@goplugin/contracts/src/v0.8/vendor/BufferPlugin.sol\":1158:1171  capacity % 32 */\n      tag_159\n        /* \"@goplugin/contracts/src/v0.8/vendor/BufferPlugin.sol\":1169:1171  32 */\n      0x20\n        /* \"@goplugin/contracts/src/v0.8/vendor/BufferPlugin.sol\":1158:1166  capacity */\n      dup4\n        /* \"@goplugin/contracts/src/v0.8/vendor/BufferPlugin.sol\":1158:1171  capacity % 32 */\n      tag_157\n      jump\t// in\n    tag_159:\n        /* \"@goplugin/contracts/src/v0.8/vendor/BufferPlugin.sol\":1152:1172  32 - (capacity % 32) */\n      tag_160\n      swap1\n        /* \"@goplugin/contracts/src/v0.8/vendor/BufferPlugin.sol\":1152:1154  32 */\n      0x20\n        /* \"@goplugin/contracts/src/v0.8/vendor/BufferPlugin.sol\":1152:1172  32 - (capacity % 32) */\n      tag_161\n      jump\t// in\n    tag_160:\n        /* \"@goplugin/contracts/src/v0.8/vendor/BufferPlugin.sol\":1140:1172  capacity += 32 - (capacity % 32) */\n      tag_162\n      swap1\n      dup4\n      tag_152\n      jump\t// in\n    tag_162:\n      swap2\n      pop\n        /* \"@goplugin/contracts/src/v0.8/vendor/BufferPlugin.sol\":1108:1179  if (capacity % 32 != 0) {... */\n    tag_158:\n      pop\n        /* \"@goplugin/contracts/src/v0.8/vendor/BufferPlugin.sol\":1226:1238  buf.capacity */\n      0x20\n      dup1\n      dup4\n      add\n        /* \"@goplugin/contracts/src/v0.8/vendor/BufferPlugin.sol\":1226:1249  buf.capacity = capacity */\n      dup3\n      swap1\n      mstore\n        /* \"@goplugin/contracts/src/v0.8/vendor/BufferPlugin.sol\":1289:1293  0x40 */\n      0x40\n        /* \"@goplugin/contracts/src/v0.8/vendor/BufferPlugin.sol\":1283:1294  mload(0x40) */\n      dup1\n      mload\n        /* \"@goplugin/contracts/src/v0.8/vendor/BufferPlugin.sol\":1301:1317  mstore(buf, ptr) */\n      dup1\n      dup6\n      mstore\n      0x00\n        /* \"@goplugin/contracts/src/v0.8/vendor/BufferPlugin.sol\":1324:1338  mstore(ptr, 0) */\n      dup2\n      mstore\n        /* \"@goplugin/contracts/src/v0.8/vendor/BufferPlugin.sol\":1366:1384  add(ptr, capacity) */\n      dup4\n      add\n        /* \"@goplugin/contracts/src/v0.8/vendor/BufferPlugin.sol\":1358:1385  add(32, add(ptr, capacity)) */\n      swap1\n      swap2\n      add\n        /* \"@goplugin/contracts/src/v0.8/vendor/BufferPlugin.sol\":1345:1386  mstore(0x40, add(32, add(ptr, capacity))) */\n      swap1\n      mstore\n        /* \"@goplugin/contracts/src/v0.8/vendor/BufferPlugin.sol\":1226:1229  buf */\n      dup2\n        /* \"@goplugin/contracts/src/v0.8/vendor/BufferPlugin.sol\":979:1412  function init(... */\n    tag_155:\n      swap3\n      swap2\n      pop\n      pop\n      jump\t// out\n        /* \"@goplugin/contracts/src/v0.8/vendor/CBORPlugin.sol\":670:1337  function encodeType(... */\n    tag_131:\n        /* \"@goplugin/contracts/src/v0.8/vendor/CBORPlugin.sol\":804:806  23 */\n      0x17\n        /* \"@goplugin/contracts/src/v0.8/vendor/CBORPlugin.sol\":795:800  value */\n      dup2\n        /* \"@goplugin/contracts/src/v0.8/vendor/CBORPlugin.sol\":795:806  value <= 23 */\n      gt\n        /* \"@goplugin/contracts/src/v0.8/vendor/CBORPlugin.sol\":792:1333  if(value <= 23) {... */\n      tag_164\n      jumpi\n        /* \"@goplugin/contracts/src/v0.8/vendor/CBORPlugin.sol\":816:860  buf.appendUint8(uint8((major << 5) | value)) */\n      tag_165\n        /* \"@goplugin/contracts/src/v0.8/vendor/CBORPlugin.sol\":816:819  buf */\n      dup4\n        /* \"@goplugin/contracts/src/v0.8/vendor/CBORPlugin.sol\":838:858  (major << 5) | value */\n      0xe0\n        /* \"@goplugin/contracts/src/v0.8/vendor/CBORPlugin.sol\":848:849  5 */\n      0x05\n        /* \"@goplugin/contracts/src/v0.8/vendor/CBORPlugin.sol\":839:849  major << 5 */\n      dup6\n      swap1\n      shl\n        /* \"@goplugin/contracts/src/v0.8/vendor/CBORPlugin.sol\":838:858  (major << 5) | value */\n      and\n      dup4\n      or\n        /* \"@goplugin/contracts/src/v0.8/vendor/CBORPlugin.sol\":816:831  buf.appendUint8 */\n      tag_166\n        /* \"@goplugin/contracts/src/v0.8/vendor/CBORPlugin.sol\":816:860  buf.appendUint8(uint8((major << 5) | value)) */\n      jump\t// in\n    tag_165:\n      pop\n        /* \"@goplugin/contracts/src/v0.8/Plugin.sol\":3127:3308  function addUint(... */\n      pop\n      pop\n      pop\n      jump\t// out\n        /* \"@goplugin/contracts/src/v0.8/vendor/CBORPlugin.sol\":792:1333  if(value <= 23) {... */\n    tag_164:\n        /* \"@goplugin/contracts/src/v0.8/vendor/CBORPlugin.sol\":885:889  0xFF */\n      0xff\n        /* \"@goplugin/contracts/src/v0.8/vendor/CBORPlugin.sol\":876:881  value */\n      dup2\n        /* \"@goplugin/contracts/src/v0.8/vendor/CBORPlugin.sol\":876:889  value <= 0xFF */\n      gt\n        /* \"@goplugin/contracts/src/v0.8/vendor/CBORPlugin.sol\":873:1333  if(value <= 0xFF) {... */\n      tag_168\n      jumpi\n        /* \"@goplugin/contracts/src/v0.8/vendor/CBORPlugin.sol\":899:940  buf.appendUint8(uint8((major << 5) | 24)) */\n      tag_169\n        /* \"@goplugin/contracts/src/v0.8/vendor/CBORPlugin.sol\":899:902  buf */\n      dup4\n        /* \"@goplugin/contracts/src/v0.8/vendor/CBORPlugin.sol\":936:938  24 */\n      0x18\n        /* \"@goplugin/contracts/src/v0.8/vendor/CBORPlugin.sol\":922:932  major << 5 */\n      0x1fe0\n        /* \"@goplugin/contracts/src/v0.8/vendor/CBORPlugin.sol\":931:932  5 */\n      0x05\n        /* \"@goplugin/contracts/src/v0.8/vendor/CBORPlugin.sol\":922:932  major << 5 */\n      dup7\n      swap1\n      shl\n      and\n        /* \"@goplugin/contracts/src/v0.8/vendor/CBORPlugin.sol\":921:938  (major << 5) | 24 */\n      or\n        /* \"@goplugin/contracts/src/v0.8/vendor/CBORPlugin.sol\":899:914  buf.appendUint8 */\n      tag_166\n        /* \"@goplugin/contracts/src/v0.8/vendor/CBORPlugin.sol\":899:940  buf.appendUint8(uint8((major << 5) | 24)) */\n      jump\t// in\n    tag_169:\n      pop\n        /* \"@goplugin/contracts/src/v0.8/vendor/CBORPlugin.sol\":948:971  buf.appendInt(value, 1) */\n      tag_165\n        /* \"@goplugin/contracts/src/v0.8/vendor/CBORPlugin.sol\":948:951  buf */\n      dup4\n        /* \"@goplugin/contracts/src/v0.8/vendor/CBORPlugin.sol\":962:967  value */\n      dup3\n        /* \"@goplugin/contracts/src/v0.8/vendor/CBORPlugin.sol\":969:970  1 */\n      0x01\n        /* \"@goplugin/contracts/src/v0.8/vendor/CBORPlugin.sol\":948:961  buf.appendInt */\n      tag_171\n        /* \"@goplugin/contracts/src/v0.8/vendor/CBORPlugin.sol\":948:971  buf.appendInt(value, 1) */\n      jump\t// in\n        /* \"@goplugin/contracts/src/v0.8/vendor/CBORPlugin.sol\":873:1333  if(value <= 0xFF) {... */\n    tag_168:\n        /* \"@goplugin/contracts/src/v0.8/vendor/CBORPlugin.sol\":996:1002  0xFFFF */\n      0xffff\n        /* \"@goplugin/contracts/src/v0.8/vendor/CBORPlugin.sol\":987:992  value */\n      dup2\n        /* \"@goplugin/contracts/src/v0.8/vendor/CBORPlugin.sol\":987:1002  value <= 0xFFFF */\n      gt\n        /* \"@goplugin/contracts/src/v0.8/vendor/CBORPlugin.sol\":984:1333  if(value <= 0xFFFF) {... */\n      tag_173\n      jumpi\n        /* \"@goplugin/contracts/src/v0.8/vendor/CBORPlugin.sol\":1012:1053  buf.appendUint8(uint8((major << 5) | 25)) */\n      tag_174\n        /* \"@goplugin/contracts/src/v0.8/vendor/CBORPlugin.sol\":1012:1015  buf */\n      dup4\n        /* \"@goplugin/contracts/src/v0.8/vendor/CBORPlugin.sol\":1049:1051  25 */\n      0x19\n        /* \"@goplugin/contracts/src/v0.8/vendor/CBORPlugin.sol\":1035:1045  major << 5 */\n      0x1fe0\n        /* \"@goplugin/contracts/src/v0.8/vendor/CBORPlugin.sol\":1044:1045  5 */\n      0x05\n        /* \"@goplugin/contracts/src/v0.8/vendor/CBORPlugin.sol\":1035:1045  major << 5 */\n      dup7\n      swap1\n      shl\n      and\n        /* \"@goplugin/contracts/src/v0.8/vendor/CBORPlugin.sol\":1034:1051  (major << 5) | 25 */\n      or\n        /* \"@goplugin/contracts/src/v0.8/vendor/CBORPlugin.sol\":1012:1027  buf.appendUint8 */\n      tag_166\n        /* \"@goplugin/contracts/src/v0.8/vendor/CBORPlugin.sol\":1012:1053  buf.appendUint8(uint8((major << 5) | 25)) */\n      jump\t// in\n    tag_174:\n      pop\n        /* \"@goplugin/contracts/src/v0.8/vendor/CBORPlugin.sol\":1061:1084  buf.appendInt(value, 2) */\n      tag_165\n        /* \"@goplugin/contracts/src/v0.8/vendor/CBORPlugin.sol\":1061:1064  buf */\n      dup4\n        /* \"@goplugin/contracts/src/v0.8/vendor/CBORPlugin.sol\":1075:1080  value */\n      dup3\n        /* \"@goplugin/contracts/src/v0.8/vendor/CBORPlugin.sol\":1082:1083  2 */\n      0x02\n        /* \"@goplugin/contracts/src/v0.8/vendor/CBORPlugin.sol\":1061:1074  buf.appendInt */\n      tag_171\n        /* \"@goplugin/contracts/src/v0.8/vendor/CBORPlugin.sol\":1061:1084  buf.appendInt(value, 2) */\n      jump\t// in\n        /* \"@goplugin/contracts/src/v0.8/vendor/CBORPlugin.sol\":984:1333  if(value <= 0xFFFF) {... */\n    tag_173:\n        /* \"@goplugin/contracts/src/v0.8/vendor/CBORPlugin.sol\":1109:1119  0xFFFFFFFF */\n      0xffffffff\n        /* \"@goplugin/contracts/src/v0.8/vendor/CBORPlugin.sol\":1100:1105  value */\n      dup2\n        /* \"@goplugin/contracts/src/v0.8/vendor/CBORPlugin.sol\":1100:1119  value <= 0xFFFFFFFF */\n      gt\n        /* \"@goplugin/contracts/src/v0.8/vendor/CBORPlugin.sol\":1097:1333  if(value <= 0xFFFFFFFF) {... */\n      tag_177\n      jumpi\n        /* \"@goplugin/contracts/src/v0.8/vendor/CBORPlugin.sol\":1129:1170  buf.appendUint8(uint8((major << 5) | 26)) */\n      tag_178\n        /* \"@goplugin/contracts/src/v0.8/vendor/CBORPlugin.sol\":1129:1132  buf */\n      dup4\n        /* \"@goplugin/contracts/src/v0.8/vendor/CBORPlugin.sol\":1166:1168  26 */\n      0x1a\n        /* \"@goplugin/contracts/src/v0.8/vendor/CBORPlugin.sol\":1152:1162  major << 5 */\n      0x1fe0\n        /* \"@goplugin/contracts/src/v0.8/vendor/CBORPlugin.sol\":1161:1162  5 */\n      0x05\n        /* \"@goplugin/contracts/src/v0.8/vendor/CBORPlugin.sol\":1152:1162  major << 5 */\n      dup7\n      swap1\n      shl\n      and\n        /* \"@goplugin/contracts/src/v0.8/vendor/CBORPlugin.sol\":1151:1168  (major << 5) | 26 */\n      or\n        /* \"@goplugin/contracts/src/v0.8/vendor/CBORPlugin.sol\":1129:1144  buf.appendUint8 */\n      tag_166\n        /* \"@goplugin/contracts/src/v0.8/vendor/CBORPlugin.sol\":1129:1170  buf.appendUint8(uint8((major << 5) | 26)) */\n      jump\t// in\n    tag_178:\n      pop\n        /* \"@goplugin/contracts/src/v0.8/vendor/CBORPlugin.sol\":1178:1201  buf.appendInt(value, 4) */\n      tag_165\n        /* \"@goplugin/contracts/src/v0.8/vendor/CBORPlugin.sol\":1178:1181  buf */\n      dup4\n        /* \"@goplugin/contracts/src/v0.8/vendor/CBORPlugin.sol\":1192:1197  value */\n      dup3\n        /* \"@goplugin/contracts/src/v0.8/vendor/CBORPlugin.sol\":1199:1200  4 */\n      0x04\n        /* \"@goplugin/contracts/src/v0.8/vendor/CBORPlugin.sol\":1178:1191  buf.appendInt */\n      tag_171\n        /* \"@goplugin/contracts/src/v0.8/vendor/CBORPlugin.sol\":1178:1201  buf.appendInt(value, 4) */\n      jump\t// in\n        /* \"@goplugin/contracts/src/v0.8/vendor/CBORPlugin.sol\":1097:1333  if(value <= 0xFFFFFFFF) {... */\n    tag_177:\n        /* \"@goplugin/contracts/src/v0.8/vendor/CBORPlugin.sol\":1226:1244  0xFFFFFFFFFFFFFFFF */\n      0xffffffffffffffff\n        /* \"@goplugin/contracts/src/v0.8/vendor/CBORPlugin.sol\":1217:1222  value */\n      dup2\n        /* \"@goplugin/contracts/src/v0.8/vendor/CBORPlugin.sol\":1217:1244  value <= 0xFFFFFFFFFFFFFFFF */\n      gt\n        /* \"@goplugin/contracts/src/v0.8/vendor/CBORPlugin.sol\":1214:1333  if(value <= 0xFFFFFFFFFFFFFFFF) {... */\n      tag_120\n      jumpi\n        /* \"@goplugin/contracts/src/v0.8/vendor/CBORPlugin.sol\":1254:1295  buf.appendUint8(uint8((major << 5) | 27)) */\n      tag_182\n        /* \"@goplugin/contracts/src/v0.8/vendor/CBORPlugin.sol\":1254:1257  buf */\n      dup4\n        /* \"@goplugin/contracts/src/v0.8/vendor/CBORPlugin.sol\":1291:1293  27 */\n      0x1b\n        /* \"@goplugin/contracts/src/v0.8/vendor/CBORPlugin.sol\":1277:1287  major << 5 */\n      0x1fe0\n        /* \"@goplugin/contracts/src/v0.8/vendor/CBORPlugin.sol\":1286:1287  5 */\n      0x05\n        /* \"@goplugin/contracts/src/v0.8/vendor/CBORPlugin.sol\":1277:1287  major << 5 */\n      dup7\n      swap1\n      shl\n      and\n        /* \"@goplugin/contracts/src/v0.8/vendor/CBORPlugin.sol\":1276:1293  (major << 5) | 27 */\n      or\n        /* \"@goplugin/contracts/src/v0.8/vendor/CBORPlugin.sol\":1254:1269  buf.appendUint8 */\n      tag_166\n        /* \"@goplugin/contracts/src/v0.8/vendor/CBORPlugin.sol\":1254:1295  buf.appendUint8(uint8((major << 5) | 27)) */\n      jump\t// in\n    tag_182:\n      pop\n        /* \"@goplugin/contracts/src/v0.8/vendor/CBORPlugin.sol\":1303:1326  buf.appendInt(value, 8) */\n      tag_165\n        /* \"@goplugin/contracts/src/v0.8/vendor/CBORPlugin.sol\":1303:1306  buf */\n      dup4\n        /* \"@goplugin/contracts/src/v0.8/vendor/CBORPlugin.sol\":1317:1322  value */\n      dup3\n        /* \"@goplugin/contracts/src/v0.8/vendor/CBORPlugin.sol\":1324:1325  8 */\n      0x08\n        /* \"@goplugin/contracts/src/v0.8/vendor/CBORPlugin.sol\":1303:1316  buf.appendInt */\n      tag_171\n        /* \"@goplugin/contracts/src/v0.8/vendor/CBORPlugin.sol\":1303:1326  buf.appendInt(value, 8) */\n      jump\t// in\n        /* \"@goplugin/contracts/src/v0.8/vendor/BufferPlugin.sol\":4823:5016  function append(... */\n    tag_133:\n      0x40\n      dup1\n      mload\n      dup1\n      dup3\n      add\n      swap1\n      swap2\n      mstore\n      0x60\n      dup2\n      mstore\n      0x00\n      0x20\n      dup3\n      add\n      mstore\n        /* \"@goplugin/contracts/src/v0.8/vendor/BufferPlugin.sol\":4966:5011  write(buf, buf.buf.length, data, data.length) */\n      tag_186\n        /* \"@goplugin/contracts/src/v0.8/vendor/BufferPlugin.sol\":4972:4975  buf */\n      dup4\n        /* \"@goplugin/contracts/src/v0.8/vendor/BufferPlugin.sol\":4977:4980  buf */\n      dup5\n        /* \"@goplugin/contracts/src/v0.8/vendor/BufferPlugin.sol\":4977:4984  buf.buf */\n      0x00\n      add\n      mload\n        /* \"@goplugin/contracts/src/v0.8/vendor/BufferPlugin.sol\":4977:4991  buf.buf.length */\n      mload\n        /* \"@goplugin/contracts/src/v0.8/vendor/BufferPlugin.sol\":4993:4997  data */\n      dup5\n        /* \"@goplugin/contracts/src/v0.8/vendor/BufferPlugin.sol\":4999:5003  data */\n      dup6\n        /* \"@goplugin/contracts/src/v0.8/vendor/BufferPlugin.sol\":4999:5010  data.length */\n      mload\n        /* \"@goplugin/contracts/src/v0.8/vendor/BufferPlugin.sol\":4966:4971  write */\n      tag_187\n        /* \"@goplugin/contracts/src/v0.8/vendor/BufferPlugin.sol\":4966:5011  write(buf, buf.buf.length, data, data.length) */\n      jump\t// in\n    tag_186:\n        /* \"@goplugin/contracts/src/v0.8/vendor/BufferPlugin.sol\":4959:5011  return write(buf, buf.buf.length, data, data.length) */\n      swap4\n        /* \"@goplugin/contracts/src/v0.8/vendor/BufferPlugin.sol\":4823:5016  function append(... */\n      swap3\n      pop\n      pop\n      pop\n      jump\t// out\n        /* \"@goplugin/contracts/src/v0.8/vendor/BufferPlugin.sol\":6218:6400  function appendUint8(... */\n    tag_166:\n      0x40\n      dup1\n      mload\n      dup1\n      dup3\n      add\n      swap1\n      swap2\n      mstore\n      0x60\n      dup2\n      mstore\n      0x00\n      0x20\n      dup3\n      add\n      mstore\n        /* \"@goplugin/contracts/src/v0.8/vendor/BufferPlugin.sol\":6358:6395  writeUint8(buf, buf.buf.length, data) */\n      tag_186\n        /* \"@goplugin/contracts/src/v0.8/vendor/BufferPlugin.sol\":6369:6372  buf */\n      dup4\n        /* \"@goplugin/contracts/src/v0.8/vendor/BufferPlugin.sol\":6374:6377  buf */\n      dup5\n        /* \"@goplugin/contracts/src/v0.8/vendor/BufferPlugin.sol\":6374:6381  buf.buf */\n      0x00\n      add\n      mload\n        /* \"@goplugin/contracts/src/v0.8/vendor/BufferPlugin.sol\":6374:6388  buf.buf.length */\n      mload\n        /* \"@goplugin/contracts/src/v0.8/vendor/BufferPlugin.sol\":6390:6394  data */\n      dup5\n        /* \"@goplugin/contracts/src/v0.8/vendor/BufferPlugin.sol\":6358:6368  writeUint8 */\n      tag_191\n        /* \"@goplugin/contracts/src/v0.8/vendor/BufferPlugin.sol\":6358:6395  writeUint8(buf, buf.buf.length, data) */\n      jump\t// in\n        /* \"@goplugin/contracts/src/v0.8/vendor/BufferPlugin.sol\":10212:10408  function appendInt(... */\n    tag_171:\n      0x40\n      dup1\n      mload\n      dup1\n      dup3\n      add\n      swap1\n      swap2\n      mstore\n      0x60\n      dup2\n      mstore\n      0x00\n      0x20\n      dup3\n      add\n      mstore\n        /* \"@goplugin/contracts/src/v0.8/vendor/BufferPlugin.sol\":10363:10403  writeInt(buf, buf.buf.length, data, len) */\n      tag_123\n        /* \"@goplugin/contracts/src/v0.8/vendor/BufferPlugin.sol\":10372:10375  buf */\n      dup5\n        /* \"@goplugin/contracts/src/v0.8/vendor/BufferPlugin.sol\":10377:10380  buf */\n      dup6\n        /* \"@goplugin/contracts/src/v0.8/vendor/BufferPlugin.sol\":10377:10384  buf.buf */\n      0x00\n      add\n      mload\n        /* \"@goplugin/contracts/src/v0.8/vendor/BufferPlugin.sol\":10377:10391  buf.buf.length */\n      mload\n        /* \"@goplugin/contracts/src/v0.8/vendor/BufferPlugin.sol\":10393:10397  data */\n      dup6\n        /* \"@goplugin/contracts/src/v0.8/vendor/BufferPlugin.sol\":10399:10402  len */\n      dup6\n        /* \"@goplugin/contracts/src/v0.8/vendor/BufferPlugin.sol\":10363:10371  writeInt */\n      tag_195\n        /* \"@goplugin/contracts/src/v0.8/vendor/BufferPlugin.sol\":10363:10403  writeInt(buf, buf.buf.length, data, len) */\n      jump\t// in\n        /* \"@goplugin/contracts/src/v0.8/vendor/BufferPlugin.sol\":2854:4076  function write(... */\n    tag_187:\n      0x40\n      dup1\n      mload\n      dup1\n      dup3\n      add\n      swap1\n      swap2\n      mstore\n      0x60\n      dup2\n      mstore\n      0x00\n      0x20\n      dup3\n      add\n      mstore\n        /* \"@goplugin/contracts/src/v0.8/vendor/BufferPlugin.sol\":3031:3035  data */\n      dup3\n        /* \"@goplugin/contracts/src/v0.8/vendor/BufferPlugin.sol\":3031:3042  data.length */\n      mload\n        /* \"@goplugin/contracts/src/v0.8/vendor/BufferPlugin.sol\":3024:3027  len */\n      dup3\n        /* \"@goplugin/contracts/src/v0.8/vendor/BufferPlugin.sol\":3024:3042  len <= data.length */\n      gt\n      iszero\n        /* \"@goplugin/contracts/src/v0.8/vendor/BufferPlugin.sol\":3016:3043  require(len <= data.length) */\n      tag_198\n      jumpi\n      0x00\n      dup1\n      revert\n    tag_198:\n        /* \"@goplugin/contracts/src/v0.8/vendor/BufferPlugin.sol\":3066:3078  buf.capacity */\n      0x20\n      dup6\n      add\n      mload\n        /* \"@goplugin/contracts/src/v0.8/vendor/BufferPlugin.sol\":3054:3063  off + len */\n      tag_199\n        /* \"@goplugin/contracts/src/v0.8/vendor/BufferPlugin.sol\":3060:3063  len */\n      dup4\n        /* \"@goplugin/contracts/src/v0.8/vendor/BufferPlugin.sol\":3054:3057  off */\n      dup7\n        /* \"@goplugin/contracts/src/v0.8/vendor/BufferPlugin.sol\":3054:3063  off + len */\n      tag_152\n      jump\t// in\n    tag_199:\n        /* \"@goplugin/contracts/src/v0.8/vendor/BufferPlugin.sol\":3054:3078  off + len > buf.capacity */\n      gt\n        /* \"@goplugin/contracts/src/v0.8/vendor/BufferPlugin.sol\":3050:3140  if (off + len > buf.capacity) {... */\n      iszero\n      tag_201\n      jumpi\n        /* \"@goplugin/contracts/src/v0.8/vendor/BufferPlugin.sol\":3088:3133  resize(buf, max(buf.capacity, len + off) * 2) */\n      tag_201\n        /* \"@goplugin/contracts/src/v0.8/vendor/BufferPlugin.sol\":3095:3098  buf */\n      dup6\n        /* \"@goplugin/contracts/src/v0.8/vendor/BufferPlugin.sol\":3100:3128  max(buf.capacity, len + off) */\n      tag_202\n        /* \"@goplugin/contracts/src/v0.8/vendor/BufferPlugin.sol\":3104:3107  buf */\n      dup8\n        /* \"@goplugin/contracts/src/v0.8/vendor/BufferPlugin.sol\":3104:3116  buf.capacity */\n      0x20\n      add\n      mload\n        /* \"@goplugin/contracts/src/v0.8/vendor/BufferPlugin.sol\":3124:3127  off */\n      dup8\n        /* \"@goplugin/contracts/src/v0.8/vendor/BufferPlugin.sol\":3118:3121  len */\n      dup7\n        /* \"@goplugin/contracts/src/v0.8/vendor/BufferPlugin.sol\":3118:3127  len + off */\n      tag_203\n      swap2\n      swap1\n      tag_152\n      jump\t// in\n    tag_203:\n        /* \"@goplugin/contracts/src/v0.8/vendor/BufferPlugin.sol\":3100:3103  max */\n      tag_204\n        /* \"@goplugin/contracts/src/v0.8/vendor/BufferPlugin.sol\":3100:3128  max(buf.capacity, len + off) */\n      jump\t// in\n    tag_202:\n        /* \"@goplugin/contracts/src/v0.8/vendor/BufferPlugin.sol\":3100:3132  max(buf.capacity, len + off) * 2 */\n      tag_205\n      swap1\n        /* \"@goplugin/contracts/src/v0.8/vendor/BufferPlugin.sol\":3131:3132  2 */\n      0x02\n        /* \"@goplugin/contracts/src/v0.8/vendor/BufferPlugin.sol\":3100:3132  max(buf.capacity, len + off) * 2 */\n      tag_206\n      jump\t// in\n    tag_205:\n        /* \"@goplugin/contracts/src/v0.8/vendor/BufferPlugin.sol\":3088:3094  resize */\n      tag_207\n        /* \"@goplugin/contracts/src/v0.8/vendor/BufferPlugin.sol\":3088:3133  resize(buf, max(buf.capacity, len + off) * 2) */\n      jump\t// in\n    tag_201:\n        /* \"@goplugin/contracts/src/v0.8/vendor/BufferPlugin.sol\":3146:3155  uint dest */\n      0x00\n        /* \"@goplugin/contracts/src/v0.8/vendor/BufferPlugin.sol\":3161:3169  uint src */\n      dup1\n        /* \"@goplugin/contracts/src/v0.8/vendor/BufferPlugin.sol\":3255:3258  buf */\n      dup7\n        /* \"@goplugin/contracts/src/v0.8/vendor/BufferPlugin.sol\":3249:3259  mload(buf) */\n      mload\n        /* \"@goplugin/contracts/src/v0.8/vendor/BufferPlugin.sol\":3326:3332  bufptr */\n      dup1\n        /* \"@goplugin/contracts/src/v0.8/vendor/BufferPlugin.sol\":3320:3333  mload(bufptr) */\n      mload\n        /* \"@goplugin/contracts/src/v0.8/vendor/BufferPlugin.sol\":3442:3445  off */\n      dup8\n        /* \"@goplugin/contracts/src/v0.8/vendor/BufferPlugin.sol\":3437:3439  32 */\n      0x20\n        /* \"@goplugin/contracts/src/v0.8/vendor/BufferPlugin.sol\":3429:3435  bufptr */\n      dup4\n        /* \"@goplugin/contracts/src/v0.8/vendor/BufferPlugin.sol\":3425:3440  add(bufptr, 32) */\n      add\n        /* \"@goplugin/contracts/src/v0.8/vendor/BufferPlugin.sol\":3421:3446  add(add(bufptr, 32), off) */\n      add\n        /* \"@goplugin/contracts/src/v0.8/vendor/BufferPlugin.sol\":3413:3446  dest := add(add(bufptr, 32), off) */\n      swap4\n      pop\n        /* \"@goplugin/contracts/src/v0.8/vendor/BufferPlugin.sol\":3526:3532  buflen */\n      dup1\n        /* \"@goplugin/contracts/src/v0.8/vendor/BufferPlugin.sol\":3520:3523  off */\n      dup9\n        /* \"@goplugin/contracts/src/v0.8/vendor/BufferPlugin.sol\":3515:3518  len */\n      dup8\n        /* \"@goplugin/contracts/src/v0.8/vendor/BufferPlugin.sol\":3511:3524  add(len, off) */\n      add\n        /* \"@goplugin/contracts/src/v0.8/vendor/BufferPlugin.sol\":3508:3533  gt(add(len, off), buflen) */\n      gt\n        /* \"@goplugin/contracts/src/v0.8/vendor/BufferPlugin.sol\":3505:3507  if */\n      iszero\n      tag_208\n      jumpi\n        /* \"@goplugin/contracts/src/v0.8/vendor/BufferPlugin.sol\":3568:3571  off */\n      dup8\n        /* \"@goplugin/contracts/src/v0.8/vendor/BufferPlugin.sol\":3563:3566  len */\n      dup7\n        /* \"@goplugin/contracts/src/v0.8/vendor/BufferPlugin.sol\":3559:3572  add(len, off) */\n      add\n        /* \"@goplugin/contracts/src/v0.8/vendor/BufferPlugin.sol\":3551:3557  bufptr */\n      dup3\n        /* \"@goplugin/contracts/src/v0.8/vendor/BufferPlugin.sol\":3544:3573  mstore(bufptr, add(len, off)) */\n      mstore\n        /* \"@goplugin/contracts/src/v0.8/vendor/BufferPlugin.sol\":3505:3507  if */\n    tag_208:\n      pop\n      pop\n      pop\n        /* \"@goplugin/contracts/src/v0.8/vendor/BufferPlugin.sol\":3605:3607  32 */\n      0x20\n        /* \"@goplugin/contracts/src/v0.8/vendor/BufferPlugin.sol\":3595:3608  add(data, 32) */\n      dup5\n      add\n        /* \"@goplugin/contracts/src/v0.8/vendor/BufferPlugin.sol\":3666:3795  for (; len >= 32; len -= 32) {... */\n    tag_209:\n        /* \"@goplugin/contracts/src/v0.8/vendor/BufferPlugin.sol\":3680:3682  32 */\n      0x20\n        /* \"@goplugin/contracts/src/v0.8/vendor/BufferPlugin.sol\":3673:3676  len */\n      dup5\n        /* \"@goplugin/contracts/src/v0.8/vendor/BufferPlugin.sol\":3673:3682  len >= 32 */\n      lt\n        /* \"@goplugin/contracts/src/v0.8/vendor/BufferPlugin.sol\":3666:3795  for (; len >= 32; len -= 32) {... */\n      tag_210\n      jumpi\n        /* \"@goplugin/contracts/src/v0.8/vendor/BufferPlugin.sol\":3735:3745  mload(src) */\n      dup1\n      mload\n        /* \"@goplugin/contracts/src/v0.8/vendor/BufferPlugin.sol\":3722:3746  mstore(dest, mload(src)) */\n      dup3\n      mstore\n        /* \"@goplugin/contracts/src/v0.8/vendor/BufferPlugin.sol\":3761:3771  dest += 32 */\n      tag_212\n        /* \"@goplugin/contracts/src/v0.8/vendor/BufferPlugin.sol\":3769:3771  32 */\n      0x20\n        /* \"@goplugin/contracts/src/v0.8/vendor/BufferPlugin.sol\":3729:3733  dest */\n      dup4\n        /* \"@goplugin/contracts/src/v0.8/vendor/BufferPlugin.sol\":3761:3771  dest += 32 */\n      tag_152\n      jump\t// in\n    tag_212:\n      swap2\n      pop\n        /* \"@goplugin/contracts/src/v0.8/vendor/BufferPlugin.sol\":3779:3788  src += 32 */\n      tag_213\n        /* \"@goplugin/contracts/src/v0.8/vendor/BufferPlugin.sol\":3786:3788  32 */\n      0x20\n        /* \"@goplugin/contracts/src/v0.8/vendor/BufferPlugin.sol\":3779:3788  src += 32 */\n      dup3\n      tag_152\n      jump\t// in\n    tag_213:\n      swap1\n      pop\n        /* \"@goplugin/contracts/src/v0.8/vendor/BufferPlugin.sol\":3684:3693  len -= 32 */\n      tag_214\n        /* \"@goplugin/contracts/src/v0.8/vendor/BufferPlugin.sol\":3691:3693  32 */\n      0x20\n        /* \"@goplugin/contracts/src/v0.8/vendor/BufferPlugin.sol\":3684:3693  len -= 32 */\n      dup6\n      tag_161\n      jump\t// in\n    tag_214:\n      swap4\n      pop\n        /* \"@goplugin/contracts/src/v0.8/vendor/BufferPlugin.sol\":3666:3795  for (; len >= 32; len -= 32) {... */\n      jump(tag_209)\n    tag_210:\n        /* \"@goplugin/contracts/src/v0.8/vendor/BufferPlugin.sol\":3928:3938  mload(src) */\n      mload\n        /* \"@goplugin/contracts/src/v0.8/vendor/BufferPlugin.sol\":3979:3990  mload(dest) */\n      dup2\n      mload\n      not(0x00)\n        /* \"@goplugin/contracts/src/v0.8/vendor/BufferPlugin.sol\":3868:3870  32 */\n      0x20\n        /* \"@goplugin/contracts/src/v0.8/vendor/BufferPlugin.sol\":3868:3876  32 - len */\n      dup7\n      swap1\n      sub\n        /* \"@goplugin/contracts/src/v0.8/vendor/BufferPlugin.sol\":3860:3863  256 */\n      0x0100\n        /* \"@goplugin/contracts/src/v0.8/vendor/BufferPlugin.sol\":3860:3877  256 ** (32 - len) */\n      exp\n        /* \"@goplugin/contracts/src/v0.8/vendor/BufferPlugin.sol\":3859:3882  (256 ** (32 - len)) - 1 */\n      add\n        /* \"@goplugin/contracts/src/v0.8/vendor/BufferPlugin.sol\":3975:3997  and(mload(dest), mask) */\n      swap1\n      dup2\n      and\n        /* \"@goplugin/contracts/src/v0.8/vendor/BufferPlugin.sol\":3940:3949  not(mask) */\n      swap1\n      not\n        /* \"@goplugin/contracts/src/v0.8/vendor/BufferPlugin.sol\":3924:3950  and(mload(src), not(mask)) */\n      swap2\n      swap1\n      swap2\n      and\n        /* \"@goplugin/contracts/src/v0.8/vendor/BufferPlugin.sol\":4019:4040  or(destpart, srcpart) */\n      or\n        /* \"@goplugin/contracts/src/v0.8/vendor/BufferPlugin.sol\":4006:4041  mstore(dest, or(destpart, srcpart)) */\n      swap1\n      mstore\n      pop\n        /* \"@goplugin/contracts/src/v0.8/vendor/BufferPlugin.sol\":4068:4071  buf */\n      dup4\n        /* \"@goplugin/contracts/src/v0.8/vendor/BufferPlugin.sol\":2854:4076  function write(... */\n      swap5\n      swap4\n      pop\n      pop\n      pop\n      pop\n      jump\t// out\n        /* \"@goplugin/contracts/src/v0.8/vendor/BufferPlugin.sol\":5310:5971  function writeUint8(... */\n    tag_191:\n      0x40\n      dup1\n      mload\n      dup1\n      dup3\n      add\n      swap1\n      swap2\n      mstore\n      0x60\n      dup2\n      mstore\n      0x00\n      0x20\n      dup3\n      add\n      mstore\n        /* \"@goplugin/contracts/src/v0.8/vendor/BufferPlugin.sol\":5467:5470  buf */\n      dup4\n        /* \"@goplugin/contracts/src/v0.8/vendor/BufferPlugin.sol\":5467:5479  buf.capacity */\n      0x20\n      add\n      mload\n        /* \"@goplugin/contracts/src/v0.8/vendor/BufferPlugin.sol\":5460:5463  off */\n      dup4\n        /* \"@goplugin/contracts/src/v0.8/vendor/BufferPlugin.sol\":5460:5479  off >= buf.capacity */\n      lt\n        /* \"@goplugin/contracts/src/v0.8/vendor/BufferPlugin.sol\":5456:5525  if (off >= buf.capacity) {... */\n      tag_218\n      jumpi\n        /* \"@goplugin/contracts/src/v0.8/vendor/BufferPlugin.sol\":5489:5518  resize(buf, buf.capacity * 2) */\n      tag_218\n        /* \"@goplugin/contracts/src/v0.8/vendor/BufferPlugin.sol\":5496:5499  buf */\n      dup5\n        /* \"@goplugin/contracts/src/v0.8/vendor/BufferPlugin.sol\":5501:5504  buf */\n      dup6\n        /* \"@goplugin/contracts/src/v0.8/vendor/BufferPlugin.sol\":5501:5513  buf.capacity */\n      0x20\n      add\n      mload\n        /* \"@goplugin/contracts/src/v0.8/vendor/BufferPlugin.sol\":5516:5517  2 */\n      0x02\n        /* \"@goplugin/contracts/src/v0.8/vendor/BufferPlugin.sol\":5501:5517  buf.capacity * 2 */\n      tag_205\n      swap2\n      swap1\n      tag_206\n      jump\t// in\n        /* \"@goplugin/contracts/src/v0.8/vendor/BufferPlugin.sol\":5489:5518  resize(buf, buf.capacity * 2) */\n    tag_218:\n        /* \"@goplugin/contracts/src/v0.8/vendor/BufferPlugin.sol\":5611:5614  buf */\n      dup4\n        /* \"@goplugin/contracts/src/v0.8/vendor/BufferPlugin.sol\":5605:5615  mload(buf) */\n      mload\n        /* \"@goplugin/contracts/src/v0.8/vendor/BufferPlugin.sol\":5682:5688  bufptr */\n      dup1\n        /* \"@goplugin/contracts/src/v0.8/vendor/BufferPlugin.sol\":5676:5689  mload(bufptr) */\n      mload\n        /* \"@goplugin/contracts/src/v0.8/vendor/BufferPlugin.sol\":5794:5796  32 */\n      0x20\n        /* \"@goplugin/contracts/src/v0.8/vendor/BufferPlugin.sol\":5788:5791  off */\n      dup6\n        /* \"@goplugin/contracts/src/v0.8/vendor/BufferPlugin.sol\":5780:5786  bufptr */\n      dup4\n        /* \"@goplugin/contracts/src/v0.8/vendor/BufferPlugin.sol\":5776:5792  add(bufptr, off) */\n      add\n        /* \"@goplugin/contracts/src/v0.8/vendor/BufferPlugin.sol\":5772:5797  add(add(bufptr, off), 32) */\n      add\n        /* \"@goplugin/contracts/src/v0.8/vendor/BufferPlugin.sol\":5818:5822  data */\n      dup5\n        /* \"@goplugin/contracts/src/v0.8/vendor/BufferPlugin.sol\":5812:5816  dest */\n      dup2\n        /* \"@goplugin/contracts/src/v0.8/vendor/BufferPlugin.sol\":5804:5823  mstore8(dest, data) */\n      mstore8\n      pop\n        /* \"@goplugin/contracts/src/v0.8/vendor/BufferPlugin.sol\":5889:5895  buflen */\n      dup1\n        /* \"@goplugin/contracts/src/v0.8/vendor/BufferPlugin.sol\":5884:5887  off */\n      dup6\n        /* \"@goplugin/contracts/src/v0.8/vendor/BufferPlugin.sol\":5881:5896  eq(off, buflen) */\n      eq\n        /* \"@goplugin/contracts/src/v0.8/vendor/BufferPlugin.sol\":5878:5880  if */\n      iszero\n      tag_220\n      jumpi\n        /* \"@goplugin/contracts/src/v0.8/vendor/BufferPlugin.sol\":5934:5935  1 */\n      0x01\n        /* \"@goplugin/contracts/src/v0.8/vendor/BufferPlugin.sol\":5926:5932  buflen */\n      dup2\n        /* \"@goplugin/contracts/src/v0.8/vendor/BufferPlugin.sol\":5922:5936  add(buflen, 1) */\n      add\n        /* \"@goplugin/contracts/src/v0.8/vendor/BufferPlugin.sol\":5914:5920  bufptr */\n      dup3\n        /* \"@goplugin/contracts/src/v0.8/vendor/BufferPlugin.sol\":5907:5937  mstore(bufptr, add(buflen, 1)) */\n      mstore\n        /* \"@goplugin/contracts/src/v0.8/vendor/BufferPlugin.sol\":5878:5880  if */\n    tag_220:\n      pop\n        /* \"@goplugin/contracts/src/v0.8/vendor/BufferPlugin.sol\":5963:5966  buf */\n      swap4\n      swap5\n        /* \"@goplugin/contracts/src/v0.8/vendor/BufferPlugin.sol\":5310:5971  function writeUint8(... */\n      swap4\n      pop\n      pop\n      pop\n      pop\n      jump\t// out\n        /* \"@goplugin/contracts/src/v0.8/vendor/BufferPlugin.sol\":9271:9961  function writeInt(... */\n    tag_195:\n      0x40\n      dup1\n      mload\n      dup1\n      dup3\n      add\n      swap1\n      swap2\n      mstore\n      0x60\n      dup2\n      mstore\n      0x00\n      0x20\n      dup3\n      add\n      mstore\n        /* \"@goplugin/contracts/src/v0.8/vendor/BufferPlugin.sol\":9443:9455  buf.capacity */\n      0x20\n      dup6\n      add\n      mload\n        /* \"@goplugin/contracts/src/v0.8/vendor/BufferPlugin.sol\":9431:9440  len + off */\n      tag_223\n        /* \"@goplugin/contracts/src/v0.8/vendor/BufferPlugin.sol\":9437:9440  off */\n      dup6\n        /* \"@goplugin/contracts/src/v0.8/vendor/BufferPlugin.sol\":9431:9434  len */\n      dup5\n        /* \"@goplugin/contracts/src/v0.8/vendor/BufferPlugin.sol\":9431:9440  len + off */\n      tag_152\n      jump\t// in\n    tag_223:\n        /* \"@goplugin/contracts/src/v0.8/vendor/BufferPlugin.sol\":9431:9455  len + off > buf.capacity */\n      gt\n        /* \"@goplugin/contracts/src/v0.8/vendor/BufferPlugin.sol\":9427:9500  if (len + off > buf.capacity) {... */\n      iszero\n      tag_225\n      jumpi\n        /* \"@goplugin/contracts/src/v0.8/vendor/BufferPlugin.sol\":9465:9493  resize(buf, (len + off) * 2) */\n      tag_225\n        /* \"@goplugin/contracts/src/v0.8/vendor/BufferPlugin.sol\":9472:9475  buf */\n      dup6\n        /* \"@goplugin/contracts/src/v0.8/vendor/BufferPlugin.sol\":9478:9487  len + off */\n      tag_202\n        /* \"@goplugin/contracts/src/v0.8/vendor/BufferPlugin.sol\":9484:9487  off */\n      dup7\n        /* \"@goplugin/contracts/src/v0.8/vendor/BufferPlugin.sol\":9478:9481  len */\n      dup6\n        /* \"@goplugin/contracts/src/v0.8/vendor/BufferPlugin.sol\":9478:9487  len + off */\n      tag_152\n      jump\t// in\n        /* \"@goplugin/contracts/src/v0.8/vendor/BufferPlugin.sol\":9465:9493  resize(buf, (len + off) * 2) */\n    tag_225:\n        /* \"@goplugin/contracts/src/v0.8/vendor/BufferPlugin.sol\":9506:9515  uint mask */\n      0x00\n        /* \"@goplugin/contracts/src/v0.8/vendor/BufferPlugin.sol\":9533:9534  1 */\n      0x01\n        /* \"@goplugin/contracts/src/v0.8/vendor/BufferPlugin.sol\":9519:9529  256 ** len */\n      tag_228\n        /* \"@goplugin/contracts/src/v0.8/vendor/BufferPlugin.sol\":9526:9529  len */\n      dup5\n        /* \"@goplugin/contracts/src/v0.8/vendor/BufferPlugin.sol\":9519:9522  256 */\n      0x0100\n        /* \"@goplugin/contracts/src/v0.8/vendor/BufferPlugin.sol\":9519:9529  256 ** len */\n      tag_229\n      jump\t// in\n    tag_228:\n        /* \"@goplugin/contracts/src/v0.8/vendor/BufferPlugin.sol\":9518:9534  (256 ** len) - 1 */\n      tag_230\n      swap2\n      swap1\n      tag_161\n      jump\t// in\n    tag_230:\n        /* \"@goplugin/contracts/src/v0.8/vendor/BufferPlugin.sol\":9506:9534  uint mask = (256 ** len) - 1 */\n      swap1\n      pop\n        /* \"@goplugin/contracts/src/v0.8/vendor/BufferPlugin.sol\":9620:9623  buf */\n      dup6\n        /* \"@goplugin/contracts/src/v0.8/vendor/BufferPlugin.sol\":9614:9624  mload(buf) */\n      mload\n        /* \"@goplugin/contracts/src/v0.8/vendor/BufferPlugin.sol\":9735:9738  len */\n      dup4\n        /* \"@goplugin/contracts/src/v0.8/vendor/BufferPlugin.sol\":9729:9732  off */\n      dup7\n        /* \"@goplugin/contracts/src/v0.8/vendor/BufferPlugin.sol\":9721:9727  bufptr */\n      dup3\n        /* \"@goplugin/contracts/src/v0.8/vendor/BufferPlugin.sol\":9717:9733  add(bufptr, off) */\n      add\n        /* \"@goplugin/contracts/src/v0.8/vendor/BufferPlugin.sol\":9713:9739  add(add(bufptr, off), len) */\n      add\n        /* \"@goplugin/contracts/src/v0.8/vendor/BufferPlugin.sol\":9791:9795  data */\n      dup6\n        /* \"@goplugin/contracts/src/v0.8/vendor/BufferPlugin.sol\":9783:9787  mask */\n      dup4\n        /* \"@goplugin/contracts/src/v0.8/vendor/BufferPlugin.sol\":9779:9788  not(mask) */\n      not\n        /* \"@goplugin/contracts/src/v0.8/vendor/BufferPlugin.sol\":9772:9776  dest */\n      dup3\n        /* \"@goplugin/contracts/src/v0.8/vendor/BufferPlugin.sol\":9766:9777  mload(dest) */\n      mload\n        /* \"@goplugin/contracts/src/v0.8/vendor/BufferPlugin.sol\":9762:9789  and(mload(dest), not(mask)) */\n      and\n        /* \"@goplugin/contracts/src/v0.8/vendor/BufferPlugin.sol\":9759:9796  or(and(mload(dest), not(mask)), data) */\n      or\n        /* \"@goplugin/contracts/src/v0.8/vendor/BufferPlugin.sol\":9753:9757  dest */\n      dup2\n        /* \"@goplugin/contracts/src/v0.8/vendor/BufferPlugin.sol\":9746:9797  mstore(dest, or(and(mload(dest), not(mask)), data)) */\n      mstore\n      pop\n        /* \"@goplugin/contracts/src/v0.8/vendor/BufferPlugin.sol\":9879:9885  bufptr */\n      dup1\n        /* \"@goplugin/contracts/src/v0.8/vendor/BufferPlugin.sol\":9873:9886  mload(bufptr) */\n      mload\n        /* \"@goplugin/contracts/src/v0.8/vendor/BufferPlugin.sol\":9867:9870  len */\n      dup5\n        /* \"@goplugin/contracts/src/v0.8/vendor/BufferPlugin.sol\":9862:9865  off */\n      dup8\n        /* \"@goplugin/contracts/src/v0.8/vendor/BufferPlugin.sol\":9858:9871  add(off, len) */\n      add\n        /* \"@goplugin/contracts/src/v0.8/vendor/BufferPlugin.sol\":9855:9887  gt(add(off, len), mload(bufptr)) */\n      gt\n        /* \"@goplugin/contracts/src/v0.8/vendor/BufferPlugin.sol\":9852:9854  if */\n      iszero\n      tag_231\n      jumpi\n        /* \"@goplugin/contracts/src/v0.8/vendor/BufferPlugin.sol\":9922:9925  len */\n      dup4\n        /* \"@goplugin/contracts/src/v0.8/vendor/BufferPlugin.sol\":9917:9920  off */\n      dup7\n        /* \"@goplugin/contracts/src/v0.8/vendor/BufferPlugin.sol\":9913:9926  add(off, len) */\n      add\n        /* \"@goplugin/contracts/src/v0.8/vendor/BufferPlugin.sol\":9905:9911  bufptr */\n      dup2\n        /* \"@goplugin/contracts/src/v0.8/vendor/BufferPlugin.sol\":9898:9927  mstore(bufptr, add(off, len)) */\n      mstore\n        /* \"@goplugin/contracts/src/v0.8/vendor/BufferPlugin.sol\":9852:9854  if */\n    tag_231:\n      pop\n        /* \"@goplugin/contracts/src/v0.8/vendor/BufferPlugin.sol\":9953:9956  buf */\n      swap5\n      swap6\n        /* \"@goplugin/contracts/src/v0.8/vendor/BufferPlugin.sol\":9271:9961  function writeInt(... */\n      swap5\n      pop\n      pop\n      pop\n      pop\n      pop\n      jump\t// out\n        /* \"@goplugin/contracts/src/v0.8/vendor/BufferPlugin.sol\":2020:2172  function max(... */\n    tag_204:\n        /* \"@goplugin/contracts/src/v0.8/vendor/BufferPlugin.sol\":2101:2105  uint */\n      0x00\n        /* \"@goplugin/contracts/src/v0.8/vendor/BufferPlugin.sol\":2128:2129  b */\n      dup2\n        /* \"@goplugin/contracts/src/v0.8/vendor/BufferPlugin.sol\":2124:2125  a */\n      dup4\n        /* \"@goplugin/contracts/src/v0.8/vendor/BufferPlugin.sol\":2124:2129  a > b */\n      gt\n        /* \"@goplugin/contracts/src/v0.8/vendor/BufferPlugin.sol\":2120:2154  if (a > b) {... */\n      iszero\n      tag_233\n      jumpi\n      pop\n        /* \"@goplugin/contracts/src/v0.8/vendor/BufferPlugin.sol\":2146:2147  a */\n      dup2\n        /* \"@goplugin/contracts/src/v0.8/vendor/BufferPlugin.sol\":2139:2147  return a */\n      jump(tag_155)\n        /* \"@goplugin/contracts/src/v0.8/vendor/BufferPlugin.sol\":2120:2154  if (a > b) {... */\n    tag_233:\n      pop\n        /* \"@goplugin/contracts/src/v0.8/vendor/BufferPlugin.sol\":2166:2167  b */\n      swap2\n        /* \"@goplugin/contracts/src/v0.8/vendor/BufferPlugin.sol\":2020:2172  function max(... */\n      swap1\n      pop\n      jump\t// out\n        /* \"@goplugin/contracts/src/v0.8/vendor/BufferPlugin.sol\":1841:2016  function resize(... */\n    tag_207:\n        /* \"@goplugin/contracts/src/v0.8/vendor/BufferPlugin.sol\":1954:1961  buf.buf */\n      dup2\n      mload\n        /* \"@goplugin/contracts/src/v0.8/vendor/BufferPlugin.sol\":1967:1986  init(buf, capacity) */\n      tag_235\n        /* \"@goplugin/contracts/src/v0.8/vendor/BufferPlugin.sol\":1954:1957  buf */\n      dup4\n        /* \"@goplugin/contracts/src/v0.8/vendor/BufferPlugin.sol\":1977:1985  capacity */\n      dup4\n        /* \"@goplugin/contracts/src/v0.8/vendor/BufferPlugin.sol\":1967:1971  init */\n      tag_128\n        /* \"@goplugin/contracts/src/v0.8/vendor/BufferPlugin.sol\":1967:1986  init(buf, capacity) */\n      jump\t// in\n    tag_235:\n      pop\n        /* \"@goplugin/contracts/src/v0.8/vendor/BufferPlugin.sol\":1992:2011  append(buf, oldbuf) */\n      tag_165\n        /* \"@goplugin/contracts/src/v0.8/vendor/BufferPlugin.sol\":1999:2002  buf */\n      dup4\n        /* \"@goplugin/contracts/src/v0.8/vendor/BufferPlugin.sol\":2004:2010  oldbuf */\n      dup3\n        /* \"@goplugin/contracts/src/v0.8/vendor/BufferPlugin.sol\":1992:1998  append */\n      tag_133\n        /* \"@goplugin/contracts/src/v0.8/vendor/BufferPlugin.sol\":1992:2011  append(buf, oldbuf) */\n      jump\t// in\n    tag_86:\n      dup3\n      dup1\n      sload\n      tag_237\n      swap1\n      tag_77\n      jump\t// in\n    tag_237:\n      swap1\n      0x00\n      mstore\n      keccak256(0x00, 0x20)\n      swap1\n      0x1f\n      add\n      0x20\n      swap1\n      div\n      dup2\n      add\n      swap3\n      dup3\n      tag_239\n      jumpi\n      0x00\n      dup6\n      sstore\n      jump(tag_242)\n    tag_239:\n      dup3\n      0x1f\n      lt\n      tag_240\n      jumpi\n      dup1\n      mload\n      not(0xff)\n      and\n      dup4\n      dup1\n      add\n      or\n      dup6\n      sstore\n      jump(tag_242)\n    tag_240:\n      dup3\n      dup1\n      add\n      0x01\n      add\n      dup6\n      sstore\n      dup3\n      iszero\n      tag_242\n      jumpi\n      swap2\n      dup3\n      add\n    tag_241:\n      dup3\n      dup2\n      gt\n      iszero\n      tag_242\n      jumpi\n      dup3\n      mload\n      dup3\n      sstore\n      swap2\n      0x20\n      add\n      swap2\n      swap1\n      0x01\n      add\n      swap1\n      jump(tag_241)\n    tag_242:\n      pop\n      tag_243\n      swap3\n      swap2\n      pop\n      tag_244\n      jump\t// in\n    tag_243:\n      pop\n      swap1\n      jump\t// out\n    tag_112:\n      0x40\n      dup1\n      mload\n      0xa0\n      dup2\n      add\n      dup3\n      mstore\n      0x00\n      dup1\n      dup3\n      mstore\n      0x20\n      dup1\n      dup4\n      add\n      dup3\n      swap1\n      mstore\n      dup3\n      dup5\n      add\n      dup3\n      swap1\n      mstore\n      0x60\n      dup1\n      dup5\n      add\n      dup4\n      swap1\n      mstore\n      dup5\n      mload\n      dup1\n      dup7\n      add\n      swap1\n      swap6\n      mstore\n      dup5\n      mstore\n      dup4\n      add\n      mstore\n      swap1\n      0x80\n      dup3\n      add\n      mstore\n      swap1\n      jump\t// out\n    tag_244:\n    tag_246:\n      dup1\n      dup3\n      gt\n      iszero\n      tag_243\n      jumpi\n      0x00\n      dup2\n      sstore\n      0x01\n      add\n      jump(tag_246)\n        /* \"#utility.yul\":14:187   */\n    tag_249:\n        /* \"#utility.yul\":82:102   */\n      dup1\n      calldataload\n      sub(shl(0xa0, 0x01), 0x01)\n        /* \"#utility.yul\":131:162   */\n      dup2\n      and\n        /* \"#utility.yul\":121:163   */\n      dup2\n      eq\n        /* \"#utility.yul\":111:113   */\n      tag_251\n      jumpi\n        /* \"#utility.yul\":177:178   */\n      0x00\n        /* \"#utility.yul\":174:175   */\n      dup1\n        /* \"#utility.yul\":167:179   */\n      revert\n        /* \"#utility.yul\":111:113   */\n    tag_251:\n        /* \"#utility.yul\":63:187   */\n      swap2\n      swap1\n      pop\n      jump\t// out\n        /* \"#utility.yul\":192:931   */\n    tag_252:\n        /* \"#utility.yul\":235:240   */\n      0x00\n        /* \"#utility.yul\":288:291   */\n      dup3\n        /* \"#utility.yul\":281:285   */\n      0x1f\n        /* \"#utility.yul\":273:279   */\n      dup4\n        /* \"#utility.yul\":269:286   */\n      add\n        /* \"#utility.yul\":265:292   */\n      slt\n        /* \"#utility.yul\":255:257   */\n      tag_254\n      jumpi\n        /* \"#utility.yul\":310:315   */\n      dup1\n        /* \"#utility.yul\":303:308   */\n      dup2\n        /* \"#utility.yul\":296:316   */\n      revert\n        /* \"#utility.yul\":255:257   */\n    tag_254:\n        /* \"#utility.yul\":350:356   */\n      dup2\n        /* \"#utility.yul\":337:357   */\n      calldataload\n        /* \"#utility.yul\":376:394   */\n      0xffffffffffffffff\n        /* \"#utility.yul\":413:415   */\n      dup1\n        /* \"#utility.yul\":409:411   */\n      dup3\n        /* \"#utility.yul\":406:416   */\n      gt\n        /* \"#utility.yul\":403:405   */\n      iszero\n      tag_256\n      jumpi\n        /* \"#utility.yul\":419:437   */\n      tag_256\n      tag_257\n      jump\t// in\n    tag_256:\n        /* \"#utility.yul\":494:496   */\n      0x40\n        /* \"#utility.yul\":488:497   */\n      mload\n        /* \"#utility.yul\":462:464   */\n      0x1f\n        /* \"#utility.yul\":548:561   */\n      dup4\n      add\n      not(0x1f)\n        /* \"#utility.yul\":544:566   */\n      swap1\n      dup2\n      and\n        /* \"#utility.yul\":568:570   */\n      0x3f\n        /* \"#utility.yul\":540:571   */\n      add\n        /* \"#utility.yul\":536:576   */\n      and\n        /* \"#utility.yul\":524:577   */\n      dup2\n      add\n      swap1\n        /* \"#utility.yul\":592:610   */\n      dup3\n      dup3\n      gt\n        /* \"#utility.yul\":612:634   */\n      dup2\n      dup4\n      lt\n        /* \"#utility.yul\":589:635   */\n      or\n        /* \"#utility.yul\":586:588   */\n      iszero\n      tag_259\n      jumpi\n        /* \"#utility.yul\":638:656   */\n      tag_259\n      tag_257\n      jump\t// in\n    tag_259:\n        /* \"#utility.yul\":678:688   */\n      dup2\n        /* \"#utility.yul\":674:676   */\n      0x40\n        /* \"#utility.yul\":667:689   */\n      mstore\n        /* \"#utility.yul\":713:715   */\n      dup4\n        /* \"#utility.yul\":705:711   */\n      dup2\n        /* \"#utility.yul\":698:716   */\n      mstore\n        /* \"#utility.yul\":759:762   */\n      dup7\n        /* \"#utility.yul\":752:756   */\n      0x20\n        /* \"#utility.yul\":747:749   */\n      dup6\n        /* \"#utility.yul\":739:745   */\n      dup9\n        /* \"#utility.yul\":735:750   */\n      add\n        /* \"#utility.yul\":731:757   */\n      add\n        /* \"#utility.yul\":728:763   */\n      gt\n        /* \"#utility.yul\":725:727   */\n      iszero\n      tag_260\n      jumpi\n        /* \"#utility.yul\":780:785   */\n      dup5\n        /* \"#utility.yul\":773:778   */\n      dup6\n        /* \"#utility.yul\":766:786   */\n      revert\n        /* \"#utility.yul\":725:727   */\n    tag_260:\n        /* \"#utility.yul\":848:850   */\n      dup4\n        /* \"#utility.yul\":841:845   */\n      0x20\n        /* \"#utility.yul\":833:839   */\n      dup8\n        /* \"#utility.yul\":829:846   */\n      add\n        /* \"#utility.yul\":822:826   */\n      0x20\n        /* \"#utility.yul\":814:820   */\n      dup4\n        /* \"#utility.yul\":810:827   */\n      add\n        /* \"#utility.yul\":797:851   */\n      calldatacopy\n        /* \"#utility.yul\":871:886   */\n      swap3\n      dup4\n      add\n        /* \"#utility.yul\":888:892   */\n      0x20\n        /* \"#utility.yul\":867:893   */\n      add\n        /* \"#utility.yul\":860:901   */\n      swap4\n      swap1\n      swap4\n      mstore\n      pop\n        /* \"#utility.yul\":875:881   */\n      swap4\n        /* \"#utility.yul\":245:931   */\n      swap3\n      pop\n      pop\n      pop\n      jump\t// out\n        /* \"#utility.yul\":936:1420   */\n    tag_41:\n        /* \"#utility.yul\":1023:1029   */\n      0x00\n        /* \"#utility.yul\":1031:1037   */\n      dup1\n        /* \"#utility.yul\":1039:1045   */\n      0x00\n        /* \"#utility.yul\":1092:1094   */\n      0x60\n        /* \"#utility.yul\":1080:1089   */\n      dup5\n        /* \"#utility.yul\":1071:1078   */\n      dup7\n        /* \"#utility.yul\":1067:1090   */\n      sub\n        /* \"#utility.yul\":1063:1095   */\n      slt\n        /* \"#utility.yul\":1060:1062   */\n      iszero\n      tag_262\n      jumpi\n        /* \"#utility.yul\":1113:1119   */\n      dup3\n        /* \"#utility.yul\":1105:1111   */\n      dup4\n        /* \"#utility.yul\":1098:1120   */\n      revert\n        /* \"#utility.yul\":1060:1062   */\n    tag_262:\n        /* \"#utility.yul\":1141:1170   */\n      tag_263\n        /* \"#utility.yul\":1160:1169   */\n      dup5\n        /* \"#utility.yul\":1141:1170   */\n      tag_249\n      jump\t// in\n    tag_263:\n        /* \"#utility.yul\":1131:1170   */\n      swap3\n      pop\n        /* \"#utility.yul\":1217:1219   */\n      0x20\n        /* \"#utility.yul\":1206:1215   */\n      dup5\n        /* \"#utility.yul\":1202:1220   */\n      add\n        /* \"#utility.yul\":1189:1221   */\n      calldataload\n        /* \"#utility.yul\":1179:1221   */\n      swap2\n      pop\n        /* \"#utility.yul\":1272:1274   */\n      0x40\n        /* \"#utility.yul\":1261:1270   */\n      dup5\n        /* \"#utility.yul\":1257:1275   */\n      add\n        /* \"#utility.yul\":1244:1276   */\n      calldataload\n        /* \"#utility.yul\":1299:1317   */\n      0xffffffffffffffff\n        /* \"#utility.yul\":1291:1297   */\n      dup2\n        /* \"#utility.yul\":1288:1318   */\n      gt\n        /* \"#utility.yul\":1285:1287   */\n      iszero\n      tag_264\n      jumpi\n        /* \"#utility.yul\":1336:1342   */\n      dup2\n        /* \"#utility.yul\":1328:1334   */\n      dup3\n        /* \"#utility.yul\":1321:1343   */\n      revert\n        /* \"#utility.yul\":1285:1287   */\n    tag_264:\n        /* \"#utility.yul\":1364:1414   */\n      tag_265\n        /* \"#utility.yul\":1406:1413   */\n      dup7\n        /* \"#utility.yul\":1397:1403   */\n      dup3\n        /* \"#utility.yul\":1386:1395   */\n      dup8\n        /* \"#utility.yul\":1382:1404   */\n      add\n        /* \"#utility.yul\":1364:1414   */\n      tag_252\n      jump\t// in\n    tag_265:\n        /* \"#utility.yul\":1354:1414   */\n      swap2\n      pop\n      pop\n        /* \"#utility.yul\":1050:1420   */\n      swap3\n      pop\n      swap3\n      pop\n      swap3\n      jump\t// out\n        /* \"#utility.yul\":1425:1895   */\n    tag_25:\n        /* \"#utility.yul\":1520:1526   */\n      0x00\n        /* \"#utility.yul\":1528:1534   */\n      dup1\n        /* \"#utility.yul\":1536:1542   */\n      0x00\n        /* \"#utility.yul\":1544:1550   */\n      dup1\n        /* \"#utility.yul\":1552:1558   */\n      0x00\n        /* \"#utility.yul\":1605:1608   */\n      0xa0\n        /* \"#utility.yul\":1593:1602   */\n      dup7\n        /* \"#utility.yul\":1584:1591   */\n      dup9\n        /* \"#utility.yul\":1580:1603   */\n      sub\n        /* \"#utility.yul\":1576:1609   */\n      slt\n        /* \"#utility.yul\":1573:1575   */\n      iszero\n      tag_267\n      jumpi\n        /* \"#utility.yul\":1627:1633   */\n      dup1\n        /* \"#utility.yul\":1619:1625   */\n      dup2\n        /* \"#utility.yul\":1612:1634   */\n      revert\n        /* \"#utility.yul\":1573:1575   */\n    tag_267:\n        /* \"#utility.yul\":1655:1684   */\n      tag_268\n        /* \"#utility.yul\":1674:1683   */\n      dup7\n        /* \"#utility.yul\":1655:1684   */\n      tag_249\n      jump\t// in\n    tag_268:\n        /* \"#utility.yul\":1645:1684   */\n      swap8\n        /* \"#utility.yul\":1731:1733   */\n      0x20\n        /* \"#utility.yul\":1716:1734   */\n      dup8\n      add\n        /* \"#utility.yul\":1703:1735   */\n      calldataload\n      swap8\n      pop\n        /* \"#utility.yul\":1782:1784   */\n      0x40\n        /* \"#utility.yul\":1767:1785   */\n      dup8\n      add\n        /* \"#utility.yul\":1754:1786   */\n      calldataload\n      swap7\n        /* \"#utility.yul\":1833:1835   */\n      0x60\n        /* \"#utility.yul\":1818:1836   */\n      dup2\n      add\n        /* \"#utility.yul\":1805:1837   */\n      calldataload\n      swap7\n      pop\n        /* \"#utility.yul\":1884:1887   */\n      0x80\n        /* \"#utility.yul\":1869:1888   */\n      add\n        /* \"#utility.yul\":1856:1889   */\n      calldataload\n      swap5\n      pop\n        /* \"#utility.yul\":1563:1895   */\n      swap3\n      pop\n      pop\n      pop\n      jump\t// out\n        /* \"#utility.yul\":1900:2197   */\n    tag_147:\n        /* \"#utility.yul\":1967:1973   */\n      0x00\n        /* \"#utility.yul\":2020:2022   */\n      0x20\n        /* \"#utility.yul\":2008:2017   */\n      dup3\n        /* \"#utility.yul\":1999:2006   */\n      dup5\n        /* \"#utility.yul\":1995:2018   */\n      sub\n        /* \"#utility.yul\":1991:2023   */\n      slt\n        /* \"#utility.yul\":1988:1990   */\n      iszero\n      tag_270\n      jumpi\n        /* \"#utility.yul\":2041:2047   */\n      dup1\n        /* \"#utility.yul\":2033:2039   */\n      dup2\n        /* \"#utility.yul\":2026:2048   */\n      revert\n        /* \"#utility.yul\":1988:1990   */\n    tag_270:\n        /* \"#utility.yul\":2078:2087   */\n      dup2\n        /* \"#utility.yul\":2072:2088   */\n      mload\n        /* \"#utility.yul\":2131:2136   */\n      dup1\n        /* \"#utility.yul\":2124:2137   */\n      iszero\n        /* \"#utility.yul\":2117:2138   */\n      iszero\n        /* \"#utility.yul\":2110:2115   */\n      dup2\n        /* \"#utility.yul\":2107:2139   */\n      eq\n        /* \"#utility.yul\":2097:2099   */\n      tag_186\n      jumpi\n        /* \"#utility.yul\":2158:2164   */\n      dup2\n        /* \"#utility.yul\":2150:2156   */\n      dup3\n        /* \"#utility.yul\":2143:2165   */\n      revert\n        /* \"#utility.yul\":2202:2392   */\n    tag_54:\n        /* \"#utility.yul\":2261:2267   */\n      0x00\n        /* \"#utility.yul\":2314:2316   */\n      0x20\n        /* \"#utility.yul\":2302:2311   */\n      dup3\n        /* \"#utility.yul\":2293:2300   */\n      dup5\n        /* \"#utility.yul\":2289:2312   */\n      sub\n        /* \"#utility.yul\":2285:2317   */\n      slt\n        /* \"#utility.yul\":2282:2284   */\n      iszero\n      tag_273\n      jumpi\n        /* \"#utility.yul\":2335:2341   */\n      dup1\n        /* \"#utility.yul\":2327:2333   */\n      dup2\n        /* \"#utility.yul\":2320:2342   */\n      revert\n        /* \"#utility.yul\":2282:2284   */\n    tag_273:\n      pop\n        /* \"#utility.yul\":2363:2386   */\n      calldataload\n      swap2\n        /* \"#utility.yul\":2272:2392   */\n      swap1\n      pop\n      jump\t// out\n        /* \"#utility.yul\":2397:2758   */\n    tag_15:\n        /* \"#utility.yul\":2482:2488   */\n      0x00\n        /* \"#utility.yul\":2490:2496   */\n      dup1\n        /* \"#utility.yul\":2543:2545   */\n      0x40\n        /* \"#utility.yul\":2531:2540   */\n      dup4\n        /* \"#utility.yul\":2522:2529   */\n      dup6\n        /* \"#utility.yul\":2518:2541   */\n      sub\n        /* \"#utility.yul\":2514:2546   */\n      slt\n        /* \"#utility.yul\":2511:2513   */\n      iszero\n      tag_275\n      jumpi\n        /* \"#utility.yul\":2564:2570   */\n      dup2\n        /* \"#utility.yul\":2556:2562   */\n      dup3\n        /* \"#utility.yul\":2549:2571   */\n      revert\n        /* \"#utility.yul\":2511:2513   */\n    tag_275:\n        /* \"#utility.yul\":2605:2614   */\n      dup3\n        /* \"#utility.yul\":2592:2615   */\n      calldataload\n        /* \"#utility.yul\":2582:2615   */\n      swap2\n      pop\n        /* \"#utility.yul\":2665:2667   */\n      0x20\n        /* \"#utility.yul\":2654:2663   */\n      dup4\n        /* \"#utility.yul\":2650:2668   */\n      add\n        /* \"#utility.yul\":2637:2669   */\n      calldataload\n        /* \"#utility.yul\":2698:2699   */\n      0x06\n        /* \"#utility.yul\":2691:2696   */\n      dup2\n        /* \"#utility.yul\":2688:2700   */\n      lt\n        /* \"#utility.yul\":2678:2680   */\n      tag_276\n      jumpi\n        /* \"#utility.yul\":2719:2725   */\n      dup2\n        /* \"#utility.yul\":2711:2717   */\n      dup3\n        /* \"#utility.yul\":2704:2726   */\n      revert\n        /* \"#utility.yul\":2678:2680   */\n    tag_276:\n        /* \"#utility.yul\":2747:2752   */\n      dup1\n        /* \"#utility.yul\":2737:2752   */\n      swap2\n      pop\n      pop\n        /* \"#utility.yul\":2501:2758   */\n      swap3\n      pop\n      swap3\n      swap1\n      pop\n      jump\t// out\n        /* \"#utility.yul\":2763:3027   */\n    tag_19:\n        /* \"#utility.yul\":2831:2837   */\n      0x00\n        /* \"#utility.yul\":2839:2845   */\n      dup1\n        /* \"#utility.yul\":2892:2894   */\n      0x40\n        /* \"#utility.yul\":2880:2889   */\n      dup4\n        /* \"#utility.yul\":2871:2878   */\n      dup6\n        /* \"#utility.yul\":2867:2890   */\n      sub\n        /* \"#utility.yul\":2863:2895   */\n      slt\n        /* \"#utility.yul\":2860:2862   */\n      iszero\n      tag_278\n      jumpi\n        /* \"#utility.yul\":2913:2919   */\n      dup2\n        /* \"#utility.yul\":2905:2911   */\n      dup3\n        /* \"#utility.yul\":2898:2920   */\n      revert\n        /* \"#utility.yul\":2860:2862   */\n    tag_278:\n        /* \"#utility.yul\":2954:2963   */\n      dup3\n        /* \"#utility.yul\":2941:2964   */\n      calldataload\n        /* \"#utility.yul\":2931:2964   */\n      swap2\n      pop\n        /* \"#utility.yul\":2983:3021   */\n      tag_279\n        /* \"#utility.yul\":3017:3019   */\n      0x20\n        /* \"#utility.yul\":3006:3015   */\n      dup5\n        /* \"#utility.yul\":3002:3020   */\n      add\n        /* \"#utility.yul\":2983:3021   */\n      tag_249\n      jump\t// in\n    tag_279:\n        /* \"#utility.yul\":2973:3021   */\n      swap1\n      pop\n        /* \"#utility.yul\":2850:3027   */\n      swap3\n      pop\n      swap3\n      swap1\n      pop\n      jump\t// out\n        /* \"#utility.yul\":3032:3516   */\n    tag_50:\n        /* \"#utility.yul\":3119:3125   */\n      0x00\n        /* \"#utility.yul\":3127:3133   */\n      dup1\n        /* \"#utility.yul\":3135:3141   */\n      0x00\n        /* \"#utility.yul\":3188:3190   */\n      0x60\n        /* \"#utility.yul\":3176:3185   */\n      dup5\n        /* \"#utility.yul\":3167:3174   */\n      dup7\n        /* \"#utility.yul\":3163:3186   */\n      sub\n        /* \"#utility.yul\":3159:3191   */\n      slt\n        /* \"#utility.yul\":3156:3158   */\n      iszero\n      tag_281\n      jumpi\n        /* \"#utility.yul\":3209:3215   */\n      dup3\n        /* \"#utility.yul\":3201:3207   */\n      dup4\n        /* \"#utility.yul\":3194:3216   */\n      revert\n        /* \"#utility.yul\":3156:3158   */\n    tag_281:\n        /* \"#utility.yul\":3250:3259   */\n      dup4\n        /* \"#utility.yul\":3237:3260   */\n      calldataload\n        /* \"#utility.yul\":3227:3260   */\n      swap3\n      pop\n        /* \"#utility.yul\":3279:3317   */\n      tag_282\n        /* \"#utility.yul\":3313:3315   */\n      0x20\n        /* \"#utility.yul\":3302:3311   */\n      dup6\n        /* \"#utility.yul\":3298:3316   */\n      add\n        /* \"#utility.yul\":3279:3317   */\n      tag_249\n      jump\t// in\n    tag_282:\n        /* \"#utility.yul\":3269:3317   */\n      swap2\n      pop\n        /* \"#utility.yul\":3368:3370   */\n      0x40\n        /* \"#utility.yul\":3357:3366   */\n      dup5\n        /* \"#utility.yul\":3353:3371   */\n      add\n        /* \"#utility.yul\":3340:3372   */\n      calldataload\n        /* \"#utility.yul\":3395:3413   */\n      0xffffffffffffffff\n        /* \"#utility.yul\":3387:3393   */\n      dup2\n        /* \"#utility.yul\":3384:3414   */\n      gt\n        /* \"#utility.yul\":3381:3383   */\n      iszero\n      tag_264\n      jumpi\n        /* \"#utility.yul\":3432:3438   */\n      dup2\n        /* \"#utility.yul\":3424:3430   */\n      dup3\n        /* \"#utility.yul\":3417:3439   */\n      revert\n        /* \"#utility.yul\":3521:3996   */\n    tag_285:\n        /* \"#utility.yul\":3562:3565   */\n      0x00\n        /* \"#utility.yul\":3600:3605   */\n      dup2\n        /* \"#utility.yul\":3594:3606   */\n      mload\n        /* \"#utility.yul\":3627:3633   */\n      dup1\n        /* \"#utility.yul\":3622:3625   */\n      dup5\n        /* \"#utility.yul\":3615:3634   */\n      mstore\n        /* \"#utility.yul\":3652:3655   */\n      dup2\n        /* \"#utility.yul\":3664:3826   */\n    tag_287:\n        /* \"#utility.yul\":3678:3684   */\n      dup2\n        /* \"#utility.yul\":3675:3676   */\n      dup2\n        /* \"#utility.yul\":3672:3685   */\n      lt\n        /* \"#utility.yul\":3664:3826   */\n      iszero\n      tag_289\n      jumpi\n        /* \"#utility.yul\":3740:3744   */\n      0x20\n        /* \"#utility.yul\":3796:3809   */\n      dup2\n      dup6\n      add\n        /* \"#utility.yul\":3792:3814   */\n      dup2\n      add\n        /* \"#utility.yul\":3786:3815   */\n      mload\n        /* \"#utility.yul\":3768:3779   */\n      dup7\n      dup4\n      add\n        /* \"#utility.yul\":3764:3784   */\n      dup3\n      add\n        /* \"#utility.yul\":3757:3816   */\n      mstore\n        /* \"#utility.yul\":3693:3705   */\n      add\n        /* \"#utility.yul\":3664:3826   */\n      jump(tag_287)\n    tag_289:\n        /* \"#utility.yul\":3844:3850   */\n      dup2\n        /* \"#utility.yul\":3841:3842   */\n      dup2\n        /* \"#utility.yul\":3838:3851   */\n      gt\n        /* \"#utility.yul\":3835:3837   */\n      iszero\n      tag_290\n      jumpi\n        /* \"#utility.yul\":3910:3913   */\n      dup3\n        /* \"#utility.yul\":3903:3907   */\n      0x20\n        /* \"#utility.yul\":3894:3900   */\n      dup4\n        /* \"#utility.yul\":3889:3892   */\n      dup8\n        /* \"#utility.yul\":3885:3901   */\n      add\n        /* \"#utility.yul\":3881:3908   */\n      add\n        /* \"#utility.yul\":3874:3914   */\n      mstore\n        /* \"#utility.yul\":3835:3837   */\n    tag_290:\n      pop\n        /* \"#utility.yul\":3978:3980   */\n      0x1f\n        /* \"#utility.yul\":3957:3972   */\n      add\n      not(0x1f)\n        /* \"#utility.yul\":3953:3982   */\n      and\n        /* \"#utility.yul\":3944:3983   */\n      swap3\n      swap1\n      swap3\n      add\n        /* \"#utility.yul\":3985:3989   */\n      0x20\n        /* \"#utility.yul\":3940:3990   */\n      add\n      swap3\n        /* \"#utility.yul\":3570:3996   */\n      swap2\n      pop\n      pop\n      jump\t// out\n        /* \"#utility.yul\":4528:5349   */\n    tag_140:\n      sub(shl(0xa0, 0x01), 0x01)\n        /* \"#utility.yul\":4929:4944   */\n      dup10\n      dup2\n      and\n        /* \"#utility.yul\":4911:4945   */\n      dup3\n      mstore\n        /* \"#utility.yul\":4976:4978   */\n      0x20\n        /* \"#utility.yul\":4961:4979   */\n      dup3\n      add\n        /* \"#utility.yul\":4954:4988   */\n      dup10\n      swap1\n      mstore\n        /* \"#utility.yul\":5019:5021   */\n      0x40\n        /* \"#utility.yul\":5004:5022   */\n      dup3\n      add\n        /* \"#utility.yul\":4997:5031   */\n      dup9\n      swap1\n      mstore\n        /* \"#utility.yul\":5067:5082   */\n      dup7\n      and\n        /* \"#utility.yul\":5062:5064   */\n      0x60\n        /* \"#utility.yul\":5047:5065   */\n      dup3\n      add\n        /* \"#utility.yul\":5040:5083   */\n      mstore\n      not(sub(shl(0xe0, 0x01), 0x01))\n        /* \"#utility.yul\":5120:5153   */\n      dup6\n      and\n        /* \"#utility.yul\":5114:5117   */\n      0x80\n        /* \"#utility.yul\":5099:5118   */\n      dup3\n      add\n        /* \"#utility.yul\":5092:5154   */\n      mstore\n        /* \"#utility.yul\":4891:4894   */\n      0xa0\n        /* \"#utility.yul\":5170:5189   */\n      dup2\n      add\n        /* \"#utility.yul\":5163:5198   */\n      dup5\n      swap1\n      mstore\n        /* \"#utility.yul\":5229:5232   */\n      0xc0\n        /* \"#utility.yul\":5214:5233   */\n      dup2\n      add\n        /* \"#utility.yul\":5207:5242   */\n      dup4\n      swap1\n      mstore\n        /* \"#utility.yul\":4861:4864   */\n      0x0100\n        /* \"#utility.yul\":5136:5139   */\n      0xe0\n        /* \"#utility.yul\":5258:5277   */\n      dup3\n      add\n        /* \"#utility.yul\":5251:5282   */\n      dup2\n      swap1\n      mstore\n        /* \"#utility.yul\":4832:4836   */\n      0x00\n      swap1\n        /* \"#utility.yul\":5299:5343   */\n      tag_294\n        /* \"#utility.yul\":5324:5342   */\n      dup4\n      dup3\n      add\n        /* \"#utility.yul\":5316:5322   */\n      dup6\n        /* \"#utility.yul\":5299:5343   */\n      tag_285\n      jump\t// in\n    tag_294:\n        /* \"#utility.yul\":5291:5343   */\n      swap12\n        /* \"#utility.yul\":4841:5349   */\n      swap11\n      pop\n      pop\n      pop\n      pop\n      pop\n      pop\n      pop\n      pop\n      pop\n      pop\n      pop\n      jump\t// out\n        /* \"#utility.yul\":5354:5739   */\n    tag_142:\n        /* \"#utility.yul\":5586:5587   */\n      0x01\n        /* \"#utility.yul\":5582:5583   */\n      dup1\n        /* \"#utility.yul\":5577:5580   */\n      0xa0\n        /* \"#utility.yul\":5573:5584   */\n      shl\n        /* \"#utility.yul\":5569:5588   */\n      sub\n        /* \"#utility.yul\":5561:5567   */\n      dup5\n        /* \"#utility.yul\":5557:5589   */\n      and\n        /* \"#utility.yul\":5546:5555   */\n      dup2\n        /* \"#utility.yul\":5539:5590   */\n      mstore\n        /* \"#utility.yul\":5626:5632   */\n      dup3\n        /* \"#utility.yul\":5621:5623   */\n      0x20\n        /* \"#utility.yul\":5610:5619   */\n      dup3\n        /* \"#utility.yul\":5606:5624   */\n      add\n        /* \"#utility.yul\":5599:5633   */\n      mstore\n        /* \"#utility.yul\":5669:5671   */\n      0x60\n        /* \"#utility.yul\":5664:5666   */\n      0x40\n        /* \"#utility.yul\":5653:5662   */\n      dup3\n        /* \"#utility.yul\":5649:5667   */\n      add\n        /* \"#utility.yul\":5642:5672   */\n      mstore\n        /* \"#utility.yul\":5520:5524   */\n      0x00\n        /* \"#utility.yul\":5689:5733   */\n      tag_115\n        /* \"#utility.yul\":5729:5731   */\n      0x60\n        /* \"#utility.yul\":5718:5727   */\n      dup4\n        /* \"#utility.yul\":5714:5732   */\n      add\n        /* \"#utility.yul\":5706:5712   */\n      dup5\n        /* \"#utility.yul\":5689:5733   */\n      tag_285\n      jump\t// in\n        /* \"#utility.yul\":7626:8581   */\n    tag_38:\n        /* \"#utility.yul\":8006:8031   */\n      dup10\n      dup2\n      mstore\n      sub(shl(0xa0, 0x01), 0x01)\n        /* \"#utility.yul\":8067:8099   */\n      dup10\n      and\n        /* \"#utility.yul\":8062:8064   */\n      0x20\n        /* \"#utility.yul\":8047:8065   */\n      dup3\n      add\n        /* \"#utility.yul\":8040:8100   */\n      mstore\n        /* \"#utility.yul\":8131:8133   */\n      0x40\n        /* \"#utility.yul\":8116:8134   */\n      dup2\n      add\n        /* \"#utility.yul\":8109:8143   */\n      dup9\n      swap1\n      mstore\n        /* \"#utility.yul\":8174:8176   */\n      0x60\n        /* \"#utility.yul\":8159:8177   */\n      dup2\n      add\n        /* \"#utility.yul\":8152:8186   */\n      dup8\n      swap1\n      mstore\n        /* \"#utility.yul\":8217:8220   */\n      0x80\n        /* \"#utility.yul\":8202:8221   */\n      dup2\n      add\n        /* \"#utility.yul\":8195:8230   */\n      dup7\n      swap1\n      mstore\n        /* \"#utility.yul\":8087:8090   */\n      0xa0\n        /* \"#utility.yul\":8246:8265   */\n      dup2\n      add\n        /* \"#utility.yul\":8239:8274   */\n      dup6\n      swap1\n      mstore\n        /* \"#utility.yul\":7993:7996   */\n      0x0120\n        /* \"#utility.yul\":7978:7997   */\n      dup2\n      add\n        /* \"#utility.yul\":8304:8305   */\n      0x06\n        /* \"#utility.yul\":8293:8306   */\n      dup6\n      lt\n        /* \"#utility.yul\":8283:8285   */\n      tag_304\n      jumpi\n        /* \"#utility.yul\":8349:8359   */\n      0x4e487b71\n        /* \"#utility.yul\":8344:8347   */\n      0xe0\n        /* \"#utility.yul\":8340:8360   */\n      shl\n        /* \"#utility.yul\":8337:8338   */\n      0x00\n        /* \"#utility.yul\":8330:8361   */\n      mstore\n        /* \"#utility.yul\":8384:8388   */\n      0x21\n        /* \"#utility.yul\":8381:8382   */\n      0x04\n        /* \"#utility.yul\":8374:8389   */\n      mstore\n        /* \"#utility.yul\":8412:8416   */\n      0x24\n        /* \"#utility.yul\":8409:8410   */\n      0x00\n        /* \"#utility.yul\":8402:8417   */\n      revert\n        /* \"#utility.yul\":8283:8285   */\n    tag_304:\n        /* \"#utility.yul\":8464:8470   */\n      dup5\n        /* \"#utility.yul\":8458:8461   */\n      0xc0\n        /* \"#utility.yul\":8447:8456   */\n      dup4\n        /* \"#utility.yul\":8443:8462   */\n      add\n        /* \"#utility.yul\":8436:8471   */\n      mstore\n        /* \"#utility.yul\":8508:8514   */\n      dup4\n        /* \"#utility.yul\":8502:8505   */\n      0xe0\n        /* \"#utility.yul\":8491:8500   */\n      dup4\n        /* \"#utility.yul\":8487:8506   */\n      add\n        /* \"#utility.yul\":8480:8515   */\n      mstore\n        /* \"#utility.yul\":8566:8572   */\n      dup3\n        /* \"#utility.yul\":8559:8573   */\n      iszero\n        /* \"#utility.yul\":8552:8574   */\n      iszero\n        /* \"#utility.yul\":8546:8549   */\n      0x0100\n        /* \"#utility.yul\":8535:8544   */\n      dup4\n        /* \"#utility.yul\":8531:8550   */\n      add\n        /* \"#utility.yul\":8524:8575   */\n      mstore\n        /* \"#utility.yul\":7960:8581   */\n      swap11\n      swap10\n      pop\n      pop\n      pop\n      pop\n      pop\n      pop\n      pop\n      pop\n      pop\n      pop\n      jump\t// out\n        /* \"#utility.yul\":8586:9220   */\n    tag_33:\n        /* \"#utility.yul\":8875:8881   */\n      dup7\n        /* \"#utility.yul\":8864:8873   */\n      dup2\n        /* \"#utility.yul\":8857:8882   */\n      mstore\n        /* \"#utility.yul\":8918:8924   */\n      dup6\n        /* \"#utility.yul\":8913:8915   */\n      0x20\n        /* \"#utility.yul\":8902:8911   */\n      dup3\n        /* \"#utility.yul\":8898:8916   */\n      add\n        /* \"#utility.yul\":8891:8925   */\n      mstore\n        /* \"#utility.yul\":8961:8964   */\n      0xc0\n        /* \"#utility.yul\":8956:8958   */\n      0x40\n        /* \"#utility.yul\":8945:8954   */\n      dup3\n        /* \"#utility.yul\":8941:8959   */\n      add\n        /* \"#utility.yul\":8934:8965   */\n      mstore\n        /* \"#utility.yul\":8838:8842   */\n      0x00\n        /* \"#utility.yul\":8982:9027   */\n      tag_306\n        /* \"#utility.yul\":9022:9025   */\n      0xc0\n        /* \"#utility.yul\":9011:9020   */\n      dup4\n        /* \"#utility.yul\":9007:9026   */\n      add\n        /* \"#utility.yul\":8999:9005   */\n      dup8\n        /* \"#utility.yul\":8982:9027   */\n      tag_285\n      jump\t// in\n    tag_306:\n      sub(shl(0xa0, 0x01), 0x01)\n        /* \"#utility.yul\":9101:9116   */\n      swap6\n      dup7\n      and\n        /* \"#utility.yul\":9096:9098   */\n      0x60\n        /* \"#utility.yul\":9081:9099   */\n      dup5\n      add\n        /* \"#utility.yul\":9074:9117   */\n      mstore\n        /* \"#utility.yul\":9148:9151   */\n      0x80\n        /* \"#utility.yul\":9133:9152   */\n      dup4\n      add\n        /* \"#utility.yul\":9126:9161   */\n      swap5\n      swap1\n      swap5\n      mstore\n      pop\n        /* \"#utility.yul\":9198:9213   */\n      swap3\n      and\n        /* \"#utility.yul\":9054:9057   */\n      0xa0\n        /* \"#utility.yul\":9177:9196   */\n      swap1\n      swap3\n      add\n        /* \"#utility.yul\":9170:9214   */\n      swap2\n      swap1\n      swap2\n      mstore\n        /* \"#utility.yul\":9126:9161   */\n      swap4\n        /* \"#utility.yul\":8974:9027   */\n      swap3\n      pop\n      pop\n      pop\n        /* \"#utility.yul\":8847:9220   */\n      jump\t// out\n        /* \"#utility.yul\":10606:10734   */\n    tag_152:\n        /* \"#utility.yul\":10646:10649   */\n      0x00\n        /* \"#utility.yul\":10677:10678   */\n      dup3\n        /* \"#utility.yul\":10673:10679   */\n      not\n        /* \"#utility.yul\":10670:10671   */\n      dup3\n        /* \"#utility.yul\":10667:10680   */\n      gt\n        /* \"#utility.yul\":10664:10666   */\n      iszero\n      tag_311\n      jumpi\n        /* \"#utility.yul\":10683:10701   */\n      tag_311\n      tag_312\n      jump\t// in\n    tag_311:\n      pop\n        /* \"#utility.yul\":10719:10728   */\n      add\n      swap1\n        /* \"#utility.yul\":10654:10734   */\n      jump\t// out\n        /* \"#utility.yul\":10739:11161   */\n    tag_313:\n        /* \"#utility.yul\":10828:10829   */\n      0x01\n        /* \"#utility.yul\":10871:10876   */\n      dup2\n        /* \"#utility.yul\":10828:10829   */\n      dup2\n        /* \"#utility.yul\":10885:11155   */\n    tag_315:\n        /* \"#utility.yul\":10906:10913   */\n      dup1\n        /* \"#utility.yul\":10896:10904   */\n      dup6\n        /* \"#utility.yul\":10893:10914   */\n      gt\n        /* \"#utility.yul\":10885:11155   */\n      iszero\n      tag_317\n      jumpi\n        /* \"#utility.yul\":10965:10969   */\n      dup2\n        /* \"#utility.yul\":10961:10962   */\n      0x00\n        /* \"#utility.yul\":10957:10963   */\n      not\n        /* \"#utility.yul\":10953:10970   */\n      div\n        /* \"#utility.yul\":10947:10951   */\n      dup3\n        /* \"#utility.yul\":10944:10971   */\n      gt\n        /* \"#utility.yul\":10941:10943   */\n      iszero\n      tag_319\n      jumpi\n        /* \"#utility.yul\":10974:10992   */\n      tag_319\n      tag_312\n      jump\t// in\n    tag_319:\n        /* \"#utility.yul\":11024:11031   */\n      dup1\n        /* \"#utility.yul\":11014:11022   */\n      dup6\n        /* \"#utility.yul\":11010:11032   */\n      and\n        /* \"#utility.yul\":11007:11009   */\n      iszero\n      tag_320\n      jumpi\n        /* \"#utility.yul\":11044:11060   */\n      swap2\n      dup2\n      mul\n      swap2\n        /* \"#utility.yul\":11007:11009   */\n    tag_320:\n        /* \"#utility.yul\":11123:11145   */\n      swap4\n      dup5\n      shr\n      swap4\n        /* \"#utility.yul\":11083:11098   */\n      swap1\n      dup1\n      mul\n      swap1\n        /* \"#utility.yul\":10885:11155   */\n      jump(tag_315)\n    tag_317:\n        /* \"#utility.yul\":10889:10892   */\n      pop\n        /* \"#utility.yul\":10803:11161   */\n      swap3\n      pop\n      swap3\n      swap1\n      pop\n      jump\t// out\n        /* \"#utility.yul\":11166:11297   */\n    tag_229:\n        /* \"#utility.yul\":11226:11231   */\n      0x00\n        /* \"#utility.yul\":11255:11291   */\n      tag_186\n        /* \"#utility.yul\":11282:11290   */\n      dup4\n        /* \"#utility.yul\":11276:11280   */\n      dup4\n        /* \"#utility.yul\":11351:11356   */\n      0x00\n        /* \"#utility.yul\":11381:11389   */\n      dup3\n        /* \"#utility.yul\":11371:11373   */\n      tag_325\n      jumpi\n      pop\n        /* \"#utility.yul\":11422:11423   */\n      0x01\n        /* \"#utility.yul\":11436:11441   */\n      jump(tag_155)\n        /* \"#utility.yul\":11371:11373   */\n    tag_325:\n        /* \"#utility.yul\":11470:11474   */\n      dup2\n        /* \"#utility.yul\":11460:11462   */\n      tag_326\n      jumpi\n      pop\n        /* \"#utility.yul\":11507:11508   */\n      0x00\n        /* \"#utility.yul\":11521:11526   */\n      jump(tag_155)\n        /* \"#utility.yul\":11460:11462   */\n    tag_326:\n        /* \"#utility.yul\":11552:11556   */\n      dup2\n        /* \"#utility.yul\":11570:11571   */\n      0x01\n        /* \"#utility.yul\":11565:11624   */\n      dup2\n      eq\n      tag_328\n      jumpi\n        /* \"#utility.yul\":11638:11639   */\n      0x02\n        /* \"#utility.yul\":11633:11763   */\n      dup2\n      eq\n      tag_329\n      jumpi\n        /* \"#utility.yul\":11545:11763   */\n      jump(tag_327)\n        /* \"#utility.yul\":11565:11624   */\n    tag_328:\n        /* \"#utility.yul\":11595:11596   */\n      0x01\n        /* \"#utility.yul\":11586:11596   */\n      swap2\n      pop\n        /* \"#utility.yul\":11609:11614   */\n      pop\n      jump(tag_155)\n        /* \"#utility.yul\":11633:11763   */\n    tag_329:\n        /* \"#utility.yul\":11670:11673   */\n      0xff\n        /* \"#utility.yul\":11660:11668   */\n      dup5\n        /* \"#utility.yul\":11657:11674   */\n      gt\n        /* \"#utility.yul\":11654:11656   */\n      iszero\n      tag_331\n      jumpi\n        /* \"#utility.yul\":11677:11695   */\n      tag_331\n      tag_312\n      jump\t// in\n    tag_331:\n      pop\n      pop\n        /* \"#utility.yul\":11733:11734   */\n      0x01\n        /* \"#utility.yul\":11719:11735   */\n      dup3\n      shl\n        /* \"#utility.yul\":11748:11753   */\n      jump(tag_155)\n        /* \"#utility.yul\":11545:11763   */\n    tag_327:\n      pop\n        /* \"#utility.yul\":11847:11849   */\n      0x20\n        /* \"#utility.yul\":11837:11845   */\n      dup4\n        /* \"#utility.yul\":11834:11850   */\n      lt\n        /* \"#utility.yul\":11828:11831   */\n      0x0133\n        /* \"#utility.yul\":11822:11826   */\n      dup4\n        /* \"#utility.yul\":11819:11832   */\n      lt\n        /* \"#utility.yul\":11815:11851   */\n      and\n        /* \"#utility.yul\":11809:11811   */\n      0x4e\n        /* \"#utility.yul\":11799:11807   */\n      dup5\n        /* \"#utility.yul\":11796:11812   */\n      lt\n        /* \"#utility.yul\":11791:11793   */\n      0x0b\n        /* \"#utility.yul\":11785:11789   */\n      dup5\n        /* \"#utility.yul\":11782:11794   */\n      lt\n        /* \"#utility.yul\":11778:11813   */\n      and\n        /* \"#utility.yul\":11775:11852   */\n      or\n        /* \"#utility.yul\":11772:11774   */\n      iszero\n      tag_332\n      jumpi\n      pop\n        /* \"#utility.yul\":11884:11903   */\n      dup2\n      dup2\n      exp\n        /* \"#utility.yul\":11916:11921   */\n      jump(tag_155)\n        /* \"#utility.yul\":11772:11774   */\n    tag_332:\n        /* \"#utility.yul\":11963:11997   */\n      tag_333\n        /* \"#utility.yul\":11988:11996   */\n      dup4\n        /* \"#utility.yul\":11982:11986   */\n      dup4\n        /* \"#utility.yul\":11963:11997   */\n      tag_313\n      jump\t// in\n    tag_333:\n        /* \"#utility.yul\":12033:12039   */\n      dup1\n        /* \"#utility.yul\":12029:12030   */\n      0x00\n        /* \"#utility.yul\":12025:12031   */\n      not\n        /* \"#utility.yul\":12021:12040   */\n      div\n        /* \"#utility.yul\":12012:12019   */\n      dup3\n        /* \"#utility.yul\":12009:12041   */\n      gt\n        /* \"#utility.yul\":12006:12008   */\n      iszero\n      tag_335\n      jumpi\n        /* \"#utility.yul\":12044:12062   */\n      tag_335\n      tag_312\n      jump\t// in\n    tag_335:\n        /* \"#utility.yul\":12082:12102   */\n      mul\n      swap4\n        /* \"#utility.yul\":11361:12108   */\n      swap3\n      pop\n      pop\n      pop\n      jump\t// out\n        /* \"#utility.yul\":12113:12281   */\n    tag_206:\n        /* \"#utility.yul\":12153:12160   */\n      0x00\n        /* \"#utility.yul\":12219:12220   */\n      dup2\n        /* \"#utility.yul\":12215:12216   */\n      0x00\n        /* \"#utility.yul\":12211:12217   */\n      not\n        /* \"#utility.yul\":12207:12221   */\n      div\n        /* \"#utility.yul\":12204:12205   */\n      dup4\n        /* \"#utility.yul\":12201:12222   */\n      gt\n        /* \"#utility.yul\":12196:12197   */\n      dup3\n        /* \"#utility.yul\":12189:12198   */\n      iszero\n        /* \"#utility.yul\":12182:12199   */\n      iszero\n        /* \"#utility.yul\":12178:12223   */\n      and\n        /* \"#utility.yul\":12175:12177   */\n      iszero\n      tag_338\n      jumpi\n        /* \"#utility.yul\":12226:12244   */\n      tag_338\n      tag_312\n      jump\t// in\n    tag_338:\n      pop\n        /* \"#utility.yul\":12266:12275   */\n      mul\n      swap1\n        /* \"#utility.yul\":12165:12281   */\n      jump\t// out\n        /* \"#utility.yul\":12286:12411   */\n    tag_161:\n        /* \"#utility.yul\":12326:12330   */\n      0x00\n        /* \"#utility.yul\":12354:12355   */\n      dup3\n        /* \"#utility.yul\":12351:12352   */\n      dup3\n        /* \"#utility.yul\":12348:12356   */\n      lt\n        /* \"#utility.yul\":12345:12347   */\n      iszero\n      tag_341\n      jumpi\n        /* \"#utility.yul\":12359:12377   */\n      tag_341\n      tag_312\n      jump\t// in\n    tag_341:\n      pop\n        /* \"#utility.yul\":12396:12405   */\n      sub\n      swap1\n        /* \"#utility.yul\":12335:12411   */\n      jump\t// out\n        /* \"#utility.yul\":12416:12796   */\n    tag_77:\n        /* \"#utility.yul\":12495:12496   */\n      0x01\n        /* \"#utility.yul\":12491:12503   */\n      dup2\n      dup2\n      shr\n      swap1\n        /* \"#utility.yul\":12538:12550   */\n      dup3\n      and\n      dup1\n        /* \"#utility.yul\":12559:12561   */\n      tag_343\n      jumpi\n        /* \"#utility.yul\":12613:12617   */\n      0x7f\n        /* \"#utility.yul\":12605:12611   */\n      dup3\n        /* \"#utility.yul\":12601:12618   */\n      and\n        /* \"#utility.yul\":12591:12618   */\n      swap2\n      pop\n        /* \"#utility.yul\":12559:12561   */\n    tag_343:\n        /* \"#utility.yul\":12666:12668   */\n      0x20\n        /* \"#utility.yul\":12658:12664   */\n      dup3\n        /* \"#utility.yul\":12655:12669   */\n      lt\n        /* \"#utility.yul\":12635:12653   */\n      dup2\n        /* \"#utility.yul\":12632:12670   */\n      eq\n        /* \"#utility.yul\":12629:12631   */\n      iszero\n      tag_233\n      jumpi\n        /* \"#utility.yul\":12712:12722   */\n      0x4e487b71\n        /* \"#utility.yul\":12707:12710   */\n      0xe0\n        /* \"#utility.yul\":12703:12723   */\n      shl\n        /* \"#utility.yul\":12700:12701   */\n      0x00\n        /* \"#utility.yul\":12693:12724   */\n      mstore\n        /* \"#utility.yul\":12747:12751   */\n      0x22\n        /* \"#utility.yul\":12744:12745   */\n      0x04\n        /* \"#utility.yul\":12737:12752   */\n      mstore\n        /* \"#utility.yul\":12775:12779   */\n      0x24\n        /* \"#utility.yul\":12772:12773   */\n      0x00\n        /* \"#utility.yul\":12765:12780   */\n      revert\n        /* \"#utility.yul\":12801:13010   */\n    tag_157:\n        /* \"#utility.yul\":12833:12834   */\n      0x00\n        /* \"#utility.yul\":12859:12860   */\n      dup3\n        /* \"#utility.yul\":12849:12851   */\n      tag_346\n      jumpi\n      shl(0xe0, 0x4e487b71)\n        /* \"#utility.yul\":12884:12915   */\n      dup2\n      mstore\n        /* \"#utility.yul\":12938:12942   */\n      0x12\n        /* \"#utility.yul\":12935:12936   */\n      0x04\n        /* \"#utility.yul\":12928:12943   */\n      mstore\n        /* \"#utility.yul\":12966:12970   */\n      0x24\n        /* \"#utility.yul\":12891:12892   */\n      dup2\n        /* \"#utility.yul\":12956:12971   */\n      revert\n        /* \"#utility.yul\":12849:12851   */\n    tag_346:\n      pop\n        /* \"#utility.yul\":12995:13004   */\n      mod\n      swap1\n        /* \"#utility.yul\":12839:13010   */\n      jump\t// out\n        /* \"#utility.yul\":13015:13142   */\n    tag_312:\n        /* \"#utility.yul\":13076:13086   */\n      0x4e487b71\n        /* \"#utility.yul\":13071:13074   */\n      0xe0\n        /* \"#utility.yul\":13067:13087   */\n      shl\n        /* \"#utility.yul\":13064:13065   */\n      0x00\n        /* \"#utility.yul\":13057:13088   */\n      mstore\n        /* \"#utility.yul\":13107:13111   */\n      0x11\n        /* \"#utility.yul\":13104:13105   */\n      0x04\n        /* \"#utility.yul\":13097:13112   */\n      mstore\n        /* \"#utility.yul\":13131:13135   */\n      0x24\n        /* \"#utility.yul\":13128:13129   */\n      0x00\n        /* \"#utility.yul\":13121:13136   */\n      revert\n        /* \"#utility.yul\":13147:13274   */\n    tag_257:\n        /* \"#utility.yul\":13208:13218   */\n      0x4e487b71\n        /* \"#utility.yul\":13203:13206   */\n      0xe0\n        /* \"#utility.yul\":13199:13219   */\n      shl\n        /* \"#utility.yul\":13196:13197   */\n      0x00\n        /* \"#utility.yul\":13189:13220   */\n      mstore\n        /* \"#utility.yul\":13239:13243   */\n      0x41\n        /* \"#utility.yul\":13236:13237   */\n      0x04\n        /* \"#utility.yul\":13229:13244   */\n      mstore\n        /* \"#utility.yul\":13263:13267   */\n      0x24\n        /* \"#utility.yul\":13260:13261   */\n      0x00\n        /* \"#utility.yul\":13253:13268   */\n      revert\n\n    auxdata: 0xa26469706673582212209df13f0bda88adb659c340bc1e5437e05269e0d0c486f9704482c03ef0d669a664736f6c63430008040033\n}\n",
				"bytecode": {
					"linkReferences": {},
					"object": "608060405260016004553480156200001657600080fd5b506040516200192b3803806200192b8339810160408190526200003991620000a7565b600280546001600160a01b0319166001600160a01b03831617905560088054336001600160a01b03199091161790556200008060066200009e602090811b62000b3117901c565b6200009760076200009e60201b62000b311760201c565b50620000d7565b80546001019055565b600060208284031215620000b9578081fd5b81516001600160a01b0381168114620000d0578182fd5b9392505050565b61184480620000e76000396000f3fe608060405234801561001057600080fd5b50600436106100935760003560e01c80636e8cffa2116100665780636e8cffa2146101235780638d3c9445146101ab5780638da5cb5b146101be578063c4e49cd5146101e9578063eff0f592146101fc57600080fd5b80630ebc8da61461009857806329e999f4146100ad5780632f2e01f2146100eb5780635996e024146100fe575b600080fd5b6100ab6100a6366004611420565b610264565b005b6100d86100bb366004611452565b600c60209081526000928352604080842090915290825290205481565b6040519081526020015b60405180910390f35b6100d86100f93660046113a7565b610444565b61011161010c366004611452565b610636565b6040516100e29695949392919061160a565b610196610131366004611452565b600960209081526000928352604080842090915290825290208054600182015460028301546003840154600485015460058601546006870154600788015460089098015496976001600160a01b0390961696949593949293919260ff91821692911689565b6040516100e299989796959493929190611596565b6100d86101b9366004611352565b61070b565b6008546101d1906001600160a01b031681565b6040516001600160a01b0390911681526020016100e2565b6100ab6101f736600461147d565b61085b565b61019661020a366004611408565b600b6020526000908152604090208054600182015460028301546003840154600485015460058601546006870154600788015460089098015496976001600160a01b0390961696949593949293919260ff91821692911689565b60008281526005602052604090205482906001600160a01b031633146102e25760405162461bcd60e51b815260206004820152602860248201527f536f75726365206d75737420626520746865206f7261636c65206f6620746865604482015267081c995c5d595cdd60c21b60648201526084015b60405180910390fd5b60008181526005602052604080822080546001600160a01b03191690555182917fa40ad10b942505047c532a7399bf5eac2768b11b7155b40ec80309aea567f99891a26000838152600b602090815260408083208151610120810183528154815260018201546001600160a01b031693810193909352600281015491830191909152600381015460608301526004810154608083015260058082015460a0840152600682015460c084019160ff909116908111156103b057634e487b7160e01b600052602160045260246000fd5b60058111156103cf57634e487b7160e01b600052602160045260246000fd5b81526007820154602082015260089091015460ff1615156040909101526001610100820152905060c0810183600581111561041a57634e487b7160e01b600052602160045260246000fd5b9081600581111561043b57634e487b7160e01b600052602160045260246000fd5b90525050505050565b60008061045060075490565b9050610460600780546001019055565b604051806101200160405280828152602001886001600160a01b03168152602001878152602001868152602001858152602001428152602001600160058111156104ba57634e487b7160e01b600052602160045260246000fd5b60058111156104d957634e487b7160e01b600052602160045260246000fd5b8152602080820186905260006040928301819052848152600982528281206001600160a01b038c81168352908352908390208451815591840151600180840180546001600160a01b0319169290931691909117909155918301516002820155606083015160038201556080830151600482015560a083015160058083019190915560c084015160068301805493949193909260ff199091169190849081111561059257634e487b7160e01b600052602160045260246000fd5b021790555060e0828101516007830155610100909201516008909101805460ff19169115159190911790556040805183815260a0602082018190526010908201526f125b9cdd5c985b98d948109bdbdad95960821b60c08201523391810182905260608101919091524260808201527f528441e079e31bf6f9d9a91817469f3269aadfd0e41397f5139151f22d5bb541910160405180910390a19695505050505050565b600a602090815260009283526040808420909152908252902080546001820154600283018054929391926106699061178d565b80601f01602080910402602001604051908101604052809291908181526020018280546106959061178d565b80156106e25780601f106106b7576101008083540402835291602001916106e2565b820191906000526020600020905b8154815290600101906020018083116106c557829003601f168201915b505050506003830154600484015460059094015492936001600160a01b03918216939092501686565b60008061071760065490565b9050610727600680546001019055565b6040805160c08101825282815260208082018781528284018781526001600160a01b038a16606085018190524260808601523360a08601526000878152600a85528681209181529084529490942083518155905160018201559251805192939261079792600285019201906111db565b506060828101516003830180546001600160a01b03199081166001600160a01b0393841617909155608080860151600486015560a095860151600590950180549092169490921693909317909255604080518581526020810185905260119481019490945270119b1a59da1d08149959da5cdd195c9959607a1b60c0850152339084018190529083015242908201527f31e053a200c037c2a0f3a83d8e087ea8ca9962fc3f642170571a92abc949a13c9060e00160405180910390a1949350505050565b600083815260096020908152604080832033845282528083208151610120810183528154815260018201546001600160a01b031693810193909352600281015491830191909152600381015460608301526004810154608083015260058082015460a0840152600682015460c084019160ff909116908111156108ee57634e487b7160e01b600052602160045260246000fd5b600581111561090d57634e487b7160e01b600052602160045260246000fd5b8152600782015460208083019190915260089092015460ff1615156040909101528101519091506001600160a01b03166109895760405162461bcd60e51b815260206004820181905260248201527f506f6c69637920486f6c646572204164647265737320697320696e76616c696460448201526064016102d9565b610100810151156109ce5760405162461bcd60e51b815260206004820152600f60248201526e105b1c9958591e4818db185a5b5959608a1b60448201526064016102d9565b60006109ea6109dc84610b3a565b3063075e46d360e11b610b57565b9050610a22604051806040016040528060058152602001641d5b9d1a5b60da1b815250836080015183610b7c9092919063ffffffff16565b6000610a368583662386f26fc10000610b9f565b905082600b60008381526020019081526020016000206000820151816000015560208201518160010160006101000a8154816001600160a01b0302191690836001600160a01b0316021790555060408201518160020155606082015181600301556080820151816004015560a0820151816005015560c08201518160060160006101000a81548160ff02191690836005811115610ae357634e487b7160e01b600052602160045260246000fd5b021790555060e08201516007820155610100909101516008909101805460ff19169115159190911790556000958652600c602090815260408088203389529091529095209490945550505050565b80546001019055565b80516000908290610b4e5750600092915050565b50506020015190565b610b5f61125f565b610b6761125f565b610b7381868686610bbe565b95945050505050565b6080830151610b8b9083610bfb565b6080830151610b9a9082610c12565b505050565b6000610bb684848460016320214ca360e11b610c22565b949350505050565b610bc661125f565b610bd68560800151610100610e2e565b50509183526001600160a01b031660208301526001600160e01b031916604082015290565b610c088260038351610e99565b610b9a8282610f6d565b610c1e82600083610e99565b5050565b6004546040516bffffffffffffffffffffffff193060601b166020820152603481019190915260009060540160408051808303601f19018152918152815160209283012060045460608901526000818152600590935281832080546001600160a01b0319166001600160a01b038b16179055905190925082917fa6745906207afb96a5801b8e5711fd7b74c5780ce893a973806e179d675bbe2491a2600082600080886000015189602001518a604001518b606001518a8d6080015160000151604051602401610cf9989796959493929190611507565b60408051601f198184030181529181526020820180516001600160e01b03166001600160e01b0319909416939093179092526002549151630200057560e51b81529092506001600160a01b0390911690634000aea090610d61908a908990869060040161156f565b602060405180830381600087803b158015610d7b57600080fd5b505af1158015610d8f573d6000803e3d6000fd5b505050506040513d601f19601f82011682018060405250810190610db391906113e8565b610e0b5760405162461bcd60e51b815260206004820152602360248201527f756e61626c6520746f207472616e73666572416e6443616c6c20746f206f7261604482015262636c6560e81b60648201526084016102d9565b600160046000828254610e1e9190611654565b9091555091979650505050505050565b604080518082019091526060815260006020820152610e4e6020836117c2565b15610e7657610e5e6020836117c2565b610e69906020611776565b610e739083611654565b91505b506020808301829052604080518085526000815283019091019052815b92915050565b60178111610eba57610eb48360e0600585901b168317610f9b565b50505050565b60ff8111610ee457610ed7836018611fe0600586901b1617610f9b565b50610eb483826001610fc0565b61ffff8111610f0f57610f02836019611fe0600586901b1617610f9b565b50610eb483826002610fc0565b63ffffffff8111610f3c57610f2f83601a611fe0600586901b1617610f9b565b50610eb483826004610fc0565b67ffffffffffffffff8111610b9a57610f6083601b611fe0600586901b1617610f9b565b50610eb483826008610fc0565b604080518082019091526060815260006020820152610f9483846000015151848551610fe6565b9392505050565b604080518082019091526060815260006020820152610f9483846000015151846110d0565b604080518082019091526060815260006020820152610bb684856000015151858561112c565b604080518082019091526060815260006020820152825182111561100957600080fd5b60208501516110188386611654565b111561104b5761104b8561103b876020015187866110369190611654565b6111ad565b611046906002611757565b6111c4565b60008086518051876020830101935080888701111561106a5787860182525b505050602084015b602084106110aa5780518252611089602083611654565b9150611096602082611654565b90506110a3602085611776565b9350611072565b51815160001960208690036101000a019081169019919091161790525083949350505050565b604080518082019091526060815260006020820152836020015183106111055761110584856020015160026110469190611757565b835180516020858301018481535080851415611122576001810182525b5093949350505050565b60408051808201909152606081526000602082015260208501516111508584611654565b1115611164576111648561103b8685611654565b60006001611174846101006116af565b61117e9190611776565b90508551838682010185831982511617815250805184870111156111a25783860181525b509495945050505050565b6000818311156111be575081610e93565b50919050565b81516111d08383610e2e565b50610eb48382610f6d565b8280546111e79061178d565b90600052602060002090601f016020900481019282611209576000855561124f565b82601f1061122257805160ff191683800117855561124f565b8280016001018555821561124f579182015b8281111561124f578251825591602001919060010190611234565b5061125b92915061129a565b5090565b6040805160a0810182526000808252602080830182905282840182905260608084018390528451808601909552845283015290608082015290565b5b8082111561125b576000815560010161129b565b80356001600160a01b03811681146112c657600080fd5b919050565b600082601f8301126112db578081fd5b813567ffffffffffffffff808211156112f6576112f66117f8565b604051601f8301601f19908116603f0116810190828211818310171561131e5761131e6117f8565b81604052838152866020858801011115611336578485fd5b8360208701602083013792830160200193909352509392505050565b600080600060608486031215611366578283fd5b61136f846112af565b925060208401359150604084013567ffffffffffffffff811115611391578182fd5b61139d868287016112cb565b9150509250925092565b600080600080600060a086880312156113be578081fd5b6113c7866112af565b97602087013597506040870135966060810135965060800135945092505050565b6000602082840312156113f9578081fd5b81518015158114610f94578182fd5b600060208284031215611419578081fd5b5035919050565b60008060408385031215611432578182fd5b82359150602083013560068110611447578182fd5b809150509250929050565b60008060408385031215611464578182fd5b82359150611474602084016112af565b90509250929050565b600080600060608486031215611491578283fd5b833592506114a1602085016112af565b9150604084013567ffffffffffffffff811115611391578182fd5b60008151808452815b818110156114e1576020818501810151868301820152016114c5565b818111156114f25782602083870101525b50601f01601f19169290920160200192915050565b6001600160a01b0389811682526020820189905260408201889052861660608201526001600160e01b03198516608082015260a0810184905260c0810183905261010060e08201819052600090611560838201856114bc565b9b9a5050505050505050505050565b60018060a01b0384168152826020820152606060408201526000610b7360608301846114bc565b8981526001600160a01b038916602082015260408101889052606081018790526080810186905260a081018590526101208101600685106115e757634e487b7160e01b600052602160045260246000fd5b8460c08301528360e08301528215156101008301529a9950505050505050505050565b86815285602082015260c06040820152600061162960c08301876114bc565b6001600160a01b039586166060840152608083019490945250921660a0909201919091529392505050565b60008219821115611667576116676117e2565b500190565b600181815b808511156116a757816000190482111561168d5761168d6117e2565b8085161561169a57918102915b93841c9390800290611671565b509250929050565b6000610f9483836000826116c557506001610e93565b816116d257506000610e93565b81600181146116e857600281146116f25761170e565b6001915050610e93565b60ff841115611703576117036117e2565b50506001821b610e93565b5060208310610133831016604e8410600b8410161715611731575081810a610e93565b61173b838361166c565b806000190482111561174f5761174f6117e2565b029392505050565b6000816000190483118215151615611771576117716117e2565b500290565b600082821015611788576117886117e2565b500390565b600181811c908216806117a157607f821691505b602082108114156111be57634e487b7160e01b600052602260045260246000fd5b6000826117dd57634e487b7160e01b81526012600452602481fd5b500690565b634e487b7160e01b600052601160045260246000fd5b634e487b7160e01b600052604160045260246000fdfea26469706673582212209df13f0bda88adb659c340bc1e5437e05269e0d0c486f9704482c03ef0d669a664736f6c63430008040033",
					"opcodes": "PUSH1 0x80 PUSH1 0x40 MSTORE PUSH1 0x1 PUSH1 0x4 SSTORE CALLVALUE DUP1 ISZERO PUSH3 0x16 JUMPI PUSH1 0x0 DUP1 REVERT JUMPDEST POP PUSH1 0x40 MLOAD PUSH3 0x192B CODESIZE SUB DUP1 PUSH3 0x192B DUP4 CODECOPY DUP2 ADD PUSH1 0x40 DUP2 SWAP1 MSTORE PUSH3 0x39 SWAP2 PUSH3 0xA7 JUMP JUMPDEST PUSH1 0x2 DUP1 SLOAD PUSH1 0x1 PUSH1 0x1 PUSH1 0xA0 SHL SUB NOT AND PUSH1 0x1 PUSH1 0x1 PUSH1 0xA0 SHL SUB DUP4 AND OR SWAP1 SSTORE PUSH1 0x8 DUP1 SLOAD CALLER PUSH1 0x1 PUSH1 0x1 PUSH1 0xA0 SHL SUB NOT SWAP1 SWAP2 AND OR SWAP1 SSTORE PUSH3 0x80 PUSH1 0x6 PUSH3 0x9E PUSH1 0x20 SWAP1 DUP2 SHL PUSH3 0xB31 OR SWAP1 SHR JUMP JUMPDEST PUSH3 0x97 PUSH1 0x7 PUSH3 0x9E PUSH1 0x20 SHL PUSH3 0xB31 OR PUSH1 0x20 SHR JUMP JUMPDEST POP PUSH3 0xD7 JUMP JUMPDEST DUP1 SLOAD PUSH1 0x1 ADD SWAP1 SSTORE JUMP JUMPDEST PUSH1 0x0 PUSH1 0x20 DUP3 DUP5 SUB SLT ISZERO PUSH3 0xB9 JUMPI DUP1 DUP2 REVERT JUMPDEST DUP2 MLOAD PUSH1 0x1 PUSH1 0x1 PUSH1 0xA0 SHL SUB DUP2 AND DUP2 EQ PUSH3 0xD0 JUMPI DUP2 DUP3 REVERT JUMPDEST SWAP4 SWAP3 POP POP POP JUMP JUMPDEST PUSH2 0x1844 DUP1 PUSH3 0xE7 PUSH1 0x0 CODECOPY PUSH1 0x0 RETURN INVALID PUSH1 0x80 PUSH1 0x40 MSTORE CALLVALUE DUP1 ISZERO PUSH2 0x10 JUMPI PUSH1 0x0 DUP1 REVERT JUMPDEST POP PUSH1 0x4 CALLDATASIZE LT PUSH2 0x93 JUMPI PUSH1 0x0 CALLDATALOAD PUSH1 0xE0 SHR DUP1 PUSH4 0x6E8CFFA2 GT PUSH2 0x66 JUMPI DUP1 PUSH4 0x6E8CFFA2 EQ PUSH2 0x123 JUMPI DUP1 PUSH4 0x8D3C9445 EQ PUSH2 0x1AB JUMPI DUP1 PUSH4 0x8DA5CB5B EQ PUSH2 0x1BE JUMPI DUP1 PUSH4 0xC4E49CD5 EQ PUSH2 0x1E9 JUMPI DUP1 PUSH4 0xEFF0F592 EQ PUSH2 0x1FC JUMPI PUSH1 0x0 DUP1 REVERT JUMPDEST DUP1 PUSH4 0xEBC8DA6 EQ PUSH2 0x98 JUMPI DUP1 PUSH4 0x29E999F4 EQ PUSH2 0xAD JUMPI DUP1 PUSH4 0x2F2E01F2 EQ PUSH2 0xEB JUMPI DUP1 PUSH4 0x5996E024 EQ PUSH2 0xFE JUMPI JUMPDEST PUSH1 0x0 DUP1 REVERT JUMPDEST PUSH2 0xAB PUSH2 0xA6 CALLDATASIZE PUSH1 0x4 PUSH2 0x1420 JUMP JUMPDEST PUSH2 0x264 JUMP JUMPDEST STOP JUMPDEST PUSH2 0xD8 PUSH2 0xBB CALLDATASIZE PUSH1 0x4 PUSH2 0x1452 JUMP JUMPDEST PUSH1 0xC PUSH1 0x20 SWAP1 DUP2 MSTORE PUSH1 0x0 SWAP3 DUP4 MSTORE PUSH1 0x40 DUP1 DUP5 KECCAK256 SWAP1 SWAP2 MSTORE SWAP1 DUP3 MSTORE SWAP1 KECCAK256 SLOAD DUP2 JUMP JUMPDEST PUSH1 0x40 MLOAD SWAP1 DUP2 MSTORE PUSH1 0x20 ADD JUMPDEST PUSH1 0x40 MLOAD DUP1 SWAP2 SUB SWAP1 RETURN JUMPDEST PUSH2 0xD8 PUSH2 0xF9 CALLDATASIZE PUSH1 0x4 PUSH2 0x13A7 JUMP JUMPDEST PUSH2 0x444 JUMP JUMPDEST PUSH2 0x111 PUSH2 0x10C CALLDATASIZE PUSH1 0x4 PUSH2 0x1452 JUMP JUMPDEST PUSH2 0x636 JUMP JUMPDEST PUSH1 0x40 MLOAD PUSH2 0xE2 SWAP7 SWAP6 SWAP5 SWAP4 SWAP3 SWAP2 SWAP1 PUSH2 0x160A JUMP JUMPDEST PUSH2 0x196 PUSH2 0x131 CALLDATASIZE PUSH1 0x4 PUSH2 0x1452 JUMP JUMPDEST PUSH1 0x9 PUSH1 0x20 SWAP1 DUP2 MSTORE PUSH1 0x0 SWAP3 DUP4 MSTORE PUSH1 0x40 DUP1 DUP5 KECCAK256 SWAP1 SWAP2 MSTORE SWAP1 DUP3 MSTORE SWAP1 KECCAK256 DUP1 SLOAD PUSH1 0x1 DUP3 ADD SLOAD PUSH1 0x2 DUP4 ADD SLOAD PUSH1 0x3 DUP5 ADD SLOAD PUSH1 0x4 DUP6 ADD SLOAD PUSH1 0x5 DUP7 ADD SLOAD PUSH1 0x6 DUP8 ADD SLOAD PUSH1 0x7 DUP9 ADD SLOAD PUSH1 0x8 SWAP1 SWAP9 ADD SLOAD SWAP7 SWAP8 PUSH1 0x1 PUSH1 0x1 PUSH1 0xA0 SHL SUB SWAP1 SWAP7 AND SWAP7 SWAP5 SWAP6 SWAP4 SWAP5 SWAP3 SWAP4 SWAP2 SWAP3 PUSH1 0xFF SWAP2 DUP3 AND SWAP3 SWAP2 AND DUP10 JUMP JUMPDEST PUSH1 0x40 MLOAD PUSH2 0xE2 SWAP10 SWAP9 SWAP8 SWAP7 SWAP6 SWAP5 SWAP4 SWAP3 SWAP2 SWAP1 PUSH2 0x1596 JUMP JUMPDEST PUSH2 0xD8 PUSH2 0x1B9 CALLDATASIZE PUSH1 0x4 PUSH2 0x1352 JUMP JUMPDEST PUSH2 0x70B JUMP JUMPDEST PUSH1 0x8 SLOAD PUSH2 0x1D1 SWAP1 PUSH1 0x1 PUSH1 0x1 PUSH1 0xA0 SHL SUB AND DUP2 JUMP JUMPDEST PUSH1 0x40 MLOAD PUSH1 0x1 PUSH1 0x1 PUSH1 0xA0 SHL SUB SWAP1 SWAP2 AND DUP2 MSTORE PUSH1 0x20 ADD PUSH2 0xE2 JUMP JUMPDEST PUSH2 0xAB PUSH2 0x1F7 CALLDATASIZE PUSH1 0x4 PUSH2 0x147D JUMP JUMPDEST PUSH2 0x85B JUMP JUMPDEST PUSH2 0x196 PUSH2 0x20A CALLDATASIZE PUSH1 0x4 PUSH2 0x1408 JUMP JUMPDEST PUSH1 0xB PUSH1 0x20 MSTORE PUSH1 0x0 SWAP1 DUP2 MSTORE PUSH1 0x40 SWAP1 KECCAK256 DUP1 SLOAD PUSH1 0x1 DUP3 ADD SLOAD PUSH1 0x2 DUP4 ADD SLOAD PUSH1 0x3 DUP5 ADD SLOAD PUSH1 0x4 DUP6 ADD SLOAD PUSH1 0x5 DUP7 ADD SLOAD PUSH1 0x6 DUP8 ADD SLOAD PUSH1 0x7 DUP9 ADD SLOAD PUSH1 0x8 SWAP1 SWAP9 ADD SLOAD SWAP7 SWAP8 PUSH1 0x1 PUSH1 0x1 PUSH1 0xA0 SHL SUB SWAP1 SWAP7 AND SWAP7 SWAP5 SWAP6 SWAP4 SWAP5 SWAP3 SWAP4 SWAP2 SWAP3 PUSH1 0xFF SWAP2 DUP3 AND SWAP3 SWAP2 AND DUP10 JUMP JUMPDEST PUSH1 0x0 DUP3 DUP2 MSTORE PUSH1 0x5 PUSH1 0x20 MSTORE PUSH1 0x40 SWAP1 KECCAK256 SLOAD DUP3 SWAP1 PUSH1 0x1 PUSH1 0x1 PUSH1 0xA0 SHL SUB AND CALLER EQ PUSH2 0x2E2 JUMPI PUSH1 0x40 MLOAD PUSH3 0x461BCD PUSH1 0xE5 SHL DUP2 MSTORE PUSH1 0x20 PUSH1 0x4 DUP3 ADD MSTORE PUSH1 0x28 PUSH1 0x24 DUP3 ADD MSTORE PUSH32 0x536F75726365206D75737420626520746865206F7261636C65206F6620746865 PUSH1 0x44 DUP3 ADD MSTORE PUSH8 0x81C995C5D595CDD PUSH1 0xC2 SHL PUSH1 0x64 DUP3 ADD MSTORE PUSH1 0x84 ADD JUMPDEST PUSH1 0x40 MLOAD DUP1 SWAP2 SUB SWAP1 REVERT JUMPDEST PUSH1 0x0 DUP2 DUP2 MSTORE PUSH1 0x5 PUSH1 0x20 MSTORE PUSH1 0x40 DUP1 DUP3 KECCAK256 DUP1 SLOAD PUSH1 0x1 PUSH1 0x1 PUSH1 0xA0 SHL SUB NOT AND SWAP1 SSTORE MLOAD DUP3 SWAP2 PUSH32 0xA40AD10B942505047C532A7399BF5EAC2768B11B7155B40EC80309AEA567F998 SWAP2 LOG2 PUSH1 0x0 DUP4 DUP2 MSTORE PUSH1 0xB PUSH1 0x20 SWAP1 DUP2 MSTORE PUSH1 0x40 DUP1 DUP4 KECCAK256 DUP2 MLOAD PUSH2 0x120 DUP2 ADD DUP4 MSTORE DUP2 SLOAD DUP2 MSTORE PUSH1 0x1 DUP3 ADD SLOAD PUSH1 0x1 PUSH1 0x1 PUSH1 0xA0 SHL SUB AND SWAP4 DUP2 ADD SWAP4 SWAP1 SWAP4 MSTORE PUSH1 0x2 DUP2 ADD SLOAD SWAP2 DUP4 ADD SWAP2 SWAP1 SWAP2 MSTORE PUSH1 0x3 DUP2 ADD SLOAD PUSH1 0x60 DUP4 ADD MSTORE PUSH1 0x4 DUP2 ADD SLOAD PUSH1 0x80 DUP4 ADD MSTORE PUSH1 0x5 DUP1 DUP3 ADD SLOAD PUSH1 0xA0 DUP5 ADD MSTORE PUSH1 0x6 DUP3 ADD SLOAD PUSH1 0xC0 DUP5 ADD SWAP2 PUSH1 0xFF SWAP1 SWAP2 AND SWAP1 DUP2 GT ISZERO PUSH2 0x3B0 JUMPI PUSH4 0x4E487B71 PUSH1 0xE0 SHL PUSH1 0x0 MSTORE PUSH1 0x21 PUSH1 0x4 MSTORE PUSH1 0x24 PUSH1 0x0 REVERT JUMPDEST PUSH1 0x5 DUP2 GT ISZERO PUSH2 0x3CF JUMPI PUSH4 0x4E487B71 PUSH1 0xE0 SHL PUSH1 0x0 MSTORE PUSH1 0x21 PUSH1 0x4 MSTORE PUSH1 0x24 PUSH1 0x0 REVERT JUMPDEST DUP2 MSTORE PUSH1 0x7 DUP3 ADD SLOAD PUSH1 0x20 DUP3 ADD MSTORE PUSH1 0x8 SWAP1 SWAP2 ADD SLOAD PUSH1 0xFF AND ISZERO ISZERO PUSH1 0x40 SWAP1 SWAP2 ADD MSTORE PUSH1 0x1 PUSH2 0x100 DUP3 ADD MSTORE SWAP1 POP PUSH1 0xC0 DUP2 ADD DUP4 PUSH1 0x5 DUP2 GT ISZERO PUSH2 0x41A JUMPI PUSH4 0x4E487B71 PUSH1 0xE0 SHL PUSH1 0x0 MSTORE PUSH1 0x21 PUSH1 0x4 MSTORE PUSH1 0x24 PUSH1 0x0 REVERT JUMPDEST SWAP1 DUP2 PUSH1 0x5 DUP2 GT ISZERO PUSH2 0x43B JUMPI PUSH4 0x4E487B71 PUSH1 0xE0 SHL PUSH1 0x0 MSTORE PUSH1 0x21 PUSH1 0x4 MSTORE PUSH1 0x24 PUSH1 0x0 REVERT JUMPDEST SWAP1 MSTORE POP POP POP POP POP JUMP JUMPDEST PUSH1 0x0 DUP1 PUSH2 0x450 PUSH1 0x7 SLOAD SWAP1 JUMP JUMPDEST SWAP1 POP PUSH2 0x460 PUSH1 0x7 DUP1 SLOAD PUSH1 0x1 ADD SWAP1 SSTORE JUMP JUMPDEST PUSH1 0x40 MLOAD DUP1 PUSH2 0x120 ADD PUSH1 0x40 MSTORE DUP1 DUP3 DUP2 MSTORE PUSH1 0x20 ADD DUP9 PUSH1 0x1 PUSH1 0x1 PUSH1 0xA0 SHL SUB AND DUP2 MSTORE PUSH1 0x20 ADD DUP8 DUP2 MSTORE PUSH1 0x20 ADD DUP7 DUP2 MSTORE PUSH1 0x20 ADD DUP6 DUP2 MSTORE PUSH1 0x20 ADD TIMESTAMP DUP2 MSTORE PUSH1 0x20 ADD PUSH1 0x1 PUSH1 0x5 DUP2 GT ISZERO PUSH2 0x4BA JUMPI PUSH4 0x4E487B71 PUSH1 0xE0 SHL PUSH1 0x0 MSTORE PUSH1 0x21 PUSH1 0x4 MSTORE PUSH1 0x24 PUSH1 0x0 REVERT JUMPDEST PUSH1 0x5 DUP2 GT ISZERO PUSH2 0x4D9 JUMPI PUSH4 0x4E487B71 PUSH1 0xE0 SHL PUSH1 0x0 MSTORE PUSH1 0x21 PUSH1 0x4 MSTORE PUSH1 0x24 PUSH1 0x0 REVERT JUMPDEST DUP2 MSTORE PUSH1 0x20 DUP1 DUP3 ADD DUP7 SWAP1 MSTORE PUSH1 0x0 PUSH1 0x40 SWAP3 DUP4 ADD DUP2 SWAP1 MSTORE DUP5 DUP2 MSTORE PUSH1 0x9 DUP3 MSTORE DUP3 DUP2 KECCAK256 PUSH1 0x1 PUSH1 0x1 PUSH1 0xA0 SHL SUB DUP13 DUP2 AND DUP4 MSTORE SWAP1 DUP4 MSTORE SWAP1 DUP4 SWAP1 KECCAK256 DUP5 MLOAD DUP2 SSTORE SWAP2 DUP5 ADD MLOAD PUSH1 0x1 DUP1 DUP5 ADD DUP1 SLOAD PUSH1 0x1 PUSH1 0x1 PUSH1 0xA0 SHL SUB NOT AND SWAP3 SWAP1 SWAP4 AND SWAP2 SWAP1 SWAP2 OR SWAP1 SWAP2 SSTORE SWAP2 DUP4 ADD MLOAD PUSH1 0x2 DUP3 ADD SSTORE PUSH1 0x60 DUP4 ADD MLOAD PUSH1 0x3 DUP3 ADD SSTORE PUSH1 0x80 DUP4 ADD MLOAD PUSH1 0x4 DUP3 ADD SSTORE PUSH1 0xA0 DUP4 ADD MLOAD PUSH1 0x5 DUP1 DUP4 ADD SWAP2 SWAP1 SWAP2 SSTORE PUSH1 0xC0 DUP5 ADD MLOAD PUSH1 0x6 DUP4 ADD DUP1 SLOAD SWAP4 SWAP5 SWAP2 SWAP4 SWAP1 SWAP3 PUSH1 0xFF NOT SWAP1 SWAP2 AND SWAP2 SWAP1 DUP5 SWAP1 DUP2 GT ISZERO PUSH2 0x592 JUMPI PUSH4 0x4E487B71 PUSH1 0xE0 SHL PUSH1 0x0 MSTORE PUSH1 0x21 PUSH1 0x4 MSTORE PUSH1 0x24 PUSH1 0x0 REVERT JUMPDEST MUL OR SWAP1 SSTORE POP PUSH1 0xE0 DUP3 DUP2 ADD MLOAD PUSH1 0x7 DUP4 ADD SSTORE PUSH2 0x100 SWAP1 SWAP3 ADD MLOAD PUSH1 0x8 SWAP1 SWAP2 ADD DUP1 SLOAD PUSH1 0xFF NOT AND SWAP2 ISZERO ISZERO SWAP2 SWAP1 SWAP2 OR SWAP1 SSTORE PUSH1 0x40 DUP1 MLOAD DUP4 DUP2 MSTORE PUSH1 0xA0 PUSH1 0x20 DUP3 ADD DUP2 SWAP1 MSTORE PUSH1 0x10 SWAP1 DUP3 ADD MSTORE PUSH16 0x125B9CDD5C985B98D948109BDBDAD959 PUSH1 0x82 SHL PUSH1 0xC0 DUP3 ADD MSTORE CALLER SWAP2 DUP2 ADD DUP3 SWAP1 MSTORE PUSH1 0x60 DUP2 ADD SWAP2 SWAP1 SWAP2 MSTORE TIMESTAMP PUSH1 0x80 DUP3 ADD MSTORE PUSH32 0x528441E079E31BF6F9D9A91817469F3269AADFD0E41397F5139151F22D5BB541 SWAP2 ADD PUSH1 0x40 MLOAD DUP1 SWAP2 SUB SWAP1 LOG1 SWAP7 SWAP6 POP POP POP POP POP POP JUMP JUMPDEST PUSH1 0xA PUSH1 0x20 SWAP1 DUP2 MSTORE PUSH1 0x0 SWAP3 DUP4 MSTORE PUSH1 0x40 DUP1 DUP5 KECCAK256 SWAP1 SWAP2 MSTORE SWAP1 DUP3 MSTORE SWAP1 KECCAK256 DUP1 SLOAD PUSH1 0x1 DUP3 ADD SLOAD PUSH1 0x2 DUP4 ADD DUP1 SLOAD SWAP3 SWAP4 SWAP2 SWAP3 PUSH2 0x669 SWAP1 PUSH2 0x178D JUMP JUMPDEST DUP1 PUSH1 0x1F ADD PUSH1 0x20 DUP1 SWAP2 DIV MUL PUSH1 0x20 ADD PUSH1 0x40 MLOAD SWAP1 DUP2 ADD PUSH1 0x40 MSTORE DUP1 SWAP3 SWAP2 SWAP1 DUP2 DUP2 MSTORE PUSH1 0x20 ADD DUP3 DUP1 SLOAD PUSH2 0x695 SWAP1 PUSH2 0x178D JUMP JUMPDEST DUP1 ISZERO PUSH2 0x6E2 JUMPI DUP1 PUSH1 0x1F LT PUSH2 0x6B7 JUMPI PUSH2 0x100 DUP1 DUP4 SLOAD DIV MUL DUP4 MSTORE SWAP2 PUSH1 0x20 ADD SWAP2 PUSH2 0x6E2 JUMP JUMPDEST DUP3 ADD SWAP2 SWAP1 PUSH1 0x0 MSTORE PUSH1 0x20 PUSH1 0x0 KECCAK256 SWAP1 JUMPDEST DUP2 SLOAD DUP2 MSTORE SWAP1 PUSH1 0x1 ADD SWAP1 PUSH1 0x20 ADD DUP1 DUP4 GT PUSH2 0x6C5 JUMPI DUP3 SWAP1 SUB PUSH1 0x1F AND DUP3 ADD SWAP2 JUMPDEST POP POP POP POP PUSH1 0x3 DUP4 ADD SLOAD PUSH1 0x4 DUP5 ADD SLOAD PUSH1 0x5 SWAP1 SWAP5 ADD SLOAD SWAP3 SWAP4 PUSH1 0x1 PUSH1 0x1 PUSH1 0xA0 SHL SUB SWAP2 DUP3 AND SWAP4 SWAP1 SWAP3 POP AND DUP7 JUMP JUMPDEST PUSH1 0x0 DUP1 PUSH2 0x717 PUSH1 0x6 SLOAD SWAP1 JUMP JUMPDEST SWAP1 POP PUSH2 0x727 PUSH1 0x6 DUP1 SLOAD PUSH1 0x1 ADD SWAP1 SSTORE JUMP JUMPDEST PUSH1 0x40 DUP1 MLOAD PUSH1 0xC0 DUP2 ADD DUP3 MSTORE DUP3 DUP2 MSTORE PUSH1 0x20 DUP1 DUP3 ADD DUP8 DUP2 MSTORE DUP3 DUP5 ADD DUP8 DUP2 MSTORE PUSH1 0x1 PUSH1 0x1 PUSH1 0xA0 SHL SUB DUP11 AND PUSH1 0x60 DUP6 ADD DUP2 SWAP1 MSTORE TIMESTAMP PUSH1 0x80 DUP7 ADD MSTORE CALLER PUSH1 0xA0 DUP7 ADD MSTORE PUSH1 0x0 DUP8 DUP2 MSTORE PUSH1 0xA DUP6 MSTORE DUP7 DUP2 KECCAK256 SWAP2 DUP2 MSTORE SWAP1 DUP5 MSTORE SWAP5 SWAP1 SWAP5 KECCAK256 DUP4 MLOAD DUP2 SSTORE SWAP1 MLOAD PUSH1 0x1 DUP3 ADD SSTORE SWAP3 MLOAD DUP1 MLOAD SWAP3 SWAP4 SWAP3 PUSH2 0x797 SWAP3 PUSH1 0x2 DUP6 ADD SWAP3 ADD SWAP1 PUSH2 0x11DB JUMP JUMPDEST POP PUSH1 0x60 DUP3 DUP2 ADD MLOAD PUSH1 0x3 DUP4 ADD DUP1 SLOAD PUSH1 0x1 PUSH1 0x1 PUSH1 0xA0 SHL SUB NOT SWAP1 DUP2 AND PUSH1 0x1 PUSH1 0x1 PUSH1 0xA0 SHL SUB SWAP4 DUP5 AND OR SWAP1 SWAP2 SSTORE PUSH1 0x80 DUP1 DUP7 ADD MLOAD PUSH1 0x4 DUP7 ADD SSTORE PUSH1 0xA0 SWAP6 DUP7 ADD MLOAD PUSH1 0x5 SWAP1 SWAP6 ADD DUP1 SLOAD SWAP1 SWAP3 AND SWAP5 SWAP1 SWAP3 AND SWAP4 SWAP1 SWAP4 OR SWAP1 SWAP3 SSTORE PUSH1 0x40 DUP1 MLOAD DUP6 DUP2 MSTORE PUSH1 0x20 DUP2 ADD DUP6 SWAP1 MSTORE PUSH1 0x11 SWAP5 DUP2 ADD SWAP5 SWAP1 SWAP5 MSTORE PUSH17 0x119B1A59DA1D08149959DA5CDD195C9959 PUSH1 0x7A SHL PUSH1 0xC0 DUP6 ADD MSTORE CALLER SWAP1 DUP5 ADD DUP2 SWAP1 MSTORE SWAP1 DUP4 ADD MSTORE TIMESTAMP SWAP1 DUP3 ADD MSTORE PUSH32 0x31E053A200C037C2A0F3A83D8E087EA8CA9962FC3F642170571A92ABC949A13C SWAP1 PUSH1 0xE0 ADD PUSH1 0x40 MLOAD DUP1 SWAP2 SUB SWAP1 LOG1 SWAP5 SWAP4 POP POP POP POP JUMP JUMPDEST PUSH1 0x0 DUP4 DUP2 MSTORE PUSH1 0x9 PUSH1 0x20 SWAP1 DUP2 MSTORE PUSH1 0x40 DUP1 DUP4 KECCAK256 CALLER DUP5 MSTORE DUP3 MSTORE DUP1 DUP4 KECCAK256 DUP2 MLOAD PUSH2 0x120 DUP2 ADD DUP4 MSTORE DUP2 SLOAD DUP2 MSTORE PUSH1 0x1 DUP3 ADD SLOAD PUSH1 0x1 PUSH1 0x1 PUSH1 0xA0 SHL SUB AND SWAP4 DUP2 ADD SWAP4 SWAP1 SWAP4 MSTORE PUSH1 0x2 DUP2 ADD SLOAD SWAP2 DUP4 ADD SWAP2 SWAP1 SWAP2 MSTORE PUSH1 0x3 DUP2 ADD SLOAD PUSH1 0x60 DUP4 ADD MSTORE PUSH1 0x4 DUP2 ADD SLOAD PUSH1 0x80 DUP4 ADD MSTORE PUSH1 0x5 DUP1 DUP3 ADD SLOAD PUSH1 0xA0 DUP5 ADD MSTORE PUSH1 0x6 DUP3 ADD SLOAD PUSH1 0xC0 DUP5 ADD SWAP2 PUSH1 0xFF SWAP1 SWAP2 AND SWAP1 DUP2 GT ISZERO PUSH2 0x8EE JUMPI PUSH4 0x4E487B71 PUSH1 0xE0 SHL PUSH1 0x0 MSTORE PUSH1 0x21 PUSH1 0x4 MSTORE PUSH1 0x24 PUSH1 0x0 REVERT JUMPDEST PUSH1 0x5 DUP2 GT ISZERO PUSH2 0x90D JUMPI PUSH4 0x4E487B71 PUSH1 0xE0 SHL PUSH1 0x0 MSTORE PUSH1 0x21 PUSH1 0x4 MSTORE PUSH1 0x24 PUSH1 0x0 REVERT JUMPDEST DUP2 MSTORE PUSH1 0x7 DUP3 ADD SLOAD PUSH1 0x20 DUP1 DUP4 ADD SWAP2 SWAP1 SWAP2 MSTORE PUSH1 0x8 SWAP1 SWAP3 ADD SLOAD PUSH1 0xFF AND ISZERO ISZERO PUSH1 0x40 SWAP1 SWAP2 ADD MSTORE DUP2 ADD MLOAD SWAP1 SWAP2 POP PUSH1 0x1 PUSH1 0x1 PUSH1 0xA0 SHL SUB AND PUSH2 0x989 JUMPI PUSH1 0x40 MLOAD PUSH3 0x461BCD PUSH1 0xE5 SHL DUP2 MSTORE PUSH1 0x20 PUSH1 0x4 DUP3 ADD DUP2 SWAP1 MSTORE PUSH1 0x24 DUP3 ADD MSTORE PUSH32 0x506F6C69637920486F6C646572204164647265737320697320696E76616C6964 PUSH1 0x44 DUP3 ADD MSTORE PUSH1 0x64 ADD PUSH2 0x2D9 JUMP JUMPDEST PUSH2 0x100 DUP2 ADD MLOAD ISZERO PUSH2 0x9CE JUMPI PUSH1 0x40 MLOAD PUSH3 0x461BCD PUSH1 0xE5 SHL DUP2 MSTORE PUSH1 0x20 PUSH1 0x4 DUP3 ADD MSTORE PUSH1 0xF PUSH1 0x24 DUP3 ADD MSTORE PUSH15 0x105B1C9958591E4818DB185A5B5959 PUSH1 0x8A SHL PUSH1 0x44 DUP3 ADD MSTORE PUSH1 0x64 ADD PUSH2 0x2D9 JUMP JUMPDEST PUSH1 0x0 PUSH2 0x9EA PUSH2 0x9DC DUP5 PUSH2 0xB3A JUMP JUMPDEST ADDRESS PUSH4 0x75E46D3 PUSH1 0xE1 SHL PUSH2 0xB57 JUMP JUMPDEST SWAP1 POP PUSH2 0xA22 PUSH1 0x40 MLOAD DUP1 PUSH1 0x40 ADD PUSH1 0x40 MSTORE DUP1 PUSH1 0x5 DUP2 MSTORE PUSH1 0x20 ADD PUSH5 0x1D5B9D1A5B PUSH1 0xDA SHL DUP2 MSTORE POP DUP4 PUSH1 0x80 ADD MLOAD DUP4 PUSH2 0xB7C SWAP1 SWAP3 SWAP2 SWAP1 PUSH4 0xFFFFFFFF AND JUMP JUMPDEST PUSH1 0x0 PUSH2 0xA36 DUP6 DUP4 PUSH7 0x2386F26FC10000 PUSH2 0xB9F JUMP JUMPDEST SWAP1 POP DUP3 PUSH1 0xB PUSH1 0x0 DUP4 DUP2 MSTORE PUSH1 0x20 ADD SWAP1 DUP2 MSTORE PUSH1 0x20 ADD PUSH1 0x0 KECCAK256 PUSH1 0x0 DUP3 ADD MLOAD DUP2 PUSH1 0x0 ADD SSTORE PUSH1 0x20 DUP3 ADD MLOAD DUP2 PUSH1 0x1 ADD PUSH1 0x0 PUSH2 0x100 EXP DUP2 SLOAD DUP2 PUSH1 0x1 PUSH1 0x1 PUSH1 0xA0 SHL SUB MUL NOT AND SWAP1 DUP4 PUSH1 0x1 PUSH1 0x1 PUSH1 0xA0 SHL SUB AND MUL OR SWAP1 SSTORE POP PUSH1 0x40 DUP3 ADD MLOAD DUP2 PUSH1 0x2 ADD SSTORE PUSH1 0x60 DUP3 ADD MLOAD DUP2 PUSH1 0x3 ADD SSTORE PUSH1 0x80 DUP3 ADD MLOAD DUP2 PUSH1 0x4 ADD SSTORE PUSH1 0xA0 DUP3 ADD MLOAD DUP2 PUSH1 0x5 ADD SSTORE PUSH1 0xC0 DUP3 ADD MLOAD DUP2 PUSH1 0x6 ADD PUSH1 0x0 PUSH2 0x100 EXP DUP2 SLOAD DUP2 PUSH1 0xFF MUL NOT AND SWAP1 DUP4 PUSH1 0x5 DUP2 GT ISZERO PUSH2 0xAE3 JUMPI PUSH4 0x4E487B71 PUSH1 0xE0 SHL PUSH1 0x0 MSTORE PUSH1 0x21 PUSH1 0x4 MSTORE PUSH1 0x24 PUSH1 0x0 REVERT JUMPDEST MUL OR SWAP1 SSTORE POP PUSH1 0xE0 DUP3 ADD MLOAD PUSH1 0x7 DUP3 ADD SSTORE PUSH2 0x100 SWAP1 SWAP2 ADD MLOAD PUSH1 0x8 SWAP1 SWAP2 ADD DUP1 SLOAD PUSH1 0xFF NOT AND SWAP2 ISZERO ISZERO SWAP2 SWAP1 SWAP2 OR SWAP1 SSTORE PUSH1 0x0 SWAP6 DUP7 MSTORE PUSH1 0xC PUSH1 0x20 SWAP1 DUP2 MSTORE PUSH1 0x40 DUP1 DUP9 KECCAK256 CALLER DUP10 MSTORE SWAP1 SWAP2 MSTORE SWAP1 SWAP6 KECCAK256 SWAP5 SWAP1 SWAP5 SSTORE POP POP POP POP JUMP JUMPDEST DUP1 SLOAD PUSH1 0x1 ADD SWAP1 SSTORE JUMP JUMPDEST DUP1 MLOAD PUSH1 0x0 SWAP1 DUP3 SWAP1 PUSH2 0xB4E JUMPI POP PUSH1 0x0 SWAP3 SWAP2 POP POP JUMP JUMPDEST POP POP PUSH1 0x20 ADD MLOAD SWAP1 JUMP JUMPDEST PUSH2 0xB5F PUSH2 0x125F JUMP JUMPDEST PUSH2 0xB67 PUSH2 0x125F JUMP JUMPDEST PUSH2 0xB73 DUP2 DUP7 DUP7 DUP7 PUSH2 0xBBE JUMP JUMPDEST SWAP6 SWAP5 POP POP POP POP POP JUMP JUMPDEST PUSH1 0x80 DUP4 ADD MLOAD PUSH2 0xB8B SWAP1 DUP4 PUSH2 0xBFB JUMP JUMPDEST PUSH1 0x80 DUP4 ADD MLOAD PUSH2 0xB9A SWAP1 DUP3 PUSH2 0xC12 JUMP JUMPDEST POP POP POP JUMP JUMPDEST PUSH1 0x0 PUSH2 0xBB6 DUP5 DUP5 DUP5 PUSH1 0x1 PUSH4 0x20214CA3 PUSH1 0xE1 SHL PUSH2 0xC22 JUMP JUMPDEST SWAP5 SWAP4 POP POP POP POP JUMP JUMPDEST PUSH2 0xBC6 PUSH2 0x125F JUMP JUMPDEST PUSH2 0xBD6 DUP6 PUSH1 0x80 ADD MLOAD PUSH2 0x100 PUSH2 0xE2E JUMP JUMPDEST POP POP SWAP2 DUP4 MSTORE PUSH1 0x1 PUSH1 0x1 PUSH1 0xA0 SHL SUB AND PUSH1 0x20 DUP4 ADD MSTORE PUSH1 0x1 PUSH1 0x1 PUSH1 0xE0 SHL SUB NOT AND PUSH1 0x40 DUP3 ADD MSTORE SWAP1 JUMP JUMPDEST PUSH2 0xC08 DUP3 PUSH1 0x3 DUP4 MLOAD PUSH2 0xE99 JUMP JUMPDEST PUSH2 0xB9A DUP3 DUP3 PUSH2 0xF6D JUMP JUMPDEST PUSH2 0xC1E DUP3 PUSH1 0x0 DUP4 PUSH2 0xE99 JUMP JUMPDEST POP POP JUMP JUMPDEST PUSH1 0x4 SLOAD PUSH1 0x40 MLOAD PUSH12 0xFFFFFFFFFFFFFFFFFFFFFFFF NOT ADDRESS PUSH1 0x60 SHL AND PUSH1 0x20 DUP3 ADD MSTORE PUSH1 0x34 DUP2 ADD SWAP2 SWAP1 SWAP2 MSTORE PUSH1 0x0 SWAP1 PUSH1 0x54 ADD PUSH1 0x40 DUP1 MLOAD DUP1 DUP4 SUB PUSH1 0x1F NOT ADD DUP2 MSTORE SWAP2 DUP2 MSTORE DUP2 MLOAD PUSH1 0x20 SWAP3 DUP4 ADD KECCAK256 PUSH1 0x4 SLOAD PUSH1 0x60 DUP10 ADD MSTORE PUSH1 0x0 DUP2 DUP2 MSTORE PUSH1 0x5 SWAP1 SWAP4 MSTORE DUP2 DUP4 KECCAK256 DUP1 SLOAD PUSH1 0x1 PUSH1 0x1 PUSH1 0xA0 SHL SUB NOT AND PUSH1 0x1 PUSH1 0x1 PUSH1 0xA0 SHL SUB DUP12 AND OR SWAP1 SSTORE SWAP1 MLOAD SWAP1 SWAP3 POP DUP3 SWAP2 PUSH32 0xA6745906207AFB96A5801B8E5711FD7B74C5780CE893A973806E179D675BBE24 SWAP2 LOG2 PUSH1 0x0 DUP3 PUSH1 0x0 DUP1 DUP9 PUSH1 0x0 ADD MLOAD DUP10 PUSH1 0x20 ADD MLOAD DUP11 PUSH1 0x40 ADD MLOAD DUP12 PUSH1 0x60 ADD MLOAD DUP11 DUP14 PUSH1 0x80 ADD MLOAD PUSH1 0x0 ADD MLOAD PUSH1 0x40 MLOAD PUSH1 0x24 ADD PUSH2 0xCF9 SWAP9 SWAP8 SWAP7 SWAP6 SWAP5 SWAP4 SWAP3 SWAP2 SWAP1 PUSH2 0x1507 JUMP JUMPDEST PUSH1 0x40 DUP1 MLOAD PUSH1 0x1F NOT DUP2 DUP5 SUB ADD DUP2 MSTORE SWAP2 DUP2 MSTORE PUSH1 0x20 DUP3 ADD DUP1 MLOAD PUSH1 0x1 PUSH1 0x1 PUSH1 0xE0 SHL SUB AND PUSH1 0x1 PUSH1 0x1 PUSH1 0xE0 SHL SUB NOT SWAP1 SWAP5 AND SWAP4 SWAP1 SWAP4 OR SWAP1 SWAP3 MSTORE PUSH1 0x2 SLOAD SWAP2 MLOAD PUSH4 0x2000575 PUSH1 0xE5 SHL DUP2 MSTORE SWAP1 SWAP3 POP PUSH1 0x1 PUSH1 0x1 PUSH1 0xA0 SHL SUB SWAP1 SWAP2 AND SWAP1 PUSH4 0x4000AEA0 SWAP1 PUSH2 0xD61 SWAP1 DUP11 SWAP1 DUP10 SWAP1 DUP7 SWAP1 PUSH1 0x4 ADD PUSH2 0x156F JUMP JUMPDEST PUSH1 0x20 PUSH1 0x40 MLOAD DUP1 DUP4 SUB DUP2 PUSH1 0x0 DUP8 DUP1 EXTCODESIZE ISZERO DUP1 ISZERO PUSH2 0xD7B JUMPI PUSH1 0x0 DUP1 REVERT JUMPDEST POP GAS CALL ISZERO DUP1 ISZERO PUSH2 0xD8F JUMPI RETURNDATASIZE PUSH1 0x0 DUP1 RETURNDATACOPY RETURNDATASIZE PUSH1 0x0 REVERT JUMPDEST POP POP POP POP PUSH1 0x40 MLOAD RETURNDATASIZE PUSH1 0x1F NOT PUSH1 0x1F DUP3 ADD AND DUP3 ADD DUP1 PUSH1 0x40 MSTORE POP DUP2 ADD SWAP1 PUSH2 0xDB3 SWAP2 SWAP1 PUSH2 0x13E8 JUMP JUMPDEST PUSH2 0xE0B JUMPI PUSH1 0x40 MLOAD PUSH3 0x461BCD PUSH1 0xE5 SHL DUP2 MSTORE PUSH1 0x20 PUSH1 0x4 DUP3 ADD MSTORE PUSH1 0x23 PUSH1 0x24 DUP3 ADD MSTORE PUSH32 0x756E61626C6520746F207472616E73666572416E6443616C6C20746F206F7261 PUSH1 0x44 DUP3 ADD MSTORE PUSH3 0x636C65 PUSH1 0xE8 SHL PUSH1 0x64 DUP3 ADD MSTORE PUSH1 0x84 ADD PUSH2 0x2D9 JUMP JUMPDEST PUSH1 0x1 PUSH1 0x4 PUSH1 0x0 DUP3 DUP3 SLOAD PUSH2 0xE1E SWAP2 SWAP1 PUSH2 0x1654 JUMP JUMPDEST SWAP1 SWAP2 SSTORE POP SWAP2 SWAP8 SWAP7 POP POP POP POP POP POP POP JUMP JUMPDEST PUSH1 0x40 DUP1 MLOAD DUP1 DUP3 ADD SWAP1 SWAP2 MSTORE PUSH1 0x60 DUP2 MSTORE PUSH1 0x0 PUSH1 0x20 DUP3 ADD MSTORE PUSH2 0xE4E PUSH1 0x20 DUP4 PUSH2 0x17C2 JUMP JUMPDEST ISZERO PUSH2 0xE76 JUMPI PUSH2 0xE5E PUSH1 0x20 DUP4 PUSH2 0x17C2 JUMP JUMPDEST PUSH2 0xE69 SWAP1 PUSH1 0x20 PUSH2 0x1776 JUMP JUMPDEST PUSH2 0xE73 SWAP1 DUP4 PUSH2 0x1654 JUMP JUMPDEST SWAP2 POP JUMPDEST POP PUSH1 0x20 DUP1 DUP4 ADD DUP3 SWAP1 MSTORE PUSH1 0x40 DUP1 MLOAD DUP1 DUP6 MSTORE PUSH1 0x0 DUP2 MSTORE DUP4 ADD SWAP1 SWAP2 ADD SWAP1 MSTORE DUP2 JUMPDEST SWAP3 SWAP2 POP POP JUMP JUMPDEST PUSH1 0x17 DUP2 GT PUSH2 0xEBA JUMPI PUSH2 0xEB4 DUP4 PUSH1 0xE0 PUSH1 0x5 DUP6 SWAP1 SHL AND DUP4 OR PUSH2 0xF9B JUMP JUMPDEST POP POP POP POP JUMP JUMPDEST PUSH1 0xFF DUP2 GT PUSH2 0xEE4 JUMPI PUSH2 0xED7 DUP4 PUSH1 0x18 PUSH2 0x1FE0 PUSH1 0x5 DUP7 SWAP1 SHL AND OR PUSH2 0xF9B JUMP JUMPDEST POP PUSH2 0xEB4 DUP4 DUP3 PUSH1 0x1 PUSH2 0xFC0 JUMP JUMPDEST PUSH2 0xFFFF DUP2 GT PUSH2 0xF0F JUMPI PUSH2 0xF02 DUP4 PUSH1 0x19 PUSH2 0x1FE0 PUSH1 0x5 DUP7 SWAP1 SHL AND OR PUSH2 0xF9B JUMP JUMPDEST POP PUSH2 0xEB4 DUP4 DUP3 PUSH1 0x2 PUSH2 0xFC0 JUMP JUMPDEST PUSH4 0xFFFFFFFF DUP2 GT PUSH2 0xF3C JUMPI PUSH2 0xF2F DUP4 PUSH1 0x1A PUSH2 0x1FE0 PUSH1 0x5 DUP7 SWAP1 SHL AND OR PUSH2 0xF9B JUMP JUMPDEST POP PUSH2 0xEB4 DUP4 DUP3 PUSH1 0x4 PUSH2 0xFC0 JUMP JUMPDEST PUSH8 0xFFFFFFFFFFFFFFFF DUP2 GT PUSH2 0xB9A JUMPI PUSH2 0xF60 DUP4 PUSH1 0x1B PUSH2 0x1FE0 PUSH1 0x5 DUP7 SWAP1 SHL AND OR PUSH2 0xF9B JUMP JUMPDEST POP PUSH2 0xEB4 DUP4 DUP3 PUSH1 0x8 PUSH2 0xFC0 JUMP JUMPDEST PUSH1 0x40 DUP1 MLOAD DUP1 DUP3 ADD SWAP1 SWAP2 MSTORE PUSH1 0x60 DUP2 MSTORE PUSH1 0x0 PUSH1 0x20 DUP3 ADD MSTORE PUSH2 0xF94 DUP4 DUP5 PUSH1 0x0 ADD MLOAD MLOAD DUP5 DUP6 MLOAD PUSH2 0xFE6 JUMP JUMPDEST SWAP4 SWAP3 POP POP POP JUMP JUMPDEST PUSH1 0x40 DUP1 MLOAD DUP1 DUP3 ADD SWAP1 SWAP2 MSTORE PUSH1 0x60 DUP2 MSTORE PUSH1 0x0 PUSH1 0x20 DUP3 ADD MSTORE PUSH2 0xF94 DUP4 DUP5 PUSH1 0x0 ADD MLOAD MLOAD DUP5 PUSH2 0x10D0 JUMP JUMPDEST PUSH1 0x40 DUP1 MLOAD DUP1 DUP3 ADD SWAP1 SWAP2 MSTORE PUSH1 0x60 DUP2 MSTORE PUSH1 0x0 PUSH1 0x20 DUP3 ADD MSTORE PUSH2 0xBB6 DUP5 DUP6 PUSH1 0x0 ADD MLOAD MLOAD DUP6 DUP6 PUSH2 0x112C JUMP JUMPDEST PUSH1 0x40 DUP1 MLOAD DUP1 DUP3 ADD SWAP1 SWAP2 MSTORE PUSH1 0x60 DUP2 MSTORE PUSH1 0x0 PUSH1 0x20 DUP3 ADD MSTORE DUP3 MLOAD DUP3 GT ISZERO PUSH2 0x1009 JUMPI PUSH1 0x0 DUP1 REVERT JUMPDEST PUSH1 0x20 DUP6 ADD MLOAD PUSH2 0x1018 DUP4 DUP7 PUSH2 0x1654 JUMP JUMPDEST GT ISZERO PUSH2 0x104B JUMPI PUSH2 0x104B DUP6 PUSH2 0x103B DUP8 PUSH1 0x20 ADD MLOAD DUP8 DUP7 PUSH2 0x1036 SWAP2 SWAP1 PUSH2 0x1654 JUMP JUMPDEST PUSH2 0x11AD JUMP JUMPDEST PUSH2 0x1046 SWAP1 PUSH1 0x2 PUSH2 0x1757 JUMP JUMPDEST PUSH2 0x11C4 JUMP JUMPDEST PUSH1 0x0 DUP1 DUP7 MLOAD DUP1 MLOAD DUP8 PUSH1 0x20 DUP4 ADD ADD SWAP4 POP DUP1 DUP9 DUP8 ADD GT ISZERO PUSH2 0x106A JUMPI DUP8 DUP7 ADD DUP3 MSTORE JUMPDEST POP POP POP PUSH1 0x20 DUP5 ADD JUMPDEST PUSH1 0x20 DUP5 LT PUSH2 0x10AA JUMPI DUP1 MLOAD DUP3 MSTORE PUSH2 0x1089 PUSH1 0x20 DUP4 PUSH2 0x1654 JUMP JUMPDEST SWAP2 POP PUSH2 0x1096 PUSH1 0x20 DUP3 PUSH2 0x1654 JUMP JUMPDEST SWAP1 POP PUSH2 0x10A3 PUSH1 0x20 DUP6 PUSH2 0x1776 JUMP JUMPDEST SWAP4 POP PUSH2 0x1072 JUMP JUMPDEST MLOAD DUP2 MLOAD PUSH1 0x0 NOT PUSH1 0x20 DUP7 SWAP1 SUB PUSH2 0x100 EXP ADD SWAP1 DUP2 AND SWAP1 NOT SWAP2 SWAP1 SWAP2 AND OR SWAP1 MSTORE POP DUP4 SWAP5 SWAP4 POP POP POP POP JUMP JUMPDEST PUSH1 0x40 DUP1 MLOAD DUP1 DUP3 ADD SWAP1 SWAP2 MSTORE PUSH1 0x60 DUP2 MSTORE PUSH1 0x0 PUSH1 0x20 DUP3 ADD MSTORE DUP4 PUSH1 0x20 ADD MLOAD DUP4 LT PUSH2 0x1105 JUMPI PUSH2 0x1105 DUP5 DUP6 PUSH1 0x20 ADD MLOAD PUSH1 0x2 PUSH2 0x1046 SWAP2 SWAP1 PUSH2 0x1757 JUMP JUMPDEST DUP4 MLOAD DUP1 MLOAD PUSH1 0x20 DUP6 DUP4 ADD ADD DUP5 DUP2 MSTORE8 POP DUP1 DUP6 EQ ISZERO PUSH2 0x1122 JUMPI PUSH1 0x1 DUP2 ADD DUP3 MSTORE JUMPDEST POP SWAP4 SWAP5 SWAP4 POP POP POP POP JUMP JUMPDEST PUSH1 0x40 DUP1 MLOAD DUP1 DUP3 ADD SWAP1 SWAP2 MSTORE PUSH1 0x60 DUP2 MSTORE PUSH1 0x0 PUSH1 0x20 DUP3 ADD MSTORE PUSH1 0x20 DUP6 ADD MLOAD PUSH2 0x1150 DUP6 DUP5 PUSH2 0x1654 JUMP JUMPDEST GT ISZERO PUSH2 0x1164 JUMPI PUSH2 0x1164 DUP6 PUSH2 0x103B DUP7 DUP6 PUSH2 0x1654 JUMP JUMPDEST PUSH1 0x0 PUSH1 0x1 PUSH2 0x1174 DUP5 PUSH2 0x100 PUSH2 0x16AF JUMP JUMPDEST PUSH2 0x117E SWAP2 SWAP1 PUSH2 0x1776 JUMP JUMPDEST SWAP1 POP DUP6 MLOAD DUP4 DUP7 DUP3 ADD ADD DUP6 DUP4 NOT DUP3 MLOAD AND OR DUP2 MSTORE POP DUP1 MLOAD DUP5 DUP8 ADD GT ISZERO PUSH2 0x11A2 JUMPI DUP4 DUP7 ADD DUP2 MSTORE JUMPDEST POP SWAP5 SWAP6 SWAP5 POP POP POP POP POP JUMP JUMPDEST PUSH1 0x0 DUP2 DUP4 GT ISZERO PUSH2 0x11BE JUMPI POP DUP2 PUSH2 0xE93 JUMP JUMPDEST POP SWAP2 SWAP1 POP JUMP JUMPDEST DUP2 MLOAD PUSH2 0x11D0 DUP4 DUP4 PUSH2 0xE2E JUMP JUMPDEST POP PUSH2 0xEB4 DUP4 DUP3 PUSH2 0xF6D JUMP JUMPDEST DUP3 DUP1 SLOAD PUSH2 0x11E7 SWAP1 PUSH2 0x178D JUMP JUMPDEST SWAP1 PUSH1 0x0 MSTORE PUSH1 0x20 PUSH1 0x0 KECCAK256 SWAP1 PUSH1 0x1F ADD PUSH1 0x20 SWAP1 DIV DUP2 ADD SWAP3 DUP3 PUSH2 0x1209 JUMPI PUSH1 0x0 DUP6 SSTORE PUSH2 0x124F JUMP JUMPDEST DUP3 PUSH1 0x1F LT PUSH2 0x1222 JUMPI DUP1 MLOAD PUSH1 0xFF NOT AND DUP4 DUP1 ADD OR DUP6 SSTORE PUSH2 0x124F JUMP JUMPDEST DUP3 DUP1 ADD PUSH1 0x1 ADD DUP6 SSTORE DUP3 ISZERO PUSH2 0x124F JUMPI SWAP2 DUP3 ADD JUMPDEST DUP3 DUP2 GT ISZERO PUSH2 0x124F JUMPI DUP3 MLOAD DUP3 SSTORE SWAP2 PUSH1 0x20 ADD SWAP2 SWAP1 PUSH1 0x1 ADD SWAP1 PUSH2 0x1234 JUMP JUMPDEST POP PUSH2 0x125B SWAP3 SWAP2 POP PUSH2 0x129A JUMP JUMPDEST POP SWAP1 JUMP JUMPDEST PUSH1 0x40 DUP1 MLOAD PUSH1 0xA0 DUP2 ADD DUP3 MSTORE PUSH1 0x0 DUP1 DUP3 MSTORE PUSH1 0x20 DUP1 DUP4 ADD DUP3 SWAP1 MSTORE DUP3 DUP5 ADD DUP3 SWAP1 MSTORE PUSH1 0x60 DUP1 DUP5 ADD DUP4 SWAP1 MSTORE DUP5 MLOAD DUP1 DUP7 ADD SWAP1 SWAP6 MSTORE DUP5 MSTORE DUP4 ADD MSTORE SWAP1 PUSH1 0x80 DUP3 ADD MSTORE SWAP1 JUMP JUMPDEST JUMPDEST DUP1 DUP3 GT ISZERO PUSH2 0x125B JUMPI PUSH1 0x0 DUP2 SSTORE PUSH1 0x1 ADD PUSH2 0x129B JUMP JUMPDEST DUP1 CALLDATALOAD PUSH1 0x1 PUSH1 0x1 PUSH1 0xA0 SHL SUB DUP2 AND DUP2 EQ PUSH2 0x12C6 JUMPI PUSH1 0x0 DUP1 REVERT JUMPDEST SWAP2 SWAP1 POP JUMP JUMPDEST PUSH1 0x0 DUP3 PUSH1 0x1F DUP4 ADD SLT PUSH2 0x12DB JUMPI DUP1 DUP2 REVERT JUMPDEST DUP2 CALLDATALOAD PUSH8 0xFFFFFFFFFFFFFFFF DUP1 DUP3 GT ISZERO PUSH2 0x12F6 JUMPI PUSH2 0x12F6 PUSH2 0x17F8 JUMP JUMPDEST PUSH1 0x40 MLOAD PUSH1 0x1F DUP4 ADD PUSH1 0x1F NOT SWAP1 DUP2 AND PUSH1 0x3F ADD AND DUP2 ADD SWAP1 DUP3 DUP3 GT DUP2 DUP4 LT OR ISZERO PUSH2 0x131E JUMPI PUSH2 0x131E PUSH2 0x17F8 JUMP JUMPDEST DUP2 PUSH1 0x40 MSTORE DUP4 DUP2 MSTORE DUP7 PUSH1 0x20 DUP6 DUP9 ADD ADD GT ISZERO PUSH2 0x1336 JUMPI DUP5 DUP6 REVERT JUMPDEST DUP4 PUSH1 0x20 DUP8 ADD PUSH1 0x20 DUP4 ADD CALLDATACOPY SWAP3 DUP4 ADD PUSH1 0x20 ADD SWAP4 SWAP1 SWAP4 MSTORE POP SWAP4 SWAP3 POP POP POP JUMP JUMPDEST PUSH1 0x0 DUP1 PUSH1 0x0 PUSH1 0x60 DUP5 DUP7 SUB SLT ISZERO PUSH2 0x1366 JUMPI DUP3 DUP4 REVERT JUMPDEST PUSH2 0x136F DUP5 PUSH2 0x12AF JUMP JUMPDEST SWAP3 POP PUSH1 0x20 DUP5 ADD CALLDATALOAD SWAP2 POP PUSH1 0x40 DUP5 ADD CALLDATALOAD PUSH8 0xFFFFFFFFFFFFFFFF DUP2 GT ISZERO PUSH2 0x1391 JUMPI DUP2 DUP3 REVERT JUMPDEST PUSH2 0x139D DUP7 DUP3 DUP8 ADD PUSH2 0x12CB JUMP JUMPDEST SWAP2 POP POP SWAP3 POP SWAP3 POP SWAP3 JUMP JUMPDEST PUSH1 0x0 DUP1 PUSH1 0x0 DUP1 PUSH1 0x0 PUSH1 0xA0 DUP7 DUP9 SUB SLT ISZERO PUSH2 0x13BE JUMPI DUP1 DUP2 REVERT JUMPDEST PUSH2 0x13C7 DUP7 PUSH2 0x12AF JUMP JUMPDEST SWAP8 PUSH1 0x20 DUP8 ADD CALLDATALOAD SWAP8 POP PUSH1 0x40 DUP8 ADD CALLDATALOAD SWAP7 PUSH1 0x60 DUP2 ADD CALLDATALOAD SWAP7 POP PUSH1 0x80 ADD CALLDATALOAD SWAP5 POP SWAP3 POP POP POP JUMP JUMPDEST PUSH1 0x0 PUSH1 0x20 DUP3 DUP5 SUB SLT ISZERO PUSH2 0x13F9 JUMPI DUP1 DUP2 REVERT JUMPDEST DUP2 MLOAD DUP1 ISZERO ISZERO DUP2 EQ PUSH2 0xF94 JUMPI DUP2 DUP3 REVERT JUMPDEST PUSH1 0x0 PUSH1 0x20 DUP3 DUP5 SUB SLT ISZERO PUSH2 0x1419 JUMPI DUP1 DUP2 REVERT JUMPDEST POP CALLDATALOAD SWAP2 SWAP1 POP JUMP JUMPDEST PUSH1 0x0 DUP1 PUSH1 0x40 DUP4 DUP6 SUB SLT ISZERO PUSH2 0x1432 JUMPI DUP2 DUP3 REVERT JUMPDEST DUP3 CALLDATALOAD SWAP2 POP PUSH1 0x20 DUP4 ADD CALLDATALOAD PUSH1 0x6 DUP2 LT PUSH2 0x1447 JUMPI DUP2 DUP3 REVERT JUMPDEST DUP1 SWAP2 POP POP SWAP3 POP SWAP3 SWAP1 POP JUMP JUMPDEST PUSH1 0x0 DUP1 PUSH1 0x40 DUP4 DUP6 SUB SLT ISZERO PUSH2 0x1464 JUMPI DUP2 DUP3 REVERT JUMPDEST DUP3 CALLDATALOAD SWAP2 POP PUSH2 0x1474 PUSH1 0x20 DUP5 ADD PUSH2 0x12AF JUMP JUMPDEST SWAP1 POP SWAP3 POP SWAP3 SWAP1 POP JUMP JUMPDEST PUSH1 0x0 DUP1 PUSH1 0x0 PUSH1 0x60 DUP5 DUP7 SUB SLT ISZERO PUSH2 0x1491 JUMPI DUP3 DUP4 REVERT JUMPDEST DUP4 CALLDATALOAD SWAP3 POP PUSH2 0x14A1 PUSH1 0x20 DUP6 ADD PUSH2 0x12AF JUMP JUMPDEST SWAP2 POP PUSH1 0x40 DUP5 ADD CALLDATALOAD PUSH8 0xFFFFFFFFFFFFFFFF DUP2 GT ISZERO PUSH2 0x1391 JUMPI DUP2 DUP3 REVERT JUMPDEST PUSH1 0x0 DUP2 MLOAD DUP1 DUP5 MSTORE DUP2 JUMPDEST DUP2 DUP2 LT ISZERO PUSH2 0x14E1 JUMPI PUSH1 0x20 DUP2 DUP6 ADD DUP2 ADD MLOAD DUP7 DUP4 ADD DUP3 ADD MSTORE ADD PUSH2 0x14C5 JUMP JUMPDEST DUP2 DUP2 GT ISZERO PUSH2 0x14F2 JUMPI DUP3 PUSH1 0x20 DUP4 DUP8 ADD ADD MSTORE JUMPDEST POP PUSH1 0x1F ADD PUSH1 0x1F NOT AND SWAP3 SWAP1 SWAP3 ADD PUSH1 0x20 ADD SWAP3 SWAP2 POP POP JUMP JUMPDEST PUSH1 0x1 PUSH1 0x1 PUSH1 0xA0 SHL SUB DUP10 DUP2 AND DUP3 MSTORE PUSH1 0x20 DUP3 ADD DUP10 SWAP1 MSTORE PUSH1 0x40 DUP3 ADD DUP9 SWAP1 MSTORE DUP7 AND PUSH1 0x60 DUP3 ADD MSTORE PUSH1 0x1 PUSH1 0x1 PUSH1 0xE0 SHL SUB NOT DUP6 AND PUSH1 0x80 DUP3 ADD MSTORE PUSH1 0xA0 DUP2 ADD DUP5 SWAP1 MSTORE PUSH1 0xC0 DUP2 ADD DUP4 SWAP1 MSTORE PUSH2 0x100 PUSH1 0xE0 DUP3 ADD DUP2 SWAP1 MSTORE PUSH1 0x0 SWAP1 PUSH2 0x1560 DUP4 DUP3 ADD DUP6 PUSH2 0x14BC JUMP JUMPDEST SWAP12 SWAP11 POP POP POP POP POP POP POP POP POP POP POP JUMP JUMPDEST PUSH1 0x1 DUP1 PUSH1 0xA0 SHL SUB DUP5 AND DUP2 MSTORE DUP3 PUSH1 0x20 DUP3 ADD MSTORE PUSH1 0x60 PUSH1 0x40 DUP3 ADD MSTORE PUSH1 0x0 PUSH2 0xB73 PUSH1 0x60 DUP4 ADD DUP5 PUSH2 0x14BC JUMP JUMPDEST DUP10 DUP2 MSTORE PUSH1 0x1 PUSH1 0x1 PUSH1 0xA0 SHL SUB DUP10 AND PUSH1 0x20 DUP3 ADD MSTORE PUSH1 0x40 DUP2 ADD DUP9 SWAP1 MSTORE PUSH1 0x60 DUP2 ADD DUP8 SWAP1 MSTORE PUSH1 0x80 DUP2 ADD DUP7 SWAP1 MSTORE PUSH1 0xA0 DUP2 ADD DUP6 SWAP1 MSTORE PUSH2 0x120 DUP2 ADD PUSH1 0x6 DUP6 LT PUSH2 0x15E7 JUMPI PUSH4 0x4E487B71 PUSH1 0xE0 SHL PUSH1 0x0 MSTORE PUSH1 0x21 PUSH1 0x4 MSTORE PUSH1 0x24 PUSH1 0x0 REVERT JUMPDEST DUP5 PUSH1 0xC0 DUP4 ADD MSTORE DUP4 PUSH1 0xE0 DUP4 ADD MSTORE DUP3 ISZERO ISZERO PUSH2 0x100 DUP4 ADD MSTORE SWAP11 SWAP10 POP POP POP POP POP POP POP POP POP POP JUMP JUMPDEST DUP7 DUP2 MSTORE DUP6 PUSH1 0x20 DUP3 ADD MSTORE PUSH1 0xC0 PUSH1 0x40 DUP3 ADD MSTORE PUSH1 0x0 PUSH2 0x1629 PUSH1 0xC0 DUP4 ADD DUP8 PUSH2 0x14BC JUMP JUMPDEST PUSH1 0x1 PUSH1 0x1 PUSH1 0xA0 SHL SUB SWAP6 DUP7 AND PUSH1 0x60 DUP5 ADD MSTORE PUSH1 0x80 DUP4 ADD SWAP5 SWAP1 SWAP5 MSTORE POP SWAP3 AND PUSH1 0xA0 SWAP1 SWAP3 ADD SWAP2 SWAP1 SWAP2 MSTORE SWAP4 SWAP3 POP POP POP JUMP JUMPDEST PUSH1 0x0 DUP3 NOT DUP3 GT ISZERO PUSH2 0x1667 JUMPI PUSH2 0x1667 PUSH2 0x17E2 JUMP JUMPDEST POP ADD SWAP1 JUMP JUMPDEST PUSH1 0x1 DUP2 DUP2 JUMPDEST DUP1 DUP6 GT ISZERO PUSH2 0x16A7 JUMPI DUP2 PUSH1 0x0 NOT DIV DUP3 GT ISZERO PUSH2 0x168D JUMPI PUSH2 0x168D PUSH2 0x17E2 JUMP JUMPDEST DUP1 DUP6 AND ISZERO PUSH2 0x169A JUMPI SWAP2 DUP2 MUL SWAP2 JUMPDEST SWAP4 DUP5 SHR SWAP4 SWAP1 DUP1 MUL SWAP1 PUSH2 0x1671 JUMP JUMPDEST POP SWAP3 POP SWAP3 SWAP1 POP JUMP JUMPDEST PUSH1 0x0 PUSH2 0xF94 DUP4 DUP4 PUSH1 0x0 DUP3 PUSH2 0x16C5 JUMPI POP PUSH1 0x1 PUSH2 0xE93 JUMP JUMPDEST DUP2 PUSH2 0x16D2 JUMPI POP PUSH1 0x0 PUSH2 0xE93 JUMP JUMPDEST DUP2 PUSH1 0x1 DUP2 EQ PUSH2 0x16E8 JUMPI PUSH1 0x2 DUP2 EQ PUSH2 0x16F2 JUMPI PUSH2 0x170E JUMP JUMPDEST PUSH1 0x1 SWAP2 POP POP PUSH2 0xE93 JUMP JUMPDEST PUSH1 0xFF DUP5 GT ISZERO PUSH2 0x1703 JUMPI PUSH2 0x1703 PUSH2 0x17E2 JUMP JUMPDEST POP POP PUSH1 0x1 DUP3 SHL PUSH2 0xE93 JUMP JUMPDEST POP PUSH1 0x20 DUP4 LT PUSH2 0x133 DUP4 LT AND PUSH1 0x4E DUP5 LT PUSH1 0xB DUP5 LT AND OR ISZERO PUSH2 0x1731 JUMPI POP DUP2 DUP2 EXP PUSH2 0xE93 JUMP JUMPDEST PUSH2 0x173B DUP4 DUP4 PUSH2 0x166C JUMP JUMPDEST DUP1 PUSH1 0x0 NOT DIV DUP3 GT ISZERO PUSH2 0x174F JUMPI PUSH2 0x174F PUSH2 0x17E2 JUMP JUMPDEST MUL SWAP4 SWAP3 POP POP POP JUMP JUMPDEST PUSH1 0x0 DUP2 PUSH1 0x0 NOT DIV DUP4 GT DUP3 ISZERO ISZERO AND ISZERO PUSH2 0x1771 JUMPI PUSH2 0x1771 PUSH2 0x17E2 JUMP JUMPDEST POP MUL SWAP1 JUMP JUMPDEST PUSH1 0x0 DUP3 DUP3 LT ISZERO PUSH2 0x1788 JUMPI PUSH2 0x1788 PUSH2 0x17E2 JUMP JUMPDEST POP SUB SWAP1 JUMP JUMPDEST PUSH1 0x1 DUP2 DUP2 SHR SWAP1 DUP3 AND DUP1 PUSH2 0x17A1 JUMPI PUSH1 0x7F DUP3 AND SWAP2 POP JUMPDEST PUSH1 0x20 DUP3 LT DUP2 EQ ISZERO PUSH2 0x11BE JUMPI PUSH4 0x4E487B71 PUSH1 0xE0 SHL PUSH1 0x0 MSTORE PUSH1 0x22 PUSH1 0x4 MSTORE PUSH1 0x24 PUSH1 0x0 REVERT JUMPDEST PUSH1 0x0 DUP3 PUSH2 0x17DD JUMPI PUSH4 0x4E487B71 PUSH1 0xE0 SHL DUP2 MSTORE PUSH1 0x12 PUSH1 0x4 MSTORE PUSH1 0x24 DUP2 REVERT JUMPDEST POP MOD SWAP1 JUMP JUMPDEST PUSH4 0x4E487B71 PUSH1 0xE0 SHL PUSH1 0x0 MSTORE PUSH1 0x11 PUSH1 0x4 MSTORE PUSH1 0x24 PUSH1 0x0 REVERT JUMPDEST PUSH4 0x4E487B71 PUSH1 0xE0 SHL PUSH1 0x0 MSTORE PUSH1 0x41 PUSH1 0x4 MSTORE PUSH1 0x24 PUSH1 0x0 REVERT INVALID LOG2 PUSH5 0x6970667358 0x22 SLT KECCAK256 SWAP14 CALL EXTCODEHASH SIGNEXTEND 0xDA DUP9 0xAD 0xB6 MSIZE 0xC3 BLOCKHASH 0xBC 0x1E SLOAD CALLDATACOPY 0xE0 MSTORE PUSH10 0xE0D0C486F9704482C03E CREATE 0xD6 PUSH10 0xA664736F6C6343000804 STOP CALLER "
				},
				"gasEstimates": {
					"creation": {
						"codeDepositCost": "1242400",
						"executionCost": "infinite",
						"totalCost": "infinite"
					},
					"external": {
						"bookInsurance(address,bytes32,uint256,uint256,uint256)": "208054",
						"claimRequest(uint256,address)": "1329",
						"claims(bytes32)": "8056",
						"flights(uint256,address)": "infinite",
						"fulfillClaimInquiry(bytes32,uint8)": "30975",
						"insurances(uint256,address)": "8147",
						"owner()": "1081",
						"registerFlights(address,bytes32,string)": "infinite",
						"submitMyClaim(uint256,address,string)": "infinite"
					},
					"internal": {
						"stringToBytes32(string memory)": "infinite"
					}
				},
				"methodIdentifiers": {
					"bookInsurance(address,bytes32,uint256,uint256,uint256)": "2f2e01f2",
					"claimRequest(uint256,address)": "29e999f4",
					"claims(bytes32)": "eff0f592",
					"flights(uint256,address)": "5996e024",
					"fulfillClaimInquiry(bytes32,uint8)": "0ebc8da6",
					"insurances(uint256,address)": "6e8cffa2",
					"owner()": "8da5cb5b",
					"registerFlights(address,bytes32,string)": "8d3c9445",
					"submitMyClaim(uint256,address,string)": "c4e49cd5"
				}
			},
			"storageLayout": {
				"storage": [
					{
						"astId": 318,
						"contract": "contracts/FlightDelayInsurance.sol:FlightDelayInsurance",
						"label": "ens",
						"offset": 0,
						"slot": "0",
						"type": "t_contract(ENSInterface)879"
					},
					{
						"astId": 320,
						"contract": "contracts/FlightDelayInsurance.sol:FlightDelayInsurance",
						"label": "ensNode",
						"offset": 0,
						"slot": "1",
						"type": "t_bytes32"
					},
					{
						"astId": 323,
						"contract": "contracts/FlightDelayInsurance.sol:FlightDelayInsurance",
						"label": "pli",
						"offset": 0,
						"slot": "2",
						"type": "t_contract(PliTokenInterface)1095"
					},
					{
						"astId": 326,
						"contract": "contracts/FlightDelayInsurance.sol:FlightDelayInsurance",
						"label": "oracle",
						"offset": 0,
						"slot": "3",
						"type": "t_contract(OperatorInterface)961"
					},
					{
						"astId": 329,
						"contract": "contracts/FlightDelayInsurance.sol:FlightDelayInsurance",
						"label": "requestCount",
						"offset": 0,
						"slot": "4",
						"type": "t_uint256"
					},
					{
						"astId": 333,
						"contract": "contracts/FlightDelayInsurance.sol:FlightDelayInsurance",
						"label": "pendingRequests",
						"offset": 0,
						"slot": "5",
						"type": "t_mapping(t_bytes32,t_address)"
					},
					{
						"astId": 2183,
						"contract": "contracts/FlightDelayInsurance.sol:FlightDelayInsurance",
						"label": "_flightIds",
						"offset": 0,
						"slot": "6",
						"type": "t_struct(Counter)2099_storage"
					},
					{
						"astId": 2186,
						"contract": "contracts/FlightDelayInsurance.sol:FlightDelayInsurance",
						"label": "_insuranceIds",
						"offset": 0,
						"slot": "7",
						"type": "t_struct(Counter)2099_storage"
					},
					{
						"astId": 2199,
						"contract": "contracts/FlightDelayInsurance.sol:FlightDelayInsurance",
						"label": "owner",
						"offset": 0,
						"slot": "8",
						"type": "t_address"
					},
					{
						"astId": 2206,
						"contract": "contracts/FlightDelayInsurance.sol:FlightDelayInsurance",
						"label": "insurances",
						"offset": 0,
						"slot": "9",
						"type": "t_mapping(t_uint256,t_mapping(t_address,t_struct(FlightInsurance)2600_storage))"
					},
					{
						"astId": 2213,
						"contract": "contracts/FlightDelayInsurance.sol:FlightDelayInsurance",
						"label": "flights",
						"offset": 0,
						"slot": "10",
						"type": "t_mapping(t_uint256,t_mapping(t_address,t_struct(FlightMaster)2580_storage))"
					},
					{
						"astId": 2218,
						"contract": "contracts/FlightDelayInsurance.sol:FlightDelayInsurance",
						"label": "claims",
						"offset": 0,
						"slot": "11",
						"type": "t_mapping(t_bytes32,t_struct(FlightInsurance)2600_storage)"
					},
					{
						"astId": 2224,
						"contract": "contracts/FlightDelayInsurance.sol:FlightDelayInsurance",
						"label": "claimRequest",
						"offset": 0,
						"slot": "12",
						"type": "t_mapping(t_uint256,t_mapping(t_address,t_bytes32))"
					}
				],
				"types": {
					"t_address": {
						"encoding": "inplace",
						"label": "address",
						"numberOfBytes": "20"
					},
					"t_bool": {
						"encoding": "inplace",
						"label": "bool",
						"numberOfBytes": "1"
					},
					"t_bytes32": {
						"encoding": "inplace",
						"label": "bytes32",
						"numberOfBytes": "32"
					},
					"t_contract(ENSInterface)879": {
						"encoding": "inplace",
						"label": "contract ENSInterface",
						"numberOfBytes": "20"
					},
					"t_contract(OperatorInterface)961": {
						"encoding": "inplace",
						"label": "contract OperatorInterface",
						"numberOfBytes": "20"
					},
					"t_contract(PliTokenInterface)1095": {
						"encoding": "inplace",
						"label": "contract PliTokenInterface",
						"numberOfBytes": "20"
					},
					"t_enum(FlightStatus)2567": {
						"encoding": "inplace",
						"label": "enum IFlightStatus.FlightStatus",
						"numberOfBytes": "1"
					},
					"t_mapping(t_address,t_bytes32)": {
						"encoding": "mapping",
						"key": "t_address",
						"label": "mapping(address => bytes32)",
						"numberOfBytes": "32",
						"value": "t_bytes32"
					},
					"t_mapping(t_address,t_struct(FlightInsurance)2600_storage)": {
						"encoding": "mapping",
						"key": "t_address",
						"label": "mapping(address => struct IFlightStatus.FlightInsurance)",
						"numberOfBytes": "32",
						"value": "t_struct(FlightInsurance)2600_storage"
					},
					"t_mapping(t_address,t_struct(FlightMaster)2580_storage)": {
						"encoding": "mapping",
						"key": "t_address",
						"label": "mapping(address => struct IFlightStatus.FlightMaster)",
						"numberOfBytes": "32",
						"value": "t_struct(FlightMaster)2580_storage"
					},
					"t_mapping(t_bytes32,t_address)": {
						"encoding": "mapping",
						"key": "t_bytes32",
						"label": "mapping(bytes32 => address)",
						"numberOfBytes": "32",
						"value": "t_address"
					},
					"t_mapping(t_bytes32,t_struct(FlightInsurance)2600_storage)": {
						"encoding": "mapping",
						"key": "t_bytes32",
						"label": "mapping(bytes32 => struct IFlightStatus.FlightInsurance)",
						"numberOfBytes": "32",
						"value": "t_struct(FlightInsurance)2600_storage"
					},
					"t_mapping(t_uint256,t_mapping(t_address,t_bytes32))": {
						"encoding": "mapping",
						"key": "t_uint256",
						"label": "mapping(uint256 => mapping(address => bytes32))",
						"numberOfBytes": "32",
						"value": "t_mapping(t_address,t_bytes32)"
					},
					"t_mapping(t_uint256,t_mapping(t_address,t_struct(FlightInsurance)2600_storage))": {
						"encoding": "mapping",
						"key": "t_uint256",
						"label": "mapping(uint256 => mapping(address => struct IFlightStatus.FlightInsurance))",
						"numberOfBytes": "32",
						"value": "t_mapping(t_address,t_struct(FlightInsurance)2600_storage)"
					},
					"t_mapping(t_uint256,t_mapping(t_address,t_struct(FlightMaster)2580_storage))": {
						"encoding": "mapping",
						"key": "t_uint256",
						"label": "mapping(uint256 => mapping(address => struct IFlightStatus.FlightMaster))",
						"numberOfBytes": "32",
						"value": "t_mapping(t_address,t_struct(FlightMaster)2580_storage)"
					},
					"t_string_storage": {
						"encoding": "bytes",
						"label": "string",
						"numberOfBytes": "32"
					},
					"t_struct(Counter)2099_storage": {
						"encoding": "inplace",
						"label": "struct Counters.Counter",
						"members": [
							{
								"astId": 2098,
								"contract": "contracts/FlightDelayInsurance.sol:FlightDelayInsurance",
								"label": "_value",
								"offset": 0,
								"slot": "0",
								"type": "t_uint256"
							}
						],
						"numberOfBytes": "32"
					},
					"t_struct(FlightInsurance)2600_storage": {
						"encoding": "inplace",
						"label": "struct IFlightStatus.FlightInsurance",
						"members": [
							{
								"astId": 2582,
								"contract": "contracts/FlightDelayInsurance.sol:FlightDelayInsurance",
								"label": "polictyid",
								"offset": 0,
								"slot": "0",
								"type": "t_uint256"
							},
							{
								"astId": 2584,
								"contract": "contracts/FlightDelayInsurance.sol:FlightDelayInsurance",
								"label": "passenger",
								"offset": 0,
								"slot": "1",
								"type": "t_address"
							},
							{
								"astId": 2586,
								"contract": "contracts/FlightDelayInsurance.sol:FlightDelayInsurance",
								"label": "carrierFlightNumber",
								"offset": 0,
								"slot": "2",
								"type": "t_bytes32"
							},
							{
								"astId": 2588,
								"contract": "contracts/FlightDelayInsurance.sol:FlightDelayInsurance",
								"label": "departureOn",
								"offset": 0,
								"slot": "3",
								"type": "t_uint256"
							},
							{
								"astId": 2590,
								"contract": "contracts/FlightDelayInsurance.sol:FlightDelayInsurance",
								"label": "arrivalOn",
								"offset": 0,
								"slot": "4",
								"type": "t_uint256"
							},
							{
								"astId": 2592,
								"contract": "contracts/FlightDelayInsurance.sol:FlightDelayInsurance",
								"label": "bookedOn",
								"offset": 0,
								"slot": "5",
								"type": "t_uint256"
							},
							{
								"astId": 2595,
								"contract": "contracts/FlightDelayInsurance.sol:FlightDelayInsurance",
								"label": "flightStatus",
								"offset": 0,
								"slot": "6",
								"type": "t_enum(FlightStatus)2567"
							},
							{
								"astId": 2597,
								"contract": "contracts/FlightDelayInsurance.sol:FlightDelayInsurance",
								"label": "yearmonthdate",
								"offset": 0,
								"slot": "7",
								"type": "t_uint256"
							},
							{
								"astId": 2599,
								"contract": "contracts/FlightDelayInsurance.sol:FlightDelayInsurance",
								"label": "processed",
								"offset": 0,
								"slot": "8",
								"type": "t_bool"
							}
						],
						"numberOfBytes": "288"
					},
					"t_struct(FlightMaster)2580_storage": {
						"encoding": "inplace",
						"label": "struct IFlightStatus.FlightMaster",
						"members": [
							{
								"astId": 2569,
								"contract": "contracts/FlightDelayInsurance.sol:FlightDelayInsurance",
								"label": "flightId",
								"offset": 0,
								"slot": "0",
								"type": "t_uint256"
							},
							{
								"astId": 2571,
								"contract": "contracts/FlightDelayInsurance.sol:FlightDelayInsurance",
								"label": "carrierFlightNumber",
								"offset": 0,
								"slot": "1",
								"type": "t_bytes32"
							},
							{
								"astId": 2573,
								"contract": "contracts/FlightDelayInsurance.sol:FlightDelayInsurance",
								"label": "serviceProviderName",
								"offset": 0,
								"slot": "2",
								"type": "t_string_storage"
							},
							{
								"astId": 2575,
								"contract": "contracts/FlightDelayInsurance.sol:FlightDelayInsurance",
								"label": "serviceProvider",
								"offset": 0,
								"slot": "3",
								"type": "t_address"
							},
							{
								"astId": 2577,
								"contract": "contracts/FlightDelayInsurance.sol:FlightDelayInsurance",
								"label": "registeredOn",
								"offset": 0,
								"slot": "4",
								"type": "t_uint256"
							},
							{
								"astId": 2579,
								"contract": "contracts/FlightDelayInsurance.sol:FlightDelayInsurance",
								"label": "registeredBy",
								"offset": 0,
								"slot": "5",
								"type": "t_address"
							}
						],
						"numberOfBytes": "192"
					},
					"t_uint256": {
						"encoding": "inplace",
						"label": "uint256",
						"numberOfBytes": "32"
					}
				}
			},
			"userdoc": {
				"kind": "user",
				"methods": {},
				"version": 1
			}
		}
	}
}