{
	"data": {
		"bytecode": {
			"linkReferences": {},
			"object": "608060405260016004553480156200001657600080fd5b5060405162001bb038038062001bb08339810160408190526200003991620000a7565b600280546001600160a01b0319166001600160a01b03831617905560088054336001600160a01b03199091161790556200008060066200009e602090811b62000d4e17901c565b6200009760076200009e60201b62000d4e1760201c565b50620000d7565b80546001019055565b600060208284031215620000b9578081fd5b81516001600160a01b0381168114620000d0578182fd5b9392505050565b611ac980620000e76000396000f3fe608060405234801561001057600080fd5b50600436106100935760003560e01c80635996e024116100665780635996e024146101115780636e8cffa2146101365780638da5cb5b1461015e578063c4e49cd514610189578063eff0f5921461019c57600080fd5b806304d35e30146100985780630ebc8da6146100be5780631b0dce08146100d357806329e999f4146100e6575b600080fd5b6100ab6100a636600461156f565b6101af565b6040519081526020015b60405180910390f35b6100d16100cc36600461167f565b610314565b005b6100ab6100e13660046115e0565b61057c565b6100ab6100f43660046116b1565b600c60209081526000928352604080842090915290825290205481565b61012461011f3660046116b1565b610774565b6040516100b596959493929190611882565b6101496101443660046116b1565b6108d1565b6040516100b599989796959493929190611801565b600854610171906001600160a01b031681565b6040516001600160a01b0390911681526020016100b5565b6100d16101973660046116dc565b6109be565b6101496101aa366004611667565b610d1c565b6000806101bb60065490565b90506101cb600680546001019055565b6040805160c08101825282815260208082018781528284018790526001600160a01b038916606084018190524260808501523360a08501526000868152600a845285812091815290835293909320825181559251805192939261023492600185019201906113f8565b50604082015180516102509160028401916020909101906113f8565b506060828101516003830180546001600160a01b03199081166001600160a01b0393841617909155608080860151600486015560a095860151600590950180549092169490921693909317909255604080518581526020810185905260119481019490945270119b1a59da1d08149959da5cdd195c9959607a1b60c0850152339084018190529083015242908201527f31e053a200c037c2a0f3a83d8e087ea8ca9962fc3f642170571a92abc949a13c9060e00160405180910390a1949350505050565b60008281526005602052604090205482906001600160a01b031633146103925760405162461bcd60e51b815260206004820152602860248201527f536f75726365206d75737420626520746865206f7261636c65206f6620746865604482015267081c995c5d595cdd60c21b60648201526084015b60405180910390fd5b60008181526005602052604080822080546001600160a01b03191690555182917fa40ad10b942505047c532a7399bf5eac2768b11b7155b40ec80309aea567f99891a26000838152600b602090815260408083208151610120810183528154815260018201546001600160a01b031693810193909352600281018054919284019161041c90611a12565b80601f016020809104026020016040519081016040528092919081815260200182805461044890611a12565b80156104955780601f1061046a57610100808354040283529160200191610495565b820191906000526020600020905b81548152906001019060200180831161047857829003601f168201915b505050918352505060038201546020820152600482015460408201526005808301546060830152600683015460809092019160ff16908111156104e857634e487b7160e01b600052602160045260246000fd5b600581111561050757634e487b7160e01b600052602160045260246000fd5b81526007820154602082015260089091015460ff1615156040909101526001610100820152905060c0810183600581111561055257634e487b7160e01b600052602160045260246000fd5b9081600581111561057357634e487b7160e01b600052602160045260246000fd5b90525050505050565b60008061058860075490565b9050610598600780546001019055565b604051806101200160405280828152602001886001600160a01b03168152602001878152602001868152602001858152602001428152602001600160058111156105f257634e487b7160e01b600052602160045260246000fd5b600581111561061157634e487b7160e01b600052602160045260246000fd5b8152602080820186905260006040928301819052848152600982528281206001600160a01b038c811683529083529083902084518155848301516001820180546001600160a01b031916919093161790915591830151805161067992600285019201906113f8565b50606082015181600301556080820151816004015560a0820151816005015560c08201518160060160006101000a81548160ff021916908360058111156106d057634e487b7160e01b600052602160045260246000fd5b021790555060e0828101516007830155610100909201516008909101805460ff19169115159190911790556040805183815260a0602082018190526010908201526f125b9cdd5c985b98d948109bdbdad95960821b60c08201523391810182905260608101919091524260808201527f528441e079e31bf6f9d9a91817469f3269aadfd0e41397f5139151f22d5bb541910160405180910390a19695505050505050565b600a602090815260009283526040808420909152908252902080546001820180549192916107a190611a12565b80601f01602080910402602001604051908101604052809291908181526020018280546107cd90611a12565b801561081a5780601f106107ef5761010080835404028352916020019161081a565b820191906000526020600020905b8154815290600101906020018083116107fd57829003601f168201915b50505050509080600201805461082f90611a12565b80601f016020809104026020016040519081016040528092919081815260200182805461085b90611a12565b80156108a85780601f1061087d576101008083540402835291602001916108a8565b820191906000526020600020905b81548152906001019060200180831161088b57829003601f168201915b505050506003830154600484015460059094015492936001600160a01b03918216939092501686565b600960209081526000928352604080842090915290825290208054600182015460028301805492936001600160a01b039092169261090e90611a12565b80601f016020809104026020016040519081016040528092919081815260200182805461093a90611a12565b80156109875780601f1061095c57610100808354040283529160200191610987565b820191906000526020600020905b81548152906001019060200180831161096a57829003601f168201915b505050600384015460048501546005860154600687015460078801546008909801549697939692955090935060ff90811692911689565b600083815260096020908152604080832033845282528083208151610120810183528154815260018201546001600160a01b0316938101939093526002810180549192840191610a0d90611a12565b80601f0160208091040260200160405190810160405280929190818152602001828054610a3990611a12565b8015610a865780601f10610a5b57610100808354040283529160200191610a86565b820191906000526020600020905b815481529060010190602001808311610a6957829003601f168201915b505050918352505060038201546020820152600482015460408201526005808301546060830152600683015460809092019160ff1690811115610ad957634e487b7160e01b600052602160045260246000fd5b6005811115610af857634e487b7160e01b600052602160045260246000fd5b8152600782015460208083019190915260089092015460ff1615156040909101528101519091506001600160a01b0316610b745760405162461bcd60e51b815260206004820181905260248201527f506f6c69637920486f6c646572204164647265737320697320696e76616c69646044820152606401610389565b61010081015115610bb95760405162461bcd60e51b815260206004820152600f60248201526e105b1c9958591e4818db185a5b5959608a1b6044820152606401610389565b6000610bd5610bc784610d57565b3063075e46d360e11b610d74565b9050610c0d604051806040016040528060058152602001641d5b9d1a5b60da1b815250836080015183610d999092919063ffffffff16565b6000610c218583662386f26fc10000610dbc565b6000818152600b602090815260409182902086518155868201516001820180546001600160a01b0319166001600160a01b039092169190911790559186015180519394508693610c7792600285019201906113f8565b50606082015181600301556080820151816004015560a0820151816005015560c08201518160060160006101000a81548160ff02191690836005811115610cce57634e487b7160e01b600052602160045260246000fd5b021790555060e08201516007820155610100909101516008909101805460ff19169115159190911790556000958652600c602090815260408088203389529091529095209490945550505050565b600b6020526000908152604090208054600182015460028301805492936001600160a01b039092169261090e90611a12565b80546001019055565b80516000908290610d6b5750600092915050565b50506020015190565b610d7c61147c565b610d8461147c565b610d9081868686610ddb565b95945050505050565b6080830151610da89083610e18565b6080830151610db79082610e2f565b505050565b6000610dd384848460016320214ca360e11b610e3f565b949350505050565b610de361147c565b610df3856080015161010061104b565b50509183526001600160a01b031660208301526001600160e01b031916604082015290565b610e2582600383516110b6565b610db7828261118a565b610e3b826000836110b6565b5050565b6004546040516bffffffffffffffffffffffff193060601b166020820152603481019190915260009060540160408051808303601f19018152918152815160209283012060045460608901526000818152600590935281832080546001600160a01b0319166001600160a01b038b16179055905190925082917fa6745906207afb96a5801b8e5711fd7b74c5780ce893a973806e179d675bbe2491a2600082600080886000015189602001518a604001518b606001518a8d6080015160000151604051602401610f16989796959493929190611772565b60408051601f198184030181529181526020820180516001600160e01b03166001600160e01b0319909416939093179092526002549151630200057560e51b81529092506001600160a01b0390911690634000aea090610f7e908a90899086906004016117da565b602060405180830381600087803b158015610f9857600080fd5b505af1158015610fac573d6000803e3d6000fd5b505050506040513d601f19601f82011682018060405250810190610fd09190611647565b6110285760405162461bcd60e51b815260206004820152602360248201527f756e61626c6520746f207472616e73666572416e6443616c6c20746f206f7261604482015262636c6560e81b6064820152608401610389565b60016004600082825461103b91906118d9565b9091555091979650505050505050565b60408051808201909152606081526000602082015261106b602083611a47565b156110935761107b602083611a47565b6110869060206119fb565b61109090836118d9565b91505b506020808301829052604080518085526000815283019091019052815b92915050565b601781116110d7576110d18360e0600585901b1683176111b8565b50505050565b60ff8111611101576110f4836018611fe0600586901b16176111b8565b506110d1838260016111dd565b61ffff811161112c5761111f836019611fe0600586901b16176111b8565b506110d1838260026111dd565b63ffffffff81116111595761114c83601a611fe0600586901b16176111b8565b506110d1838260046111dd565b67ffffffffffffffff8111610db75761117d83601b611fe0600586901b16176111b8565b506110d1838260086111dd565b6040805180820190915260608152600060208201526111b183846000015151848551611203565b9392505050565b6040805180820190915260608152600060208201526111b183846000015151846112ed565b604080518082019091526060815260006020820152610dd3848560000151518585611349565b604080518082019091526060815260006020820152825182111561122657600080fd5b602085015161123583866118d9565b111561126857611268856112588760200151878661125391906118d9565b6113ca565b6112639060026119dc565b6113e1565b6000808651805187602083010193508088870111156112875787860182525b505050602084015b602084106112c757805182526112a66020836118d9565b91506112b36020826118d9565b90506112c06020856119fb565b935061128f565b51815160001960208690036101000a019081169019919091161790525083949350505050565b6040805180820190915260608152600060208201528360200151831061132257611322848560200151600261126391906119dc565b83518051602085830101848153508085141561133f576001810182525b5093949350505050565b604080518082019091526060815260006020820152602085015161136d85846118d9565b1115611381576113818561125886856118d9565b6000600161139184610100611934565b61139b91906119fb565b90508551838682010185831982511617815250805184870111156113bf5783860181525b509495945050505050565b6000818311156113db5750816110b0565b50919050565b81516113ed838361104b565b506110d1838261118a565b82805461140490611a12565b90600052602060002090601f016020900481019282611426576000855561146c565b82601f1061143f57805160ff191683800117855561146c565b8280016001018555821561146c579182015b8281111561146c578251825591602001919060010190611451565b506114789291506114b7565b5090565b6040805160a0810182526000808252602080830182905282840182905260608084018390528451808601909552845283015290608082015290565b5b8082111561147857600081556001016114b8565b80356001600160a01b03811681146114e357600080fd5b919050565b600082601f8301126114f8578081fd5b813567ffffffffffffffff8082111561151357611513611a7d565b604051601f8301601f19908116603f0116810190828211818310171561153b5761153b611a7d565b81604052838152866020858801011115611553578485fd5b8360208701602083013792830160200193909352509392505050565b600080600060608486031215611583578283fd5b61158c846114cc565b9250602084013567ffffffffffffffff808211156115a8578384fd5b6115b4878388016114e8565b935060408601359150808211156115c9578283fd5b506115d6868287016114e8565b9150509250925092565b600080600080600060a086880312156115f7578081fd5b611600866114cc565b9450602086013567ffffffffffffffff81111561161b578182fd5b611627888289016114e8565b959895975050505060408401359360608101359360809091013592509050565b600060208284031215611658578081fd5b815180151581146111b1578182fd5b600060208284031215611678578081fd5b5035919050565b60008060408385031215611691578182fd5b823591506020830135600681106116a6578182fd5b809150509250929050565b600080604083850312156116c3578182fd5b823591506116d3602084016114cc565b90509250929050565b6000806000606084860312156116f0578283fd5b83359250611700602085016114cc565b9150604084013567ffffffffffffffff81111561171b578182fd5b6115d6868287016114e8565b60008151808452815b8181101561174c57602081850181015186830182015201611730565b8181111561175d5782602083870101525b50601f01601f19169290920160200192915050565b6001600160a01b0389811682526020820189905260408201889052861660608201526001600160e01b03198516608082015260a0810184905260c0810183905261010060e082018190526000906117cb83820185611727565b9b9a5050505050505050505050565b60018060a01b0384168152826020820152606060408201526000610d906060830184611727565b8981526001600160a01b03891660208201526101206040820181905260009061182c8382018b611727565b9150508760608301528660808301528560a08301526006851061185f57634e487b7160e01b600052602160045260246000fd5b8460c08301528360e08301528215156101008301529a9950505050505050505050565b86815260c06020820152600061189b60c0830188611727565b82810360408401526118ad8188611727565b6001600160a01b03968716606085015260808401959095525050921660a0909201919091529392505050565b600082198211156118ec576118ec611a67565b500190565b600181815b8085111561192c57816000190482111561191257611912611a67565b8085161561191f57918102915b93841c93908002906118f6565b509250929050565b60006111b1838360008261194a575060016110b0565b81611957575060006110b0565b816001811461196d576002811461197757611993565b60019150506110b0565b60ff84111561198857611988611a67565b50506001821b6110b0565b5060208310610133831016604e8410600b84101617156119b6575081810a6110b0565b6119c083836118f1565b80600019048211156119d4576119d4611a67565b029392505050565b60008160001904831182151516156119f6576119f6611a67565b500290565b600082821015611a0d57611a0d611a67565b500390565b600181811c90821680611a2657607f821691505b602082108114156113db57634e487b7160e01b600052602260045260246000fd5b600082611a6257634e487b7160e01b81526012600452602481fd5b500690565b634e487b7160e01b600052601160045260246000fd5b634e487b7160e01b600052604160045260246000fdfea26469706673582212208da7616e6298179017c61f00d97de80cf37b59bcd5e0bf4c875601ce931f917864736f6c63430008040033",
			"opcodes": "PUSH1 0x80 PUSH1 0x40 MSTORE PUSH1 0x1 PUSH1 0x4 SSTORE CALLVALUE DUP1 ISZERO PUSH3 0x16 JUMPI PUSH1 0x0 DUP1 REVERT JUMPDEST POP PUSH1 0x40 MLOAD PUSH3 0x1BB0 CODESIZE SUB DUP1 PUSH3 0x1BB0 DUP4 CODECOPY DUP2 ADD PUSH1 0x40 DUP2 SWAP1 MSTORE PUSH3 0x39 SWAP2 PUSH3 0xA7 JUMP JUMPDEST PUSH1 0x2 DUP1 SLOAD PUSH1 0x1 PUSH1 0x1 PUSH1 0xA0 SHL SUB NOT AND PUSH1 0x1 PUSH1 0x1 PUSH1 0xA0 SHL SUB DUP4 AND OR SWAP1 SSTORE PUSH1 0x8 DUP1 SLOAD CALLER PUSH1 0x1 PUSH1 0x1 PUSH1 0xA0 SHL SUB NOT SWAP1 SWAP2 AND OR SWAP1 SSTORE PUSH3 0x80 PUSH1 0x6 PUSH3 0x9E PUSH1 0x20 SWAP1 DUP2 SHL PUSH3 0xD4E OR SWAP1 SHR JUMP JUMPDEST PUSH3 0x97 PUSH1 0x7 PUSH3 0x9E PUSH1 0x20 SHL PUSH3 0xD4E OR PUSH1 0x20 SHR JUMP JUMPDEST POP PUSH3 0xD7 JUMP JUMPDEST DUP1 SLOAD PUSH1 0x1 ADD SWAP1 SSTORE JUMP JUMPDEST PUSH1 0x0 PUSH1 0x20 DUP3 DUP5 SUB SLT ISZERO PUSH3 0xB9 JUMPI DUP1 DUP2 REVERT JUMPDEST DUP2 MLOAD PUSH1 0x1 PUSH1 0x1 PUSH1 0xA0 SHL SUB DUP2 AND DUP2 EQ PUSH3 0xD0 JUMPI DUP2 DUP3 REVERT JUMPDEST SWAP4 SWAP3 POP POP POP JUMP JUMPDEST PUSH2 0x1AC9 DUP1 PUSH3 0xE7 PUSH1 0x0 CODECOPY PUSH1 0x0 RETURN INVALID PUSH1 0x80 PUSH1 0x40 MSTORE CALLVALUE DUP1 ISZERO PUSH2 0x10 JUMPI PUSH1 0x0 DUP1 REVERT JUMPDEST POP PUSH1 0x4 CALLDATASIZE LT PUSH2 0x93 JUMPI PUSH1 0x0 CALLDATALOAD PUSH1 0xE0 SHR DUP1 PUSH4 0x5996E024 GT PUSH2 0x66 JUMPI DUP1 PUSH4 0x5996E024 EQ PUSH2 0x111 JUMPI DUP1 PUSH4 0x6E8CFFA2 EQ PUSH2 0x136 JUMPI DUP1 PUSH4 0x8DA5CB5B EQ PUSH2 0x15E JUMPI DUP1 PUSH4 0xC4E49CD5 EQ PUSH2 0x189 JUMPI DUP1 PUSH4 0xEFF0F592 EQ PUSH2 0x19C JUMPI PUSH1 0x0 DUP1 REVERT JUMPDEST DUP1 PUSH4 0x4D35E30 EQ PUSH2 0x98 JUMPI DUP1 PUSH4 0xEBC8DA6 EQ PUSH2 0xBE JUMPI DUP1 PUSH4 0x1B0DCE08 EQ PUSH2 0xD3 JUMPI DUP1 PUSH4 0x29E999F4 EQ PUSH2 0xE6 JUMPI JUMPDEST PUSH1 0x0 DUP1 REVERT JUMPDEST PUSH2 0xAB PUSH2 0xA6 CALLDATASIZE PUSH1 0x4 PUSH2 0x156F JUMP JUMPDEST PUSH2 0x1AF JUMP JUMPDEST PUSH1 0x40 MLOAD SWAP1 DUP2 MSTORE PUSH1 0x20 ADD JUMPDEST PUSH1 0x40 MLOAD DUP1 SWAP2 SUB SWAP1 RETURN JUMPDEST PUSH2 0xD1 PUSH2 0xCC CALLDATASIZE PUSH1 0x4 PUSH2 0x167F JUMP JUMPDEST PUSH2 0x314 JUMP JUMPDEST STOP JUMPDEST PUSH2 0xAB PUSH2 0xE1 CALLDATASIZE PUSH1 0x4 PUSH2 0x15E0 JUMP JUMPDEST PUSH2 0x57C JUMP JUMPDEST PUSH2 0xAB PUSH2 0xF4 CALLDATASIZE PUSH1 0x4 PUSH2 0x16B1 JUMP JUMPDEST PUSH1 0xC PUSH1 0x20 SWAP1 DUP2 MSTORE PUSH1 0x0 SWAP3 DUP4 MSTORE PUSH1 0x40 DUP1 DUP5 KECCAK256 SWAP1 SWAP2 MSTORE SWAP1 DUP3 MSTORE SWAP1 KECCAK256 SLOAD DUP2 JUMP JUMPDEST PUSH2 0x124 PUSH2 0x11F CALLDATASIZE PUSH1 0x4 PUSH2 0x16B1 JUMP JUMPDEST PUSH2 0x774 JUMP JUMPDEST PUSH1 0x40 MLOAD PUSH2 0xB5 SWAP7 SWAP6 SWAP5 SWAP4 SWAP3 SWAP2 SWAP1 PUSH2 0x1882 JUMP JUMPDEST PUSH2 0x149 PUSH2 0x144 CALLDATASIZE PUSH1 0x4 PUSH2 0x16B1 JUMP JUMPDEST PUSH2 0x8D1 JUMP JUMPDEST PUSH1 0x40 MLOAD PUSH2 0xB5 SWAP10 SWAP9 SWAP8 SWAP7 SWAP6 SWAP5 SWAP4 SWAP3 SWAP2 SWAP1 PUSH2 0x1801 JUMP JUMPDEST PUSH1 0x8 SLOAD PUSH2 0x171 SWAP1 PUSH1 0x1 PUSH1 0x1 PUSH1 0xA0 SHL SUB AND DUP2 JUMP JUMPDEST PUSH1 0x40 MLOAD PUSH1 0x1 PUSH1 0x1 PUSH1 0xA0 SHL SUB SWAP1 SWAP2 AND DUP2 MSTORE PUSH1 0x20 ADD PUSH2 0xB5 JUMP JUMPDEST PUSH2 0xD1 PUSH2 0x197 CALLDATASIZE PUSH1 0x4 PUSH2 0x16DC JUMP JUMPDEST PUSH2 0x9BE JUMP JUMPDEST PUSH2 0x149 PUSH2 0x1AA CALLDATASIZE PUSH1 0x4 PUSH2 0x1667 JUMP JUMPDEST PUSH2 0xD1C JUMP JUMPDEST PUSH1 0x0 DUP1 PUSH2 0x1BB PUSH1 0x6 SLOAD SWAP1 JUMP JUMPDEST SWAP1 POP PUSH2 0x1CB PUSH1 0x6 DUP1 SLOAD PUSH1 0x1 ADD SWAP1 SSTORE JUMP JUMPDEST PUSH1 0x40 DUP1 MLOAD PUSH1 0xC0 DUP2 ADD DUP3 MSTORE DUP3 DUP2 MSTORE PUSH1 0x20 DUP1 DUP3 ADD DUP8 DUP2 MSTORE DUP3 DUP5 ADD DUP8 SWAP1 MSTORE PUSH1 0x1 PUSH1 0x1 PUSH1 0xA0 SHL SUB DUP10 AND PUSH1 0x60 DUP5 ADD DUP2 SWAP1 MSTORE TIMESTAMP PUSH1 0x80 DUP6 ADD MSTORE CALLER PUSH1 0xA0 DUP6 ADD MSTORE PUSH1 0x0 DUP7 DUP2 MSTORE PUSH1 0xA DUP5 MSTORE DUP6 DUP2 KECCAK256 SWAP2 DUP2 MSTORE SWAP1 DUP4 MSTORE SWAP4 SWAP1 SWAP4 KECCAK256 DUP3 MLOAD DUP2 SSTORE SWAP3 MLOAD DUP1 MLOAD SWAP3 SWAP4 SWAP3 PUSH2 0x234 SWAP3 PUSH1 0x1 DUP6 ADD SWAP3 ADD SWAP1 PUSH2 0x13F8 JUMP JUMPDEST POP PUSH1 0x40 DUP3 ADD MLOAD DUP1 MLOAD PUSH2 0x250 SWAP2 PUSH1 0x2 DUP5 ADD SWAP2 PUSH1 0x20 SWAP1 SWAP2 ADD SWAP1 PUSH2 0x13F8 JUMP JUMPDEST POP PUSH1 0x60 DUP3 DUP2 ADD MLOAD PUSH1 0x3 DUP4 ADD DUP1 SLOAD PUSH1 0x1 PUSH1 0x1 PUSH1 0xA0 SHL SUB NOT SWAP1 DUP2 AND PUSH1 0x1 PUSH1 0x1 PUSH1 0xA0 SHL SUB SWAP4 DUP5 AND OR SWAP1 SWAP2 SSTORE PUSH1 0x80 DUP1 DUP7 ADD MLOAD PUSH1 0x4 DUP7 ADD SSTORE PUSH1 0xA0 SWAP6 DUP7 ADD MLOAD PUSH1 0x5 SWAP1 SWAP6 ADD DUP1 SLOAD SWAP1 SWAP3 AND SWAP5 SWAP1 SWAP3 AND SWAP4 SWAP1 SWAP4 OR SWAP1 SWAP3 SSTORE PUSH1 0x40 DUP1 MLOAD DUP6 DUP2 MSTORE PUSH1 0x20 DUP2 ADD DUP6 SWAP1 MSTORE PUSH1 0x11 SWAP5 DUP2 ADD SWAP5 SWAP1 SWAP5 MSTORE PUSH17 0x119B1A59DA1D08149959DA5CDD195C9959 PUSH1 0x7A SHL PUSH1 0xC0 DUP6 ADD MSTORE CALLER SWAP1 DUP5 ADD DUP2 SWAP1 MSTORE SWAP1 DUP4 ADD MSTORE TIMESTAMP SWAP1 DUP3 ADD MSTORE PUSH32 0x31E053A200C037C2A0F3A83D8E087EA8CA9962FC3F642170571A92ABC949A13C SWAP1 PUSH1 0xE0 ADD PUSH1 0x40 MLOAD DUP1 SWAP2 SUB SWAP1 LOG1 SWAP5 SWAP4 POP POP POP POP JUMP JUMPDEST PUSH1 0x0 DUP3 DUP2 MSTORE PUSH1 0x5 PUSH1 0x20 MSTORE PUSH1 0x40 SWAP1 KECCAK256 SLOAD DUP3 SWAP1 PUSH1 0x1 PUSH1 0x1 PUSH1 0xA0 SHL SUB AND CALLER EQ PUSH2 0x392 JUMPI PUSH1 0x40 MLOAD PUSH3 0x461BCD PUSH1 0xE5 SHL DUP2 MSTORE PUSH1 0x20 PUSH1 0x4 DUP3 ADD MSTORE PUSH1 0x28 PUSH1 0x24 DUP3 ADD MSTORE PUSH32 0x536F75726365206D75737420626520746865206F7261636C65206F6620746865 PUSH1 0x44 DUP3 ADD MSTORE PUSH8 0x81C995C5D595CDD PUSH1 0xC2 SHL PUSH1 0x64 DUP3 ADD MSTORE PUSH1 0x84 ADD JUMPDEST PUSH1 0x40 MLOAD DUP1 SWAP2 SUB SWAP1 REVERT JUMPDEST PUSH1 0x0 DUP2 DUP2 MSTORE PUSH1 0x5 PUSH1 0x20 MSTORE PUSH1 0x40 DUP1 DUP3 KECCAK256 DUP1 SLOAD PUSH1 0x1 PUSH1 0x1 PUSH1 0xA0 SHL SUB NOT AND SWAP1 SSTORE MLOAD DUP3 SWAP2 PUSH32 0xA40AD10B942505047C532A7399BF5EAC2768B11B7155B40EC80309AEA567F998 SWAP2 LOG2 PUSH1 0x0 DUP4 DUP2 MSTORE PUSH1 0xB PUSH1 0x20 SWAP1 DUP2 MSTORE PUSH1 0x40 DUP1 DUP4 KECCAK256 DUP2 MLOAD PUSH2 0x120 DUP2 ADD DUP4 MSTORE DUP2 SLOAD DUP2 MSTORE PUSH1 0x1 DUP3 ADD SLOAD PUSH1 0x1 PUSH1 0x1 PUSH1 0xA0 SHL SUB AND SWAP4 DUP2 ADD SWAP4 SWAP1 SWAP4 MSTORE PUSH1 0x2 DUP2 ADD DUP1 SLOAD SWAP2 SWAP3 DUP5 ADD SWAP2 PUSH2 0x41C SWAP1 PUSH2 0x1A12 JUMP JUMPDEST DUP1 PUSH1 0x1F ADD PUSH1 0x20 DUP1 SWAP2 DIV MUL PUSH1 0x20 ADD PUSH1 0x40 MLOAD SWAP1 DUP2 ADD PUSH1 0x40 MSTORE DUP1 SWAP3 SWAP2 SWAP1 DUP2 DUP2 MSTORE PUSH1 0x20 ADD DUP3 DUP1 SLOAD PUSH2 0x448 SWAP1 PUSH2 0x1A12 JUMP JUMPDEST DUP1 ISZERO PUSH2 0x495 JUMPI DUP1 PUSH1 0x1F LT PUSH2 0x46A JUMPI PUSH2 0x100 DUP1 DUP4 SLOAD DIV MUL DUP4 MSTORE SWAP2 PUSH1 0x20 ADD SWAP2 PUSH2 0x495 JUMP JUMPDEST DUP3 ADD SWAP2 SWAP1 PUSH1 0x0 MSTORE PUSH1 0x20 PUSH1 0x0 KECCAK256 SWAP1 JUMPDEST DUP2 SLOAD DUP2 MSTORE SWAP1 PUSH1 0x1 ADD SWAP1 PUSH1 0x20 ADD DUP1 DUP4 GT PUSH2 0x478 JUMPI DUP3 SWAP1 SUB PUSH1 0x1F AND DUP3 ADD SWAP2 JUMPDEST POP POP POP SWAP2 DUP4 MSTORE POP POP PUSH1 0x3 DUP3 ADD SLOAD PUSH1 0x20 DUP3 ADD MSTORE PUSH1 0x4 DUP3 ADD SLOAD PUSH1 0x40 DUP3 ADD MSTORE PUSH1 0x5 DUP1 DUP4 ADD SLOAD PUSH1 0x60 DUP4 ADD MSTORE PUSH1 0x6 DUP4 ADD SLOAD PUSH1 0x80 SWAP1 SWAP3 ADD SWAP2 PUSH1 0xFF AND SWAP1 DUP2 GT ISZERO PUSH2 0x4E8 JUMPI PUSH4 0x4E487B71 PUSH1 0xE0 SHL PUSH1 0x0 MSTORE PUSH1 0x21 PUSH1 0x4 MSTORE PUSH1 0x24 PUSH1 0x0 REVERT JUMPDEST PUSH1 0x5 DUP2 GT ISZERO PUSH2 0x507 JUMPI PUSH4 0x4E487B71 PUSH1 0xE0 SHL PUSH1 0x0 MSTORE PUSH1 0x21 PUSH1 0x4 MSTORE PUSH1 0x24 PUSH1 0x0 REVERT JUMPDEST DUP2 MSTORE PUSH1 0x7 DUP3 ADD SLOAD PUSH1 0x20 DUP3 ADD MSTORE PUSH1 0x8 SWAP1 SWAP2 ADD SLOAD PUSH1 0xFF AND ISZERO ISZERO PUSH1 0x40 SWAP1 SWAP2 ADD MSTORE PUSH1 0x1 PUSH2 0x100 DUP3 ADD MSTORE SWAP1 POP PUSH1 0xC0 DUP2 ADD DUP4 PUSH1 0x5 DUP2 GT ISZERO PUSH2 0x552 JUMPI PUSH4 0x4E487B71 PUSH1 0xE0 SHL PUSH1 0x0 MSTORE PUSH1 0x21 PUSH1 0x4 MSTORE PUSH1 0x24 PUSH1 0x0 REVERT JUMPDEST SWAP1 DUP2 PUSH1 0x5 DUP2 GT ISZERO PUSH2 0x573 JUMPI PUSH4 0x4E487B71 PUSH1 0xE0 SHL PUSH1 0x0 MSTORE PUSH1 0x21 PUSH1 0x4 MSTORE PUSH1 0x24 PUSH1 0x0 REVERT JUMPDEST SWAP1 MSTORE POP POP POP POP POP JUMP JUMPDEST PUSH1 0x0 DUP1 PUSH2 0x588 PUSH1 0x7 SLOAD SWAP1 JUMP JUMPDEST SWAP1 POP PUSH2 0x598 PUSH1 0x7 DUP1 SLOAD PUSH1 0x1 ADD SWAP1 SSTORE JUMP JUMPDEST PUSH1 0x40 MLOAD DUP1 PUSH2 0x120 ADD PUSH1 0x40 MSTORE DUP1 DUP3 DUP2 MSTORE PUSH1 0x20 ADD DUP9 PUSH1 0x1 PUSH1 0x1 PUSH1 0xA0 SHL SUB AND DUP2 MSTORE PUSH1 0x20 ADD DUP8 DUP2 MSTORE PUSH1 0x20 ADD DUP7 DUP2 MSTORE PUSH1 0x20 ADD DUP6 DUP2 MSTORE PUSH1 0x20 ADD TIMESTAMP DUP2 MSTORE PUSH1 0x20 ADD PUSH1 0x1 PUSH1 0x5 DUP2 GT ISZERO PUSH2 0x5F2 JUMPI PUSH4 0x4E487B71 PUSH1 0xE0 SHL PUSH1 0x0 MSTORE PUSH1 0x21 PUSH1 0x4 MSTORE PUSH1 0x24 PUSH1 0x0 REVERT JUMPDEST PUSH1 0x5 DUP2 GT ISZERO PUSH2 0x611 JUMPI PUSH4 0x4E487B71 PUSH1 0xE0 SHL PUSH1 0x0 MSTORE PUSH1 0x21 PUSH1 0x4 MSTORE PUSH1 0x24 PUSH1 0x0 REVERT JUMPDEST DUP2 MSTORE PUSH1 0x20 DUP1 DUP3 ADD DUP7 SWAP1 MSTORE PUSH1 0x0 PUSH1 0x40 SWAP3 DUP4 ADD DUP2 SWAP1 MSTORE DUP5 DUP2 MSTORE PUSH1 0x9 DUP3 MSTORE DUP3 DUP2 KECCAK256 PUSH1 0x1 PUSH1 0x1 PUSH1 0xA0 SHL SUB DUP13 DUP2 AND DUP4 MSTORE SWAP1 DUP4 MSTORE SWAP1 DUP4 SWAP1 KECCAK256 DUP5 MLOAD DUP2 SSTORE DUP5 DUP4 ADD MLOAD PUSH1 0x1 DUP3 ADD DUP1 SLOAD PUSH1 0x1 PUSH1 0x1 PUSH1 0xA0 SHL SUB NOT AND SWAP2 SWAP1 SWAP4 AND OR SWAP1 SWAP2 SSTORE SWAP2 DUP4 ADD MLOAD DUP1 MLOAD PUSH2 0x679 SWAP3 PUSH1 0x2 DUP6 ADD SWAP3 ADD SWAP1 PUSH2 0x13F8 JUMP JUMPDEST POP PUSH1 0x60 DUP3 ADD MLOAD DUP2 PUSH1 0x3 ADD SSTORE PUSH1 0x80 DUP3 ADD MLOAD DUP2 PUSH1 0x4 ADD SSTORE PUSH1 0xA0 DUP3 ADD MLOAD DUP2 PUSH1 0x5 ADD SSTORE PUSH1 0xC0 DUP3 ADD MLOAD DUP2 PUSH1 0x6 ADD PUSH1 0x0 PUSH2 0x100 EXP DUP2 SLOAD DUP2 PUSH1 0xFF MUL NOT AND SWAP1 DUP4 PUSH1 0x5 DUP2 GT ISZERO PUSH2 0x6D0 JUMPI PUSH4 0x4E487B71 PUSH1 0xE0 SHL PUSH1 0x0 MSTORE PUSH1 0x21 PUSH1 0x4 MSTORE PUSH1 0x24 PUSH1 0x0 REVERT JUMPDEST MUL OR SWAP1 SSTORE POP PUSH1 0xE0 DUP3 DUP2 ADD MLOAD PUSH1 0x7 DUP4 ADD SSTORE PUSH2 0x100 SWAP1 SWAP3 ADD MLOAD PUSH1 0x8 SWAP1 SWAP2 ADD DUP1 SLOAD PUSH1 0xFF NOT AND SWAP2 ISZERO ISZERO SWAP2 SWAP1 SWAP2 OR SWAP1 SSTORE PUSH1 0x40 DUP1 MLOAD DUP4 DUP2 MSTORE PUSH1 0xA0 PUSH1 0x20 DUP3 ADD DUP2 SWAP1 MSTORE PUSH1 0x10 SWAP1 DUP3 ADD MSTORE PUSH16 0x125B9CDD5C985B98D948109BDBDAD959 PUSH1 0x82 SHL PUSH1 0xC0 DUP3 ADD MSTORE CALLER SWAP2 DUP2 ADD DUP3 SWAP1 MSTORE PUSH1 0x60 DUP2 ADD SWAP2 SWAP1 SWAP2 MSTORE TIMESTAMP PUSH1 0x80 DUP3 ADD MSTORE PUSH32 0x528441E079E31BF6F9D9A91817469F3269AADFD0E41397F5139151F22D5BB541 SWAP2 ADD PUSH1 0x40 MLOAD DUP1 SWAP2 SUB SWAP1 LOG1 SWAP7 SWAP6 POP POP POP POP POP POP JUMP JUMPDEST PUSH1 0xA PUSH1 0x20 SWAP1 DUP2 MSTORE PUSH1 0x0 SWAP3 DUP4 MSTORE PUSH1 0x40 DUP1 DUP5 KECCAK256 SWAP1 SWAP2 MSTORE SWAP1 DUP3 MSTORE SWAP1 KECCAK256 DUP1 SLOAD PUSH1 0x1 DUP3 ADD DUP1 SLOAD SWAP2 SWAP3 SWAP2 PUSH2 0x7A1 SWAP1 PUSH2 0x1A12 JUMP JUMPDEST DUP1 PUSH1 0x1F ADD PUSH1 0x20 DUP1 SWAP2 DIV MUL PUSH1 0x20 ADD PUSH1 0x40 MLOAD SWAP1 DUP2 ADD PUSH1 0x40 MSTORE DUP1 SWAP3 SWAP2 SWAP1 DUP2 DUP2 MSTORE PUSH1 0x20 ADD DUP3 DUP1 SLOAD PUSH2 0x7CD SWAP1 PUSH2 0x1A12 JUMP JUMPDEST DUP1 ISZERO PUSH2 0x81A JUMPI DUP1 PUSH1 0x1F LT PUSH2 0x7EF JUMPI PUSH2 0x100 DUP1 DUP4 SLOAD DIV MUL DUP4 MSTORE SWAP2 PUSH1 0x20 ADD SWAP2 PUSH2 0x81A JUMP JUMPDEST DUP3 ADD SWAP2 SWAP1 PUSH1 0x0 MSTORE PUSH1 0x20 PUSH1 0x0 KECCAK256 SWAP1 JUMPDEST DUP2 SLOAD DUP2 MSTORE SWAP1 PUSH1 0x1 ADD SWAP1 PUSH1 0x20 ADD DUP1 DUP4 GT PUSH2 0x7FD JUMPI DUP3 SWAP1 SUB PUSH1 0x1F AND DUP3 ADD SWAP2 JUMPDEST POP POP POP POP POP SWAP1 DUP1 PUSH1 0x2 ADD DUP1 SLOAD PUSH2 0x82F SWAP1 PUSH2 0x1A12 JUMP JUMPDEST DUP1 PUSH1 0x1F ADD PUSH1 0x20 DUP1 SWAP2 DIV MUL PUSH1 0x20 ADD PUSH1 0x40 MLOAD SWAP1 DUP2 ADD PUSH1 0x40 MSTORE DUP1 SWAP3 SWAP2 SWAP1 DUP2 DUP2 MSTORE PUSH1 0x20 ADD DUP3 DUP1 SLOAD PUSH2 0x85B SWAP1 PUSH2 0x1A12 JUMP JUMPDEST DUP1 ISZERO PUSH2 0x8A8 JUMPI DUP1 PUSH1 0x1F LT PUSH2 0x87D JUMPI PUSH2 0x100 DUP1 DUP4 SLOAD DIV MUL DUP4 MSTORE SWAP2 PUSH1 0x20 ADD SWAP2 PUSH2 0x8A8 JUMP JUMPDEST DUP3 ADD SWAP2 SWAP1 PUSH1 0x0 MSTORE PUSH1 0x20 PUSH1 0x0 KECCAK256 SWAP1 JUMPDEST DUP2 SLOAD DUP2 MSTORE SWAP1 PUSH1 0x1 ADD SWAP1 PUSH1 0x20 ADD DUP1 DUP4 GT PUSH2 0x88B JUMPI DUP3 SWAP1 SUB PUSH1 0x1F AND DUP3 ADD SWAP2 JUMPDEST POP POP POP POP PUSH1 0x3 DUP4 ADD SLOAD PUSH1 0x4 DUP5 ADD SLOAD PUSH1 0x5 SWAP1 SWAP5 ADD SLOAD SWAP3 SWAP4 PUSH1 0x1 PUSH1 0x1 PUSH1 0xA0 SHL SUB SWAP2 DUP3 AND SWAP4 SWAP1 SWAP3 POP AND DUP7 JUMP JUMPDEST PUSH1 0x9 PUSH1 0x20 SWAP1 DUP2 MSTORE PUSH1 0x0 SWAP3 DUP4 MSTORE PUSH1 0x40 DUP1 DUP5 KECCAK256 SWAP1 SWAP2 MSTORE SWAP1 DUP3 MSTORE SWAP1 KECCAK256 DUP1 SLOAD PUSH1 0x1 DUP3 ADD SLOAD PUSH1 0x2 DUP4 ADD DUP1 SLOAD SWAP3 SWAP4 PUSH1 0x1 PUSH1 0x1 PUSH1 0xA0 SHL SUB SWAP1 SWAP3 AND SWAP3 PUSH2 0x90E SWAP1 PUSH2 0x1A12 JUMP JUMPDEST DUP1 PUSH1 0x1F ADD PUSH1 0x20 DUP1 SWAP2 DIV MUL PUSH1 0x20 ADD PUSH1 0x40 MLOAD SWAP1 DUP2 ADD PUSH1 0x40 MSTORE DUP1 SWAP3 SWAP2 SWAP1 DUP2 DUP2 MSTORE PUSH1 0x20 ADD DUP3 DUP1 SLOAD PUSH2 0x93A SWAP1 PUSH2 0x1A12 JUMP JUMPDEST DUP1 ISZERO PUSH2 0x987 JUMPI DUP1 PUSH1 0x1F LT PUSH2 0x95C JUMPI PUSH2 0x100 DUP1 DUP4 SLOAD DIV MUL DUP4 MSTORE SWAP2 PUSH1 0x20 ADD SWAP2 PUSH2 0x987 JUMP JUMPDEST DUP3 ADD SWAP2 SWAP1 PUSH1 0x0 MSTORE PUSH1 0x20 PUSH1 0x0 KECCAK256 SWAP1 JUMPDEST DUP2 SLOAD DUP2 MSTORE SWAP1 PUSH1 0x1 ADD SWAP1 PUSH1 0x20 ADD DUP1 DUP4 GT PUSH2 0x96A JUMPI DUP3 SWAP1 SUB PUSH1 0x1F AND DUP3 ADD SWAP2 JUMPDEST POP POP POP PUSH1 0x3 DUP5 ADD SLOAD PUSH1 0x4 DUP6 ADD SLOAD PUSH1 0x5 DUP7 ADD SLOAD PUSH1 0x6 DUP8 ADD SLOAD PUSH1 0x7 DUP9 ADD SLOAD PUSH1 0x8 SWAP1 SWAP9 ADD SLOAD SWAP7 SWAP8 SWAP4 SWAP7 SWAP3 SWAP6 POP SWAP1 SWAP4 POP PUSH1 0xFF SWAP1 DUP2 AND SWAP3 SWAP2 AND DUP10 JUMP JUMPDEST PUSH1 0x0 DUP4 DUP2 MSTORE PUSH1 0x9 PUSH1 0x20 SWAP1 DUP2 MSTORE PUSH1 0x40 DUP1 DUP4 KECCAK256 CALLER DUP5 MSTORE DUP3 MSTORE DUP1 DUP4 KECCAK256 DUP2 MLOAD PUSH2 0x120 DUP2 ADD DUP4 MSTORE DUP2 SLOAD DUP2 MSTORE PUSH1 0x1 DUP3 ADD SLOAD PUSH1 0x1 PUSH1 0x1 PUSH1 0xA0 SHL SUB AND SWAP4 DUP2 ADD SWAP4 SWAP1 SWAP4 MSTORE PUSH1 0x2 DUP2 ADD DUP1 SLOAD SWAP2 SWAP3 DUP5 ADD SWAP2 PUSH2 0xA0D SWAP1 PUSH2 0x1A12 JUMP JUMPDEST DUP1 PUSH1 0x1F ADD PUSH1 0x20 DUP1 SWAP2 DIV MUL PUSH1 0x20 ADD PUSH1 0x40 MLOAD SWAP1 DUP2 ADD PUSH1 0x40 MSTORE DUP1 SWAP3 SWAP2 SWAP1 DUP2 DUP2 MSTORE PUSH1 0x20 ADD DUP3 DUP1 SLOAD PUSH2 0xA39 SWAP1 PUSH2 0x1A12 JUMP JUMPDEST DUP1 ISZERO PUSH2 0xA86 JUMPI DUP1 PUSH1 0x1F LT PUSH2 0xA5B JUMPI PUSH2 0x100 DUP1 DUP4 SLOAD DIV MUL DUP4 MSTORE SWAP2 PUSH1 0x20 ADD SWAP2 PUSH2 0xA86 JUMP JUMPDEST DUP3 ADD SWAP2 SWAP1 PUSH1 0x0 MSTORE PUSH1 0x20 PUSH1 0x0 KECCAK256 SWAP1 JUMPDEST DUP2 SLOAD DUP2 MSTORE SWAP1 PUSH1 0x1 ADD SWAP1 PUSH1 0x20 ADD DUP1 DUP4 GT PUSH2 0xA69 JUMPI DUP3 SWAP1 SUB PUSH1 0x1F AND DUP3 ADD SWAP2 JUMPDEST POP POP POP SWAP2 DUP4 MSTORE POP POP PUSH1 0x3 DUP3 ADD SLOAD PUSH1 0x20 DUP3 ADD MSTORE PUSH1 0x4 DUP3 ADD SLOAD PUSH1 0x40 DUP3 ADD MSTORE PUSH1 0x5 DUP1 DUP4 ADD SLOAD PUSH1 0x60 DUP4 ADD MSTORE PUSH1 0x6 DUP4 ADD SLOAD PUSH1 0x80 SWAP1 SWAP3 ADD SWAP2 PUSH1 0xFF AND SWAP1 DUP2 GT ISZERO PUSH2 0xAD9 JUMPI PUSH4 0x4E487B71 PUSH1 0xE0 SHL PUSH1 0x0 MSTORE PUSH1 0x21 PUSH1 0x4 MSTORE PUSH1 0x24 PUSH1 0x0 REVERT JUMPDEST PUSH1 0x5 DUP2 GT ISZERO PUSH2 0xAF8 JUMPI PUSH4 0x4E487B71 PUSH1 0xE0 SHL PUSH1 0x0 MSTORE PUSH1 0x21 PUSH1 0x4 MSTORE PUSH1 0x24 PUSH1 0x0 REVERT JUMPDEST DUP2 MSTORE PUSH1 0x7 DUP3 ADD SLOAD PUSH1 0x20 DUP1 DUP4 ADD SWAP2 SWAP1 SWAP2 MSTORE PUSH1 0x8 SWAP1 SWAP3 ADD SLOAD PUSH1 0xFF AND ISZERO ISZERO PUSH1 0x40 SWAP1 SWAP2 ADD MSTORE DUP2 ADD MLOAD SWAP1 SWAP2 POP PUSH1 0x1 PUSH1 0x1 PUSH1 0xA0 SHL SUB AND PUSH2 0xB74 JUMPI PUSH1 0x40 MLOAD PUSH3 0x461BCD PUSH1 0xE5 SHL DUP2 MSTORE PUSH1 0x20 PUSH1 0x4 DUP3 ADD DUP2 SWAP1 MSTORE PUSH1 0x24 DUP3 ADD MSTORE PUSH32 0x506F6C69637920486F6C646572204164647265737320697320696E76616C6964 PUSH1 0x44 DUP3 ADD MSTORE PUSH1 0x64 ADD PUSH2 0x389 JUMP JUMPDEST PUSH2 0x100 DUP2 ADD MLOAD ISZERO PUSH2 0xBB9 JUMPI PUSH1 0x40 MLOAD PUSH3 0x461BCD PUSH1 0xE5 SHL DUP2 MSTORE PUSH1 0x20 PUSH1 0x4 DUP3 ADD MSTORE PUSH1 0xF PUSH1 0x24 DUP3 ADD MSTORE PUSH15 0x105B1C9958591E4818DB185A5B5959 PUSH1 0x8A SHL PUSH1 0x44 DUP3 ADD MSTORE PUSH1 0x64 ADD PUSH2 0x389 JUMP JUMPDEST PUSH1 0x0 PUSH2 0xBD5 PUSH2 0xBC7 DUP5 PUSH2 0xD57 JUMP JUMPDEST ADDRESS PUSH4 0x75E46D3 PUSH1 0xE1 SHL PUSH2 0xD74 JUMP JUMPDEST SWAP1 POP PUSH2 0xC0D PUSH1 0x40 MLOAD DUP1 PUSH1 0x40 ADD PUSH1 0x40 MSTORE DUP1 PUSH1 0x5 DUP2 MSTORE PUSH1 0x20 ADD PUSH5 0x1D5B9D1A5B PUSH1 0xDA SHL DUP2 MSTORE POP DUP4 PUSH1 0x80 ADD MLOAD DUP4 PUSH2 0xD99 SWAP1 SWAP3 SWAP2 SWAP1 PUSH4 0xFFFFFFFF AND JUMP JUMPDEST PUSH1 0x0 PUSH2 0xC21 DUP6 DUP4 PUSH7 0x2386F26FC10000 PUSH2 0xDBC JUMP JUMPDEST PUSH1 0x0 DUP2 DUP2 MSTORE PUSH1 0xB PUSH1 0x20 SWAP1 DUP2 MSTORE PUSH1 0x40 SWAP2 DUP3 SWAP1 KECCAK256 DUP7 MLOAD DUP2 SSTORE DUP7 DUP3 ADD MLOAD PUSH1 0x1 DUP3 ADD DUP1 SLOAD PUSH1 0x1 PUSH1 0x1 PUSH1 0xA0 SHL SUB NOT AND PUSH1 0x1 PUSH1 0x1 PUSH1 0xA0 SHL SUB SWAP1 SWAP3 AND SWAP2 SWAP1 SWAP2 OR SWAP1 SSTORE SWAP2 DUP7 ADD MLOAD DUP1 MLOAD SWAP4 SWAP5 POP DUP7 SWAP4 PUSH2 0xC77 SWAP3 PUSH1 0x2 DUP6 ADD SWAP3 ADD SWAP1 PUSH2 0x13F8 JUMP JUMPDEST POP PUSH1 0x60 DUP3 ADD MLOAD DUP2 PUSH1 0x3 ADD SSTORE PUSH1 0x80 DUP3 ADD MLOAD DUP2 PUSH1 0x4 ADD SSTORE PUSH1 0xA0 DUP3 ADD MLOAD DUP2 PUSH1 0x5 ADD SSTORE PUSH1 0xC0 DUP3 ADD MLOAD DUP2 PUSH1 0x6 ADD PUSH1 0x0 PUSH2 0x100 EXP DUP2 SLOAD DUP2 PUSH1 0xFF MUL NOT AND SWAP1 DUP4 PUSH1 0x5 DUP2 GT ISZERO PUSH2 0xCCE JUMPI PUSH4 0x4E487B71 PUSH1 0xE0 SHL PUSH1 0x0 MSTORE PUSH1 0x21 PUSH1 0x4 MSTORE PUSH1 0x24 PUSH1 0x0 REVERT JUMPDEST MUL OR SWAP1 SSTORE POP PUSH1 0xE0 DUP3 ADD MLOAD PUSH1 0x7 DUP3 ADD SSTORE PUSH2 0x100 SWAP1 SWAP2 ADD MLOAD PUSH1 0x8 SWAP1 SWAP2 ADD DUP1 SLOAD PUSH1 0xFF NOT AND SWAP2 ISZERO ISZERO SWAP2 SWAP1 SWAP2 OR SWAP1 SSTORE PUSH1 0x0 SWAP6 DUP7 MSTORE PUSH1 0xC PUSH1 0x20 SWAP1 DUP2 MSTORE PUSH1 0x40 DUP1 DUP9 KECCAK256 CALLER DUP10 MSTORE SWAP1 SWAP2 MSTORE SWAP1 SWAP6 KECCAK256 SWAP5 SWAP1 SWAP5 SSTORE POP POP POP POP JUMP JUMPDEST PUSH1 0xB PUSH1 0x20 MSTORE PUSH1 0x0 SWAP1 DUP2 MSTORE PUSH1 0x40 SWAP1 KECCAK256 DUP1 SLOAD PUSH1 0x1 DUP3 ADD SLOAD PUSH1 0x2 DUP4 ADD DUP1 SLOAD SWAP3 SWAP4 PUSH1 0x1 PUSH1 0x1 PUSH1 0xA0 SHL SUB SWAP1 SWAP3 AND SWAP3 PUSH2 0x90E SWAP1 PUSH2 0x1A12 JUMP JUMPDEST DUP1 SLOAD PUSH1 0x1 ADD SWAP1 SSTORE JUMP JUMPDEST DUP1 MLOAD PUSH1 0x0 SWAP1 DUP3 SWAP1 PUSH2 0xD6B JUMPI POP PUSH1 0x0 SWAP3 SWAP2 POP POP JUMP JUMPDEST POP POP PUSH1 0x20 ADD MLOAD SWAP1 JUMP JUMPDEST PUSH2 0xD7C PUSH2 0x147C JUMP JUMPDEST PUSH2 0xD84 PUSH2 0x147C JUMP JUMPDEST PUSH2 0xD90 DUP2 DUP7 DUP7 DUP7 PUSH2 0xDDB JUMP JUMPDEST SWAP6 SWAP5 POP POP POP POP POP JUMP JUMPDEST PUSH1 0x80 DUP4 ADD MLOAD PUSH2 0xDA8 SWAP1 DUP4 PUSH2 0xE18 JUMP JUMPDEST PUSH1 0x80 DUP4 ADD MLOAD PUSH2 0xDB7 SWAP1 DUP3 PUSH2 0xE2F JUMP JUMPDEST POP POP POP JUMP JUMPDEST PUSH1 0x0 PUSH2 0xDD3 DUP5 DUP5 DUP5 PUSH1 0x1 PUSH4 0x20214CA3 PUSH1 0xE1 SHL PUSH2 0xE3F JUMP JUMPDEST SWAP5 SWAP4 POP POP POP POP JUMP JUMPDEST PUSH2 0xDE3 PUSH2 0x147C JUMP JUMPDEST PUSH2 0xDF3 DUP6 PUSH1 0x80 ADD MLOAD PUSH2 0x100 PUSH2 0x104B JUMP JUMPDEST POP POP SWAP2 DUP4 MSTORE PUSH1 0x1 PUSH1 0x1 PUSH1 0xA0 SHL SUB AND PUSH1 0x20 DUP4 ADD MSTORE PUSH1 0x1 PUSH1 0x1 PUSH1 0xE0 SHL SUB NOT AND PUSH1 0x40 DUP3 ADD MSTORE SWAP1 JUMP JUMPDEST PUSH2 0xE25 DUP3 PUSH1 0x3 DUP4 MLOAD PUSH2 0x10B6 JUMP JUMPDEST PUSH2 0xDB7 DUP3 DUP3 PUSH2 0x118A JUMP JUMPDEST PUSH2 0xE3B DUP3 PUSH1 0x0 DUP4 PUSH2 0x10B6 JUMP JUMPDEST POP POP JUMP JUMPDEST PUSH1 0x4 SLOAD PUSH1 0x40 MLOAD PUSH12 0xFFFFFFFFFFFFFFFFFFFFFFFF NOT ADDRESS PUSH1 0x60 SHL AND PUSH1 0x20 DUP3 ADD MSTORE PUSH1 0x34 DUP2 ADD SWAP2 SWAP1 SWAP2 MSTORE PUSH1 0x0 SWAP1 PUSH1 0x54 ADD PUSH1 0x40 DUP1 MLOAD DUP1 DUP4 SUB PUSH1 0x1F NOT ADD DUP2 MSTORE SWAP2 DUP2 MSTORE DUP2 MLOAD PUSH1 0x20 SWAP3 DUP4 ADD KECCAK256 PUSH1 0x4 SLOAD PUSH1 0x60 DUP10 ADD MSTORE PUSH1 0x0 DUP2 DUP2 MSTORE PUSH1 0x5 SWAP1 SWAP4 MSTORE DUP2 DUP4 KECCAK256 DUP1 SLOAD PUSH1 0x1 PUSH1 0x1 PUSH1 0xA0 SHL SUB NOT AND PUSH1 0x1 PUSH1 0x1 PUSH1 0xA0 SHL SUB DUP12 AND OR SWAP1 SSTORE SWAP1 MLOAD SWAP1 SWAP3 POP DUP3 SWAP2 PUSH32 0xA6745906207AFB96A5801B8E5711FD7B74C5780CE893A973806E179D675BBE24 SWAP2 LOG2 PUSH1 0x0 DUP3 PUSH1 0x0 DUP1 DUP9 PUSH1 0x0 ADD MLOAD DUP10 PUSH1 0x20 ADD MLOAD DUP11 PUSH1 0x40 ADD MLOAD DUP12 PUSH1 0x60 ADD MLOAD DUP11 DUP14 PUSH1 0x80 ADD MLOAD PUSH1 0x0 ADD MLOAD PUSH1 0x40 MLOAD PUSH1 0x24 ADD PUSH2 0xF16 SWAP9 SWAP8 SWAP7 SWAP6 SWAP5 SWAP4 SWAP3 SWAP2 SWAP1 PUSH2 0x1772 JUMP JUMPDEST PUSH1 0x40 DUP1 MLOAD PUSH1 0x1F NOT DUP2 DUP5 SUB ADD DUP2 MSTORE SWAP2 DUP2 MSTORE PUSH1 0x20 DUP3 ADD DUP1 MLOAD PUSH1 0x1 PUSH1 0x1 PUSH1 0xE0 SHL SUB AND PUSH1 0x1 PUSH1 0x1 PUSH1 0xE0 SHL SUB NOT SWAP1 SWAP5 AND SWAP4 SWAP1 SWAP4 OR SWAP1 SWAP3 MSTORE PUSH1 0x2 SLOAD SWAP2 MLOAD PUSH4 0x2000575 PUSH1 0xE5 SHL DUP2 MSTORE SWAP1 SWAP3 POP PUSH1 0x1 PUSH1 0x1 PUSH1 0xA0 SHL SUB SWAP1 SWAP2 AND SWAP1 PUSH4 0x4000AEA0 SWAP1 PUSH2 0xF7E SWAP1 DUP11 SWAP1 DUP10 SWAP1 DUP7 SWAP1 PUSH1 0x4 ADD PUSH2 0x17DA JUMP JUMPDEST PUSH1 0x20 PUSH1 0x40 MLOAD DUP1 DUP4 SUB DUP2 PUSH1 0x0 DUP8 DUP1 EXTCODESIZE ISZERO DUP1 ISZERO PUSH2 0xF98 JUMPI PUSH1 0x0 DUP1 REVERT JUMPDEST POP GAS CALL ISZERO DUP1 ISZERO PUSH2 0xFAC JUMPI RETURNDATASIZE PUSH1 0x0 DUP1 RETURNDATACOPY RETURNDATASIZE PUSH1 0x0 REVERT JUMPDEST POP POP POP POP PUSH1 0x40 MLOAD RETURNDATASIZE PUSH1 0x1F NOT PUSH1 0x1F DUP3 ADD AND DUP3 ADD DUP1 PUSH1 0x40 MSTORE POP DUP2 ADD SWAP1 PUSH2 0xFD0 SWAP2 SWAP1 PUSH2 0x1647 JUMP JUMPDEST PUSH2 0x1028 JUMPI PUSH1 0x40 MLOAD PUSH3 0x461BCD PUSH1 0xE5 SHL DUP2 MSTORE PUSH1 0x20 PUSH1 0x4 DUP3 ADD MSTORE PUSH1 0x23 PUSH1 0x24 DUP3 ADD MSTORE PUSH32 0x756E61626C6520746F207472616E73666572416E6443616C6C20746F206F7261 PUSH1 0x44 DUP3 ADD MSTORE PUSH3 0x636C65 PUSH1 0xE8 SHL PUSH1 0x64 DUP3 ADD MSTORE PUSH1 0x84 ADD PUSH2 0x389 JUMP JUMPDEST PUSH1 0x1 PUSH1 0x4 PUSH1 0x0 DUP3 DUP3 SLOAD PUSH2 0x103B SWAP2 SWAP1 PUSH2 0x18D9 JUMP JUMPDEST SWAP1 SWAP2 SSTORE POP SWAP2 SWAP8 SWAP7 POP POP POP POP POP POP POP JUMP JUMPDEST PUSH1 0x40 DUP1 MLOAD DUP1 DUP3 ADD SWAP1 SWAP2 MSTORE PUSH1 0x60 DUP2 MSTORE PUSH1 0x0 PUSH1 0x20 DUP3 ADD MSTORE PUSH2 0x106B PUSH1 0x20 DUP4 PUSH2 0x1A47 JUMP JUMPDEST ISZERO PUSH2 0x1093 JUMPI PUSH2 0x107B PUSH1 0x20 DUP4 PUSH2 0x1A47 JUMP JUMPDEST PUSH2 0x1086 SWAP1 PUSH1 0x20 PUSH2 0x19FB JUMP JUMPDEST PUSH2 0x1090 SWAP1 DUP4 PUSH2 0x18D9 JUMP JUMPDEST SWAP2 POP JUMPDEST POP PUSH1 0x20 DUP1 DUP4 ADD DUP3 SWAP1 MSTORE PUSH1 0x40 DUP1 MLOAD DUP1 DUP6 MSTORE PUSH1 0x0 DUP2 MSTORE DUP4 ADD SWAP1 SWAP2 ADD SWAP1 MSTORE DUP2 JUMPDEST SWAP3 SWAP2 POP POP JUMP JUMPDEST PUSH1 0x17 DUP2 GT PUSH2 0x10D7 JUMPI PUSH2 0x10D1 DUP4 PUSH1 0xE0 PUSH1 0x5 DUP6 SWAP1 SHL AND DUP4 OR PUSH2 0x11B8 JUMP JUMPDEST POP POP POP POP JUMP JUMPDEST PUSH1 0xFF DUP2 GT PUSH2 0x1101 JUMPI PUSH2 0x10F4 DUP4 PUSH1 0x18 PUSH2 0x1FE0 PUSH1 0x5 DUP7 SWAP1 SHL AND OR PUSH2 0x11B8 JUMP JUMPDEST POP PUSH2 0x10D1 DUP4 DUP3 PUSH1 0x1 PUSH2 0x11DD JUMP JUMPDEST PUSH2 0xFFFF DUP2 GT PUSH2 0x112C JUMPI PUSH2 0x111F DUP4 PUSH1 0x19 PUSH2 0x1FE0 PUSH1 0x5 DUP7 SWAP1 SHL AND OR PUSH2 0x11B8 JUMP JUMPDEST POP PUSH2 0x10D1 DUP4 DUP3 PUSH1 0x2 PUSH2 0x11DD JUMP JUMPDEST PUSH4 0xFFFFFFFF DUP2 GT PUSH2 0x1159 JUMPI PUSH2 0x114C DUP4 PUSH1 0x1A PUSH2 0x1FE0 PUSH1 0x5 DUP7 SWAP1 SHL AND OR PUSH2 0x11B8 JUMP JUMPDEST POP PUSH2 0x10D1 DUP4 DUP3 PUSH1 0x4 PUSH2 0x11DD JUMP JUMPDEST PUSH8 0xFFFFFFFFFFFFFFFF DUP2 GT PUSH2 0xDB7 JUMPI PUSH2 0x117D DUP4 PUSH1 0x1B PUSH2 0x1FE0 PUSH1 0x5 DUP7 SWAP1 SHL AND OR PUSH2 0x11B8 JUMP JUMPDEST POP PUSH2 0x10D1 DUP4 DUP3 PUSH1 0x8 PUSH2 0x11DD JUMP JUMPDEST PUSH1 0x40 DUP1 MLOAD DUP1 DUP3 ADD SWAP1 SWAP2 MSTORE PUSH1 0x60 DUP2 MSTORE PUSH1 0x0 PUSH1 0x20 DUP3 ADD MSTORE PUSH2 0x11B1 DUP4 DUP5 PUSH1 0x0 ADD MLOAD MLOAD DUP5 DUP6 MLOAD PUSH2 0x1203 JUMP JUMPDEST SWAP4 SWAP3 POP POP POP JUMP JUMPDEST PUSH1 0x40 DUP1 MLOAD DUP1 DUP3 ADD SWAP1 SWAP2 MSTORE PUSH1 0x60 DUP2 MSTORE PUSH1 0x0 PUSH1 0x20 DUP3 ADD MSTORE PUSH2 0x11B1 DUP4 DUP5 PUSH1 0x0 ADD MLOAD MLOAD DUP5 PUSH2 0x12ED JUMP JUMPDEST PUSH1 0x40 DUP1 MLOAD DUP1 DUP3 ADD SWAP1 SWAP2 MSTORE PUSH1 0x60 DUP2 MSTORE PUSH1 0x0 PUSH1 0x20 DUP3 ADD MSTORE PUSH2 0xDD3 DUP5 DUP6 PUSH1 0x0 ADD MLOAD MLOAD DUP6 DUP6 PUSH2 0x1349 JUMP JUMPDEST PUSH1 0x40 DUP1 MLOAD DUP1 DUP3 ADD SWAP1 SWAP2 MSTORE PUSH1 0x60 DUP2 MSTORE PUSH1 0x0 PUSH1 0x20 DUP3 ADD MSTORE DUP3 MLOAD DUP3 GT ISZERO PUSH2 0x1226 JUMPI PUSH1 0x0 DUP1 REVERT JUMPDEST PUSH1 0x20 DUP6 ADD MLOAD PUSH2 0x1235 DUP4 DUP7 PUSH2 0x18D9 JUMP JUMPDEST GT ISZERO PUSH2 0x1268 JUMPI PUSH2 0x1268 DUP6 PUSH2 0x1258 DUP8 PUSH1 0x20 ADD MLOAD DUP8 DUP7 PUSH2 0x1253 SWAP2 SWAP1 PUSH2 0x18D9 JUMP JUMPDEST PUSH2 0x13CA JUMP JUMPDEST PUSH2 0x1263 SWAP1 PUSH1 0x2 PUSH2 0x19DC JUMP JUMPDEST PUSH2 0x13E1 JUMP JUMPDEST PUSH1 0x0 DUP1 DUP7 MLOAD DUP1 MLOAD DUP8 PUSH1 0x20 DUP4 ADD ADD SWAP4 POP DUP1 DUP9 DUP8 ADD GT ISZERO PUSH2 0x1287 JUMPI DUP8 DUP7 ADD DUP3 MSTORE JUMPDEST POP POP POP PUSH1 0x20 DUP5 ADD JUMPDEST PUSH1 0x20 DUP5 LT PUSH2 0x12C7 JUMPI DUP1 MLOAD DUP3 MSTORE PUSH2 0x12A6 PUSH1 0x20 DUP4 PUSH2 0x18D9 JUMP JUMPDEST SWAP2 POP PUSH2 0x12B3 PUSH1 0x20 DUP3 PUSH2 0x18D9 JUMP JUMPDEST SWAP1 POP PUSH2 0x12C0 PUSH1 0x20 DUP6 PUSH2 0x19FB JUMP JUMPDEST SWAP4 POP PUSH2 0x128F JUMP JUMPDEST MLOAD DUP2 MLOAD PUSH1 0x0 NOT PUSH1 0x20 DUP7 SWAP1 SUB PUSH2 0x100 EXP ADD SWAP1 DUP2 AND SWAP1 NOT SWAP2 SWAP1 SWAP2 AND OR SWAP1 MSTORE POP DUP4 SWAP5 SWAP4 POP POP POP POP JUMP JUMPDEST PUSH1 0x40 DUP1 MLOAD DUP1 DUP3 ADD SWAP1 SWAP2 MSTORE PUSH1 0x60 DUP2 MSTORE PUSH1 0x0 PUSH1 0x20 DUP3 ADD MSTORE DUP4 PUSH1 0x20 ADD MLOAD DUP4 LT PUSH2 0x1322 JUMPI PUSH2 0x1322 DUP5 DUP6 PUSH1 0x20 ADD MLOAD PUSH1 0x2 PUSH2 0x1263 SWAP2 SWAP1 PUSH2 0x19DC JUMP JUMPDEST DUP4 MLOAD DUP1 MLOAD PUSH1 0x20 DUP6 DUP4 ADD ADD DUP5 DUP2 MSTORE8 POP DUP1 DUP6 EQ ISZERO PUSH2 0x133F JUMPI PUSH1 0x1 DUP2 ADD DUP3 MSTORE JUMPDEST POP SWAP4 SWAP5 SWAP4 POP POP POP POP JUMP JUMPDEST PUSH1 0x40 DUP1 MLOAD DUP1 DUP3 ADD SWAP1 SWAP2 MSTORE PUSH1 0x60 DUP2 MSTORE PUSH1 0x0 PUSH1 0x20 DUP3 ADD MSTORE PUSH1 0x20 DUP6 ADD MLOAD PUSH2 0x136D DUP6 DUP5 PUSH2 0x18D9 JUMP JUMPDEST GT ISZERO PUSH2 0x1381 JUMPI PUSH2 0x1381 DUP6 PUSH2 0x1258 DUP7 DUP6 PUSH2 0x18D9 JUMP JUMPDEST PUSH1 0x0 PUSH1 0x1 PUSH2 0x1391 DUP5 PUSH2 0x100 PUSH2 0x1934 JUMP JUMPDEST PUSH2 0x139B SWAP2 SWAP1 PUSH2 0x19FB JUMP JUMPDEST SWAP1 POP DUP6 MLOAD DUP4 DUP7 DUP3 ADD ADD DUP6 DUP4 NOT DUP3 MLOAD AND OR DUP2 MSTORE POP DUP1 MLOAD DUP5 DUP8 ADD GT ISZERO PUSH2 0x13BF JUMPI DUP4 DUP7 ADD DUP2 MSTORE JUMPDEST POP SWAP5 SWAP6 SWAP5 POP POP POP POP POP JUMP JUMPDEST PUSH1 0x0 DUP2 DUP4 GT ISZERO PUSH2 0x13DB JUMPI POP DUP2 PUSH2 0x10B0 JUMP JUMPDEST POP SWAP2 SWAP1 POP JUMP JUMPDEST DUP2 MLOAD PUSH2 0x13ED DUP4 DUP4 PUSH2 0x104B JUMP JUMPDEST POP PUSH2 0x10D1 DUP4 DUP3 PUSH2 0x118A JUMP JUMPDEST DUP3 DUP1 SLOAD PUSH2 0x1404 SWAP1 PUSH2 0x1A12 JUMP JUMPDEST SWAP1 PUSH1 0x0 MSTORE PUSH1 0x20 PUSH1 0x0 KECCAK256 SWAP1 PUSH1 0x1F ADD PUSH1 0x20 SWAP1 DIV DUP2 ADD SWAP3 DUP3 PUSH2 0x1426 JUMPI PUSH1 0x0 DUP6 SSTORE PUSH2 0x146C JUMP JUMPDEST DUP3 PUSH1 0x1F LT PUSH2 0x143F JUMPI DUP1 MLOAD PUSH1 0xFF NOT AND DUP4 DUP1 ADD OR DUP6 SSTORE PUSH2 0x146C JUMP JUMPDEST DUP3 DUP1 ADD PUSH1 0x1 ADD DUP6 SSTORE DUP3 ISZERO PUSH2 0x146C JUMPI SWAP2 DUP3 ADD JUMPDEST DUP3 DUP2 GT ISZERO PUSH2 0x146C JUMPI DUP3 MLOAD DUP3 SSTORE SWAP2 PUSH1 0x20 ADD SWAP2 SWAP1 PUSH1 0x1 ADD SWAP1 PUSH2 0x1451 JUMP JUMPDEST POP PUSH2 0x1478 SWAP3 SWAP2 POP PUSH2 0x14B7 JUMP JUMPDEST POP SWAP1 JUMP JUMPDEST PUSH1 0x40 DUP1 MLOAD PUSH1 0xA0 DUP2 ADD DUP3 MSTORE PUSH1 0x0 DUP1 DUP3 MSTORE PUSH1 0x20 DUP1 DUP4 ADD DUP3 SWAP1 MSTORE DUP3 DUP5 ADD DUP3 SWAP1 MSTORE PUSH1 0x60 DUP1 DUP5 ADD DUP4 SWAP1 MSTORE DUP5 MLOAD DUP1 DUP7 ADD SWAP1 SWAP6 MSTORE DUP5 MSTORE DUP4 ADD MSTORE SWAP1 PUSH1 0x80 DUP3 ADD MSTORE SWAP1 JUMP JUMPDEST JUMPDEST DUP1 DUP3 GT ISZERO PUSH2 0x1478 JUMPI PUSH1 0x0 DUP2 SSTORE PUSH1 0x1 ADD PUSH2 0x14B8 JUMP JUMPDEST DUP1 CALLDATALOAD PUSH1 0x1 PUSH1 0x1 PUSH1 0xA0 SHL SUB DUP2 AND DUP2 EQ PUSH2 0x14E3 JUMPI PUSH1 0x0 DUP1 REVERT JUMPDEST SWAP2 SWAP1 POP JUMP JUMPDEST PUSH1 0x0 DUP3 PUSH1 0x1F DUP4 ADD SLT PUSH2 0x14F8 JUMPI DUP1 DUP2 REVERT JUMPDEST DUP2 CALLDATALOAD PUSH8 0xFFFFFFFFFFFFFFFF DUP1 DUP3 GT ISZERO PUSH2 0x1513 JUMPI PUSH2 0x1513 PUSH2 0x1A7D JUMP JUMPDEST PUSH1 0x40 MLOAD PUSH1 0x1F DUP4 ADD PUSH1 0x1F NOT SWAP1 DUP2 AND PUSH1 0x3F ADD AND DUP2 ADD SWAP1 DUP3 DUP3 GT DUP2 DUP4 LT OR ISZERO PUSH2 0x153B JUMPI PUSH2 0x153B PUSH2 0x1A7D JUMP JUMPDEST DUP2 PUSH1 0x40 MSTORE DUP4 DUP2 MSTORE DUP7 PUSH1 0x20 DUP6 DUP9 ADD ADD GT ISZERO PUSH2 0x1553 JUMPI DUP5 DUP6 REVERT JUMPDEST DUP4 PUSH1 0x20 DUP8 ADD PUSH1 0x20 DUP4 ADD CALLDATACOPY SWAP3 DUP4 ADD PUSH1 0x20 ADD SWAP4 SWAP1 SWAP4 MSTORE POP SWAP4 SWAP3 POP POP POP JUMP JUMPDEST PUSH1 0x0 DUP1 PUSH1 0x0 PUSH1 0x60 DUP5 DUP7 SUB SLT ISZERO PUSH2 0x1583 JUMPI DUP3 DUP4 REVERT JUMPDEST PUSH2 0x158C DUP5 PUSH2 0x14CC JUMP JUMPDEST SWAP3 POP PUSH1 0x20 DUP5 ADD CALLDATALOAD PUSH8 0xFFFFFFFFFFFFFFFF DUP1 DUP3 GT ISZERO PUSH2 0x15A8 JUMPI DUP4 DUP5 REVERT JUMPDEST PUSH2 0x15B4 DUP8 DUP4 DUP9 ADD PUSH2 0x14E8 JUMP JUMPDEST SWAP4 POP PUSH1 0x40 DUP7 ADD CALLDATALOAD SWAP2 POP DUP1 DUP3 GT ISZERO PUSH2 0x15C9 JUMPI DUP3 DUP4 REVERT JUMPDEST POP PUSH2 0x15D6 DUP7 DUP3 DUP8 ADD PUSH2 0x14E8 JUMP JUMPDEST SWAP2 POP POP SWAP3 POP SWAP3 POP SWAP3 JUMP JUMPDEST PUSH1 0x0 DUP1 PUSH1 0x0 DUP1 PUSH1 0x0 PUSH1 0xA0 DUP7 DUP9 SUB SLT ISZERO PUSH2 0x15F7 JUMPI DUP1 DUP2 REVERT JUMPDEST PUSH2 0x1600 DUP7 PUSH2 0x14CC JUMP JUMPDEST SWAP5 POP PUSH1 0x20 DUP7 ADD CALLDATALOAD PUSH8 0xFFFFFFFFFFFFFFFF DUP2 GT ISZERO PUSH2 0x161B JUMPI DUP2 DUP3 REVERT JUMPDEST PUSH2 0x1627 DUP9 DUP3 DUP10 ADD PUSH2 0x14E8 JUMP JUMPDEST SWAP6 SWAP9 SWAP6 SWAP8 POP POP POP POP PUSH1 0x40 DUP5 ADD CALLDATALOAD SWAP4 PUSH1 0x60 DUP2 ADD CALLDATALOAD SWAP4 PUSH1 0x80 SWAP1 SWAP2 ADD CALLDATALOAD SWAP3 POP SWAP1 POP JUMP JUMPDEST PUSH1 0x0 PUSH1 0x20 DUP3 DUP5 SUB SLT ISZERO PUSH2 0x1658 JUMPI DUP1 DUP2 REVERT JUMPDEST DUP2 MLOAD DUP1 ISZERO ISZERO DUP2 EQ PUSH2 0x11B1 JUMPI DUP2 DUP3 REVERT JUMPDEST PUSH1 0x0 PUSH1 0x20 DUP3 DUP5 SUB SLT ISZERO PUSH2 0x1678 JUMPI DUP1 DUP2 REVERT JUMPDEST POP CALLDATALOAD SWAP2 SWAP1 POP JUMP JUMPDEST PUSH1 0x0 DUP1 PUSH1 0x40 DUP4 DUP6 SUB SLT ISZERO PUSH2 0x1691 JUMPI DUP2 DUP3 REVERT JUMPDEST DUP3 CALLDATALOAD SWAP2 POP PUSH1 0x20 DUP4 ADD CALLDATALOAD PUSH1 0x6 DUP2 LT PUSH2 0x16A6 JUMPI DUP2 DUP3 REVERT JUMPDEST DUP1 SWAP2 POP POP SWAP3 POP SWAP3 SWAP1 POP JUMP JUMPDEST PUSH1 0x0 DUP1 PUSH1 0x40 DUP4 DUP6 SUB SLT ISZERO PUSH2 0x16C3 JUMPI DUP2 DUP3 REVERT JUMPDEST DUP3 CALLDATALOAD SWAP2 POP PUSH2 0x16D3 PUSH1 0x20 DUP5 ADD PUSH2 0x14CC JUMP JUMPDEST SWAP1 POP SWAP3 POP SWAP3 SWAP1 POP JUMP JUMPDEST PUSH1 0x0 DUP1 PUSH1 0x0 PUSH1 0x60 DUP5 DUP7 SUB SLT ISZERO PUSH2 0x16F0 JUMPI DUP3 DUP4 REVERT JUMPDEST DUP4 CALLDATALOAD SWAP3 POP PUSH2 0x1700 PUSH1 0x20 DUP6 ADD PUSH2 0x14CC JUMP JUMPDEST SWAP2 POP PUSH1 0x40 DUP5 ADD CALLDATALOAD PUSH8 0xFFFFFFFFFFFFFFFF DUP2 GT ISZERO PUSH2 0x171B JUMPI DUP2 DUP3 REVERT JUMPDEST PUSH2 0x15D6 DUP7 DUP3 DUP8 ADD PUSH2 0x14E8 JUMP JUMPDEST PUSH1 0x0 DUP2 MLOAD DUP1 DUP5 MSTORE DUP2 JUMPDEST DUP2 DUP2 LT ISZERO PUSH2 0x174C JUMPI PUSH1 0x20 DUP2 DUP6 ADD DUP2 ADD MLOAD DUP7 DUP4 ADD DUP3 ADD MSTORE ADD PUSH2 0x1730 JUMP JUMPDEST DUP2 DUP2 GT ISZERO PUSH2 0x175D JUMPI DUP3 PUSH1 0x20 DUP4 DUP8 ADD ADD MSTORE JUMPDEST POP PUSH1 0x1F ADD PUSH1 0x1F NOT AND SWAP3 SWAP1 SWAP3 ADD PUSH1 0x20 ADD SWAP3 SWAP2 POP POP JUMP JUMPDEST PUSH1 0x1 PUSH1 0x1 PUSH1 0xA0 SHL SUB DUP10 DUP2 AND DUP3 MSTORE PUSH1 0x20 DUP3 ADD DUP10 SWAP1 MSTORE PUSH1 0x40 DUP3 ADD DUP9 SWAP1 MSTORE DUP7 AND PUSH1 0x60 DUP3 ADD MSTORE PUSH1 0x1 PUSH1 0x1 PUSH1 0xE0 SHL SUB NOT DUP6 AND PUSH1 0x80 DUP3 ADD MSTORE PUSH1 0xA0 DUP2 ADD DUP5 SWAP1 MSTORE PUSH1 0xC0 DUP2 ADD DUP4 SWAP1 MSTORE PUSH2 0x100 PUSH1 0xE0 DUP3 ADD DUP2 SWAP1 MSTORE PUSH1 0x0 SWAP1 PUSH2 0x17CB DUP4 DUP3 ADD DUP6 PUSH2 0x1727 JUMP JUMPDEST SWAP12 SWAP11 POP POP POP POP POP POP POP POP POP POP POP JUMP JUMPDEST PUSH1 0x1 DUP1 PUSH1 0xA0 SHL SUB DUP5 AND DUP2 MSTORE DUP3 PUSH1 0x20 DUP3 ADD MSTORE PUSH1 0x60 PUSH1 0x40 DUP3 ADD MSTORE PUSH1 0x0 PUSH2 0xD90 PUSH1 0x60 DUP4 ADD DUP5 PUSH2 0x1727 JUMP JUMPDEST DUP10 DUP2 MSTORE PUSH1 0x1 PUSH1 0x1 PUSH1 0xA0 SHL SUB DUP10 AND PUSH1 0x20 DUP3 ADD MSTORE PUSH2 0x120 PUSH1 0x40 DUP3 ADD DUP2 SWAP1 MSTORE PUSH1 0x0 SWAP1 PUSH2 0x182C DUP4 DUP3 ADD DUP12 PUSH2 0x1727 JUMP JUMPDEST SWAP2 POP POP DUP8 PUSH1 0x60 DUP4 ADD MSTORE DUP7 PUSH1 0x80 DUP4 ADD MSTORE DUP6 PUSH1 0xA0 DUP4 ADD MSTORE PUSH1 0x6 DUP6 LT PUSH2 0x185F JUMPI PUSH4 0x4E487B71 PUSH1 0xE0 SHL PUSH1 0x0 MSTORE PUSH1 0x21 PUSH1 0x4 MSTORE PUSH1 0x24 PUSH1 0x0 REVERT JUMPDEST DUP5 PUSH1 0xC0 DUP4 ADD MSTORE DUP4 PUSH1 0xE0 DUP4 ADD MSTORE DUP3 ISZERO ISZERO PUSH2 0x100 DUP4 ADD MSTORE SWAP11 SWAP10 POP POP POP POP POP POP POP POP POP POP JUMP JUMPDEST DUP7 DUP2 MSTORE PUSH1 0xC0 PUSH1 0x20 DUP3 ADD MSTORE PUSH1 0x0 PUSH2 0x189B PUSH1 0xC0 DUP4 ADD DUP9 PUSH2 0x1727 JUMP JUMPDEST DUP3 DUP2 SUB PUSH1 0x40 DUP5 ADD MSTORE PUSH2 0x18AD DUP2 DUP9 PUSH2 0x1727 JUMP JUMPDEST PUSH1 0x1 PUSH1 0x1 PUSH1 0xA0 SHL SUB SWAP7 DUP8 AND PUSH1 0x60 DUP6 ADD MSTORE PUSH1 0x80 DUP5 ADD SWAP6 SWAP1 SWAP6 MSTORE POP POP SWAP3 AND PUSH1 0xA0 SWAP1 SWAP3 ADD SWAP2 SWAP1 SWAP2 MSTORE SWAP4 SWAP3 POP POP POP JUMP JUMPDEST PUSH1 0x0 DUP3 NOT DUP3 GT ISZERO PUSH2 0x18EC JUMPI PUSH2 0x18EC PUSH2 0x1A67 JUMP JUMPDEST POP ADD SWAP1 JUMP JUMPDEST PUSH1 0x1 DUP2 DUP2 JUMPDEST DUP1 DUP6 GT ISZERO PUSH2 0x192C JUMPI DUP2 PUSH1 0x0 NOT DIV DUP3 GT ISZERO PUSH2 0x1912 JUMPI PUSH2 0x1912 PUSH2 0x1A67 JUMP JUMPDEST DUP1 DUP6 AND ISZERO PUSH2 0x191F JUMPI SWAP2 DUP2 MUL SWAP2 JUMPDEST SWAP4 DUP5 SHR SWAP4 SWAP1 DUP1 MUL SWAP1 PUSH2 0x18F6 JUMP JUMPDEST POP SWAP3 POP SWAP3 SWAP1 POP JUMP JUMPDEST PUSH1 0x0 PUSH2 0x11B1 DUP4 DUP4 PUSH1 0x0 DUP3 PUSH2 0x194A JUMPI POP PUSH1 0x1 PUSH2 0x10B0 JUMP JUMPDEST DUP2 PUSH2 0x1957 JUMPI POP PUSH1 0x0 PUSH2 0x10B0 JUMP JUMPDEST DUP2 PUSH1 0x1 DUP2 EQ PUSH2 0x196D JUMPI PUSH1 0x2 DUP2 EQ PUSH2 0x1977 JUMPI PUSH2 0x1993 JUMP JUMPDEST PUSH1 0x1 SWAP2 POP POP PUSH2 0x10B0 JUMP JUMPDEST PUSH1 0xFF DUP5 GT ISZERO PUSH2 0x1988 JUMPI PUSH2 0x1988 PUSH2 0x1A67 JUMP JUMPDEST POP POP PUSH1 0x1 DUP3 SHL PUSH2 0x10B0 JUMP JUMPDEST POP PUSH1 0x20 DUP4 LT PUSH2 0x133 DUP4 LT AND PUSH1 0x4E DUP5 LT PUSH1 0xB DUP5 LT AND OR ISZERO PUSH2 0x19B6 JUMPI POP DUP2 DUP2 EXP PUSH2 0x10B0 JUMP JUMPDEST PUSH2 0x19C0 DUP4 DUP4 PUSH2 0x18F1 JUMP JUMPDEST DUP1 PUSH1 0x0 NOT DIV DUP3 GT ISZERO PUSH2 0x19D4 JUMPI PUSH2 0x19D4 PUSH2 0x1A67 JUMP JUMPDEST MUL SWAP4 SWAP3 POP POP POP JUMP JUMPDEST PUSH1 0x0 DUP2 PUSH1 0x0 NOT DIV DUP4 GT DUP3 ISZERO ISZERO AND ISZERO PUSH2 0x19F6 JUMPI PUSH2 0x19F6 PUSH2 0x1A67 JUMP JUMPDEST POP MUL SWAP1 JUMP JUMPDEST PUSH1 0x0 DUP3 DUP3 LT ISZERO PUSH2 0x1A0D JUMPI PUSH2 0x1A0D PUSH2 0x1A67 JUMP JUMPDEST POP SUB SWAP1 JUMP JUMPDEST PUSH1 0x1 DUP2 DUP2 SHR SWAP1 DUP3 AND DUP1 PUSH2 0x1A26 JUMPI PUSH1 0x7F DUP3 AND SWAP2 POP JUMPDEST PUSH1 0x20 DUP3 LT DUP2 EQ ISZERO PUSH2 0x13DB JUMPI PUSH4 0x4E487B71 PUSH1 0xE0 SHL PUSH1 0x0 MSTORE PUSH1 0x22 PUSH1 0x4 MSTORE PUSH1 0x24 PUSH1 0x0 REVERT JUMPDEST PUSH1 0x0 DUP3 PUSH2 0x1A62 JUMPI PUSH4 0x4E487B71 PUSH1 0xE0 SHL DUP2 MSTORE PUSH1 0x12 PUSH1 0x4 MSTORE PUSH1 0x24 DUP2 REVERT JUMPDEST POP MOD SWAP1 JUMP JUMPDEST PUSH4 0x4E487B71 PUSH1 0xE0 SHL PUSH1 0x0 MSTORE PUSH1 0x11 PUSH1 0x4 MSTORE PUSH1 0x24 PUSH1 0x0 REVERT JUMPDEST PUSH4 0x4E487B71 PUSH1 0xE0 SHL PUSH1 0x0 MSTORE PUSH1 0x41 PUSH1 0x4 MSTORE PUSH1 0x24 PUSH1 0x0 REVERT INVALID LOG2 PUSH5 0x6970667358 0x22 SLT KECCAK256 DUP14 0xA7 PUSH2 0x6E62 SWAP9 OR SWAP1 OR 0xC6 0x1F STOP 0xD9 PUSH30 0xE80CF37B59BCD5E0BF4C875601CE931F917864736F6C6343000804003300 "
		},
		"gasEstimates": {
			"creation": {
				"codeDepositCost": "1371400",
				"executionCost": "infinite",
				"totalCost": "infinite"
			},
			"external": {
				"bookInsurance(address,string,uint256,uint256,uint256)": "infinite",
				"claimRequest(uint256,address)": "1373",
				"claims(bytes32)": "infinite",
				"flights(uint256,address)": "infinite",
				"fulfillClaimInquiry(bytes32,uint8)": "infinite",
				"insurances(uint256,address)": "infinite",
				"owner()": "1081",
				"registerFlights(address,string,string)": "infinite",
				"submitMyClaim(uint256,address,string)": "infinite"
			},
			"internal": {
				"stringToBytes32(string memory)": "infinite"
			}
		},
		"methodIdentifiers": {
			"bookInsurance(address,string,uint256,uint256,uint256)": "1b0dce08",
			"claimRequest(uint256,address)": "29e999f4",
			"claims(bytes32)": "eff0f592",
			"flights(uint256,address)": "5996e024",
			"fulfillClaimInquiry(bytes32,uint8)": "0ebc8da6",
			"insurances(uint256,address)": "6e8cffa2",
			"owner()": "8da5cb5b",
			"registerFlights(address,string,string)": "04d35e30",
			"submitMyClaim(uint256,address,string)": "c4e49cd5"
		}
	},
	"abi": [
		{
			"inputs": [
				{
					"internalType": "address",
					"name": "_pli",
					"type": "address"
				}
			],
			"stateMutability": "nonpayable",
			"type": "constructor"
		},
		{
			"anonymous": false,
			"inputs": [
				{
					"indexed": false,
					"internalType": "uint256",
					"name": "flightId",
					"type": "uint256"
				},
				{
					"indexed": false,
					"internalType": "string",
					"name": "eventType",
					"type": "string"
				},
				{
					"indexed": false,
					"internalType": "address",
					"name": "flight",
					"type": "address"
				},
				{
					"indexed": false,
					"internalType": "address",
					"name": "performedBy",
					"type": "address"
				},
				{
					"indexed": false,
					"internalType": "uint256",
					"name": "performedOn",
					"type": "uint256"
				}
			],
			"name": "FlightEvents",
			"type": "event"
		},
		{
			"anonymous": false,
			"inputs": [
				{
					"indexed": false,
					"internalType": "uint256",
					"name": "insuranceid",
					"type": "uint256"
				},
				{
					"indexed": false,
					"internalType": "string",
					"name": "eventType",
					"type": "string"
				},
				{
					"indexed": false,
					"internalType": "address",
					"name": "passenger",
					"type": "address"
				},
				{
					"indexed": false,
					"internalType": "address",
					"name": "performedBy",
					"type": "address"
				},
				{
					"indexed": false,
					"internalType": "uint256",
					"name": "performedOn",
					"type": "uint256"
				}
			],
			"name": "InsuranceEvents",
			"type": "event"
		},
		{
			"anonymous": false,
			"inputs": [
				{
					"indexed": true,
					"internalType": "bytes32",
					"name": "id",
					"type": "bytes32"
				}
			],
			"name": "PluginCancelled",
			"type": "event"
		},
		{
			"anonymous": false,
			"inputs": [
				{
					"indexed": true,
					"internalType": "bytes32",
					"name": "id",
					"type": "bytes32"
				}
			],
			"name": "PluginFulfilled",
			"type": "event"
		},
		{
			"anonymous": false,
			"inputs": [
				{
					"indexed": true,
					"internalType": "bytes32",
					"name": "id",
					"type": "bytes32"
				}
			],
			"name": "PluginRequested",
			"type": "event"
		},
		{
			"anonymous": false,
			"inputs": [
				{
					"indexed": true,
					"internalType": "bytes32",
					"name": "requestId",
					"type": "bytes32"
				},
				{
					"indexed": true,
					"internalType": "uint256",
					"name": "otp",
					"type": "uint256"
				}
			],
			"name": "RequestPermissionFulfilled",
			"type": "event"
		},
		{
			"anonymous": false,
			"inputs": [
				{
					"indexed": true,
					"internalType": "address",
					"name": "requester",
					"type": "address"
				},
				{
					"indexed": true,
					"internalType": "bytes32",
					"name": "jobId",
					"type": "bytes32"
				},
				{
					"indexed": true,
					"internalType": "bytes32",
					"name": "requestId",
					"type": "bytes32"
				}
			],
			"name": "requestCreated",
			"type": "event"
		},
		{
			"inputs": [
				{
					"internalType": "address",
					"name": "_passengerAddress",
					"type": "address"
				},
				{
					"internalType": "string",
					"name": "_carrierFlightNumber",
					"type": "string"
				},
				{
					"internalType": "uint256",
					"name": "_departureOn",
					"type": "uint256"
				},
				{
					"internalType": "uint256",
					"name": "_arrivalOn",
					"type": "uint256"
				},
				{
					"internalType": "uint256",
					"name": "_travelday",
					"type": "uint256"
				}
			],
			"name": "bookInsurance",
			"outputs": [
				{
					"internalType": "uint256",
					"name": "",
					"type": "uint256"
				}
			],
			"stateMutability": "nonpayable",
			"type": "function"
		},
		{
			"inputs": [
				{
					"internalType": "uint256",
					"name": "",
					"type": "uint256"
				},
				{
					"internalType": "address",
					"name": "",
					"type": "address"
				}
			],
			"name": "claimRequest",
			"outputs": [
				{
					"internalType": "bytes32",
					"name": "",
					"type": "bytes32"
				}
			],
			"stateMutability": "view",
			"type": "function"
		},
		{
			"inputs": [
				{
					"internalType": "bytes32",
					"name": "",
					"type": "bytes32"
				}
			],
			"name": "claims",
			"outputs": [
				{
					"internalType": "uint256",
					"name": "policyid",
					"type": "uint256"
				},
				{
					"internalType": "address",
					"name": "passenger",
					"type": "address"
				},
				{
					"internalType": "string",
					"name": "carrierFlightNumber",
					"type": "string"
				},
				{
					"internalType": "uint256",
					"name": "departureOn",
					"type": "uint256"
				},
				{
					"internalType": "uint256",
					"name": "arrivalOn",
					"type": "uint256"
				},
				{
					"internalType": "uint256",
					"name": "bookedOn",
					"type": "uint256"
				},
				{
					"internalType": "enum IFlightStatus.FlightStatus",
					"name": "flightStatus",
					"type": "uint8"
				},
				{
					"internalType": "uint256",
					"name": "yearmonthdate",
					"type": "uint256"
				},
				{
					"internalType": "bool",
					"name": "processed",
					"type": "bool"
				}
			],
			"stateMutability": "view",
			"type": "function"
		},
		{
			"inputs": [
				{
					"internalType": "uint256",
					"name": "",
					"type": "uint256"
				},
				{
					"internalType": "address",
					"name": "",
					"type": "address"
				}
			],
			"name": "flights",
			"outputs": [
				{
					"internalType": "uint256",
					"name": "flightId",
					"type": "uint256"
				},
				{
					"internalType": "string",
					"name": "carrierFlightNumber",
					"type": "string"
				},
				{
					"internalType": "string",
					"name": "serviceProviderName",
					"type": "string"
				},
				{
					"internalType": "address",
					"name": "serviceProvider",
					"type": "address"
				},
				{
					"internalType": "uint256",
					"name": "registeredOn",
					"type": "uint256"
				},
				{
					"internalType": "address",
					"name": "registeredBy",
					"type": "address"
				}
			],
			"stateMutability": "view",
			"type": "function"
		},
		{
			"inputs": [
				{
					"internalType": "bytes32",
					"name": "_requestId",
					"type": "bytes32"
				},
				{
					"internalType": "enum IFlightStatus.FlightStatus",
					"name": "_flightStatus",
					"type": "uint8"
				}
			],
			"name": "fulfillClaimInquiry",
			"outputs": [],
			"stateMutability": "nonpayable",
			"type": "function"
		},
		{
			"inputs": [
				{
					"internalType": "uint256",
					"name": "",
					"type": "uint256"
				},
				{
					"internalType": "address",
					"name": "",
					"type": "address"
				}
			],
			"name": "insurances",
			"outputs": [
				{
					"internalType": "uint256",
					"name": "policyid",
					"type": "uint256"
				},
				{
					"internalType": "address",
					"name": "passenger",
					"type": "address"
				},
				{
					"internalType": "string",
					"name": "carrierFlightNumber",
					"type": "string"
				},
				{
					"internalType": "uint256",
					"name": "departureOn",
					"type": "uint256"
				},
				{
					"internalType": "uint256",
					"name": "arrivalOn",
					"type": "uint256"
				},
				{
					"internalType": "uint256",
					"name": "bookedOn",
					"type": "uint256"
				},
				{
					"internalType": "enum IFlightStatus.FlightStatus",
					"name": "flightStatus",
					"type": "uint8"
				},
				{
					"internalType": "uint256",
					"name": "yearmonthdate",
					"type": "uint256"
				},
				{
					"internalType": "bool",
					"name": "processed",
					"type": "bool"
				}
			],
			"stateMutability": "view",
			"type": "function"
		},
		{
			"inputs": [],
			"name": "owner",
			"outputs": [
				{
					"internalType": "address",
					"name": "",
					"type": "address"
				}
			],
			"stateMutability": "view",
			"type": "function"
		},
		{
			"inputs": [
				{
					"internalType": "address",
					"name": "_flightAddress",
					"type": "address"
				},
				{
					"internalType": "string",
					"name": "_carrierFlightNumber",
					"type": "string"
				},
				{
					"internalType": "string",
					"name": "_serviceProviderName",
					"type": "string"
				}
			],
			"name": "registerFlights",
			"outputs": [
				{
					"internalType": "uint256",
					"name": "",
					"type": "uint256"
				}
			],
			"stateMutability": "nonpayable",
			"type": "function"
		},
		{
			"inputs": [
				{
					"internalType": "uint256",
					"name": "_insuranceid",
					"type": "uint256"
				},
				{
					"internalType": "address",
					"name": "_oracleAddress",
					"type": "address"
				},
				{
					"internalType": "string",
					"name": "_jobid",
					"type": "string"
				}
			],
			"name": "submitMyClaim",
			"outputs": [],
			"stateMutability": "nonpayable",
			"type": "function"
		}
	]
}