{
  "_format": "hh-sol-artifact-1",
  "contractName": "FlightDelayInsurance",
  "sourceName": "contracts/FlightDelayInsurance.sol",
  "abi": [
    {
      "inputs": [
        {
          "internalType": "address",
          "name": "_pli",
          "type": "address"
        }
      ],
      "stateMutability": "nonpayable",
      "type": "constructor"
    },
    {
      "anonymous": false,
      "inputs": [
        {
          "indexed": false,
          "internalType": "uint256",
          "name": "flightId",
          "type": "uint256"
        },
        {
          "indexed": false,
          "internalType": "string",
          "name": "eventType",
          "type": "string"
        },
        {
          "indexed": false,
          "internalType": "address",
          "name": "flight",
          "type": "address"
        },
        {
          "indexed": false,
          "internalType": "address",
          "name": "performedBy",
          "type": "address"
        },
        {
          "indexed": false,
          "internalType": "uint256",
          "name": "performedOn",
          "type": "uint256"
        }
      ],
      "name": "FlightEvents",
      "type": "event"
    },
    {
      "anonymous": false,
      "inputs": [
        {
          "indexed": false,
          "internalType": "uint256",
          "name": "insuranceid",
          "type": "uint256"
        },
        {
          "indexed": false,
          "internalType": "string",
          "name": "eventType",
          "type": "string"
        },
        {
          "indexed": false,
          "internalType": "address",
          "name": "passenger",
          "type": "address"
        },
        {
          "indexed": false,
          "internalType": "address",
          "name": "performedBy",
          "type": "address"
        },
        {
          "indexed": false,
          "internalType": "uint256",
          "name": "performedOn",
          "type": "uint256"
        }
      ],
      "name": "InsuranceEvents",
      "type": "event"
    },
    {
      "anonymous": false,
      "inputs": [
        {
          "indexed": true,
          "internalType": "bytes32",
          "name": "id",
          "type": "bytes32"
        }
      ],
      "name": "PluginCancelled",
      "type": "event"
    },
    {
      "anonymous": false,
      "inputs": [
        {
          "indexed": true,
          "internalType": "bytes32",
          "name": "id",
          "type": "bytes32"
        }
      ],
      "name": "PluginFulfilled",
      "type": "event"
    },
    {
      "anonymous": false,
      "inputs": [
        {
          "indexed": true,
          "internalType": "bytes32",
          "name": "id",
          "type": "bytes32"
        }
      ],
      "name": "PluginRequested",
      "type": "event"
    },
    {
      "anonymous": false,
      "inputs": [
        {
          "indexed": true,
          "internalType": "bytes32",
          "name": "requestId",
          "type": "bytes32"
        },
        {
          "indexed": true,
          "internalType": "uint256",
          "name": "otp",
          "type": "uint256"
        }
      ],
      "name": "RequestPermissionFulfilled",
      "type": "event"
    },
    {
      "anonymous": false,
      "inputs": [
        {
          "indexed": true,
          "internalType": "address",
          "name": "requester",
          "type": "address"
        },
        {
          "indexed": true,
          "internalType": "bytes32",
          "name": "jobId",
          "type": "bytes32"
        },
        {
          "indexed": true,
          "internalType": "bytes32",
          "name": "requestId",
          "type": "bytes32"
        }
      ],
      "name": "requestCreated",
      "type": "event"
    },
    {
      "inputs": [
        {
          "internalType": "address",
          "name": "_passengerAddress",
          "type": "address"
        },
        {
          "internalType": "bytes32",
          "name": "_carrierFlightNumber",
          "type": "bytes32"
        },
        {
          "internalType": "uint256",
          "name": "_departureOn",
          "type": "uint256"
        },
        {
          "internalType": "uint256",
          "name": "_arrivalOn",
          "type": "uint256"
        },
        {
          "internalType": "uint256",
          "name": "_travelday",
          "type": "uint256"
        }
      ],
      "name": "bookInsurance",
      "outputs": [
        {
          "internalType": "uint256",
          "name": "",
          "type": "uint256"
        }
      ],
      "stateMutability": "nonpayable",
      "type": "function"
    },
    {
      "inputs": [
        {
          "internalType": "uint256",
          "name": "",
          "type": "uint256"
        },
        {
          "internalType": "address",
          "name": "",
          "type": "address"
        }
      ],
      "name": "claimRequest",
      "outputs": [
        {
          "internalType": "bytes32",
          "name": "",
          "type": "bytes32"
        }
      ],
      "stateMutability": "view",
      "type": "function"
    },
    {
      "inputs": [
        {
          "internalType": "bytes32",
          "name": "",
          "type": "bytes32"
        }
      ],
      "name": "claims",
      "outputs": [
        {
          "internalType": "uint256",
          "name": "polictyid",
          "type": "uint256"
        },
        {
          "internalType": "address",
          "name": "passenger",
          "type": "address"
        },
        {
          "internalType": "bytes32",
          "name": "carrierFlightNumber",
          "type": "bytes32"
        },
        {
          "internalType": "uint256",
          "name": "departureOn",
          "type": "uint256"
        },
        {
          "internalType": "uint256",
          "name": "arrivalOn",
          "type": "uint256"
        },
        {
          "internalType": "uint256",
          "name": "bookedOn",
          "type": "uint256"
        },
        {
          "internalType": "enum IFlightStatus.FlightStatus",
          "name": "flightStatus",
          "type": "uint8"
        },
        {
          "internalType": "uint256",
          "name": "yearmonthdate",
          "type": "uint256"
        },
        {
          "internalType": "bool",
          "name": "processed",
          "type": "bool"
        }
      ],
      "stateMutability": "view",
      "type": "function"
    },
    {
      "inputs": [
        {
          "internalType": "uint256",
          "name": "",
          "type": "uint256"
        },
        {
          "internalType": "address",
          "name": "",
          "type": "address"
        }
      ],
      "name": "flights",
      "outputs": [
        {
          "internalType": "uint256",
          "name": "flightId",
          "type": "uint256"
        },
        {
          "internalType": "bytes32",
          "name": "carrierFlightNumber",
          "type": "bytes32"
        },
        {
          "internalType": "string",
          "name": "serviceProviderName",
          "type": "string"
        },
        {
          "internalType": "address",
          "name": "serviceProvider",
          "type": "address"
        },
        {
          "internalType": "uint256",
          "name": "registeredOn",
          "type": "uint256"
        },
        {
          "internalType": "address",
          "name": "registeredBy",
          "type": "address"
        }
      ],
      "stateMutability": "view",
      "type": "function"
    },
    {
      "inputs": [
        {
          "internalType": "bytes32",
          "name": "_requestId",
          "type": "bytes32"
        },
        {
          "internalType": "enum IFlightStatus.FlightStatus",
          "name": "_flightStatus",
          "type": "uint8"
        }
      ],
      "name": "fulfillClaimInquiry",
      "outputs": [],
      "stateMutability": "nonpayable",
      "type": "function"
    },
    {
      "inputs": [
        {
          "internalType": "uint256",
          "name": "",
          "type": "uint256"
        },
        {
          "internalType": "address",
          "name": "",
          "type": "address"
        }
      ],
      "name": "insurances",
      "outputs": [
        {
          "internalType": "uint256",
          "name": "polictyid",
          "type": "uint256"
        },
        {
          "internalType": "address",
          "name": "passenger",
          "type": "address"
        },
        {
          "internalType": "bytes32",
          "name": "carrierFlightNumber",
          "type": "bytes32"
        },
        {
          "internalType": "uint256",
          "name": "departureOn",
          "type": "uint256"
        },
        {
          "internalType": "uint256",
          "name": "arrivalOn",
          "type": "uint256"
        },
        {
          "internalType": "uint256",
          "name": "bookedOn",
          "type": "uint256"
        },
        {
          "internalType": "enum IFlightStatus.FlightStatus",
          "name": "flightStatus",
          "type": "uint8"
        },
        {
          "internalType": "uint256",
          "name": "yearmonthdate",
          "type": "uint256"
        },
        {
          "internalType": "bool",
          "name": "processed",
          "type": "bool"
        }
      ],
      "stateMutability": "view",
      "type": "function"
    },
    {
      "inputs": [],
      "name": "owner",
      "outputs": [
        {
          "internalType": "address",
          "name": "",
          "type": "address"
        }
      ],
      "stateMutability": "view",
      "type": "function"
    },
    {
      "inputs": [
        {
          "internalType": "address",
          "name": "_flightAddress",
          "type": "address"
        },
        {
          "internalType": "bytes32",
          "name": "_carrierFlightNumber",
          "type": "bytes32"
        },
        {
          "internalType": "string",
          "name": "_serviceProviderName",
          "type": "string"
        }
      ],
      "name": "registerFlights",
      "outputs": [
        {
          "internalType": "uint256",
          "name": "",
          "type": "uint256"
        }
      ],
      "stateMutability": "nonpayable",
      "type": "function"
    },
    {
      "inputs": [
        {
          "internalType": "uint256",
          "name": "_insuranceid",
          "type": "uint256"
        },
        {
          "internalType": "address",
          "name": "_oracleAddress",
          "type": "address"
        },
        {
          "internalType": "string",
          "name": "_jobid",
          "type": "string"
        }
      ],
      "name": "submitMyClaim",
      "outputs": [],
      "stateMutability": "nonpayable",
      "type": "function"
    }
  ],
  "bytecode": "0x608060405260016004553480156200001657600080fd5b506040516200192c3803806200192c8339810160408190526200003991620000a7565b600280546001600160a01b0319166001600160a01b03831617905560088054336001600160a01b03199091161790556200008060066200009e602090811b62000b3217901c565b6200009760076200009e60201b62000b321760201c565b50620000d7565b80546001019055565b600060208284031215620000b9578081fd5b81516001600160a01b0381168114620000d0578182fd5b9392505050565b61184580620000e76000396000f3fe608060405234801561001057600080fd5b50600436106100935760003560e01c80636e8cffa2116100665780636e8cffa2146101235780638d3c9445146101ab5780638da5cb5b146101be578063c4e49cd5146101e9578063eff0f592146101fc57600080fd5b80630ebc8da61461009857806329e999f4146100ad5780632f2e01f2146100eb5780635996e024146100fe575b600080fd5b6100ab6100a6366004611421565b610264565b005b6100d86100bb366004611453565b600c60209081526000928352604080842090915290825290205481565b6040519081526020015b60405180910390f35b6100d86100f93660046113a8565b610444565b61011161010c366004611453565b610636565b6040516100e29695949392919061160b565b610196610131366004611453565b600960209081526000928352604080842090915290825290208054600182015460028301546003840154600485015460058601546006870154600788015460089098015496976001600160a01b0390961696949593949293919260ff91821692911689565b6040516100e299989796959493929190611597565b6100d86101b9366004611353565b61070b565b6008546101d1906001600160a01b031681565b6040516001600160a01b0390911681526020016100e2565b6100ab6101f736600461147e565b61085b565b61019661020a366004611409565b600b6020526000908152604090208054600182015460028301546003840154600485015460058601546006870154600788015460089098015496976001600160a01b0390961696949593949293919260ff91821692911689565b60008281526005602052604090205482906001600160a01b031633146102e25760405162461bcd60e51b815260206004820152602860248201527f536f75726365206d75737420626520746865206f7261636c65206f6620746865604482015267081c995c5d595cdd60c21b60648201526084015b60405180910390fd5b60008181526005602052604080822080546001600160a01b03191690555182917fa40ad10b942505047c532a7399bf5eac2768b11b7155b40ec80309aea567f99891a26000838152600b602090815260408083208151610120810183528154815260018201546001600160a01b031693810193909352600281015491830191909152600381015460608301526004810154608083015260058082015460a0840152600682015460c084019160ff909116908111156103b057634e487b7160e01b600052602160045260246000fd5b60058111156103cf57634e487b7160e01b600052602160045260246000fd5b81526007820154602082015260089091015460ff1615156040909101526001610100820152905060c0810183600581111561041a57634e487b7160e01b600052602160045260246000fd5b9081600581111561043b57634e487b7160e01b600052602160045260246000fd5b90525050505050565b60008061045060075490565b9050610460600780546001019055565b604051806101200160405280828152602001886001600160a01b03168152602001878152602001868152602001858152602001428152602001600160058111156104ba57634e487b7160e01b600052602160045260246000fd5b60058111156104d957634e487b7160e01b600052602160045260246000fd5b8152602080820186905260006040928301819052848152600982528281206001600160a01b038c81168352908352908390208451815591840151600180840180546001600160a01b0319169290931691909117909155918301516002820155606083015160038201556080830151600482015560a083015160058083019190915560c084015160068301805493949193909260ff199091169190849081111561059257634e487b7160e01b600052602160045260246000fd5b021790555060e0828101516007830155610100909201516008909101805460ff19169115159190911790556040805183815260a0602082018190526010908201526f125b9cdd5c985b98d948109bdbdad95960821b60c08201523391810182905260608101919091524260808201527f528441e079e31bf6f9d9a91817469f3269aadfd0e41397f5139151f22d5bb541910160405180910390a19695505050505050565b600a602090815260009283526040808420909152908252902080546001820154600283018054929391926106699061178e565b80601f01602080910402602001604051908101604052809291908181526020018280546106959061178e565b80156106e25780601f106106b7576101008083540402835291602001916106e2565b820191906000526020600020905b8154815290600101906020018083116106c557829003601f168201915b505050506003830154600484015460059094015492936001600160a01b03918216939092501686565b60008061071760065490565b9050610727600680546001019055565b6040805160c08101825282815260208082018781528284018781526001600160a01b038a16606085018190524260808601523360a08601526000878152600a85528681209181529084529490942083518155905160018201559251805192939261079792600285019201906111dc565b506060828101516003830180546001600160a01b03199081166001600160a01b0393841617909155608080860151600486015560a095860151600590950180549092169490921693909317909255604080518581526020810185905260119481019490945270119b1a59da1d08149959da5cdd195c9959607a1b60c0850152339084018190529083015242908201527f31e053a200c037c2a0f3a83d8e087ea8ca9962fc3f642170571a92abc949a13c9060e00160405180910390a1949350505050565b600083815260096020908152604080832033845282528083208151610120810183528154815260018201546001600160a01b031693810193909352600281015491830191909152600381015460608301526004810154608083015260058082015460a0840152600682015460c084019160ff909116908111156108ee57634e487b7160e01b600052602160045260246000fd5b600581111561090d57634e487b7160e01b600052602160045260246000fd5b8152600782015460208083019190915260089092015460ff1615156040909101528101519091506001600160a01b03166109895760405162461bcd60e51b815260206004820181905260248201527f506f6c69637920486f6c646572204164647265737320697320696e76616c696460448201526064016102d9565b610100810151156109ce5760405162461bcd60e51b815260206004820152600f60248201526e105b1c9958591e4818db185a5b5959608a1b60448201526064016102d9565b60006109ea6109dc84610b3b565b3063075e46d360e11b610b58565b9050610a22604051806040016040528060058152602001641d5b9d1a5b60da1b815250836080015183610b7d9092919063ffffffff16565b6000610a37858367016345785d8a0000610ba0565b905082600b60008381526020019081526020016000206000820151816000015560208201518160010160006101000a8154816001600160a01b0302191690836001600160a01b0316021790555060408201518160020155606082015181600301556080820151816004015560a0820151816005015560c08201518160060160006101000a81548160ff02191690836005811115610ae457634e487b7160e01b600052602160045260246000fd5b021790555060e08201516007820155610100909101516008909101805460ff19169115159190911790556000958652600c602090815260408088203389529091529095209490945550505050565b80546001019055565b80516000908290610b4f5750600092915050565b50506020015190565b610b60611260565b610b68611260565b610b7481868686610bbf565b95945050505050565b6080830151610b8c9083610bfc565b6080830151610b9b9082610c13565b505050565b6000610bb784848460016320214ca360e11b610c23565b949350505050565b610bc7611260565b610bd78560800151610100610e2f565b50509183526001600160a01b031660208301526001600160e01b031916604082015290565b610c098260038351610e9a565b610b9b8282610f6e565b610c1f82600083610e9a565b5050565b6004546040516bffffffffffffffffffffffff193060601b166020820152603481019190915260009060540160408051808303601f19018152918152815160209283012060045460608901526000818152600590935281832080546001600160a01b0319166001600160a01b038b16179055905190925082917fa6745906207afb96a5801b8e5711fd7b74c5780ce893a973806e179d675bbe2491a2600082600080886000015189602001518a604001518b606001518a8d6080015160000151604051602401610cfa989796959493929190611508565b60408051601f198184030181529181526020820180516001600160e01b03166001600160e01b0319909416939093179092526002549151630200057560e51b81529092506001600160a01b0390911690634000aea090610d62908a9089908690600401611570565b602060405180830381600087803b158015610d7c57600080fd5b505af1158015610d90573d6000803e3d6000fd5b505050506040513d601f19601f82011682018060405250810190610db491906113e9565b610e0c5760405162461bcd60e51b815260206004820152602360248201527f756e61626c6520746f207472616e73666572416e6443616c6c20746f206f7261604482015262636c6560e81b60648201526084016102d9565b600160046000828254610e1f9190611655565b9091555091979650505050505050565b604080518082019091526060815260006020820152610e4f6020836117c3565b15610e7757610e5f6020836117c3565b610e6a906020611777565b610e749083611655565b91505b506020808301829052604080518085526000815283019091019052815b92915050565b60178111610ebb57610eb58360e0600585901b168317610f9c565b50505050565b60ff8111610ee557610ed8836018611fe0600586901b1617610f9c565b50610eb583826001610fc1565b61ffff8111610f1057610f03836019611fe0600586901b1617610f9c565b50610eb583826002610fc1565b63ffffffff8111610f3d57610f3083601a611fe0600586901b1617610f9c565b50610eb583826004610fc1565b67ffffffffffffffff8111610b9b57610f6183601b611fe0600586901b1617610f9c565b50610eb583826008610fc1565b604080518082019091526060815260006020820152610f9583846000015151848551610fe7565b9392505050565b604080518082019091526060815260006020820152610f9583846000015151846110d1565b604080518082019091526060815260006020820152610bb784856000015151858561112d565b604080518082019091526060815260006020820152825182111561100a57600080fd5b60208501516110198386611655565b111561104c5761104c8561103c876020015187866110379190611655565b6111ae565b611047906002611758565b6111c5565b60008086518051876020830101935080888701111561106b5787860182525b505050602084015b602084106110ab578051825261108a602083611655565b9150611097602082611655565b90506110a4602085611777565b9350611073565b51815160001960208690036101000a019081169019919091161790525083949350505050565b604080518082019091526060815260006020820152836020015183106111065761110684856020015160026110479190611758565b835180516020858301018481535080851415611123576001810182525b5093949350505050565b60408051808201909152606081526000602082015260208501516111518584611655565b1115611165576111658561103c8685611655565b60006001611175846101006116b0565b61117f9190611777565b90508551838682010185831982511617815250805184870111156111a35783860181525b509495945050505050565b6000818311156111bf575081610e94565b50919050565b81516111d18383610e2f565b50610eb58382610f6e565b8280546111e89061178e565b90600052602060002090601f01602090048101928261120a5760008555611250565b82601f1061122357805160ff1916838001178555611250565b82800160010185558215611250579182015b82811115611250578251825591602001919060010190611235565b5061125c92915061129b565b5090565b6040805160a0810182526000808252602080830182905282840182905260608084018390528451808601909552845283015290608082015290565b5b8082111561125c576000815560010161129c565b80356001600160a01b03811681146112c757600080fd5b919050565b600082601f8301126112dc578081fd5b813567ffffffffffffffff808211156112f7576112f76117f9565b604051601f8301601f19908116603f0116810190828211818310171561131f5761131f6117f9565b81604052838152866020858801011115611337578485fd5b8360208701602083013792830160200193909352509392505050565b600080600060608486031215611367578283fd5b611370846112b0565b925060208401359150604084013567ffffffffffffffff811115611392578182fd5b61139e868287016112cc565b9150509250925092565b600080600080600060a086880312156113bf578081fd5b6113c8866112b0565b97602087013597506040870135966060810135965060800135945092505050565b6000602082840312156113fa578081fd5b81518015158114610f95578182fd5b60006020828403121561141a578081fd5b5035919050565b60008060408385031215611433578182fd5b82359150602083013560068110611448578182fd5b809150509250929050565b60008060408385031215611465578182fd5b82359150611475602084016112b0565b90509250929050565b600080600060608486031215611492578283fd5b833592506114a2602085016112b0565b9150604084013567ffffffffffffffff811115611392578182fd5b60008151808452815b818110156114e2576020818501810151868301820152016114c6565b818111156114f35782602083870101525b50601f01601f19169290920160200192915050565b6001600160a01b0389811682526020820189905260408201889052861660608201526001600160e01b03198516608082015260a0810184905260c0810183905261010060e08201819052600090611561838201856114bd565b9b9a5050505050505050505050565b60018060a01b0384168152826020820152606060408201526000610b7460608301846114bd565b8981526001600160a01b038916602082015260408101889052606081018790526080810186905260a081018590526101208101600685106115e857634e487b7160e01b600052602160045260246000fd5b8460c08301528360e08301528215156101008301529a9950505050505050505050565b86815285602082015260c06040820152600061162a60c08301876114bd565b6001600160a01b039586166060840152608083019490945250921660a0909201919091529392505050565b60008219821115611668576116686117e3565b500190565b600181815b808511156116a857816000190482111561168e5761168e6117e3565b8085161561169b57918102915b93841c9390800290611672565b509250929050565b6000610f9583836000826116c657506001610e94565b816116d357506000610e94565b81600181146116e957600281146116f35761170f565b6001915050610e94565b60ff841115611704576117046117e3565b50506001821b610e94565b5060208310610133831016604e8410600b8410161715611732575081810a610e94565b61173c838361166d565b8060001904821115611750576117506117e3565b029392505050565b6000816000190483118215151615611772576117726117e3565b500290565b600082821015611789576117896117e3565b500390565b600181811c908216806117a257607f821691505b602082108114156111bf57634e487b7160e01b600052602260045260246000fd5b6000826117de57634e487b7160e01b81526012600452602481fd5b500690565b634e487b7160e01b600052601160045260246000fd5b634e487b7160e01b600052604160045260246000fdfea26469706673582212201eee1a757449decda27a64367520a67662bf323028b654bd1440bf9ae492ce9a64736f6c63430008040033",
  "linkReferences": {},
  "deployedLinkReferences": {}
}