{
	"data": {
		"bytecode": {
			"linkReferences": {},
			"object": "608060405234801561001057600080fd5b506111c5806100206000396000f3fe608060405234801561001057600080fd5b506004361061004c5760003560e01c80631a5649311461005157806340fd5f681461006657806395489f4414610079578063e89e1e27146100ac575b600080fd5b61006461005f366004610b12565b6100bf565b005b610064610074366004610cf7565b6103b8565b61008c610087366004610dac565b610509565b6040516100a39b9a99989796959493929190610ed0565b60405180910390f35b6100646100ba366004610c36565b610833565b60006100cd8a8c8b8b610971565b9050600080868152602001908152602001600020816040516100ef9190610e44565b9081526040519081900360200190206008015460ff62010000909104161561015e5760405162461bcd60e51b815260206004820152601c60248201527f4552524f523a4644432d30313a545249505f524547495354455245440000000060448201526064015b60405180910390fd5b6040518061016001604052808d6001600160a01b031681526020018581526020018781526020018b81526020018c81526020018a81526020018981526020018881526020018460028111156101c357634e487b7160e01b600052602160045260246000fd5b81526020018360098111156101e857634e487b7160e01b600052602160045260246000fd5b81526001602091820152600087815290819052604090819020905161020e908490610e44565b9081526040805160209281900383019020835181546001600160a01b0319166001600160a01b03909116178155838301516001820155908301516002820155606083015180519192610268926003850192909101906109a3565b50608082015180516102849160048401916020909101906109a3565b5060a082015180516102a09160058401916020909101906109a3565b5060c082015180516102bc9160068401916020909101906109a3565b5060e082015180516102d89160078401916020909101906109a3565b5061010082015160088201805460ff1916600183600281111561030b57634e487b7160e01b600052602160045260246000fd5b021790555061012082015160088201805461ff00191661010083600981111561034457634e487b7160e01b600052602160045260246000fd5b0217905550610140919091015160089091018054911515620100000262ff0000199092169190911790556040517f18eb935f7f2021fe24afb4ed719d3c4b0033938b38ff1a1a483ec44545b63677906103a290839033904290610f8f565b60405180910390a1505050505050505050505050565b60006103c686888787610971565b9050600080848152602001908152602001600020816040516103e89190610e44565b9081526040516020918190039190910190206008015462010000900460ff1615156001146104635760405162461bcd60e51b815260206004820152602260248201527f4552524f523a4644432d5544462d30313a545249505f554e5245474953544552604482015261115160f21b6064820152608401610155565b81600080858152602001908152602001600020826040516104849190610e44565b908152604051908190036020019020600801805461ff0019166101008360098111156104c057634e487b7160e01b600052602160045260246000fd5b02179055507f18eb935f7f2021fe24afb4ed719d3c4b0033938b38ff1a1a483ec44545b636778133426040516104f893929190611009565b60405180910390a150505050505050565b6000602081815292815260409020815180830184018051928152908401929093019190912091528054600182015460028301546003840180546001600160a01b0390941694929391929161055c90611128565b80601f016020809104026020016040519081016040528092919081815260200182805461058890611128565b80156105d55780601f106105aa576101008083540402835291602001916105d5565b820191906000526020600020905b8154815290600101906020018083116105b857829003601f168201915b5050505050908060040180546105ea90611128565b80601f016020809104026020016040519081016040528092919081815260200182805461061690611128565b80156106635780601f1061063857610100808354040283529160200191610663565b820191906000526020600020905b81548152906001019060200180831161064657829003601f168201915b50505050509080600501805461067890611128565b80601f01602080910402602001604051908101604052809291908181526020018280546106a490611128565b80156106f15780601f106106c6576101008083540402835291602001916106f1565b820191906000526020600020905b8154815290600101906020018083116106d457829003601f168201915b50505050509080600601805461070690611128565b80601f016020809104026020016040519081016040528092919081815260200182805461073290611128565b801561077f5780601f106107545761010080835404028352916020019161077f565b820191906000526020600020905b81548152906001019060200180831161076257829003601f168201915b50505050509080600701805461079490611128565b80601f01602080910402602001604051908101604052809291908181526020018280546107c090611128565b801561080d5780601f106107e25761010080835404028352916020019161080d565b820191906000526020600020905b8154815290600101906020018083116107f057829003601f168201915b5050506008909301549192505060ff80821691610100810482169162010000909104168b565b600061084186888787610971565b9050600080848152602001908152602001600020816040516108639190610e44565b9081526040516020918190039190910190206008015462010000900460ff1615156001146108de5760405162461bcd60e51b815260206004820152602260248201527f4552524f523a4644432d5544432d30313a545249505f554e5245474953544552604482015261115160f21b6064820152608401610155565b81600080858152602001908152602001600020826040516108ff9190610e44565b908152604051908190036020019020600801805460ff1916600183600281111561093957634e487b7160e01b600052602160045260246000fd5b02179055507f18eb935f7f2021fe24afb4ed719d3c4b0033938b38ff1a1a483ec44545b636778133426040516104f893929190611081565b60608484848460405160200161098a9493929190610e60565b6040516020818303038152906040529050949350505050565b8280546109af90611128565b90600052602060002090601f0160209004810192826109d15760008555610a17565b82601f106109ea57805160ff1916838001178555610a17565b82800160010185558215610a17579182015b82811115610a175782518255916020019190600101906109fc565b50610a23929150610a27565b5090565b5b80821115610a235760008155600101610a28565b600067ffffffffffffffff80841115610a5757610a57611179565b604051601f8501601f19908116603f01168101908282118183101715610a7f57610a7f611179565b81604052809350858152868686011115610a9857600080fd5b858560208301376000602087830101525050509392505050565b80356001600160a01b0381168114610ac957600080fd5b919050565b803560038110610ac957600080fd5b8035600a8110610ac957600080fd5b600082601f830112610afc578081fd5b610b0b83833560208501610a3c565b9392505050565b60008060008060008060008060008060006101608c8e031215610b33578687fd5b610b3c8c610ab2565b9a5067ffffffffffffffff8060208e01351115610b57578788fd5b610b678e60208f01358f01610aec565b9a508060408e01351115610b79578788fd5b610b898e60408f01358f01610aec565b99508060608e01351115610b9b578788fd5b610bab8e60608f01358f01610aec565b98508060808e01351115610bbd578788fd5b610bcd8e60808f01358f01610aec565b97508060a08e01351115610bdf578687fd5b50610bf08d60a08e01358e01610aec565b955060c08c0135945060e08c013593506101008c01359250610c156101208d01610ace565b9150610c246101408d01610add565b90509295989b509295989b9093969950565b60008060008060008060c08789031215610c4e578182fd5b863567ffffffffffffffff80821115610c65578384fd5b610c718a838b01610aec565b97506020890135915080821115610c86578384fd5b610c928a838b01610aec565b96506040890135915080821115610ca7578384fd5b610cb38a838b01610aec565b95506060890135915080821115610cc8578384fd5b50610cd589828a01610aec565b93505060808701359150610ceb60a08801610ace565b90509295509295509295565b60008060008060008060c08789031215610d0f578182fd5b863567ffffffffffffffff80821115610d26578384fd5b610d328a838b01610aec565b97506020890135915080821115610d47578384fd5b610d538a838b01610aec565b96506040890135915080821115610d68578384fd5b610d748a838b01610aec565b95506060890135915080821115610d89578384fd5b50610d9689828a01610aec565b93505060808701359150610ceb60a08801610add565b60008060408385031215610dbe578182fd5b82359150602083013567ffffffffffffffff811115610ddb578182fd5b8301601f81018513610deb578182fd5b610dfa85823560208401610a3c565b9150509250929050565b60008151808452610e1c8160208601602086016110f8565b601f01601f19169290920160200192915050565b600a8110610e4057610e40611163565b9052565b60008251610e568184602087016110f8565b9190910192915050565b634644432d60e01b815260008551610e7f816004850160208a016110f8565b855190830190610e96816004840160208a016110f8565b8551910190610eac8160048401602089016110f8565b8451910190610ec28160048401602088016110f8565b016004019695505050505050565b600061016060018060a01b038e1683528c60208401528b6040840152806060840152610efe8184018c610e04565b90508281036080840152610f12818b610e04565b905082810360a0840152610f26818a610e04565b905082810360c0840152610f3a8189610e04565b905082810360e0840152610f4e8188610e04565b91505060038510610f6157610f61611163565b84610100830152610f76610120830185610e30565b8215156101408301529c9b505050505050505050505050565b608081526000610fa26080830186610e04565b8281036020840152602981527f50617373656e67657220436f6d70656e736174696f6e2044657461696c7320526020820152681959da5cdd195c995960ba1b60408201526060810191505060018060a01b0384166040830152826060830152949350505050565b60808152600061101c6080830186610e04565b8281036020840152602781527f50617373656e67657220466c69676874205374617475732044657461696c7320602082015266155c19185d195960ca1b60408201526060810191505060018060a01b0384166040830152826060830152949350505050565b6080815260006110946080830186610e04565b8281036020840152602681527f50617373656e67657220436f6d70656e736174696f6e2044657461696c7320556020820152651c19185d195960d21b60408201526060810191505060018060a01b0384166040830152826060830152949350505050565b60005b838110156111135781810151838201526020016110fb565b83811115611122576000848401525b50505050565b600181811c9082168061113c57607f821691505b6020821081141561115d57634e487b7160e01b600052602260045260246000fd5b50919050565b634e487b7160e01b600052602160045260246000fd5b634e487b7160e01b600052604160045260246000fdfea2646970667358221220d15b10c4267943b94963b5be514ce069254dd9c5227998622516f4ce9602810964736f6c63430008040033",
			"opcodes": "PUSH1 0x80 PUSH1 0x40 MSTORE CALLVALUE DUP1 ISZERO PUSH2 0x10 JUMPI PUSH1 0x0 DUP1 REVERT JUMPDEST POP PUSH2 0x11C5 DUP1 PUSH2 0x20 PUSH1 0x0 CODECOPY PUSH1 0x0 RETURN INVALID PUSH1 0x80 PUSH1 0x40 MSTORE CALLVALUE DUP1 ISZERO PUSH2 0x10 JUMPI PUSH1 0x0 DUP1 REVERT JUMPDEST POP PUSH1 0x4 CALLDATASIZE LT PUSH2 0x4C JUMPI PUSH1 0x0 CALLDATALOAD PUSH1 0xE0 SHR DUP1 PUSH4 0x1A564931 EQ PUSH2 0x51 JUMPI DUP1 PUSH4 0x40FD5F68 EQ PUSH2 0x66 JUMPI DUP1 PUSH4 0x95489F44 EQ PUSH2 0x79 JUMPI DUP1 PUSH4 0xE89E1E27 EQ PUSH2 0xAC JUMPI JUMPDEST PUSH1 0x0 DUP1 REVERT JUMPDEST PUSH2 0x64 PUSH2 0x5F CALLDATASIZE PUSH1 0x4 PUSH2 0xB12 JUMP JUMPDEST PUSH2 0xBF JUMP JUMPDEST STOP JUMPDEST PUSH2 0x64 PUSH2 0x74 CALLDATASIZE PUSH1 0x4 PUSH2 0xCF7 JUMP JUMPDEST PUSH2 0x3B8 JUMP JUMPDEST PUSH2 0x8C PUSH2 0x87 CALLDATASIZE PUSH1 0x4 PUSH2 0xDAC JUMP JUMPDEST PUSH2 0x509 JUMP JUMPDEST PUSH1 0x40 MLOAD PUSH2 0xA3 SWAP12 SWAP11 SWAP10 SWAP9 SWAP8 SWAP7 SWAP6 SWAP5 SWAP4 SWAP3 SWAP2 SWAP1 PUSH2 0xED0 JUMP JUMPDEST PUSH1 0x40 MLOAD DUP1 SWAP2 SUB SWAP1 RETURN JUMPDEST PUSH2 0x64 PUSH2 0xBA CALLDATASIZE PUSH1 0x4 PUSH2 0xC36 JUMP JUMPDEST PUSH2 0x833 JUMP JUMPDEST PUSH1 0x0 PUSH2 0xCD DUP11 DUP13 DUP12 DUP12 PUSH2 0x971 JUMP JUMPDEST SWAP1 POP PUSH1 0x0 DUP1 DUP7 DUP2 MSTORE PUSH1 0x20 ADD SWAP1 DUP2 MSTORE PUSH1 0x20 ADD PUSH1 0x0 KECCAK256 DUP2 PUSH1 0x40 MLOAD PUSH2 0xEF SWAP2 SWAP1 PUSH2 0xE44 JUMP JUMPDEST SWAP1 DUP2 MSTORE PUSH1 0x40 MLOAD SWAP1 DUP2 SWAP1 SUB PUSH1 0x20 ADD SWAP1 KECCAK256 PUSH1 0x8 ADD SLOAD PUSH1 0xFF PUSH3 0x10000 SWAP1 SWAP2 DIV AND ISZERO PUSH2 0x15E JUMPI PUSH1 0x40 MLOAD PUSH3 0x461BCD PUSH1 0xE5 SHL DUP2 MSTORE PUSH1 0x20 PUSH1 0x4 DUP3 ADD MSTORE PUSH1 0x1C PUSH1 0x24 DUP3 ADD MSTORE PUSH32 0x4552524F523A4644432D30313A545249505F5245474953544552454400000000 PUSH1 0x44 DUP3 ADD MSTORE PUSH1 0x64 ADD JUMPDEST PUSH1 0x40 MLOAD DUP1 SWAP2 SUB SWAP1 REVERT JUMPDEST PUSH1 0x40 MLOAD DUP1 PUSH2 0x160 ADD PUSH1 0x40 MSTORE DUP1 DUP14 PUSH1 0x1 PUSH1 0x1 PUSH1 0xA0 SHL SUB AND DUP2 MSTORE PUSH1 0x20 ADD DUP6 DUP2 MSTORE PUSH1 0x20 ADD DUP8 DUP2 MSTORE PUSH1 0x20 ADD DUP12 DUP2 MSTORE PUSH1 0x20 ADD DUP13 DUP2 MSTORE PUSH1 0x20 ADD DUP11 DUP2 MSTORE PUSH1 0x20 ADD DUP10 DUP2 MSTORE PUSH1 0x20 ADD DUP9 DUP2 MSTORE PUSH1 0x20 ADD DUP5 PUSH1 0x2 DUP2 GT ISZERO PUSH2 0x1C3 JUMPI PUSH4 0x4E487B71 PUSH1 0xE0 SHL PUSH1 0x0 MSTORE PUSH1 0x21 PUSH1 0x4 MSTORE PUSH1 0x24 PUSH1 0x0 REVERT JUMPDEST DUP2 MSTORE PUSH1 0x20 ADD DUP4 PUSH1 0x9 DUP2 GT ISZERO PUSH2 0x1E8 JUMPI PUSH4 0x4E487B71 PUSH1 0xE0 SHL PUSH1 0x0 MSTORE PUSH1 0x21 PUSH1 0x4 MSTORE PUSH1 0x24 PUSH1 0x0 REVERT JUMPDEST DUP2 MSTORE PUSH1 0x1 PUSH1 0x20 SWAP2 DUP3 ADD MSTORE PUSH1 0x0 DUP8 DUP2 MSTORE SWAP1 DUP2 SWAP1 MSTORE PUSH1 0x40 SWAP1 DUP2 SWAP1 KECCAK256 SWAP1 MLOAD PUSH2 0x20E SWAP1 DUP5 SWAP1 PUSH2 0xE44 JUMP JUMPDEST SWAP1 DUP2 MSTORE PUSH1 0x40 DUP1 MLOAD PUSH1 0x20 SWAP3 DUP2 SWAP1 SUB DUP4 ADD SWAP1 KECCAK256 DUP4 MLOAD DUP2 SLOAD PUSH1 0x1 PUSH1 0x1 PUSH1 0xA0 SHL SUB NOT AND PUSH1 0x1 PUSH1 0x1 PUSH1 0xA0 SHL SUB SWAP1 SWAP2 AND OR DUP2 SSTORE DUP4 DUP4 ADD MLOAD PUSH1 0x1 DUP3 ADD SSTORE SWAP1 DUP4 ADD MLOAD PUSH1 0x2 DUP3 ADD SSTORE PUSH1 0x60 DUP4 ADD MLOAD DUP1 MLOAD SWAP2 SWAP3 PUSH2 0x268 SWAP3 PUSH1 0x3 DUP6 ADD SWAP3 SWAP1 SWAP2 ADD SWAP1 PUSH2 0x9A3 JUMP JUMPDEST POP PUSH1 0x80 DUP3 ADD MLOAD DUP1 MLOAD PUSH2 0x284 SWAP2 PUSH1 0x4 DUP5 ADD SWAP2 PUSH1 0x20 SWAP1 SWAP2 ADD SWAP1 PUSH2 0x9A3 JUMP JUMPDEST POP PUSH1 0xA0 DUP3 ADD MLOAD DUP1 MLOAD PUSH2 0x2A0 SWAP2 PUSH1 0x5 DUP5 ADD SWAP2 PUSH1 0x20 SWAP1 SWAP2 ADD SWAP1 PUSH2 0x9A3 JUMP JUMPDEST POP PUSH1 0xC0 DUP3 ADD MLOAD DUP1 MLOAD PUSH2 0x2BC SWAP2 PUSH1 0x6 DUP5 ADD SWAP2 PUSH1 0x20 SWAP1 SWAP2 ADD SWAP1 PUSH2 0x9A3 JUMP JUMPDEST POP PUSH1 0xE0 DUP3 ADD MLOAD DUP1 MLOAD PUSH2 0x2D8 SWAP2 PUSH1 0x7 DUP5 ADD SWAP2 PUSH1 0x20 SWAP1 SWAP2 ADD SWAP1 PUSH2 0x9A3 JUMP JUMPDEST POP PUSH2 0x100 DUP3 ADD MLOAD PUSH1 0x8 DUP3 ADD DUP1 SLOAD PUSH1 0xFF NOT AND PUSH1 0x1 DUP4 PUSH1 0x2 DUP2 GT ISZERO PUSH2 0x30B JUMPI PUSH4 0x4E487B71 PUSH1 0xE0 SHL PUSH1 0x0 MSTORE PUSH1 0x21 PUSH1 0x4 MSTORE PUSH1 0x24 PUSH1 0x0 REVERT JUMPDEST MUL OR SWAP1 SSTORE POP PUSH2 0x120 DUP3 ADD MLOAD PUSH1 0x8 DUP3 ADD DUP1 SLOAD PUSH2 0xFF00 NOT AND PUSH2 0x100 DUP4 PUSH1 0x9 DUP2 GT ISZERO PUSH2 0x344 JUMPI PUSH4 0x4E487B71 PUSH1 0xE0 SHL PUSH1 0x0 MSTORE PUSH1 0x21 PUSH1 0x4 MSTORE PUSH1 0x24 PUSH1 0x0 REVERT JUMPDEST MUL OR SWAP1 SSTORE POP PUSH2 0x140 SWAP2 SWAP1 SWAP2 ADD MLOAD PUSH1 0x8 SWAP1 SWAP2 ADD DUP1 SLOAD SWAP2 ISZERO ISZERO PUSH3 0x10000 MUL PUSH3 0xFF0000 NOT SWAP1 SWAP3 AND SWAP2 SWAP1 SWAP2 OR SWAP1 SSTORE PUSH1 0x40 MLOAD PUSH32 0x18EB935F7F2021FE24AFB4ED719D3C4B0033938B38FF1A1A483EC44545B63677 SWAP1 PUSH2 0x3A2 SWAP1 DUP4 SWAP1 CALLER SWAP1 TIMESTAMP SWAP1 PUSH2 0xF8F JUMP JUMPDEST PUSH1 0x40 MLOAD DUP1 SWAP2 SUB SWAP1 LOG1 POP POP POP POP POP POP POP POP POP POP POP POP JUMP JUMPDEST PUSH1 0x0 PUSH2 0x3C6 DUP7 DUP9 DUP8 DUP8 PUSH2 0x971 JUMP JUMPDEST SWAP1 POP PUSH1 0x0 DUP1 DUP5 DUP2 MSTORE PUSH1 0x20 ADD SWAP1 DUP2 MSTORE PUSH1 0x20 ADD PUSH1 0x0 KECCAK256 DUP2 PUSH1 0x40 MLOAD PUSH2 0x3E8 SWAP2 SWAP1 PUSH2 0xE44 JUMP JUMPDEST SWAP1 DUP2 MSTORE PUSH1 0x40 MLOAD PUSH1 0x20 SWAP2 DUP2 SWAP1 SUB SWAP2 SWAP1 SWAP2 ADD SWAP1 KECCAK256 PUSH1 0x8 ADD SLOAD PUSH3 0x10000 SWAP1 DIV PUSH1 0xFF AND ISZERO ISZERO PUSH1 0x1 EQ PUSH2 0x463 JUMPI PUSH1 0x40 MLOAD PUSH3 0x461BCD PUSH1 0xE5 SHL DUP2 MSTORE PUSH1 0x20 PUSH1 0x4 DUP3 ADD MSTORE PUSH1 0x22 PUSH1 0x24 DUP3 ADD MSTORE PUSH32 0x4552524F523A4644432D5544462D30313A545249505F554E5245474953544552 PUSH1 0x44 DUP3 ADD MSTORE PUSH2 0x1151 PUSH1 0xF2 SHL PUSH1 0x64 DUP3 ADD MSTORE PUSH1 0x84 ADD PUSH2 0x155 JUMP JUMPDEST DUP2 PUSH1 0x0 DUP1 DUP6 DUP2 MSTORE PUSH1 0x20 ADD SWAP1 DUP2 MSTORE PUSH1 0x20 ADD PUSH1 0x0 KECCAK256 DUP3 PUSH1 0x40 MLOAD PUSH2 0x484 SWAP2 SWAP1 PUSH2 0xE44 JUMP JUMPDEST SWAP1 DUP2 MSTORE PUSH1 0x40 MLOAD SWAP1 DUP2 SWAP1 SUB PUSH1 0x20 ADD SWAP1 KECCAK256 PUSH1 0x8 ADD DUP1 SLOAD PUSH2 0xFF00 NOT AND PUSH2 0x100 DUP4 PUSH1 0x9 DUP2 GT ISZERO PUSH2 0x4C0 JUMPI PUSH4 0x4E487B71 PUSH1 0xE0 SHL PUSH1 0x0 MSTORE PUSH1 0x21 PUSH1 0x4 MSTORE PUSH1 0x24 PUSH1 0x0 REVERT JUMPDEST MUL OR SWAP1 SSTORE POP PUSH32 0x18EB935F7F2021FE24AFB4ED719D3C4B0033938B38FF1A1A483EC44545B63677 DUP2 CALLER TIMESTAMP PUSH1 0x40 MLOAD PUSH2 0x4F8 SWAP4 SWAP3 SWAP2 SWAP1 PUSH2 0x1009 JUMP JUMPDEST PUSH1 0x40 MLOAD DUP1 SWAP2 SUB SWAP1 LOG1 POP POP POP POP POP POP POP JUMP JUMPDEST PUSH1 0x0 PUSH1 0x20 DUP2 DUP2 MSTORE SWAP3 DUP2 MSTORE PUSH1 0x40 SWAP1 KECCAK256 DUP2 MLOAD DUP1 DUP4 ADD DUP5 ADD DUP1 MLOAD SWAP3 DUP2 MSTORE SWAP1 DUP5 ADD SWAP3 SWAP1 SWAP4 ADD SWAP2 SWAP1 SWAP2 KECCAK256 SWAP2 MSTORE DUP1 SLOAD PUSH1 0x1 DUP3 ADD SLOAD PUSH1 0x2 DUP4 ADD SLOAD PUSH1 0x3 DUP5 ADD DUP1 SLOAD PUSH1 0x1 PUSH1 0x1 PUSH1 0xA0 SHL SUB SWAP1 SWAP5 AND SWAP5 SWAP3 SWAP4 SWAP2 SWAP3 SWAP2 PUSH2 0x55C SWAP1 PUSH2 0x1128 JUMP JUMPDEST DUP1 PUSH1 0x1F ADD PUSH1 0x20 DUP1 SWAP2 DIV MUL PUSH1 0x20 ADD PUSH1 0x40 MLOAD SWAP1 DUP2 ADD PUSH1 0x40 MSTORE DUP1 SWAP3 SWAP2 SWAP1 DUP2 DUP2 MSTORE PUSH1 0x20 ADD DUP3 DUP1 SLOAD PUSH2 0x588 SWAP1 PUSH2 0x1128 JUMP JUMPDEST DUP1 ISZERO PUSH2 0x5D5 JUMPI DUP1 PUSH1 0x1F LT PUSH2 0x5AA JUMPI PUSH2 0x100 DUP1 DUP4 SLOAD DIV MUL DUP4 MSTORE SWAP2 PUSH1 0x20 ADD SWAP2 PUSH2 0x5D5 JUMP JUMPDEST DUP3 ADD SWAP2 SWAP1 PUSH1 0x0 MSTORE PUSH1 0x20 PUSH1 0x0 KECCAK256 SWAP1 JUMPDEST DUP2 SLOAD DUP2 MSTORE SWAP1 PUSH1 0x1 ADD SWAP1 PUSH1 0x20 ADD DUP1 DUP4 GT PUSH2 0x5B8 JUMPI DUP3 SWAP1 SUB PUSH1 0x1F AND DUP3 ADD SWAP2 JUMPDEST POP POP POP POP POP SWAP1 DUP1 PUSH1 0x4 ADD DUP1 SLOAD PUSH2 0x5EA SWAP1 PUSH2 0x1128 JUMP JUMPDEST DUP1 PUSH1 0x1F ADD PUSH1 0x20 DUP1 SWAP2 DIV MUL PUSH1 0x20 ADD PUSH1 0x40 MLOAD SWAP1 DUP2 ADD PUSH1 0x40 MSTORE DUP1 SWAP3 SWAP2 SWAP1 DUP2 DUP2 MSTORE PUSH1 0x20 ADD DUP3 DUP1 SLOAD PUSH2 0x616 SWAP1 PUSH2 0x1128 JUMP JUMPDEST DUP1 ISZERO PUSH2 0x663 JUMPI DUP1 PUSH1 0x1F LT PUSH2 0x638 JUMPI PUSH2 0x100 DUP1 DUP4 SLOAD DIV MUL DUP4 MSTORE SWAP2 PUSH1 0x20 ADD SWAP2 PUSH2 0x663 JUMP JUMPDEST DUP3 ADD SWAP2 SWAP1 PUSH1 0x0 MSTORE PUSH1 0x20 PUSH1 0x0 KECCAK256 SWAP1 JUMPDEST DUP2 SLOAD DUP2 MSTORE SWAP1 PUSH1 0x1 ADD SWAP1 PUSH1 0x20 ADD DUP1 DUP4 GT PUSH2 0x646 JUMPI DUP3 SWAP1 SUB PUSH1 0x1F AND DUP3 ADD SWAP2 JUMPDEST POP POP POP POP POP SWAP1 DUP1 PUSH1 0x5 ADD DUP1 SLOAD PUSH2 0x678 SWAP1 PUSH2 0x1128 JUMP JUMPDEST DUP1 PUSH1 0x1F ADD PUSH1 0x20 DUP1 SWAP2 DIV MUL PUSH1 0x20 ADD PUSH1 0x40 MLOAD SWAP1 DUP2 ADD PUSH1 0x40 MSTORE DUP1 SWAP3 SWAP2 SWAP1 DUP2 DUP2 MSTORE PUSH1 0x20 ADD DUP3 DUP1 SLOAD PUSH2 0x6A4 SWAP1 PUSH2 0x1128 JUMP JUMPDEST DUP1 ISZERO PUSH2 0x6F1 JUMPI DUP1 PUSH1 0x1F LT PUSH2 0x6C6 JUMPI PUSH2 0x100 DUP1 DUP4 SLOAD DIV MUL DUP4 MSTORE SWAP2 PUSH1 0x20 ADD SWAP2 PUSH2 0x6F1 JUMP JUMPDEST DUP3 ADD SWAP2 SWAP1 PUSH1 0x0 MSTORE PUSH1 0x20 PUSH1 0x0 KECCAK256 SWAP1 JUMPDEST DUP2 SLOAD DUP2 MSTORE SWAP1 PUSH1 0x1 ADD SWAP1 PUSH1 0x20 ADD DUP1 DUP4 GT PUSH2 0x6D4 JUMPI DUP3 SWAP1 SUB PUSH1 0x1F AND DUP3 ADD SWAP2 JUMPDEST POP POP POP POP POP SWAP1 DUP1 PUSH1 0x6 ADD DUP1 SLOAD PUSH2 0x706 SWAP1 PUSH2 0x1128 JUMP JUMPDEST DUP1 PUSH1 0x1F ADD PUSH1 0x20 DUP1 SWAP2 DIV MUL PUSH1 0x20 ADD PUSH1 0x40 MLOAD SWAP1 DUP2 ADD PUSH1 0x40 MSTORE DUP1 SWAP3 SWAP2 SWAP1 DUP2 DUP2 MSTORE PUSH1 0x20 ADD DUP3 DUP1 SLOAD PUSH2 0x732 SWAP1 PUSH2 0x1128 JUMP JUMPDEST DUP1 ISZERO PUSH2 0x77F JUMPI DUP1 PUSH1 0x1F LT PUSH2 0x754 JUMPI PUSH2 0x100 DUP1 DUP4 SLOAD DIV MUL DUP4 MSTORE SWAP2 PUSH1 0x20 ADD SWAP2 PUSH2 0x77F JUMP JUMPDEST DUP3 ADD SWAP2 SWAP1 PUSH1 0x0 MSTORE PUSH1 0x20 PUSH1 0x0 KECCAK256 SWAP1 JUMPDEST DUP2 SLOAD DUP2 MSTORE SWAP1 PUSH1 0x1 ADD SWAP1 PUSH1 0x20 ADD DUP1 DUP4 GT PUSH2 0x762 JUMPI DUP3 SWAP1 SUB PUSH1 0x1F AND DUP3 ADD SWAP2 JUMPDEST POP POP POP POP POP SWAP1 DUP1 PUSH1 0x7 ADD DUP1 SLOAD PUSH2 0x794 SWAP1 PUSH2 0x1128 JUMP JUMPDEST DUP1 PUSH1 0x1F ADD PUSH1 0x20 DUP1 SWAP2 DIV MUL PUSH1 0x20 ADD PUSH1 0x40 MLOAD SWAP1 DUP2 ADD PUSH1 0x40 MSTORE DUP1 SWAP3 SWAP2 SWAP1 DUP2 DUP2 MSTORE PUSH1 0x20 ADD DUP3 DUP1 SLOAD PUSH2 0x7C0 SWAP1 PUSH2 0x1128 JUMP JUMPDEST DUP1 ISZERO PUSH2 0x80D JUMPI DUP1 PUSH1 0x1F LT PUSH2 0x7E2 JUMPI PUSH2 0x100 DUP1 DUP4 SLOAD DIV MUL DUP4 MSTORE SWAP2 PUSH1 0x20 ADD SWAP2 PUSH2 0x80D JUMP JUMPDEST DUP3 ADD SWAP2 SWAP1 PUSH1 0x0 MSTORE PUSH1 0x20 PUSH1 0x0 KECCAK256 SWAP1 JUMPDEST DUP2 SLOAD DUP2 MSTORE SWAP1 PUSH1 0x1 ADD SWAP1 PUSH1 0x20 ADD DUP1 DUP4 GT PUSH2 0x7F0 JUMPI DUP3 SWAP1 SUB PUSH1 0x1F AND DUP3 ADD SWAP2 JUMPDEST POP POP POP PUSH1 0x8 SWAP1 SWAP4 ADD SLOAD SWAP2 SWAP3 POP POP PUSH1 0xFF DUP1 DUP3 AND SWAP2 PUSH2 0x100 DUP2 DIV DUP3 AND SWAP2 PUSH3 0x10000 SWAP1 SWAP2 DIV AND DUP12 JUMP JUMPDEST PUSH1 0x0 PUSH2 0x841 DUP7 DUP9 DUP8 DUP8 PUSH2 0x971 JUMP JUMPDEST SWAP1 POP PUSH1 0x0 DUP1 DUP5 DUP2 MSTORE PUSH1 0x20 ADD SWAP1 DUP2 MSTORE PUSH1 0x20 ADD PUSH1 0x0 KECCAK256 DUP2 PUSH1 0x40 MLOAD PUSH2 0x863 SWAP2 SWAP1 PUSH2 0xE44 JUMP JUMPDEST SWAP1 DUP2 MSTORE PUSH1 0x40 MLOAD PUSH1 0x20 SWAP2 DUP2 SWAP1 SUB SWAP2 SWAP1 SWAP2 ADD SWAP1 KECCAK256 PUSH1 0x8 ADD SLOAD PUSH3 0x10000 SWAP1 DIV PUSH1 0xFF AND ISZERO ISZERO PUSH1 0x1 EQ PUSH2 0x8DE JUMPI PUSH1 0x40 MLOAD PUSH3 0x461BCD PUSH1 0xE5 SHL DUP2 MSTORE PUSH1 0x20 PUSH1 0x4 DUP3 ADD MSTORE PUSH1 0x22 PUSH1 0x24 DUP3 ADD MSTORE PUSH32 0x4552524F523A4644432D5544432D30313A545249505F554E5245474953544552 PUSH1 0x44 DUP3 ADD MSTORE PUSH2 0x1151 PUSH1 0xF2 SHL PUSH1 0x64 DUP3 ADD MSTORE PUSH1 0x84 ADD PUSH2 0x155 JUMP JUMPDEST DUP2 PUSH1 0x0 DUP1 DUP6 DUP2 MSTORE PUSH1 0x20 ADD SWAP1 DUP2 MSTORE PUSH1 0x20 ADD PUSH1 0x0 KECCAK256 DUP3 PUSH1 0x40 MLOAD PUSH2 0x8FF SWAP2 SWAP1 PUSH2 0xE44 JUMP JUMPDEST SWAP1 DUP2 MSTORE PUSH1 0x40 MLOAD SWAP1 DUP2 SWAP1 SUB PUSH1 0x20 ADD SWAP1 KECCAK256 PUSH1 0x8 ADD DUP1 SLOAD PUSH1 0xFF NOT AND PUSH1 0x1 DUP4 PUSH1 0x2 DUP2 GT ISZERO PUSH2 0x939 JUMPI PUSH4 0x4E487B71 PUSH1 0xE0 SHL PUSH1 0x0 MSTORE PUSH1 0x21 PUSH1 0x4 MSTORE PUSH1 0x24 PUSH1 0x0 REVERT JUMPDEST MUL OR SWAP1 SSTORE POP PUSH32 0x18EB935F7F2021FE24AFB4ED719D3C4B0033938B38FF1A1A483EC44545B63677 DUP2 CALLER TIMESTAMP PUSH1 0x40 MLOAD PUSH2 0x4F8 SWAP4 SWAP3 SWAP2 SWAP1 PUSH2 0x1081 JUMP JUMPDEST PUSH1 0x60 DUP5 DUP5 DUP5 DUP5 PUSH1 0x40 MLOAD PUSH1 0x20 ADD PUSH2 0x98A SWAP5 SWAP4 SWAP3 SWAP2 SWAP1 PUSH2 0xE60 JUMP JUMPDEST PUSH1 0x40 MLOAD PUSH1 0x20 DUP2 DUP4 SUB SUB DUP2 MSTORE SWAP1 PUSH1 0x40 MSTORE SWAP1 POP SWAP5 SWAP4 POP POP POP POP JUMP JUMPDEST DUP3 DUP1 SLOAD PUSH2 0x9AF SWAP1 PUSH2 0x1128 JUMP JUMPDEST SWAP1 PUSH1 0x0 MSTORE PUSH1 0x20 PUSH1 0x0 KECCAK256 SWAP1 PUSH1 0x1F ADD PUSH1 0x20 SWAP1 DIV DUP2 ADD SWAP3 DUP3 PUSH2 0x9D1 JUMPI PUSH1 0x0 DUP6 SSTORE PUSH2 0xA17 JUMP JUMPDEST DUP3 PUSH1 0x1F LT PUSH2 0x9EA JUMPI DUP1 MLOAD PUSH1 0xFF NOT AND DUP4 DUP1 ADD OR DUP6 SSTORE PUSH2 0xA17 JUMP JUMPDEST DUP3 DUP1 ADD PUSH1 0x1 ADD DUP6 SSTORE DUP3 ISZERO PUSH2 0xA17 JUMPI SWAP2 DUP3 ADD JUMPDEST DUP3 DUP2 GT ISZERO PUSH2 0xA17 JUMPI DUP3 MLOAD DUP3 SSTORE SWAP2 PUSH1 0x20 ADD SWAP2 SWAP1 PUSH1 0x1 ADD SWAP1 PUSH2 0x9FC JUMP JUMPDEST POP PUSH2 0xA23 SWAP3 SWAP2 POP PUSH2 0xA27 JUMP JUMPDEST POP SWAP1 JUMP JUMPDEST JUMPDEST DUP1 DUP3 GT ISZERO PUSH2 0xA23 JUMPI PUSH1 0x0 DUP2 SSTORE PUSH1 0x1 ADD PUSH2 0xA28 JUMP JUMPDEST PUSH1 0x0 PUSH8 0xFFFFFFFFFFFFFFFF DUP1 DUP5 GT ISZERO PUSH2 0xA57 JUMPI PUSH2 0xA57 PUSH2 0x1179 JUMP JUMPDEST PUSH1 0x40 MLOAD PUSH1 0x1F DUP6 ADD PUSH1 0x1F NOT SWAP1 DUP2 AND PUSH1 0x3F ADD AND DUP2 ADD SWAP1 DUP3 DUP3 GT DUP2 DUP4 LT OR ISZERO PUSH2 0xA7F JUMPI PUSH2 0xA7F PUSH2 0x1179 JUMP JUMPDEST DUP2 PUSH1 0x40 MSTORE DUP1 SWAP4 POP DUP6 DUP2 MSTORE DUP7 DUP7 DUP7 ADD GT ISZERO PUSH2 0xA98 JUMPI PUSH1 0x0 DUP1 REVERT JUMPDEST DUP6 DUP6 PUSH1 0x20 DUP4 ADD CALLDATACOPY PUSH1 0x0 PUSH1 0x20 DUP8 DUP4 ADD ADD MSTORE POP POP POP SWAP4 SWAP3 POP POP POP JUMP JUMPDEST DUP1 CALLDATALOAD PUSH1 0x1 PUSH1 0x1 PUSH1 0xA0 SHL SUB DUP2 AND DUP2 EQ PUSH2 0xAC9 JUMPI PUSH1 0x0 DUP1 REVERT JUMPDEST SWAP2 SWAP1 POP JUMP JUMPDEST DUP1 CALLDATALOAD PUSH1 0x3 DUP2 LT PUSH2 0xAC9 JUMPI PUSH1 0x0 DUP1 REVERT JUMPDEST DUP1 CALLDATALOAD PUSH1 0xA DUP2 LT PUSH2 0xAC9 JUMPI PUSH1 0x0 DUP1 REVERT JUMPDEST PUSH1 0x0 DUP3 PUSH1 0x1F DUP4 ADD SLT PUSH2 0xAFC JUMPI DUP1 DUP2 REVERT JUMPDEST PUSH2 0xB0B DUP4 DUP4 CALLDATALOAD PUSH1 0x20 DUP6 ADD PUSH2 0xA3C JUMP JUMPDEST SWAP4 SWAP3 POP POP POP JUMP JUMPDEST PUSH1 0x0 DUP1 PUSH1 0x0 DUP1 PUSH1 0x0 DUP1 PUSH1 0x0 DUP1 PUSH1 0x0 DUP1 PUSH1 0x0 PUSH2 0x160 DUP13 DUP15 SUB SLT ISZERO PUSH2 0xB33 JUMPI DUP7 DUP8 REVERT JUMPDEST PUSH2 0xB3C DUP13 PUSH2 0xAB2 JUMP JUMPDEST SWAP11 POP PUSH8 0xFFFFFFFFFFFFFFFF DUP1 PUSH1 0x20 DUP15 ADD CALLDATALOAD GT ISZERO PUSH2 0xB57 JUMPI DUP8 DUP9 REVERT JUMPDEST PUSH2 0xB67 DUP15 PUSH1 0x20 DUP16 ADD CALLDATALOAD DUP16 ADD PUSH2 0xAEC JUMP JUMPDEST SWAP11 POP DUP1 PUSH1 0x40 DUP15 ADD CALLDATALOAD GT ISZERO PUSH2 0xB79 JUMPI DUP8 DUP9 REVERT JUMPDEST PUSH2 0xB89 DUP15 PUSH1 0x40 DUP16 ADD CALLDATALOAD DUP16 ADD PUSH2 0xAEC JUMP JUMPDEST SWAP10 POP DUP1 PUSH1 0x60 DUP15 ADD CALLDATALOAD GT ISZERO PUSH2 0xB9B JUMPI DUP8 DUP9 REVERT JUMPDEST PUSH2 0xBAB DUP15 PUSH1 0x60 DUP16 ADD CALLDATALOAD DUP16 ADD PUSH2 0xAEC JUMP JUMPDEST SWAP9 POP DUP1 PUSH1 0x80 DUP15 ADD CALLDATALOAD GT ISZERO PUSH2 0xBBD JUMPI DUP8 DUP9 REVERT JUMPDEST PUSH2 0xBCD DUP15 PUSH1 0x80 DUP16 ADD CALLDATALOAD DUP16 ADD PUSH2 0xAEC JUMP JUMPDEST SWAP8 POP DUP1 PUSH1 0xA0 DUP15 ADD CALLDATALOAD GT ISZERO PUSH2 0xBDF JUMPI DUP7 DUP8 REVERT JUMPDEST POP PUSH2 0xBF0 DUP14 PUSH1 0xA0 DUP15 ADD CALLDATALOAD DUP15 ADD PUSH2 0xAEC JUMP JUMPDEST SWAP6 POP PUSH1 0xC0 DUP13 ADD CALLDATALOAD SWAP5 POP PUSH1 0xE0 DUP13 ADD CALLDATALOAD SWAP4 POP PUSH2 0x100 DUP13 ADD CALLDATALOAD SWAP3 POP PUSH2 0xC15 PUSH2 0x120 DUP14 ADD PUSH2 0xACE JUMP JUMPDEST SWAP2 POP PUSH2 0xC24 PUSH2 0x140 DUP14 ADD PUSH2 0xADD JUMP JUMPDEST SWAP1 POP SWAP3 SWAP6 SWAP9 SWAP12 POP SWAP3 SWAP6 SWAP9 SWAP12 SWAP1 SWAP4 SWAP7 SWAP10 POP JUMP JUMPDEST PUSH1 0x0 DUP1 PUSH1 0x0 DUP1 PUSH1 0x0 DUP1 PUSH1 0xC0 DUP8 DUP10 SUB SLT ISZERO PUSH2 0xC4E JUMPI DUP2 DUP3 REVERT JUMPDEST DUP7 CALLDATALOAD PUSH8 0xFFFFFFFFFFFFFFFF DUP1 DUP3 GT ISZERO PUSH2 0xC65 JUMPI DUP4 DUP5 REVERT JUMPDEST PUSH2 0xC71 DUP11 DUP4 DUP12 ADD PUSH2 0xAEC JUMP JUMPDEST SWAP8 POP PUSH1 0x20 DUP10 ADD CALLDATALOAD SWAP2 POP DUP1 DUP3 GT ISZERO PUSH2 0xC86 JUMPI DUP4 DUP5 REVERT JUMPDEST PUSH2 0xC92 DUP11 DUP4 DUP12 ADD PUSH2 0xAEC JUMP JUMPDEST SWAP7 POP PUSH1 0x40 DUP10 ADD CALLDATALOAD SWAP2 POP DUP1 DUP3 GT ISZERO PUSH2 0xCA7 JUMPI DUP4 DUP5 REVERT JUMPDEST PUSH2 0xCB3 DUP11 DUP4 DUP12 ADD PUSH2 0xAEC JUMP JUMPDEST SWAP6 POP PUSH1 0x60 DUP10 ADD CALLDATALOAD SWAP2 POP DUP1 DUP3 GT ISZERO PUSH2 0xCC8 JUMPI DUP4 DUP5 REVERT JUMPDEST POP PUSH2 0xCD5 DUP10 DUP3 DUP11 ADD PUSH2 0xAEC JUMP JUMPDEST SWAP4 POP POP PUSH1 0x80 DUP8 ADD CALLDATALOAD SWAP2 POP PUSH2 0xCEB PUSH1 0xA0 DUP9 ADD PUSH2 0xACE JUMP JUMPDEST SWAP1 POP SWAP3 SWAP6 POP SWAP3 SWAP6 POP SWAP3 SWAP6 JUMP JUMPDEST PUSH1 0x0 DUP1 PUSH1 0x0 DUP1 PUSH1 0x0 DUP1 PUSH1 0xC0 DUP8 DUP10 SUB SLT ISZERO PUSH2 0xD0F JUMPI DUP2 DUP3 REVERT JUMPDEST DUP7 CALLDATALOAD PUSH8 0xFFFFFFFFFFFFFFFF DUP1 DUP3 GT ISZERO PUSH2 0xD26 JUMPI DUP4 DUP5 REVERT JUMPDEST PUSH2 0xD32 DUP11 DUP4 DUP12 ADD PUSH2 0xAEC JUMP JUMPDEST SWAP8 POP PUSH1 0x20 DUP10 ADD CALLDATALOAD SWAP2 POP DUP1 DUP3 GT ISZERO PUSH2 0xD47 JUMPI DUP4 DUP5 REVERT JUMPDEST PUSH2 0xD53 DUP11 DUP4 DUP12 ADD PUSH2 0xAEC JUMP JUMPDEST SWAP7 POP PUSH1 0x40 DUP10 ADD CALLDATALOAD SWAP2 POP DUP1 DUP3 GT ISZERO PUSH2 0xD68 JUMPI DUP4 DUP5 REVERT JUMPDEST PUSH2 0xD74 DUP11 DUP4 DUP12 ADD PUSH2 0xAEC JUMP JUMPDEST SWAP6 POP PUSH1 0x60 DUP10 ADD CALLDATALOAD SWAP2 POP DUP1 DUP3 GT ISZERO PUSH2 0xD89 JUMPI DUP4 DUP5 REVERT JUMPDEST POP PUSH2 0xD96 DUP10 DUP3 DUP11 ADD PUSH2 0xAEC JUMP JUMPDEST SWAP4 POP POP PUSH1 0x80 DUP8 ADD CALLDATALOAD SWAP2 POP PUSH2 0xCEB PUSH1 0xA0 DUP9 ADD PUSH2 0xADD JUMP JUMPDEST PUSH1 0x0 DUP1 PUSH1 0x40 DUP4 DUP6 SUB SLT ISZERO PUSH2 0xDBE JUMPI DUP2 DUP3 REVERT JUMPDEST DUP3 CALLDATALOAD SWAP2 POP PUSH1 0x20 DUP4 ADD CALLDATALOAD PUSH8 0xFFFFFFFFFFFFFFFF DUP2 GT ISZERO PUSH2 0xDDB JUMPI DUP2 DUP3 REVERT JUMPDEST DUP4 ADD PUSH1 0x1F DUP2 ADD DUP6 SGT PUSH2 0xDEB JUMPI DUP2 DUP3 REVERT JUMPDEST PUSH2 0xDFA DUP6 DUP3 CALLDATALOAD PUSH1 0x20 DUP5 ADD PUSH2 0xA3C JUMP JUMPDEST SWAP2 POP POP SWAP3 POP SWAP3 SWAP1 POP JUMP JUMPDEST PUSH1 0x0 DUP2 MLOAD DUP1 DUP5 MSTORE PUSH2 0xE1C DUP2 PUSH1 0x20 DUP7 ADD PUSH1 0x20 DUP7 ADD PUSH2 0x10F8 JUMP JUMPDEST PUSH1 0x1F ADD PUSH1 0x1F NOT AND SWAP3 SWAP1 SWAP3 ADD PUSH1 0x20 ADD SWAP3 SWAP2 POP POP JUMP JUMPDEST PUSH1 0xA DUP2 LT PUSH2 0xE40 JUMPI PUSH2 0xE40 PUSH2 0x1163 JUMP JUMPDEST SWAP1 MSTORE JUMP JUMPDEST PUSH1 0x0 DUP3 MLOAD PUSH2 0xE56 DUP2 DUP5 PUSH1 0x20 DUP8 ADD PUSH2 0x10F8 JUMP JUMPDEST SWAP2 SWAP1 SWAP2 ADD SWAP3 SWAP2 POP POP JUMP JUMPDEST PUSH4 0x4644432D PUSH1 0xE0 SHL DUP2 MSTORE PUSH1 0x0 DUP6 MLOAD PUSH2 0xE7F DUP2 PUSH1 0x4 DUP6 ADD PUSH1 0x20 DUP11 ADD PUSH2 0x10F8 JUMP JUMPDEST DUP6 MLOAD SWAP1 DUP4 ADD SWAP1 PUSH2 0xE96 DUP2 PUSH1 0x4 DUP5 ADD PUSH1 0x20 DUP11 ADD PUSH2 0x10F8 JUMP JUMPDEST DUP6 MLOAD SWAP2 ADD SWAP1 PUSH2 0xEAC DUP2 PUSH1 0x4 DUP5 ADD PUSH1 0x20 DUP10 ADD PUSH2 0x10F8 JUMP JUMPDEST DUP5 MLOAD SWAP2 ADD SWAP1 PUSH2 0xEC2 DUP2 PUSH1 0x4 DUP5 ADD PUSH1 0x20 DUP9 ADD PUSH2 0x10F8 JUMP JUMPDEST ADD PUSH1 0x4 ADD SWAP7 SWAP6 POP POP POP POP POP POP JUMP JUMPDEST PUSH1 0x0 PUSH2 0x160 PUSH1 0x1 DUP1 PUSH1 0xA0 SHL SUB DUP15 AND DUP4 MSTORE DUP13 PUSH1 0x20 DUP5 ADD MSTORE DUP12 PUSH1 0x40 DUP5 ADD MSTORE DUP1 PUSH1 0x60 DUP5 ADD MSTORE PUSH2 0xEFE DUP2 DUP5 ADD DUP13 PUSH2 0xE04 JUMP JUMPDEST SWAP1 POP DUP3 DUP2 SUB PUSH1 0x80 DUP5 ADD MSTORE PUSH2 0xF12 DUP2 DUP12 PUSH2 0xE04 JUMP JUMPDEST SWAP1 POP DUP3 DUP2 SUB PUSH1 0xA0 DUP5 ADD MSTORE PUSH2 0xF26 DUP2 DUP11 PUSH2 0xE04 JUMP JUMPDEST SWAP1 POP DUP3 DUP2 SUB PUSH1 0xC0 DUP5 ADD MSTORE PUSH2 0xF3A DUP2 DUP10 PUSH2 0xE04 JUMP JUMPDEST SWAP1 POP DUP3 DUP2 SUB PUSH1 0xE0 DUP5 ADD MSTORE PUSH2 0xF4E DUP2 DUP9 PUSH2 0xE04 JUMP JUMPDEST SWAP2 POP POP PUSH1 0x3 DUP6 LT PUSH2 0xF61 JUMPI PUSH2 0xF61 PUSH2 0x1163 JUMP JUMPDEST DUP5 PUSH2 0x100 DUP4 ADD MSTORE PUSH2 0xF76 PUSH2 0x120 DUP4 ADD DUP6 PUSH2 0xE30 JUMP JUMPDEST DUP3 ISZERO ISZERO PUSH2 0x140 DUP4 ADD MSTORE SWAP13 SWAP12 POP POP POP POP POP POP POP POP POP POP POP POP JUMP JUMPDEST PUSH1 0x80 DUP2 MSTORE PUSH1 0x0 PUSH2 0xFA2 PUSH1 0x80 DUP4 ADD DUP7 PUSH2 0xE04 JUMP JUMPDEST DUP3 DUP2 SUB PUSH1 0x20 DUP5 ADD MSTORE PUSH1 0x29 DUP2 MSTORE PUSH32 0x50617373656E67657220436F6D70656E736174696F6E2044657461696C732052 PUSH1 0x20 DUP3 ADD MSTORE PUSH9 0x1959DA5CDD195C9959 PUSH1 0xBA SHL PUSH1 0x40 DUP3 ADD MSTORE PUSH1 0x60 DUP2 ADD SWAP2 POP POP PUSH1 0x1 DUP1 PUSH1 0xA0 SHL SUB DUP5 AND PUSH1 0x40 DUP4 ADD MSTORE DUP3 PUSH1 0x60 DUP4 ADD MSTORE SWAP5 SWAP4 POP POP POP POP JUMP JUMPDEST PUSH1 0x80 DUP2 MSTORE PUSH1 0x0 PUSH2 0x101C PUSH1 0x80 DUP4 ADD DUP7 PUSH2 0xE04 JUMP JUMPDEST DUP3 DUP2 SUB PUSH1 0x20 DUP5 ADD MSTORE PUSH1 0x27 DUP2 MSTORE PUSH32 0x50617373656E67657220466C69676874205374617475732044657461696C7320 PUSH1 0x20 DUP3 ADD MSTORE PUSH7 0x155C19185D1959 PUSH1 0xCA SHL PUSH1 0x40 DUP3 ADD MSTORE PUSH1 0x60 DUP2 ADD SWAP2 POP POP PUSH1 0x1 DUP1 PUSH1 0xA0 SHL SUB DUP5 AND PUSH1 0x40 DUP4 ADD MSTORE DUP3 PUSH1 0x60 DUP4 ADD MSTORE SWAP5 SWAP4 POP POP POP POP JUMP JUMPDEST PUSH1 0x80 DUP2 MSTORE PUSH1 0x0 PUSH2 0x1094 PUSH1 0x80 DUP4 ADD DUP7 PUSH2 0xE04 JUMP JUMPDEST DUP3 DUP2 SUB PUSH1 0x20 DUP5 ADD MSTORE PUSH1 0x26 DUP2 MSTORE PUSH32 0x50617373656E67657220436F6D70656E736174696F6E2044657461696C732055 PUSH1 0x20 DUP3 ADD MSTORE PUSH6 0x1C19185D1959 PUSH1 0xD2 SHL PUSH1 0x40 DUP3 ADD MSTORE PUSH1 0x60 DUP2 ADD SWAP2 POP POP PUSH1 0x1 DUP1 PUSH1 0xA0 SHL SUB DUP5 AND PUSH1 0x40 DUP4 ADD MSTORE DUP3 PUSH1 0x60 DUP4 ADD MSTORE SWAP5 SWAP4 POP POP POP POP JUMP JUMPDEST PUSH1 0x0 JUMPDEST DUP4 DUP2 LT ISZERO PUSH2 0x1113 JUMPI DUP2 DUP2 ADD MLOAD DUP4 DUP3 ADD MSTORE PUSH1 0x20 ADD PUSH2 0x10FB JUMP JUMPDEST DUP4 DUP2 GT ISZERO PUSH2 0x1122 JUMPI PUSH1 0x0 DUP5 DUP5 ADD MSTORE JUMPDEST POP POP POP POP JUMP JUMPDEST PUSH1 0x1 DUP2 DUP2 SHR SWAP1 DUP3 AND DUP1 PUSH2 0x113C JUMPI PUSH1 0x7F DUP3 AND SWAP2 POP JUMPDEST PUSH1 0x20 DUP3 LT DUP2 EQ ISZERO PUSH2 0x115D JUMPI PUSH4 0x4E487B71 PUSH1 0xE0 SHL PUSH1 0x0 MSTORE PUSH1 0x22 PUSH1 0x4 MSTORE PUSH1 0x24 PUSH1 0x0 REVERT JUMPDEST POP SWAP2 SWAP1 POP JUMP JUMPDEST PUSH4 0x4E487B71 PUSH1 0xE0 SHL PUSH1 0x0 MSTORE PUSH1 0x21 PUSH1 0x4 MSTORE PUSH1 0x24 PUSH1 0x0 REVERT JUMPDEST PUSH4 0x4E487B71 PUSH1 0xE0 SHL PUSH1 0x0 MSTORE PUSH1 0x41 PUSH1 0x4 MSTORE PUSH1 0x24 PUSH1 0x0 REVERT INVALID LOG2 PUSH5 0x6970667358 0x22 SLT KECCAK256 0xD1 JUMPDEST LT 0xC4 0x26 PUSH26 0x43B94963B5BE514CE069254DD9C5227998622516F4CE96028109 PUSH5 0x736F6C6343 STOP ADDMOD DIV STOP CALLER "
		},
		"gasEstimates": {
			"creation": {
				"codeDepositCost": "909800",
				"executionCost": "948",
				"totalCost": "910748"
			},
			"external": {
				"delayCompensation(address,string,string,string,string,string,uint256,uint256,uint256,uint8,uint8)": "infinite",
				"delayCompensationFlightUpdate(string,string,string,string,uint256,uint8)": "infinite",
				"delayCompensationUpdate(string,string,string,string,uint256,uint8)": "infinite",
				"passenger(uint256,bytes)": "infinite"
			},
			"internal": {
				"getPassengerKey(string memory,string memory,string memory,string memory)": "infinite"
			}
		},
		"methodIdentifiers": {
			"delayCompensation(address,string,string,string,string,string,uint256,uint256,uint256,uint8,uint8)": "1a564931",
			"delayCompensationFlightUpdate(string,string,string,string,uint256,uint8)": "40fd5f68",
			"delayCompensationUpdate(string,string,string,string,uint256,uint8)": "e89e1e27",
			"passenger(uint256,bytes)": "95489f44"
		}
	},
	"abi": [
		{
			"anonymous": false,
			"inputs": [
				{
					"indexed": false,
					"internalType": "bytes",
					"name": "passengerKey",
					"type": "bytes"
				},
				{
					"indexed": false,
					"internalType": "string",
					"name": "eventType",
					"type": "string"
				},
				{
					"indexed": false,
					"internalType": "address",
					"name": "performedBy",
					"type": "address"
				},
				{
					"indexed": false,
					"internalType": "uint256",
					"name": "performedOn",
					"type": "uint256"
				}
			],
			"name": "CompensationEvents",
			"type": "event"
		},
		{
			"inputs": [
				{
					"internalType": "address",
					"name": "_passengerAddress",
					"type": "address"
				},
				{
					"internalType": "string",
					"name": "_passengerPnr",
					"type": "string"
				},
				{
					"internalType": "string",
					"name": "_airlineTag",
					"type": "string"
				},
				{
					"internalType": "string",
					"name": "_depDate",
					"type": "string"
				},
				{
					"internalType": "string",
					"name": "_arrDate",
					"type": "string"
				},
				{
					"internalType": "string",
					"name": "_kycHash",
					"type": "string"
				},
				{
					"internalType": "uint256",
					"name": "_flightNumber",
					"type": "uint256"
				},
				{
					"internalType": "uint256",
					"name": "_passengerRegNumber",
					"type": "uint256"
				},
				{
					"internalType": "uint256",
					"name": "_compAmt",
					"type": "uint256"
				},
				{
					"internalType": "enum FlightDelayCompensation.compensationStatus",
					"name": "_cs",
					"type": "uint8"
				},
				{
					"internalType": "enum FlightDelayCompensation.flightStatus",
					"name": "_fs",
					"type": "uint8"
				}
			],
			"name": "delayCompensation",
			"outputs": [],
			"stateMutability": "nonpayable",
			"type": "function"
		},
		{
			"inputs": [
				{
					"internalType": "string",
					"name": "_passengerPnr",
					"type": "string"
				},
				{
					"internalType": "string",
					"name": "_airlineTag",
					"type": "string"
				},
				{
					"internalType": "string",
					"name": "_depDate",
					"type": "string"
				},
				{
					"internalType": "string",
					"name": "_arrDate",
					"type": "string"
				},
				{
					"internalType": "uint256",
					"name": "_passengerRegNumber",
					"type": "uint256"
				},
				{
					"internalType": "enum FlightDelayCompensation.flightStatus",
					"name": "_fs",
					"type": "uint8"
				}
			],
			"name": "delayCompensationFlightUpdate",
			"outputs": [],
			"stateMutability": "nonpayable",
			"type": "function"
		},
		{
			"inputs": [
				{
					"internalType": "string",
					"name": "_passengerPnr",
					"type": "string"
				},
				{
					"internalType": "string",
					"name": "_airlineTag",
					"type": "string"
				},
				{
					"internalType": "string",
					"name": "_depDate",
					"type": "string"
				},
				{
					"internalType": "string",
					"name": "_arrDate",
					"type": "string"
				},
				{
					"internalType": "uint256",
					"name": "_passengerRegNumber",
					"type": "uint256"
				},
				{
					"internalType": "enum FlightDelayCompensation.compensationStatus",
					"name": "_cs",
					"type": "uint8"
				}
			],
			"name": "delayCompensationUpdate",
			"outputs": [],
			"stateMutability": "nonpayable",
			"type": "function"
		},
		{
			"inputs": [
				{
					"internalType": "uint256",
					"name": "",
					"type": "uint256"
				},
				{
					"internalType": "bytes",
					"name": "",
					"type": "bytes"
				}
			],
			"name": "passenger",
			"outputs": [
				{
					"internalType": "address",
					"name": "passengerAddress",
					"type": "address"
				},
				{
					"internalType": "uint256",
					"name": "compAmt",
					"type": "uint256"
				},
				{
					"internalType": "uint256",
					"name": "flightNumber",
					"type": "uint256"
				},
				{
					"internalType": "string",
					"name": "airlineTag",
					"type": "string"
				},
				{
					"internalType": "string",
					"name": "passengerPnr",
					"type": "string"
				},
				{
					"internalType": "string",
					"name": "depDate",
					"type": "string"
				},
				{
					"internalType": "string",
					"name": "arrDate",
					"type": "string"
				},
				{
					"internalType": "string",
					"name": "kycHash",
					"type": "string"
				},
				{
					"internalType": "enum FlightDelayCompensation.compensationStatus",
					"name": "compstatus",
					"type": "uint8"
				},
				{
					"internalType": "enum FlightDelayCompensation.flightStatus",
					"name": "flightstatus",
					"type": "uint8"
				},
				{
					"internalType": "bool",
					"name": "isExist",
					"type": "bool"
				}
			],
			"stateMutability": "view",
			"type": "function"
		}
	]
}